{
  "address": "0x9937b18B487cb82C76820b44A7C1AA70e766293d",
  "abi": [
    {
      "inputs": [
        {
          "internalType": "address",
          "name": "_pokerTokenAddress",
          "type": "address"
        }
      ],
      "stateMutability": "nonpayable",
      "type": "constructor"
    },
    {
      "anonymous": false,
      "inputs": [
        {
          "indexed": true,
          "internalType": "string",
          "name": "_coupon",
          "type": "string"
        },
        {
          "indexed": true,
          "internalType": "address",
          "name": "_address",
          "type": "address"
        },
        {
          "indexed": false,
          "internalType": "uint256",
          "name": "_tokensAmount",
          "type": "uint256"
        },
        {
          "indexed": false,
          "internalType": "uint256",
          "name": "_fundsAmount",
          "type": "uint256"
        }
      ],
      "name": "CouponRedeemed",
      "type": "event"
    },
    {
      "inputs": [],
      "name": "getRequestFundsAmount",
      "outputs": [
        {
          "internalType": "uint256",
          "name": "",
          "type": "uint256"
        }
      ],
      "stateMutability": "view",
      "type": "function"
    },
    {
      "inputs": [],
      "name": "getRequestTokensAmount",
      "outputs": [
        {
          "internalType": "uint256",
          "name": "",
          "type": "uint256"
        }
      ],
      "stateMutability": "view",
      "type": "function"
    },
    {
      "inputs": [],
      "name": "isSuspended",
      "outputs": [
        {
          "internalType": "bool",
          "name": "",
          "type": "bool"
        }
      ],
      "stateMutability": "view",
      "type": "function"
    },
    {
      "inputs": [
        {
          "internalType": "string",
          "name": "_coupon",
          "type": "string"
        },
        {
          "internalType": "address payable",
          "name": "_address",
          "type": "address"
        }
      ],
      "name": "redeemCoupon",
      "outputs": [],
      "stateMutability": "nonpayable",
      "type": "function"
    },
    {
      "inputs": [
        {
          "internalType": "bytes32",
          "name": "_couponHash",
          "type": "bytes32"
        }
      ],
      "name": "registerCoupon",
      "outputs": [],
      "stateMutability": "nonpayable",
      "type": "function"
    },
    {
      "inputs": [
        {
          "internalType": "address payable",
          "name": "_address",
          "type": "address"
        }
      ],
      "name": "requestFunds",
      "outputs": [],
      "stateMutability": "nonpayable",
      "type": "function"
    },
    {
      "inputs": [
        {
          "internalType": "address",
          "name": "_address",
          "type": "address"
        }
      ],
      "name": "requestTokens",
      "outputs": [],
      "stateMutability": "nonpayable",
      "type": "function"
    },
    {
      "inputs": [
        {
          "internalType": "uint256",
          "name": "_amount",
          "type": "uint256"
        }
      ],
      "name": "setRequestFundsAmount",
      "outputs": [],
      "stateMutability": "nonpayable",
      "type": "function"
    },
    {
      "inputs": [
        {
          "internalType": "uint256",
          "name": "_amount",
          "type": "uint256"
        }
      ],
      "name": "setRequestTokensAmount",
      "outputs": [],
      "stateMutability": "nonpayable",
      "type": "function"
    },
    {
      "inputs": [
        {
          "internalType": "bool",
          "name": "_suspended",
          "type": "bool"
        }
      ],
      "name": "setSuspended",
      "outputs": [],
      "stateMutability": "nonpayable",
      "type": "function"
    },
    {
      "stateMutability": "payable",
      "type": "receive"
    }
  ],
  "transactionHash": "0xc9a439bce474f130148ac84970ce43dc5f463c46973ce81adfe24366dea69fe8",
  "args": [
    "0x253aC655b7f7bB05c95811f617d4B9B78D3f5956"
  ],
  "solcInputHash": "e0dafdf13001a49462403419f60703c9",
  "bytecode": "0x60806040526103e86002556706f05b59d3b2000060035534801561002257600080fd5b5060405161123a38038061123a8339818101604052602081101561004557600080fd5b8101908080519060200190929190505050600073ffffffffffffffffffffffffffffffffffffffff168173ffffffffffffffffffffffffffffffffffffffff16141561009057600080fd5b806000806101000a81548173ffffffffffffffffffffffffffffffffffffffff021916908373ffffffffffffffffffffffffffffffffffffffff16021790555033600160006101000a81548173ffffffffffffffffffffffffffffffffffffffff021916908373ffffffffffffffffffffffffffffffffffffffff16021790555050611119806101216000396000f3fe6080604052600436106100955760003560e01c80637f5b1ba5116100595780637f5b1ba5146101e857806392b40a9514610213578063a1e433b81461023e578063ad3c195214610326578063ca69c20b146103615761009c565b80631d130935146100a15780631e99f5b0146100ce5780631f38acac1461010b578063544c7cf914610146578063580f3904146101975761009c565b3661009c57005b600080fd5b3480156100ad57600080fd5b506100b661039c565b60405180821515815260200191505060405180910390f35b3480156100da57600080fd5b50610109600480360360208110156100f157600080fd5b810190808035151590602001909291905050506103b3565b005b34801561011757600080fd5b506101446004803603602081101561012e57600080fd5b8101908080359060200190929190505050610476565b005b34801561015257600080fd5b506101956004803603602081101561016957600080fd5b81019080803573ffffffffffffffffffffffffffffffffffffffff169060200190929190505050610526565b005b3480156101a357600080fd5b506101e6600480360360208110156101ba57600080fd5b81019080803573ffffffffffffffffffffffffffffffffffffffff169060200190929190505050610690565b005b3480156101f457600080fd5b506101fd610941565b6040518082815260200191505060405180910390f35b34801561021f57600080fd5b5061022861094b565b6040518082815260200191505060405180910390f35b34801561024a57600080fd5b506103246004803603604081101561026157600080fd5b810190808035906020019064010000000081111561027e57600080fd5b82018360208201111561029057600080fd5b803590602001918460018302840111640100000000831117156102b257600080fd5b91908080601f016020809104026020016040519081016040528093929190818152602001838380828437600081840152601f19601f820116905080830192505050505050509192919290803573ffffffffffffffffffffffffffffffffffffffff169060200190929190505050610955565b005b34801561033257600080fd5b5061035f6004803603602081101561034957600080fd5b8101908080359060200190929190505050610ea3565b005b34801561036d57600080fd5b5061039a6004803603602081101561038457600080fd5b8101908080359060200190929190505050610f53565b005b6000600560009054906101000a900460ff16905090565b600160009054906101000a900473ffffffffffffffffffffffffffffffffffffffff1673ffffffffffffffffffffffffffffffffffffffff163373ffffffffffffffffffffffffffffffffffffffff1614610459576040517f08c379a00000000000000000000000000000000000000000000000000000000081526004018080602001828103825260218152602001806110c36021913960400191505060405180910390fd5b80600560006101000a81548160ff02191690831515021790555050565b600160009054906101000a900473ffffffffffffffffffffffffffffffffffffffff1673ffffffffffffffffffffffffffffffffffffffff163373ffffffffffffffffffffffffffffffffffffffff161461051c576040517f08c379a00000000000000000000000000000000000000000000000000000000081526004018080602001828103825260218152602001806110c36021913960400191505060405180910390fd5b8060028190555050565b600160009054906101000a900473ffffffffffffffffffffffffffffffffffffffff1673ffffffffffffffffffffffffffffffffffffffff163373ffffffffffffffffffffffffffffffffffffffff16146105cc576040517f08c379a00000000000000000000000000000000000000000000000000000000081526004018080602001828103825260218152602001806110c36021913960400191505060405180910390fd5b600354471015610644576040517f08c379a000000000000000000000000000000000000000000000000000000000815260040180806020018281038252601c8152602001807f496e73756666696369656e742066756e647320696e206661756365740000000081525060200191505060405180910390fd5b8073ffffffffffffffffffffffffffffffffffffffff166108fc6003549081150290604051600060405180830381858888f1935050505015801561068c573d6000803e3d6000fd5b5050565b600160009054906101000a900473ffffffffffffffffffffffffffffffffffffffff1673ffffffffffffffffffffffffffffffffffffffff163373ffffffffffffffffffffffffffffffffffffffff1614610736576040517f08c379a00000000000000000000000000000000000000000000000000000000081526004018080602001828103825260218152602001806110c36021913960400191505060405180910390fd5b60025460008054906101000a900473ffffffffffffffffffffffffffffffffffffffff1673ffffffffffffffffffffffffffffffffffffffff166370a08231306040518263ffffffff1660e01b8152600401808273ffffffffffffffffffffffffffffffffffffffff16815260200191505060206040518083038186803b1580156107c057600080fd5b505afa1580156107d4573d6000803e3d6000fd5b505050506040513d60208110156107ea57600080fd5b8101908080519060200190929190505050101561086f576040517f08c379a000000000000000000000000000000000000000000000000000000000815260040180806020018281038252601d8152602001807f496e73756666696369656e7420746f6b656e7320696e2066617563657400000081525060200191505060405180910390fd5b60008054906101000a900473ffffffffffffffffffffffffffffffffffffffff1673ffffffffffffffffffffffffffffffffffffffff1663a9059cbb826002546040518363ffffffff1660e01b8152600401808373ffffffffffffffffffffffffffffffffffffffff16815260200182815260200192505050602060405180830381600087803b15801561090257600080fd5b505af1158015610916573d6000803e3d6000fd5b505050506040513d602081101561092c57600080fd5b81019080805190602001909291905050505050565b6000600254905090565b6000600354905090565b60001515600560009054906101000a900460ff161515146109de576040517f08c379a00000000000000000000000000000000000000000000000000000000081526004018080602001828103825260138152602001807f4661756365742069732073757370656e6465640000000000000000000000000081525060200191505060405180910390fd5b6000826040516020018082805190602001908083835b60208310610a1757805182526020820191506020810190506020830392506109f4565b6001836020036101000a038019825116818451168082178552505050505050905001915050604051602081830303815290604052805190602001209050600115156004600083815260200190815260200160002060009054906101000a900460ff16151514610aee576040517f08c379a00000000000000000000000000000000000000000000000000000000081526004018080602001828103825260158152602001807f436f75706f6e206e6f742072656769737465726564000000000000000000000081525060200191505060405180910390fd5b60025460008054906101000a900473ffffffffffffffffffffffffffffffffffffffff1673ffffffffffffffffffffffffffffffffffffffff166370a08231306040518263ffffffff1660e01b8152600401808273ffffffffffffffffffffffffffffffffffffffff16815260200191505060206040518083038186803b158015610b7857600080fd5b505afa158015610b8c573d6000803e3d6000fd5b505050506040513d6020811015610ba257600080fd5b81019080805190602001909291905050501015610c27576040517f08c379a000000000000000000000000000000000000000000000000000000000815260040180806020018281038252601d8152602001807f496e73756666696369656e7420746f6b656e7320696e2066617563657400000081525060200191505060405180910390fd5b600354471015610c9f576040517f08c379a000000000000000000000000000000000000000000000000000000000815260040180806020018281038252601c8152602001807f496e73756666696369656e742066756e647320696e206661756365740000000081525060200191505060405180910390fd5b60008054906101000a900473ffffffffffffffffffffffffffffffffffffffff1673ffffffffffffffffffffffffffffffffffffffff1663a9059cbb836002546040518363ffffffff1660e01b8152600401808373ffffffffffffffffffffffffffffffffffffffff16815260200182815260200192505050602060405180830381600087803b158015610d3257600080fd5b505af1158015610d46573d6000803e3d6000fd5b505050506040513d6020811015610d5c57600080fd5b8101908080519060200190929190505050508173ffffffffffffffffffffffffffffffffffffffff166108fc6003549081150290604051600060405180830381858888f19350505050158015610db6573d6000803e3d6000fd5b5060006004600083815260200190815260200160002060006101000a81548160ff0219169083151502179055508173ffffffffffffffffffffffffffffffffffffffff16836040518082805190602001908083835b60208310610e2e5780518252602082019150602081019050602083039250610e0b565b6001836020036101000a03801982511681845116808217855250505050505090500191505060405180910390207f4707dcdd0c36b8337610f7d7989769ec3e2dde1cc4d30faa7205b74751847bbd600254600354604051808381526020018281526020019250505060405180910390a3505050565b600160009054906101000a900473ffffffffffffffffffffffffffffffffffffffff1673ffffffffffffffffffffffffffffffffffffffff163373ffffffffffffffffffffffffffffffffffffffff1614610f49576040517f08c379a00000000000000000000000000000000000000000000000000000000081526004018080602001828103825260218152602001806110c36021913960400191505060405180910390fd5b8060038190555050565b600160009054906101000a900473ffffffffffffffffffffffffffffffffffffffff1673ffffffffffffffffffffffffffffffffffffffff163373ffffffffffffffffffffffffffffffffffffffff1614610ff9576040517f08c379a00000000000000000000000000000000000000000000000000000000081526004018080602001828103825260218152602001806110c36021913960400191505060405180910390fd5b600015156004600083815260200190815260200160002060009054906101000a900460ff16151514611093576040517f08c379a00000000000000000000000000000000000000000000000000000000081526004018080602001828103825260198152602001807f436f75706f6e20616c726561647920726567697374657265640000000000000081525060200191505060405180910390fd5b60016004600083815260200190815260200160002060006101000a81548160ff0219169083151502179055505056fe4f6e6c7920666175636574206f776e65722063616e2063616c6c206d6574686f64a264697066735822122093e3ffc8d8f9bbf0b88093ce9cf6f60906c9084d96c47ce0e314c0012882638d64736f6c63430007040033",
  "devdoc": {
    "kind": "dev",
    "methods": {
      "constructor": {
        "params": {
          "_pokerTokenAddress": "address of the PokerToken ERC20 contract"
        }
      },
      "getRequestFundsAmount()": {
        "returns": {
          "_0": "the specified amount"
        }
      },
      "getRequestTokensAmount()": {
        "returns": {
          "_0": "the specified amount"
        }
      },
      "isSuspended()": {
        "returns": {
          "_0": "true if suspended, false otherwise"
        }
      },
      "redeemCoupon(string,address)": {
        "params": {
          "_address": "address to transfer tokens to",
          "_coupon": "coupon value, whose hash must have been previously registered by calling registerCoupon"
        }
      },
      "registerCoupon(bytes32)": {
        "params": {
          "_couponHash": "hash of the coupon to be registered"
        }
      },
      "requestFunds(address)": {
        "params": {
          "_address": "address to transfer funds to"
        }
      },
      "requestTokens(address)": {
        "params": {
          "_address": "address to transfer tokens to"
        }
      },
      "setRequestFundsAmount(uint256)": {
        "params": {
          "_amount": "the new amount specified"
        }
      },
      "setRequestTokensAmount(uint256)": {
        "params": {
          "_amount": "the new amount specified"
        }
      },
      "setSuspended(bool)": {
        "params": {
          "_suspended": "true if faucet is to be suspended, false otherwise"
        }
      }
    },
    "title": "PokerTokenFaucet",
    "version": 1
  },
  "userdoc": {
    "kind": "user",
    "methods": {
      "constructor": {
        "notice": "Constructor"
      },
      "getRequestFundsAmount()": {
        "notice": "Retrieves the currently specified amount to be transferred when requesting network funds (ETH)"
      },
      "getRequestTokensAmount()": {
        "notice": "Retrieves the currently specified amount to be transferred when requesting tokens"
      },
      "isSuspended()": {
        "notice": "Retrieves whether the faucet is currently suspended"
      },
      "redeemCoupon(string,address)": {
        "notice": "Redeems a coupon"
      },
      "registerCoupon(bytes32)": {
        "notice": "Registers a new coupon using its hash"
      },
      "requestFunds(address)": {
        "notice": "Requests the currently specified amount of network funds (ETH) for the specified address"
      },
      "requestTokens(address)": {
        "notice": "Requests the currently specified amount of tokens for the specified address"
      },
      "setRequestFundsAmount(uint256)": {
        "notice": "Specifies the amount to be transferred when requesting network funds (ETH)"
      },
      "setRequestTokensAmount(uint256)": {
        "notice": "Specifies the amount to be transferred when requesting tokens"
      },
      "setSuspended(bool)": {
        "notice": "Sets whether the faucet is currently suspended"
      }
    },
    "notice": "Contract for controling distribution of POKER tokens to the public",
    "version": 1
  },
  "storageLayout": {
    "storage": [
      {
        "astId": 2398,
        "contract": "contracts/PokerTokenFaucet.sol:PokerTokenFaucet",
        "label": "tokenInstance",
        "offset": 0,
        "slot": "0",
        "type": "t_contract(PokerToken)2392"
      },
      {
        "astId": 2400,
        "contract": "contracts/PokerTokenFaucet.sol:PokerTokenFaucet",
        "label": "owner",
        "offset": 0,
        "slot": "1",
        "type": "t_address"
      },
      {
        "astId": 2403,
        "contract": "contracts/PokerTokenFaucet.sol:PokerTokenFaucet",
        "label": "requestTokensAmount",
        "offset": 0,
        "slot": "2",
        "type": "t_uint256"
      },
      {
        "astId": 2406,
        "contract": "contracts/PokerTokenFaucet.sol:PokerTokenFaucet",
        "label": "requestFundsAmount",
        "offset": 0,
        "slot": "3",
        "type": "t_uint256"
      },
      {
        "astId": 2410,
        "contract": "contracts/PokerTokenFaucet.sol:PokerTokenFaucet",
        "label": "registeredCoupons",
        "offset": 0,
        "slot": "4",
        "type": "t_mapping(t_bytes32,t_bool)"
      },
      {
        "astId": 2412,
        "contract": "contracts/PokerTokenFaucet.sol:PokerTokenFaucet",
        "label": "suspended",
        "offset": 0,
        "slot": "5",
        "type": "t_bool"
      }
    ],
    "types": {
      "t_address": {
        "encoding": "inplace",
        "label": "address",
        "numberOfBytes": "20"
      },
      "t_bool": {
        "encoding": "inplace",
        "label": "bool",
        "numberOfBytes": "1"
      },
      "t_bytes32": {
        "encoding": "inplace",
        "label": "bytes32",
        "numberOfBytes": "32"
      },
      "t_contract(PokerToken)2392": {
        "encoding": "inplace",
        "label": "contract PokerToken",
        "numberOfBytes": "20"
      },
      "t_mapping(t_bytes32,t_bool)": {
        "encoding": "mapping",
        "key": "t_bytes32",
        "label": "mapping(bytes32 => bool)",
        "numberOfBytes": "32",
        "value": "t_bool"
      },
      "t_uint256": {
        "encoding": "inplace",
        "label": "uint256",
        "numberOfBytes": "32"
      }
    }
  }
}