{
  "address": "0x4498db60F657B017c76063551c521D23b0AfF4C4",
  "abi": [
    {
      "inputs": [
        {
          "internalType": "address",
          "name": "_allowedERC20Address",
          "type": "address"
        },
        {
          "internalType": "address",
          "name": "_turnBasedGameAddress",
          "type": "address"
        }
      ],
      "stateMutability": "nonpayable",
      "type": "constructor"
    },
    {
      "inputs": [],
      "name": "MAX_TOKEN_AMOUNT",
      "outputs": [
        {
          "internalType": "uint256",
          "name": "",
          "type": "uint256"
        }
      ],
      "stateMutability": "view",
      "type": "function"
    },
    {
      "inputs": [
        {
          "internalType": "bytes32",
          "name": "_gameTemplateHash",
          "type": "bytes32"
        },
        {
          "internalType": "bytes",
          "name": "_gameMetadata",
          "type": "bytes"
        },
        {
          "internalType": "address[]",
          "name": "_gameValidators",
          "type": "address[]"
        },
        {
          "internalType": "uint8",
          "name": "_gameNumPlayers",
          "type": "uint8"
        },
        {
          "internalType": "uint256",
          "name": "_gameMinFunds",
          "type": "uint256"
        },
        {
          "internalType": "address",
          "name": "_gameERC20Address",
          "type": "address"
        }
      ],
      "name": "getQueue",
      "outputs": [
        {
          "components": [
            {
              "internalType": "address",
              "name": "addr",
              "type": "address"
            },
            {
              "internalType": "uint256",
              "name": "funds",
              "type": "uint256"
            },
            {
              "internalType": "bytes",
              "name": "info",
              "type": "bytes"
            }
          ],
          "internalType": "struct TurnBasedGameLobby.QueuedPlayer[]",
          "name": "",
          "type": "tuple[]"
        }
      ],
      "stateMutability": "view",
      "type": "function"
    },
    {
      "inputs": [
        {
          "internalType": "bytes32",
          "name": "_gameTemplateHash",
          "type": "bytes32"
        },
        {
          "internalType": "bytes",
          "name": "_gameMetadata",
          "type": "bytes"
        },
        {
          "internalType": "address[]",
          "name": "_gameValidators",
          "type": "address[]"
        },
        {
          "internalType": "uint8",
          "name": "_gameNumPlayers",
          "type": "uint8"
        },
        {
          "internalType": "uint256",
          "name": "_gameMinFunds",
          "type": "uint256"
        },
        {
          "internalType": "address",
          "name": "_gameERC20Address",
          "type": "address"
        },
        {
          "internalType": "uint256",
          "name": "_playerFunds",
          "type": "uint256"
        },
        {
          "internalType": "bytes",
          "name": "_playerInfo",
          "type": "bytes"
        }
      ],
      "name": "joinGame",
      "outputs": [],
      "stateMutability": "nonpayable",
      "type": "function"
    },
    {
      "inputs": [
        {
          "internalType": "contract IERC20",
          "name": "_tokenProvider",
          "type": "address"
        },
        {
          "internalType": "address",
          "name": "_playerAddress",
          "type": "address"
        },
        {
          "internalType": "uint256",
          "name": "_playerFunds",
          "type": "uint256"
        }
      ],
      "name": "lockFunds",
      "outputs": [],
      "stateMutability": "nonpayable",
      "type": "function"
    }
  ],
  "transactionHash": "0xd654f9e431900e14fd2cd2aa1c182da90806e81a9abbebb19af1166be3a53daa",
  "args": [
    "0x253aC655b7f7bB05c95811f617d4B9B78D3f5956",
    "0xa77BadB7E952A3FF2f5B1597C5cE1241EA0094F8"
  ],
  "solcInputHash": "9682768dea776c4c337afaf366f4c424",
  "bytecode": "0x60806040523480156200001157600080fd5b5060405162001d5938038062001d598339818101604052810190620000379190620001c9565b816000806101000a81548173ffffffffffffffffffffffffffffffffffffffff021916908373ffffffffffffffffffffffffffffffffffffffff16021790555080600160006101000a81548173ffffffffffffffffffffffffffffffffffffffff021916908373ffffffffffffffffffffffffffffffffffffffff16021790555060008060009054906101000a900473ffffffffffffffffffffffffffffffffffffffff1690508073ffffffffffffffffffffffffffffffffffffffff1663095ea7b3837fffffffffffffffffffffffffffffffffffffffffffffffffffffffffffffffff6040518363ffffffff1660e01b81526004016200013b92919062000258565b602060405180830381600087803b1580156200015657600080fd5b505af11580156200016b573d6000803e3d6000fd5b505050506040513d601f19601f820116820180604052508101906200019191906200020a565b5050505062000303565b600081519050620001ac81620002cf565b92915050565b600081519050620001c381620002e9565b92915050565b60008060408385031215620001dd57600080fd5b6000620001ed858286016200019b565b925050602062000200858286016200019b565b9150509250929050565b6000602082840312156200021d57600080fd5b60006200022d84828501620001b2565b91505092915050565b620002418162000285565b82525050565b6200025281620002c5565b82525050565b60006040820190506200026f600083018562000236565b6200027e602083018462000247565b9392505050565b60006200029282620002a5565b9050919050565b60008115159050919050565b600073ffffffffffffffffffffffffffffffffffffffff82169050919050565b6000819050919050565b620002da8162000285565b8114620002e657600080fd5b50565b620002f48162000299565b81146200030057600080fd5b50565b611a4680620003136000396000f3fe608060405234801561001057600080fd5b506004361061004c5760003560e01c80631e9c2d67146100515780635dfe785f1461006f578063a94d24151461008b578063e45ea5f6146100a7575b600080fd5b6100596100d7565b604051610066919061167c565b60405180910390f35b61008960048036038101906100849190610e2e565b6100fb565b005b6100a560048036038101906100a09190610f28565b6107fa565b005b6100c160048036038101906100bc9190610d75565b61088f565b6040516100ce9190611568565b60405180910390f35b7fffffffffffffffffffffffffffffffffffffffffffffffffffffffffffffffff81565b8382101561013e576040517f08c379a00000000000000000000000000000000000000000000000000000000081526004016101359061165c565b60405180910390fd5b60008054906101000a900473ffffffffffffffffffffffffffffffffffffffff1673ffffffffffffffffffffffffffffffffffffffff168373ffffffffffffffffffffffffffffffffffffffff16146101cc576040517f08c379a00000000000000000000000000000000000000000000000000000000081526004016101c39061161c565b60405180910390fd5b60008888888888886040516020016101e9969594939291906114c9565b604051602081830303815290604052805190602001209050600060026000838152602001908152602001600020905060005b81805490508110156102e0573373ffffffffffffffffffffffffffffffffffffffff1682828154811061024a57fe5b906000526020600020906003020160000160009054906101000a900473ffffffffffffffffffffffffffffffffffffffff1673ffffffffffffffffffffffffffffffffffffffff1614156102d3576040517f08c379a00000000000000000000000000000000000000000000000000000000081526004016102ca9061163c565b60405180910390fd5b808060010191505061021b565b506102ec8533866107fa565b6001870360ff16818054905010156103f257610306610a3e565b33816000019073ffffffffffffffffffffffffffffffffffffffff16908173ffffffffffffffffffffffffffffffffffffffff1681525050848160200181815250508381604001819052508181908060018154018082558091505060019003906000526020600020906003020160009091909190915060008201518160000160006101000a81548173ffffffffffffffffffffffffffffffffffffffff021916908373ffffffffffffffffffffffffffffffffffffffff1602179055506020820151816001015560408201518160020190805190602001906103e9929190610a75565b505050506107ee565b60608760ff1667ffffffffffffffff8111801561040e57600080fd5b5060405190808252806020026020018201604052801561043d5781602001602082028036833780820191505090505b50905060608860ff1667ffffffffffffffff8111801561045c57600080fd5b5060405190808252806020026020018201604052801561048b5781602001602082028036833780820191505090505b50905060608960ff1667ffffffffffffffff811180156104aa57600080fd5b506040519080825280602002602001820160405280156104de57816020015b60608152602001906001900390816104c95790505b50905060005b60018b0360ff16811015610686578481815481106104fe57fe5b906000526020600020906003020160000160009054906101000a900473ffffffffffffffffffffffffffffffffffffffff1684828151811061053c57fe5b602002602001019073ffffffffffffffffffffffffffffffffffffffff16908173ffffffffffffffffffffffffffffffffffffffff168152505084818154811061058257fe5b9060005260206000209060030201600101548382815181106105a057fe5b6020026020010181815250508481815481106105b857fe5b90600052602060002090600302016002018054600181600116156101000203166002900480601f01602080910402602001604051908101604052809291908181526020018280546001816001161561010002031660029004801561065d5780601f106106325761010080835404028352916020019161065d565b820191906000526020600020905b81548152906001019060200180831161064057829003601f168201915b505050505082828151811061066e57fe5b602002602001018190525080806001019150506104e4565b50338360018c0360ff168151811061069a57fe5b602002602001019073ffffffffffffffffffffffffffffffffffffffff16908173ffffffffffffffffffffffffffffffffffffffff1681525050868260018c0360ff16815181106106e757fe5b602002602001018181525050858160018c0360ff168151811061070657fe5b6020026020010181905250600160009054906101000a900473ffffffffffffffffffffffffffffffffffffffff1673ffffffffffffffffffffffffffffffffffffffff1663e831dc388e8e8e8c8888886040518863ffffffff1660e01b8152600401610778979695949392919061158a565b602060405180830381600087803b15801561079257600080fd5b505af11580156107a6573d6000803e3d6000fd5b505050506040513d601f19601f820116820180604052508101906107ca9190610f77565b506002600086815260200190815260200160002060006107ea9190610b03565b5050505b50505050505050505050565b8273ffffffffffffffffffffffffffffffffffffffff166323b872dd8330846040518463ffffffff1660e01b815260040161083793929190611531565b602060405180830381600087803b15801561085157600080fd5b505af1158015610865573d6000803e3d6000fd5b505050506040513d601f19601f820116820180604052508101906108899190610d4c565b50505050565b606060008787878787876040516020016108ae969594939291906114c9565b60405160208183030381529060405280519060200120905060026000828152602001908152602001600020805480602002602001604051908101604052809291908181526020016000905b82821015610a2d57838290600052602060002090600302016040518060600160405290816000820160009054906101000a900473ffffffffffffffffffffffffffffffffffffffff1673ffffffffffffffffffffffffffffffffffffffff1673ffffffffffffffffffffffffffffffffffffffff16815260200160018201548152602001600282018054600181600116156101000203166002900480601f016020809104026020016040519081016040528092919081815260200182805460018160011615610100020316600290048015610a155780601f106109ea57610100808354040283529160200191610a15565b820191906000526020600020905b8154815290600101906020018083116109f857829003601f168201915b505050505081525050815260200190600101906108f9565b505050509150509695505050505050565b6040518060600160405280600073ffffffffffffffffffffffffffffffffffffffff16815260200160008152602001606081525090565b828054600181600116156101000203166002900490600052602060002090601f016020900481019282610aab5760008555610af2565b82601f10610ac457805160ff1916838001178555610af2565b82800160010185558215610af2579182015b82811115610af1578251825591602001919060010190610ad6565b5b509050610aff9190610b27565b5090565b5080546000825560030290600052602060002090810190610b249190610b44565b50565b5b80821115610b40576000816000905550600101610b28565b5090565b5b80821115610b9657600080820160006101000a81549073ffffffffffffffffffffffffffffffffffffffff02191690556001820160009055600282016000610b8d9190610b9a565b50600301610b45565b5090565b50805460018160011615610100020316600290046000825580601f10610bc05750610bdf565b601f016020900490600052602060002090810190610bde9190610b27565b5b50565b600081359050610bf181611986565b92915050565b600082601f830112610c0857600080fd5b8135610c1b610c16826116c8565b611697565b91508181835260208401935060208101905083856020840282011115610c4057600080fd5b60005b83811015610c705781610c568882610be2565b845260208401935060208301925050600181019050610c43565b5050505092915050565b600081519050610c898161199d565b92915050565b600081359050610c9e816119b4565b92915050565b600082601f830112610cb557600080fd5b8135610cc8610cc3826116f4565b611697565b91508082526020830160208301858383011115610ce457600080fd5b610cef8382846118cd565b50505092915050565b600081359050610d07816119cb565b92915050565b600081359050610d1c816119e2565b92915050565b600081519050610d31816119e2565b92915050565b600081359050610d46816119f9565b92915050565b600060208284031215610d5e57600080fd5b6000610d6c84828501610c7a565b91505092915050565b60008060008060008060c08789031215610d8e57600080fd5b6000610d9c89828a01610c8f565b965050602087013567ffffffffffffffff811115610db957600080fd5b610dc589828a01610ca4565b955050604087013567ffffffffffffffff811115610de257600080fd5b610dee89828a01610bf7565b9450506060610dff89828a01610d37565b9350506080610e1089828a01610d0d565b92505060a0610e2189828a01610be2565b9150509295509295509295565b600080600080600080600080610100898b031215610e4b57600080fd5b6000610e598b828c01610c8f565b985050602089013567ffffffffffffffff811115610e7657600080fd5b610e828b828c01610ca4565b975050604089013567ffffffffffffffff811115610e9f57600080fd5b610eab8b828c01610bf7565b9650506060610ebc8b828c01610d37565b9550506080610ecd8b828c01610d0d565b94505060a0610ede8b828c01610be2565b93505060c0610eef8b828c01610d0d565b92505060e089013567ffffffffffffffff811115610f0c57600080fd5b610f188b828c01610ca4565b9150509295985092959890939650565b600080600060608486031215610f3d57600080fd5b6000610f4b86828701610cf8565b9350506020610f5c86828701610be2565b9250506040610f6d86828701610d0d565b9150509250925092565b600060208284031215610f8957600080fd5b6000610f9784828501610d22565b91505092915050565b6000610fac8383611010565b60208301905092915050565b6000610fc4838361102e565b60208301905092915050565b6000610fdc838361127e565b905092915050565b6000610ff0838361142d565b905092915050565b6000611004838361147d565b60208301905092915050565b6110198161185c565b82525050565b6110288161185c565b82525050565b6110378161185c565b82525050565b61104e6110498261185c565b61190f565b82525050565b600061105f82611764565b61106981856117cf565b935061107483611724565b8060005b838110156110a557815161108c8882610fa0565b97506110978361179b565b925050600181019050611078565b5085935050505092915050565b60006110bd82611764565b6110c781856117e0565b93506110d283611724565b8060005b838110156111035781516110ea8882610fb8565b97506110f58361179b565b9250506001810190506110d6565b5085935050505092915050565b600061111b8261176f565b61112581856117eb565b93508360208202850161113785611734565b8060005b8581101561117357848403895281516111548582610fd0565b945061115f836117a8565b925060208a0199505060018101905061113b565b50829750879550505050505092915050565b60006111908261177a565b61119a81856117fc565b9350836020820285016111ac85611744565b8060005b858110156111e857848403895281516111c98582610fe4565b94506111d4836117b5565b925060208a019950506001810190506111b0565b50829750879550505050505092915050565b600061120582611785565b61120f818561180d565b935061121a83611754565b8060005b8381101561124b5781516112328882610ff8565b975061123d836117c2565b92505060018101905061121e565b5085935050505092915050565b6112618161187a565b82525050565b6112786112738261187a565b611921565b82525050565b600061128982611790565b611293818561181e565b93506112a38185602086016118dc565b6112ac8161195b565b840191505092915050565b60006112c282611790565b6112cc818561182f565b93506112dc8185602086016118dc565b6112e58161195b565b840191505092915050565b60006112fb82611790565b6113058185611840565b93506113158185602086016118dc565b80840191505092915050565b600061132e60198361184b565b91507f556e657870656374656420746f6b656e2070726f7669646572000000000000006000830152602082019050919050565b600061136e60328361184b565b91507f506c617965722068617320616c7265616479206265656e20656e71756575656460008301527f20746f206a6f696e20746869732067616d6500000000000000000000000000006020830152604082019050919050565b60006113d460368361184b565b91507f506c617965722773207374616b65642066756e647320697320696e737566666960008301527f6369656e7420746f206a6f696e207468652067616d65000000000000000000006020830152604082019050919050565b60006060830160008301516114456000860182611010565b506020830151611458602086018261147d565b5060408301518482036040860152611470828261127e565b9150508091505092915050565b611486816118b6565b82525050565b611495816118b6565b82525050565b6114ac6114a7826118b6565b61193d565b82525050565b6114c36114be826118c0565b611947565b82525050565b60006114d58289611267565b6020820191506114e582886112f0565b91506114f182876110b2565b91506114fd82866114b2565b60018201915061150d828561149b565b60208201915061151d828461103d565b601482019150819050979650505050505050565b6000606082019050611546600083018661101f565b611553602083018561101f565b611560604083018461148c565b949350505050565b600060208201905081810360008301526115828184611185565b905092915050565b600060e08201905061159f600083018a611258565b81810360208301526115b181896112b7565b905081810360408301526115c58188611054565b90506115d4606083018761101f565b81810360808301526115e68186611054565b905081810360a08301526115fa81856111fa565b905081810360c083015261160e8184611110565b905098975050505050505050565b6000602082019050818103600083015261163581611321565b9050919050565b6000602082019050818103600083015261165581611361565b9050919050565b60006020820190508181036000830152611675816113c7565b9050919050565b6000602082019050611691600083018461148c565b92915050565b6000604051905081810181811067ffffffffffffffff821117156116be576116bd611959565b5b8060405250919050565b600067ffffffffffffffff8211156116e3576116e2611959565b5b602082029050602081019050919050565b600067ffffffffffffffff82111561170f5761170e611959565b5b601f19601f8301169050602081019050919050565b6000819050602082019050919050565b6000819050602082019050919050565b6000819050602082019050919050565b6000819050602082019050919050565b600081519050919050565b600081519050919050565b600081519050919050565b600081519050919050565b600081519050919050565b6000602082019050919050565b6000602082019050919050565b6000602082019050919050565b6000602082019050919050565b600082825260208201905092915050565b600081905092915050565b600082825260208201905092915050565b600082825260208201905092915050565b600082825260208201905092915050565b600082825260208201905092915050565b600082825260208201905092915050565b600081905092915050565b600082825260208201905092915050565b600061186782611896565b9050919050565b60008115159050919050565b6000819050919050565b600061188f8261185c565b9050919050565b600073ffffffffffffffffffffffffffffffffffffffff82169050919050565b6000819050919050565b600060ff82169050919050565b82818337600083830152505050565b60005b838110156118fa5780820151818401526020810190506118df565b83811115611909576000848401525b50505050565b600061191a8261192b565b9050919050565b6000819050919050565b600061193682611979565b9050919050565b6000819050919050565b60006119528261196c565b9050919050565bfe5b6000601f19601f8301169050919050565b60008160f81b9050919050565b60008160601b9050919050565b61198f8161185c565b811461199a57600080fd5b50565b6119a68161186e565b81146119b157600080fd5b50565b6119bd8161187a565b81146119c857600080fd5b50565b6119d481611884565b81146119df57600080fd5b50565b6119eb816118b6565b81146119f657600080fd5b50565b611a02816118c0565b8114611a0d57600080fd5b5056fea26469706673582212208b95e7c13f1e1dacb71273201be1ac2ca659d090b9a9f13ca5589684a4eac29364736f6c63430007040033",
  "devdoc": {
    "kind": "dev",
    "methods": {
      "constructor": {
        "params": {
          "_allowedERC20Address": "address of the ERC20 compatible token provider",
          "_turnBasedGameAddress": "address of the TurnBasedGame contract used for starting games"
        }
      },
      "getQueue(bytes32,bytes,address[],uint8,uint256,address)": {
        "params": {
          "_gameERC20Address": "address for a ERC20 compatible token provider",
          "_gameMetadata": "game-specific initial metadata/parameters",
          "_gameMinFunds": "minimum funds required to be staked in order to join the game",
          "_gameNumPlayers": "number of players in the game",
          "_gameTemplateHash": "template hash for the Cartesi Machine computation that verifies the game (identifies the game computation/logic)",
          "_gameValidators": "addresses of the validator nodes that will run a Descartes verification should it be needed"
        },
        "returns": {
          "_0": "array of QueuedPlayer structs representing the currently enqueued players for the specified game"
        }
      },
      "joinGame(bytes32,bytes,address[],uint8,uint256,address,uint256,bytes)": {
        "params": {
          "_gameERC20Address": "address for a ERC20 compatible token provider",
          "_gameMetadata": "game-specific initial metadata/parameters",
          "_gameMinFunds": "minimum funds required to be staked in order to join the game",
          "_gameNumPlayers": "number of players in the game",
          "_gameTemplateHash": "template hash for the Cartesi Machine computation that verifies the game (identifies the game computation/logic)",
          "_gameValidators": "addresses of the validator nodes that will run a Descartes verification should it be needed",
          "_playerFunds": "amount being staked by the player joining the game",
          "_playerInfo": "game-specific information for the player joining the game"
        }
      },
      "lockFunds(address,address,uint256)": {
        "params": {
          "_playerAddress": "address for the player whose tokens will be locked in lobby account",
          "_playerFunds": "amount being staked by the player joining the game",
          "_tokenProvider": "ERC20 compatible token provider instance"
        }
      }
    },
    "title": "TurnBasedGameLobby",
    "version": 1
  },
  "userdoc": {
    "kind": "user",
    "methods": {
      "constructor": {
        "notice": "Constructor"
      },
      "getQueue(bytes32,bytes,address[],uint8,uint256,address)": {
        "notice": "Retrieves the current queue for a given game (specified by its template hash, metadata and number of players)"
      },
      "joinGame(bytes32,bytes,address[],uint8,uint256,address,uint256,bytes)": {
        "notice": "Allows a player to join a game. People are queued up as they join and the game starts when enough people are available."
      },
      "lockFunds(address,address,uint256)": {
        "notice": "Lock player tokens in the lobby contract until the game start"
      }
    },
    "notice": "Entry point for players to join games handled by the TurnBasedGame contract",
    "version": 1
  },
  "storageLayout": {
    "storage": [
      {
        "astId": 3994,
        "contract": "contracts/TurnBasedGameLobby.sol:TurnBasedGameLobby",
        "label": "allowedERC20Address",
        "offset": 0,
        "slot": "0",
        "type": "t_address"
      },
      {
        "astId": 3996,
        "contract": "contracts/TurnBasedGameLobby.sol:TurnBasedGameLobby",
        "label": "turnBasedGame",
        "offset": 0,
        "slot": "1",
        "type": "t_contract(TurnBasedGame)2701"
      },
      {
        "astId": 4008,
        "contract": "contracts/TurnBasedGameLobby.sol:TurnBasedGameLobby",
        "label": "queues",
        "offset": 0,
        "slot": "2",
        "type": "t_mapping(t_bytes32,t_array(t_struct(QueuedPlayer)4003_storage)dyn_storage)"
      }
    ],
    "types": {
      "t_address": {
        "encoding": "inplace",
        "label": "address",
        "numberOfBytes": "20"
      },
      "t_array(t_struct(QueuedPlayer)4003_storage)dyn_storage": {
        "base": "t_struct(QueuedPlayer)4003_storage",
        "encoding": "dynamic_array",
        "label": "struct TurnBasedGameLobby.QueuedPlayer[]",
        "numberOfBytes": "32"
      },
      "t_bytes32": {
        "encoding": "inplace",
        "label": "bytes32",
        "numberOfBytes": "32"
      },
      "t_bytes_storage": {
        "encoding": "bytes",
        "label": "bytes",
        "numberOfBytes": "32"
      },
      "t_contract(TurnBasedGame)2701": {
        "encoding": "inplace",
        "label": "contract TurnBasedGame",
        "numberOfBytes": "20"
      },
      "t_mapping(t_bytes32,t_array(t_struct(QueuedPlayer)4003_storage)dyn_storage)": {
        "encoding": "mapping",
        "key": "t_bytes32",
        "label": "mapping(bytes32 => struct TurnBasedGameLobby.QueuedPlayer[])",
        "numberOfBytes": "32",
        "value": "t_array(t_struct(QueuedPlayer)4003_storage)dyn_storage"
      },
      "t_struct(QueuedPlayer)4003_storage": {
        "encoding": "inplace",
        "label": "struct TurnBasedGameLobby.QueuedPlayer",
        "members": [
          {
            "astId": 3998,
            "contract": "contracts/TurnBasedGameLobby.sol:TurnBasedGameLobby",
            "label": "addr",
            "offset": 0,
            "slot": "0",
            "type": "t_address"
          },
          {
            "astId": 4000,
            "contract": "contracts/TurnBasedGameLobby.sol:TurnBasedGameLobby",
            "label": "funds",
            "offset": 0,
            "slot": "1",
            "type": "t_uint256"
          },
          {
            "astId": 4002,
            "contract": "contracts/TurnBasedGameLobby.sol:TurnBasedGameLobby",
            "label": "info",
            "offset": 0,
            "slot": "2",
            "type": "t_bytes_storage"
          }
        ],
        "numberOfBytes": "96"
      },
      "t_uint256": {
        "encoding": "inplace",
        "label": "uint256",
        "numberOfBytes": "32"
      }
    }
  }
}