{
  "address": "0xf932662DeeCAACe7dE18A7089e0dc8F06DdE940C",
  "abi": [
    {
      "inputs": [
        {
          "internalType": "address",
          "name": "descartesAddress",
          "type": "address"
        },
        {
          "internalType": "address",
          "name": "loggerAddress",
          "type": "address"
        }
      ],
      "stateMutability": "nonpayable",
      "type": "constructor"
    },
    {
      "inputs": [
        {
          "internalType": "uint256",
          "name": "_index",
          "type": "uint256"
        }
      ],
      "name": "applyVerificationResult",
      "outputs": [],
      "stateMutability": "nonpayable",
      "type": "function"
    },
    {
      "inputs": [
        {
          "internalType": "uint256",
          "name": "_index",
          "type": "uint256"
        }
      ],
      "name": "challengeGame",
      "outputs": [
        {
          "internalType": "uint256",
          "name": "",
          "type": "uint256"
        }
      ],
      "stateMutability": "nonpayable",
      "type": "function"
    },
    {
      "inputs": [
        {
          "internalType": "uint256",
          "name": "_index",
          "type": "uint256"
        },
        {
          "internalType": "uint256[]",
          "name": "_fundsShare",
          "type": "uint256[]"
        }
      ],
      "name": "claimResult",
      "outputs": [],
      "stateMutability": "nonpayable",
      "type": "function"
    },
    {
      "inputs": [
        {
          "internalType": "uint256",
          "name": "_index",
          "type": "uint256"
        }
      ],
      "name": "confirmResult",
      "outputs": [],
      "stateMutability": "nonpayable",
      "type": "function"
    },
    {
      "inputs": [],
      "name": "currentIndex",
      "outputs": [
        {
          "internalType": "uint256",
          "name": "",
          "type": "uint256"
        }
      ],
      "stateMutability": "view",
      "type": "function"
    },
    {
      "inputs": [
        {
          "internalType": "uint256",
          "name": "_index",
          "type": "uint256"
        }
      ],
      "name": "getContext",
      "outputs": [
        {
          "components": [
            {
              "internalType": "bytes32",
              "name": "gameTemplateHash",
              "type": "bytes32"
            },
            {
              "internalType": "bytes",
              "name": "gameMetadata",
              "type": "bytes"
            },
            {
              "internalType": "address[]",
              "name": "validators",
              "type": "address[]"
            },
            {
              "internalType": "address[]",
              "name": "players",
              "type": "address[]"
            },
            {
              "internalType": "uint256[]",
              "name": "playerFunds",
              "type": "uint256[]"
            },
            {
              "internalType": "bytes[]",
              "name": "playerInfos",
              "type": "bytes[]"
            },
            {
              "components": [
                {
                  "internalType": "address",
                  "name": "player",
                  "type": "address"
                },
                {
                  "internalType": "bytes32",
                  "name": "stateHash",
                  "type": "bytes32"
                },
                {
                  "internalType": "uint256[]",
                  "name": "dataLogIndices",
                  "type": "uint256[]"
                }
              ],
              "internalType": "struct Turn[]",
              "name": "turns",
              "type": "tuple[]"
            },
            {
              "internalType": "bool",
              "name": "isDescartesInstantiated",
              "type": "bool"
            },
            {
              "internalType": "uint256",
              "name": "descartesIndex",
              "type": "uint256"
            },
            {
              "internalType": "address",
              "name": "claimer",
              "type": "address"
            },
            {
              "internalType": "uint256[]",
              "name": "claimedFundsShare",
              "type": "uint256[]"
            },
            {
              "internalType": "uint256",
              "name": "claimAgreementMask",
              "type": "uint256"
            }
          ],
          "internalType": "struct GameContext",
          "name": "",
          "type": "tuple"
        }
      ],
      "stateMutability": "view",
      "type": "function"
    },
    {
      "inputs": [
        {
          "internalType": "uint256",
          "name": "_index",
          "type": "uint256"
        }
      ],
      "name": "getNonce",
      "outputs": [
        {
          "internalType": "uint256",
          "name": "currentNonce",
          "type": "uint256"
        }
      ],
      "stateMutability": "view",
      "type": "function"
    },
    {
      "inputs": [
        {
          "internalType": "uint256",
          "name": "_index",
          "type": "uint256"
        },
        {
          "internalType": "address",
          "name": "",
          "type": "address"
        }
      ],
      "name": "getSubInstances",
      "outputs": [
        {
          "internalType": "address[]",
          "name": "_addresses",
          "type": "address[]"
        },
        {
          "internalType": "uint256[]",
          "name": "_indices",
          "type": "uint256[]"
        }
      ],
      "stateMutability": "view",
      "type": "function"
    },
    {
      "inputs": [
        {
          "internalType": "uint256",
          "name": "_index",
          "type": "uint256"
        }
      ],
      "name": "isActive",
      "outputs": [
        {
          "internalType": "bool",
          "name": "",
          "type": "bool"
        }
      ],
      "stateMutability": "view",
      "type": "function"
    },
    {
      "inputs": [
        {
          "internalType": "uint256",
          "name": "_index",
          "type": "uint256"
        },
        {
          "internalType": "address",
          "name": "_player",
          "type": "address"
        }
      ],
      "name": "isConcerned",
      "outputs": [
        {
          "internalType": "bool",
          "name": "",
          "type": "bool"
        }
      ],
      "stateMutability": "view",
      "type": "function"
    },
    {
      "inputs": [
        {
          "internalType": "bytes32",
          "name": "_gameTemplateHash",
          "type": "bytes32"
        },
        {
          "internalType": "bytes",
          "name": "_gameMetadata",
          "type": "bytes"
        },
        {
          "internalType": "address[]",
          "name": "_validators",
          "type": "address[]"
        },
        {
          "internalType": "address[]",
          "name": "_players",
          "type": "address[]"
        },
        {
          "internalType": "uint256[]",
          "name": "_playerFunds",
          "type": "uint256[]"
        },
        {
          "internalType": "bytes[]",
          "name": "_playerInfos",
          "type": "bytes[]"
        }
      ],
      "name": "startGame",
      "outputs": [
        {
          "internalType": "uint256",
          "name": "",
          "type": "uint256"
        }
      ],
      "stateMutability": "nonpayable",
      "type": "function"
    },
    {
      "inputs": [
        {
          "internalType": "uint256",
          "name": "_index",
          "type": "uint256"
        },
        {
          "internalType": "bytes32",
          "name": "_stateHash",
          "type": "bytes32"
        },
        {
          "internalType": "bytes8[]",
          "name": "_data",
          "type": "bytes8[]"
        }
      ],
      "name": "submitTurn",
      "outputs": [],
      "stateMutability": "nonpayable",
      "type": "function"
    }
  ],
  "transactionHash": "0xb5de74b4b70e6cc8204e562fb1c7ae4d3813a00b78f4e7927419dde00d1e22d0",
  "args": [
    "0x470A953Fb69d44d47b8eb5A443524649c097DDf7",
    "0xBf108162392b4cc6bb35b6E197b0F686A6078172"
  ],
  "solcInputHash": "772994f90bf891435622e631b064bdf1",
  "bytecode": "0x6080604052600080553480156200001557600080fd5b50604051620036d7380380620036d783398181016040528101906200003b9190620002cb565b81600360006101000a81548173ffffffffffffffffffffffffffffffffffffffff021916908373ffffffffffffffffffffffffffffffffffffffff16021790555080600460006101000a81548173ffffffffffffffffffffffffffffffffffffffff021916908373ffffffffffffffffffffffffffffffffffffffff1602179055506060600167ffffffffffffffff81118015620000d857600080fd5b50604051908082528060200260200182016040528015620001085781602001602082028036833780820191505090505b5090506000600460009054906101000a900473ffffffffffffffffffffffffffffffffffffffff1673ffffffffffffffffffffffffffffffffffffffff16634891ea36600a846040518363ffffffff1660e01b81526004016200016d92919062000438565b602060405180830381600087803b1580156200018857600080fd5b505af11580156200019d573d6000803e3d6000fd5b505050506040513d601f19601f82011682018060405250810190620001c391906200030c565b9050600460009054906101000a900473ffffffffffffffffffffffffffffffffffffffff1673ffffffffffffffffffffffffffffffffffffffff1663833459bc826040518263ffffffff1660e01b81526004016200022291906200041b565b60206040518083038186803b1580156200023b57600080fd5b505afa15801562000250573d6000803e3d6000fd5b505050506040513d601f19601f8201168201806040525081019062000276919062000338565b6005819055505050505062000588565b60008151905062000297816200053a565b92915050565b600081519050620002ae8162000554565b92915050565b600081519050620002c5816200056e565b92915050565b60008060408385031215620002df57600080fd5b6000620002ef8582860162000286565b9250506020620003028582860162000286565b9150509250929050565b6000602082840312156200031f57600080fd5b60006200032f848285016200029d565b91505092915050565b6000602082840312156200034b57600080fd5b60006200035b84828501620002b4565b91505092915050565b6000620003728383620003f9565b60208301905092915050565b60006200038b826200047c565b62000397818562000494565b9350620003a4836200046c565b8060005b83811015620003db578151620003bf888262000364565b9750620003cc8362000487565b925050600181019050620003a8565b5085935050505092915050565b620003f381620004b9565b82525050565b6200040481620004c3565b82525050565b620004158162000526565b82525050565b6000602082019050620004326000830184620003e8565b92915050565b60006040820190506200044f60008301856200040a565b81810360208301526200046381846200037e565b90509392505050565b6000819050602082019050919050565b600081519050919050565b6000602082019050919050565b600082825260208201905092915050565b6000620004b282620004ef565b9050919050565b6000819050919050565b60007fffffffffffffffff00000000000000000000000000000000000000000000000082169050919050565b600073ffffffffffffffffffffffffffffffffffffffff82169050919050565b6000819050919050565b600060ff82169050919050565b6000620005338262000519565b9050919050565b6200054581620004a5565b81146200055157600080fd5b50565b6200055f81620004b9565b81146200056b57600080fd5b50565b62000579816200050f565b81146200058557600080fd5b50565b61313f80620005986000396000f3fe608060405234801561001057600080fd5b50600436106100b45760003560e01c80634830b0e8116100715780634830b0e8146101b357806382afd23b146101cf578063b88f4052146101ff578063c526656c1461021b578063e68defac1461024c578063eb05cf511461027c576100b4565b806301ff62ab146100b95780631287e2e5146100e957806317f491ac1461010557806326987b60146101355780632ab23088146101535780633d46b81914610183575b600080fd5b6100d360048036038101906100ce9190611d47565b610298565b6040516100e0919061292d565b60405180910390f35b61010360048036038101906100fe9190611dd7565b610346565b005b61011f600480360381019061011a9190611cf5565b6104ed565b60405161012c9190612b01565b60405180910390f35b61013d6106dc565b60405161014a9190612b01565b60405180910390f35b61016d60048036038101906101689190611bf4565b6106e2565b60405161017a9190612b01565b60405180910390f35b61019d60048036038101906101989190611cf5565b610805565b6040516101aa9190612b01565b60405180910390f35b6101cd60048036038101906101c89190611cf5565b610916565b005b6101e960048036038101906101e49190611cf5565b610abd565b6040516101f6919061292d565b60405180910390f35b61021960048036038101906102149190611d83565b610ae7565b005b61023560048036038101906102309190611d47565b610c64565b6040516102439291906128f6565b60405180910390f35b61026660048036038101906102619190611cf5565b610d7b565b6040516102739190612948565b60405180910390f35b61029660048036038101906102919190611cf5565b61131f565b005b6000828060005411610312576040517f08c379a00000000000000000000000000000000000000000000000000000000081526004018080602001828103825260168152602001807f496e646578206e6f7420696e7374616e7469617465640000000000000000000081525060200191505060405180910390fd5b600060066000868152602001908152602001600020905061033c848261154390919063ffffffff16565b9250505092915050565b8280600054116103be576040517f08c379a00000000000000000000000000000000000000000000000000000000081526004018080602001828103825260168152602001807f496e646578206e6f7420696e7374616e7469617465640000000000000000000081525060200191505060405180910390fd5b6103c781610abd565b610439576040517f08c379a000000000000000000000000000000000000000000000000000000000815260040180806020018281038252600e8152602001807f496e64657820696e61637469766500000000000000000000000000000000000081525060200191505060405180910390fd5b60006006600086815260200190815260200160002090508073588689A952baa821E168BF225F947746C05f66ce639e1552979091878787600460009054906101000a900473ffffffffffffffffffffffffffffffffffffffff16600a6040518763ffffffff1660e01b81526004016104b696959493929190612a01565b60006040518083038186803b1580156104ce57600080fd5b505af41580156104e2573d6000803e3d6000fd5b505050505050505050565b6000818060005411610567576040517f08c379a00000000000000000000000000000000000000000000000000000000081526004018080602001828103825260168152602001807f496e646578206e6f7420696e7374616e7469617465640000000000000000000081525060200191505060405180910390fd5b61057081610abd565b6105e2576040517f08c379a000000000000000000000000000000000000000000000000000000000815260040180806020018281038252600e8152602001807f496e64657820696e61637469766500000000000000000000000000000000000081525060200191505060405180910390fd5b60006006600085815260200190815260200160002090508073588689A952baa821E168BF225F947746C05f66ce6315093ea2909186600360009054906101000a900473ffffffffffffffffffffffffffffffffffffffff16600460009054906101000a900473ffffffffffffffffffffffffffffffffffffffff16600a6005546040518763ffffffff1660e01b815260040161068396959493929190612aa0565b60206040518083038186803b15801561069b57600080fd5b505af41580156106af573d6000803e3d6000fd5b505050506040513d601f19601f820116820180604052508101906106d39190611d1e565b92505050919050565b60005481565b600080600660008054815260200190815260200160002090508781600001819055508681600101908051906020019061071c929190611632565b50858160020190805190602001906107359291906116c0565b508481600301908051906020019061074e9291906116c0565b508381600401908051906020019061076792919061174a565b5082816005019080519060200190610780929190611797565b507ffdc1977e3a07952630c899cd042a8bedae0115fe5d439a9a07a1443b94801a36600054826040516107b4929190612b1c565b60405180910390a160018060008054815260200190815260200160002060006101000a81548160ff021916908315150217905550600080815480929190600101919050559150509695505050505050565b600081806000541161087f576040517f08c379a00000000000000000000000000000000000000000000000000000000081526004018080602001828103825260168152602001807f496e646578206e6f7420696e7374616e7469617465640000000000000000000081525060200191505060405180910390fd5b61088881610abd565b6108fa576040517f08c379a000000000000000000000000000000000000000000000000000000000815260040180806020018281038252600e8152602001807f496e64657820696e61637469766500000000000000000000000000000000000081525060200191505060405180910390fd5b6002600084815260200190815260200160002054915050919050565b80806000541161098e576040517f08c379a00000000000000000000000000000000000000000000000000000000081526004018080602001828103825260168152602001807f496e646578206e6f7420696e7374616e7469617465640000000000000000000081525060200191505060405180910390fd5b61099781610abd565b610a09576040517f08c379a000000000000000000000000000000000000000000000000000000000815260040180806020018281038252600e8152602001807f496e64657820696e61637469766500000000000000000000000000000000000081525060200191505060405180910390fd5b60006006600084815260200190815260200160002090508073588689A952baa821E168BF225F947746C05f66ce63b5701feb909185600360009054906101000a900473ffffffffffffffffffffffffffffffffffffffff166040518463ffffffff1660e01b8152600401610a7f93929190612a69565b60006040518083038186803b158015610a9757600080fd5b505af4158015610aab573d6000803e3d6000fd5b50505050610ab8836115ea565b505050565b60006001600083815260200190815260200160002060009054906101000a900460ff169050919050565b818060005411610b5f576040517f08c379a00000000000000000000000000000000000000000000000000000000081526004018080602001828103825260168152602001807f496e646578206e6f7420696e7374616e7469617465640000000000000000000081525060200191505060405180910390fd5b610b6881610abd565b610bda576040517f08c379a000000000000000000000000000000000000000000000000000000000815260040180806020018281038252600e8152602001807f496e64657820696e61637469766500000000000000000000000000000000000081525060200191505060405180910390fd5b60006006600085815260200190815260200160002090508073588689A952baa821E168BF225F947746C05f66ce630cdd31bc909186866040518463ffffffff1660e01b8152600401610c2e93929190612985565b60006040518083038186803b158015610c4657600080fd5b505af4158015610c5a573d6000803e3d6000fd5b5050505050505050565b606080838060005411610cdf576040517f08c379a00000000000000000000000000000000000000000000000000000000081526004018080602001828103825260168152602001807f496e646578206e6f7420696e7374616e7469617465640000000000000000000081525060200191505060405180910390fd5b600067ffffffffffffffff81118015610cf757600080fd5b50604051908082528060200260200182016040528015610d265781602001602082028036833780820191505090505b50600067ffffffffffffffff81118015610d3f57600080fd5b50604051908082528060200260200182016040528015610d6e5781602001602082028036833780820191505090505b5092509250509250929050565b610d836117f7565b818060005411610dfb576040517f08c379a00000000000000000000000000000000000000000000000000000000081526004018080602001828103825260168152602001807f496e646578206e6f7420696e7374616e7469617465640000000000000000000081525060200191505060405180910390fd5b600660008481526020019081526020016000206040518061018001604052908160008201548152602001600182018054600181600116156101000203166002900480601f016020809104026020016040519081016040528092919081815260200182805460018160011615610100020316600290048015610ebd5780601f10610e9257610100808354040283529160200191610ebd565b820191906000526020600020905b815481529060010190602001808311610ea057829003601f168201915b5050505050815260200160028201805480602002602001604051908101604052809291908181526020018280548015610f4b57602002820191906000526020600020905b8160009054906101000a900473ffffffffffffffffffffffffffffffffffffffff1673ffffffffffffffffffffffffffffffffffffffff1681526020019060010190808311610f01575b5050505050815260200160038201805480602002602001604051908101604052809291908181526020018280548015610fd957602002820191906000526020600020905b8160009054906101000a900473ffffffffffffffffffffffffffffffffffffffff1673ffffffffffffffffffffffffffffffffffffffff1681526020019060010190808311610f8f575b505050505081526020016004820180548060200260200160405190810160405280929190818152602001828054801561103157602002820191906000526020600020905b81548152602001906001019080831161101d575b5050505050815260200160058201805480602002602001604051908101604052809291908181526020016000905b8282101561111b578382906000526020600020018054600181600116156101000203166002900480601f0160208091040260200160405190810160405280929190818152602001828054600181600116156101000203166002900480156111075780601f106110dc57610100808354040283529160200191611107565b820191906000526020600020905b8154815290600101906020018083116110ea57829003601f168201915b50505050508152602001906001019061105f565b50505050815260200160068201805480602002602001604051908101604052809291908181526020016000905b8282101561123257838290600052602060002090600302016040518060600160405290816000820160009054906101000a900473ffffffffffffffffffffffffffffffffffffffff1673ffffffffffffffffffffffffffffffffffffffff1673ffffffffffffffffffffffffffffffffffffffff168152602001600182015481526020016002820180548060200260200160405190810160405280929190818152602001828054801561121a57602002820191906000526020600020905b815481526020019060010190808311611206575b50505050508152505081526020019060010190611148565b5050505081526020016007820160009054906101000a900460ff16151515158152602001600882015481526020016009820160009054906101000a900473ffffffffffffffffffffffffffffffffffffffff1673ffffffffffffffffffffffffffffffffffffffff1673ffffffffffffffffffffffffffffffffffffffff168152602001600a820180548060200260200160405190810160405280929190818152602001828054801561130457602002820191906000526020600020905b8154815260200190600101908083116112f0575b50505050508152602001600b82015481525050915050919050565b808060005411611397576040517f08c379a00000000000000000000000000000000000000000000000000000000081526004018080602001828103825260168152602001807f496e646578206e6f7420696e7374616e7469617465640000000000000000000081525060200191505060405180910390fd5b6113a081610abd565b611412576040517f08c379a000000000000000000000000000000000000000000000000000000000815260040180806020018281038252600e8152602001807f496e64657820696e61637469766500000000000000000000000000000000000081525060200191505060405180910390fd5b600060066000848152602001908152602001600020905060008173588689A952baa821E168BF225F947746C05f66ce63906cc66c90916040518263ffffffff1660e01b8152600401611464919061296a565b60206040518083038186803b15801561147c57600080fd5b505af4158015611490573d6000803e3d6000fd5b505050506040513d601f19601f820116820180604052508101906114b49190611bcb565b905060011515811515141561153d578173588689A952baa821E168BF225F947746C05f66ce63aba4442390918685600a016040518463ffffffff1660e01b8152600401611503939291906129c3565b60006040518083038186803b15801561151b57600080fd5b505af415801561152f573d6000803e3d6000fd5b5050505061153c846115ea565b5b50505050565b600080600090505b83600301805490508110156115de5783600301818154811061156957fe5b9060005260206000200160009054906101000a900473ffffffffffffffffffffffffffffffffffffffff1673ffffffffffffffffffffffffffffffffffffffff168373ffffffffffffffffffffffffffffffffffffffff1614156115d15760019150506115e4565b808060010191505061154b565b50600090505b92915050565b60006001600083815260200190815260200160002060006101000a81548160ff0219169083151502179055506000600260008381526020019081526020016000208190555050565b828054600181600116156101000203166002900490600052602060002090601f01602090048101928261166857600085556116af565b82601f1061168157805160ff19168380011785556116af565b828001600101855582156116af579182015b828111156116ae578251825591602001919060010190611693565b5b5090506116bc9190611873565b5090565b828054828255906000526020600020908101928215611739579160200282015b828111156117385782518260006101000a81548173ffffffffffffffffffffffffffffffffffffffff021916908373ffffffffffffffffffffffffffffffffffffffff160217905550916020019190600101906116e0565b5b5090506117469190611873565b5090565b828054828255906000526020600020908101928215611786579160200282015b8281111561178557825182559160200191906001019061176a565b5b5090506117939190611873565b5090565b8280548282559060005260206000209081019282156117e6579160200282015b828111156117e55782518290805190602001906117d5929190611632565b50916020019190600101906117b7565b5b5090506117f39190611890565b5090565b6040518061018001604052806000801916815260200160608152602001606081526020016060815260200160608152602001606081526020016060815260200160001515815260200160008152602001600073ffffffffffffffffffffffffffffffffffffffff16815260200160608152602001600081525090565b5b8082111561188c576000816000905550600101611874565b5090565b5b808211156118b057600081816118a791906118b4565b50600101611891565b5090565b50805460018160011615610100020316600290046000825580601f106118da57506118f9565b601f0160209004906000526020600020908101906118f89190611873565b5b50565b60008135905061190b81613096565b92915050565b600082601f83011261192257600080fd5b813561193561193082612b7d565b612b4c565b9150818183526020840193506020810190508385602084028201111561195a57600080fd5b60005b8381101561198a578161197088826118fc565b84526020840193506020830192505060018101905061195d565b5050505092915050565b600082601f8301126119a557600080fd5b81356119b86119b382612ba9565b612b4c565b915081818352602084019350602081019050838560208402820111156119dd57600080fd5b60005b83811015611a0d57816119f38882611b38565b8452602084019350602083019250506001810190506119e0565b5050505092915050565b600082601f830112611a2857600080fd5b8135611a3b611a3682612bd5565b612b4c565b9150818183526020840193506020810190508360005b83811015611a815781358601611a678882611b4d565b845260208401935060208301925050600181019050611a51565b5050505092915050565b600082601f830112611a9c57600080fd5b8135611aaf611aaa82612c01565b612b4c565b91508181835260208401935060208101905083856020840282011115611ad457600080fd5b60005b83811015611b045781611aea8882611ba1565b845260208401935060208301925050600181019050611ad7565b5050505092915050565b600081519050611b1d816130ad565b92915050565b600081359050611b32816130c4565b92915050565b600081359050611b47816130db565b92915050565b600082601f830112611b5e57600080fd5b8135611b71611b6c82612c2d565b612b4c565b91508082526020830160208301858383011115611b8d57600080fd5b611b98838284612fa6565b50505092915050565b600081359050611bb0816130f2565b92915050565b600081519050611bc5816130f2565b92915050565b600060208284031215611bdd57600080fd5b6000611beb84828501611b0e565b91505092915050565b60008060008060008060c08789031215611c0d57600080fd5b6000611c1b89828a01611b23565b965050602087013567ffffffffffffffff811115611c3857600080fd5b611c4489828a01611b4d565b955050604087013567ffffffffffffffff811115611c6157600080fd5b611c6d89828a01611911565b945050606087013567ffffffffffffffff811115611c8a57600080fd5b611c9689828a01611911565b935050608087013567ffffffffffffffff811115611cb357600080fd5b611cbf89828a01611a8b565b92505060a087013567ffffffffffffffff811115611cdc57600080fd5b611ce889828a01611a17565b9150509295509295509295565b600060208284031215611d0757600080fd5b6000611d1584828501611ba1565b91505092915050565b600060208284031215611d3057600080fd5b6000611d3e84828501611bb6565b91505092915050565b60008060408385031215611d5a57600080fd5b6000611d6885828601611ba1565b9250506020611d79858286016118fc565b9150509250929050565b60008060408385031215611d9657600080fd5b6000611da485828601611ba1565b925050602083013567ffffffffffffffff811115611dc157600080fd5b611dcd85828601611a8b565b9150509250929050565b600080600060608486031215611dec57600080fd5b6000611dfa86828701611ba1565b9350506020611e0b86828701611b23565b925050604084013567ffffffffffffffff811115611e2857600080fd5b611e3486828701611994565b9150509250925092565b6000611e4a8383611eee565b60208301905092915050565b6000611e62838361246e565b60208301905092915050565b6000611e7a838361247d565b905092915050565b6000611e8e83836124b6565b905092915050565b6000611ea283836127f4565b905092915050565b6000611eb68383612844565b905092915050565b6000611eca83836128ab565b60208301905092915050565b6000611ee283836128d8565b60208301905092915050565b611ef781612ed3565b82525050565b6000611f0882612d16565b611f128185612df9565b9350611f1d83612c5d565b8060005b83811015611f4e578151611f358882611e3e565b9750611f4083612d84565b925050600181019050611f21565b5085935050505092915050565b6000611f6682612d16565b611f708185612e0a565b9350611f7b83612c5d565b8060005b83811015611fac578151611f938882611e3e565b9750611f9e83612d84565b925050600181019050611f7f565b5085935050505092915050565b6000611fc482612d21565b611fce8185612df9565b9350611fd983612c6d565b8060005b8381101561201157611fee82613052565b611ff88882611e3e565b975061200383612d91565b925050600181019050611fdd565b5085935050505092915050565b600061202982612d2c565b6120338185612e1b565b935061203e83612c82565b8060005b8381101561206f5781516120568882611e56565b975061206183612d9e565b925050600181019050612042565b5085935050505092915050565b600061208782612d37565b6120918185612e2c565b9350836020820285016120a385612c92565b8060005b858110156120df57848403895281516120c08582611e6e565b94506120cb83612dab565b925060208a019950506001810190506120a7565b50829750879550505050505092915050565b60006120fc82612d42565b6121068185612e2c565b93508360208202850161211885612ca2565b8060005b85811015612153578484038952816121348582611e82565b945061213f83612db8565b925060208a0199505060018101905061211c565b50829750879550505050505092915050565b600061217082612d4d565b61217a8185612e3d565b93508360208202850161218c85612cb7565b8060005b858110156121c857848403895281516121a98582611e96565b94506121b483612dc5565b925060208a01995050600181019050612190565b50829750879550505050505092915050565b60006121e582612d58565b6121ef8185612e3d565b93508360208202850161220185612cc7565b8060005b8581101561223c5784840389528161221d8582611eaa565b945061222883612dd2565b925060208a01995050600181019050612205565b50829750879550505050505092915050565b600061225982612d63565b6122638185612e4e565b935061226e83612cdc565b8060005b8381101561229f5781516122868882611ebe565b975061229183612ddf565b925050600181019050612272565b5085935050505092915050565b60006122b782612d63565b6122c18185612e5f565b93506122cc83612cdc565b8060005b838110156122fd5781516122e48882611ebe565b97506122ef83612ddf565b9250506001810190506122d0565b5085935050505092915050565b600061231582612d63565b61231f8185612e70565b935061232a83612cdc565b8060005b8381101561235b5781516123428882611ed6565b975061234d83612ddf565b92505060018101905061232e565b5085935050505092915050565b600061237382612d6e565b61237d8185612e4e565b935061238883612cec565b8060005b838110156123c05761239d82613065565b6123a78882611ebe565b97506123b283612dec565b92505060018101905061238c565b5085935050505092915050565b60006123d882612d6e565b6123e28185612e70565b93506123ed83612cec565b8060005b838110156124255761240282613065565b61240c8882611ed6565b975061241783612dec565b9250506001810190506123f1565b5085935050505092915050565b61243b81612ee5565b82525050565b61244a81612ee5565b82525050565b61245981612ef1565b82525050565b61246881612ef1565b82525050565b61247781612efb565b82525050565b600061248882612d79565b6124928185612e81565b93506124a2818560208601612fb5565b6124ab81613078565b840191505092915050565b6000815460018116600081146124d357600181146124f95761253d565b607f60028304166124e48187612e81565b955060ff19831686526020860193505061253d565b600282046125078187612e81565b955061251285612d01565b60005b8281101561253457815481890152600182019150602081019050612515565b80880195505050505b505092915050565b61254e81612f5e565b82525050565b61255d81612f82565b82525050565b60006101808301600083015161257c6000860182612450565b5060208301518482036020860152612594828261247d565b915050604083015184820360408601526125ae8282611efd565b915050606083015184820360608601526125c88282611efd565b915050608083015184820360808601526125e2828261224e565b91505060a083015184820360a08601526125fc828261207c565b91505060c083015184820360c08601526126168282612165565b91505060e083015161262b60e0860182612432565b506101008301516126406101008601826128ab565b50610120830151612655610120860182611eee565b5061014083015184820361014086015261266f828261224e565b9150506101608301516126866101608601826128ab565b508091505092915050565b6000610180830160008084015490506126a98161301c565b6126b66000870182612450565b506001840185830360208701526126cd83826124b6565b9250506002840185830360408701526126e68382611fb9565b9250506003840185830360608701526126ff8382611fb9565b9250506004840185830360808701526127188382612368565b9250506005840185830360a087015261273183826120f1565b9250506006840185830360c087015261274a83826121da565b9250506007840154905061275d81613002565b61276a60e0870182612432565b506008840154905061277b81613036565b6127896101008701826128ab565b506009840154905061279a81612fe8565b6127a8610120870182611eee565b50600a84018583036101408701526127c08382612368565b925050600b84015490506127d381613036565b6127e16101608701826128ab565b50819250505092915050565b8082525050565b600060608301600083015161280c6000860182611eee565b50602083015161281f6020860182612450565b5060408301518482036040860152612837828261224e565b9150508091505092915050565b600060608301600080840154905061285b81612fe8565b6128686000870182611eee565b50600184015490506128798161301c565b6128866020870182612450565b5060028401858303604087015261289d8382612368565b925050819250505092915050565b6128b481612f47565b82525050565b6128c381612f47565b82525050565b6128d281612f47565b82525050565b6128e181612f47565b82525050565b6128f081612f51565b82525050565b600060408201905081810360008301526129108185611f5b565b9050818103602083015261292481846122ac565b90509392505050565b60006020820190506129426000830184612441565b92915050565b600060208201905081810360008301526129628184612563565b905092915050565b600060208201905061297f60008301846127ed565b92915050565b600060608201905061299a60008301866127ed565b6129a760208301856128c9565b81810360408301526129b9818461230a565b9050949350505050565b60006060820190506129d860008301866127ed565b6129e560208301856128c9565b81810360408301526129f781846123cd565b9050949350505050565b600060c082019050612a1660008301896127ed565b612a2360208301886128c9565b612a30604083018761245f565b8181036060830152612a42818661201e565b9050612a516080830185612554565b612a5e60a08301846128e7565b979650505050505050565b6000606082019050612a7e60008301866127ed565b612a8b60208301856128c9565b612a986040830184612545565b949350505050565b600060c082019050612ab560008301896127ed565b612ac260208301886128c9565b612acf6040830187612545565b612adc6060830186612554565b612ae960808301856128e7565b612af660a08301846128c9565b979650505050505050565b6000602082019050612b1660008301846128ba565b92915050565b6000604082019050612b3160008301856128ba565b8181036020830152612b438184612691565b90509392505050565b6000604051905081810181811067ffffffffffffffff82111715612b7357612b72613050565b5b8060405250919050565b600067ffffffffffffffff821115612b9857612b97613050565b5b602082029050602081019050919050565b600067ffffffffffffffff821115612bc457612bc3613050565b5b602082029050602081019050919050565b600067ffffffffffffffff821115612bf057612bef613050565b5b602082029050602081019050919050565b600067ffffffffffffffff821115612c1c57612c1b613050565b5b602082029050602081019050919050565b600067ffffffffffffffff821115612c4857612c47613050565b5b601f19601f8301169050602081019050919050565b6000819050602082019050919050565b60008190508160005260206000209050919050565b6000819050602082019050919050565b6000819050602082019050919050565b60008190508160005260206000209050919050565b6000819050602082019050919050565b60008190508160005260206000209050919050565b6000819050602082019050919050565b60008190508160005260206000209050919050565b60008190508160005260206000209050919050565b600081519050919050565b600081549050919050565b600081519050919050565b600081519050919050565b600081549050919050565b600081519050919050565b600081549050919050565b600081519050919050565b600081549050919050565b600081519050919050565b6000602082019050919050565b6000600182019050919050565b6000602082019050919050565b6000602082019050919050565b6000600182019050919050565b6000602082019050919050565b6000600382019050919050565b6000602082019050919050565b6000600182019050919050565b600082825260208201905092915050565b600082825260208201905092915050565b600082825260208201905092915050565b600082825260208201905092915050565b600082825260208201905092915050565b600082825260208201905092915050565b600082825260208201905092915050565b600082825260208201905092915050565b600082825260208201905092915050565b600073ffffffffffffffffffffffffffffffffffffffff82169050919050565b600060ff82169050919050565b6000819050919050565b6000819050919050565b6000612ede82612f27565b9050919050565b60008115159050919050565b6000819050919050565b60007fffffffffffffffff00000000000000000000000000000000000000000000000082169050919050565b600073ffffffffffffffffffffffffffffffffffffffff82169050919050565b6000819050919050565b600060ff82169050919050565b6000612f6982612f70565b9050919050565b6000612f7b82612f27565b9050919050565b6000612f8d82612f94565b9050919050565b6000612f9f82612f27565b9050919050565b82818337600083830152505050565b60005b83811015612fd3578082015181840152602081019050612fb8565b83811115612fe2576000848401525b50505050565b6000612ffb612ff683613089565b612e92565b9050919050565b600061301561301083613089565b612eb2565b9050919050565b600061302f61302a83613089565b612ebf565b9050919050565b600061304961304483613089565b612ec9565b9050919050565bfe5b600061305e8254612fe8565b9050919050565b60006130718254613036565b9050919050565b6000601f19601f8301169050919050565b60008160001c9050919050565b61309f81612ed3565b81146130aa57600080fd5b50565b6130b681612ee5565b81146130c157600080fd5b50565b6130cd81612ef1565b81146130d857600080fd5b50565b6130e481612efb565b81146130ef57600080fd5b50565b6130fb81612f47565b811461310657600080fd5b5056fea2646970667358221220c9119333f4e18f1225d60a693f45a08bd92fc9aa21864a0bee705341f3dc601564736f6c63430007040033",
  "deployedBytecode": "0x608060405234801561001057600080fd5b50600436106100b45760003560e01c80634830b0e8116100715780634830b0e8146101b357806382afd23b146101cf578063b88f4052146101ff578063c526656c1461021b578063e68defac1461024c578063eb05cf511461027c576100b4565b806301ff62ab146100b95780631287e2e5146100e957806317f491ac1461010557806326987b60146101355780632ab23088146101535780633d46b81914610183575b600080fd5b6100d360048036038101906100ce9190611d47565b610298565b6040516100e0919061292d565b60405180910390f35b61010360048036038101906100fe9190611dd7565b610346565b005b61011f600480360381019061011a9190611cf5565b6104ed565b60405161012c9190612b01565b60405180910390f35b61013d6106dc565b60405161014a9190612b01565b60405180910390f35b61016d60048036038101906101689190611bf4565b6106e2565b60405161017a9190612b01565b60405180910390f35b61019d60048036038101906101989190611cf5565b610805565b6040516101aa9190612b01565b60405180910390f35b6101cd60048036038101906101c89190611cf5565b610916565b005b6101e960048036038101906101e49190611cf5565b610abd565b6040516101f6919061292d565b60405180910390f35b61021960048036038101906102149190611d83565b610ae7565b005b61023560048036038101906102309190611d47565b610c64565b6040516102439291906128f6565b60405180910390f35b61026660048036038101906102619190611cf5565b610d7b565b6040516102739190612948565b60405180910390f35b61029660048036038101906102919190611cf5565b61131f565b005b6000828060005411610312576040517f08c379a00000000000000000000000000000000000000000000000000000000081526004018080602001828103825260168152602001807f496e646578206e6f7420696e7374616e7469617465640000000000000000000081525060200191505060405180910390fd5b600060066000868152602001908152602001600020905061033c848261154390919063ffffffff16565b9250505092915050565b8280600054116103be576040517f08c379a00000000000000000000000000000000000000000000000000000000081526004018080602001828103825260168152602001807f496e646578206e6f7420696e7374616e7469617465640000000000000000000081525060200191505060405180910390fd5b6103c781610abd565b610439576040517f08c379a000000000000000000000000000000000000000000000000000000000815260040180806020018281038252600e8152602001807f496e64657820696e61637469766500000000000000000000000000000000000081525060200191505060405180910390fd5b60006006600086815260200190815260200160002090508073__$2a307e3733810a923a91a6f7005edd72dc$__639e1552979091878787600460009054906101000a900473ffffffffffffffffffffffffffffffffffffffff16600a6040518763ffffffff1660e01b81526004016104b696959493929190612a01565b60006040518083038186803b1580156104ce57600080fd5b505af41580156104e2573d6000803e3d6000fd5b505050505050505050565b6000818060005411610567576040517f08c379a00000000000000000000000000000000000000000000000000000000081526004018080602001828103825260168152602001807f496e646578206e6f7420696e7374616e7469617465640000000000000000000081525060200191505060405180910390fd5b61057081610abd565b6105e2576040517f08c379a000000000000000000000000000000000000000000000000000000000815260040180806020018281038252600e8152602001807f496e64657820696e61637469766500000000000000000000000000000000000081525060200191505060405180910390fd5b60006006600085815260200190815260200160002090508073__$2a307e3733810a923a91a6f7005edd72dc$__6315093ea2909186600360009054906101000a900473ffffffffffffffffffffffffffffffffffffffff16600460009054906101000a900473ffffffffffffffffffffffffffffffffffffffff16600a6005546040518763ffffffff1660e01b815260040161068396959493929190612aa0565b60206040518083038186803b15801561069b57600080fd5b505af41580156106af573d6000803e3d6000fd5b505050506040513d601f19601f820116820180604052508101906106d39190611d1e565b92505050919050565b60005481565b600080600660008054815260200190815260200160002090508781600001819055508681600101908051906020019061071c929190611632565b50858160020190805190602001906107359291906116c0565b508481600301908051906020019061074e9291906116c0565b508381600401908051906020019061076792919061174a565b5082816005019080519060200190610780929190611797565b507ffdc1977e3a07952630c899cd042a8bedae0115fe5d439a9a07a1443b94801a36600054826040516107b4929190612b1c565b60405180910390a160018060008054815260200190815260200160002060006101000a81548160ff021916908315150217905550600080815480929190600101919050559150509695505050505050565b600081806000541161087f576040517f08c379a00000000000000000000000000000000000000000000000000000000081526004018080602001828103825260168152602001807f496e646578206e6f7420696e7374616e7469617465640000000000000000000081525060200191505060405180910390fd5b61088881610abd565b6108fa576040517f08c379a000000000000000000000000000000000000000000000000000000000815260040180806020018281038252600e8152602001807f496e64657820696e61637469766500000000000000000000000000000000000081525060200191505060405180910390fd5b6002600084815260200190815260200160002054915050919050565b80806000541161098e576040517f08c379a00000000000000000000000000000000000000000000000000000000081526004018080602001828103825260168152602001807f496e646578206e6f7420696e7374616e7469617465640000000000000000000081525060200191505060405180910390fd5b61099781610abd565b610a09576040517f08c379a000000000000000000000000000000000000000000000000000000000815260040180806020018281038252600e8152602001807f496e64657820696e61637469766500000000000000000000000000000000000081525060200191505060405180910390fd5b60006006600084815260200190815260200160002090508073__$2a307e3733810a923a91a6f7005edd72dc$__63b5701feb909185600360009054906101000a900473ffffffffffffffffffffffffffffffffffffffff166040518463ffffffff1660e01b8152600401610a7f93929190612a69565b60006040518083038186803b158015610a9757600080fd5b505af4158015610aab573d6000803e3d6000fd5b50505050610ab8836115ea565b505050565b60006001600083815260200190815260200160002060009054906101000a900460ff169050919050565b818060005411610b5f576040517f08c379a00000000000000000000000000000000000000000000000000000000081526004018080602001828103825260168152602001807f496e646578206e6f7420696e7374616e7469617465640000000000000000000081525060200191505060405180910390fd5b610b6881610abd565b610bda576040517f08c379a000000000000000000000000000000000000000000000000000000000815260040180806020018281038252600e8152602001807f496e64657820696e61637469766500000000000000000000000000000000000081525060200191505060405180910390fd5b60006006600085815260200190815260200160002090508073__$2a307e3733810a923a91a6f7005edd72dc$__630cdd31bc909186866040518463ffffffff1660e01b8152600401610c2e93929190612985565b60006040518083038186803b158015610c4657600080fd5b505af4158015610c5a573d6000803e3d6000fd5b5050505050505050565b606080838060005411610cdf576040517f08c379a00000000000000000000000000000000000000000000000000000000081526004018080602001828103825260168152602001807f496e646578206e6f7420696e7374616e7469617465640000000000000000000081525060200191505060405180910390fd5b600067ffffffffffffffff81118015610cf757600080fd5b50604051908082528060200260200182016040528015610d265781602001602082028036833780820191505090505b50600067ffffffffffffffff81118015610d3f57600080fd5b50604051908082528060200260200182016040528015610d6e5781602001602082028036833780820191505090505b5092509250509250929050565b610d836117f7565b818060005411610dfb576040517f08c379a00000000000000000000000000000000000000000000000000000000081526004018080602001828103825260168152602001807f496e646578206e6f7420696e7374616e7469617465640000000000000000000081525060200191505060405180910390fd5b600660008481526020019081526020016000206040518061018001604052908160008201548152602001600182018054600181600116156101000203166002900480601f016020809104026020016040519081016040528092919081815260200182805460018160011615610100020316600290048015610ebd5780601f10610e9257610100808354040283529160200191610ebd565b820191906000526020600020905b815481529060010190602001808311610ea057829003601f168201915b5050505050815260200160028201805480602002602001604051908101604052809291908181526020018280548015610f4b57602002820191906000526020600020905b8160009054906101000a900473ffffffffffffffffffffffffffffffffffffffff1673ffffffffffffffffffffffffffffffffffffffff1681526020019060010190808311610f01575b5050505050815260200160038201805480602002602001604051908101604052809291908181526020018280548015610fd957602002820191906000526020600020905b8160009054906101000a900473ffffffffffffffffffffffffffffffffffffffff1673ffffffffffffffffffffffffffffffffffffffff1681526020019060010190808311610f8f575b505050505081526020016004820180548060200260200160405190810160405280929190818152602001828054801561103157602002820191906000526020600020905b81548152602001906001019080831161101d575b5050505050815260200160058201805480602002602001604051908101604052809291908181526020016000905b8282101561111b578382906000526020600020018054600181600116156101000203166002900480601f0160208091040260200160405190810160405280929190818152602001828054600181600116156101000203166002900480156111075780601f106110dc57610100808354040283529160200191611107565b820191906000526020600020905b8154815290600101906020018083116110ea57829003601f168201915b50505050508152602001906001019061105f565b50505050815260200160068201805480602002602001604051908101604052809291908181526020016000905b8282101561123257838290600052602060002090600302016040518060600160405290816000820160009054906101000a900473ffffffffffffffffffffffffffffffffffffffff1673ffffffffffffffffffffffffffffffffffffffff1673ffffffffffffffffffffffffffffffffffffffff168152602001600182015481526020016002820180548060200260200160405190810160405280929190818152602001828054801561121a57602002820191906000526020600020905b815481526020019060010190808311611206575b50505050508152505081526020019060010190611148565b5050505081526020016007820160009054906101000a900460ff16151515158152602001600882015481526020016009820160009054906101000a900473ffffffffffffffffffffffffffffffffffffffff1673ffffffffffffffffffffffffffffffffffffffff1673ffffffffffffffffffffffffffffffffffffffff168152602001600a820180548060200260200160405190810160405280929190818152602001828054801561130457602002820191906000526020600020905b8154815260200190600101908083116112f0575b50505050508152602001600b82015481525050915050919050565b808060005411611397576040517f08c379a00000000000000000000000000000000000000000000000000000000081526004018080602001828103825260168152602001807f496e646578206e6f7420696e7374616e7469617465640000000000000000000081525060200191505060405180910390fd5b6113a081610abd565b611412576040517f08c379a000000000000000000000000000000000000000000000000000000000815260040180806020018281038252600e8152602001807f496e64657820696e61637469766500000000000000000000000000000000000081525060200191505060405180910390fd5b600060066000848152602001908152602001600020905060008173__$2a307e3733810a923a91a6f7005edd72dc$__63906cc66c90916040518263ffffffff1660e01b8152600401611464919061296a565b60206040518083038186803b15801561147c57600080fd5b505af4158015611490573d6000803e3d6000fd5b505050506040513d601f19601f820116820180604052508101906114b49190611bcb565b905060011515811515141561153d578173__$2a307e3733810a923a91a6f7005edd72dc$__63aba4442390918685600a016040518463ffffffff1660e01b8152600401611503939291906129c3565b60006040518083038186803b15801561151b57600080fd5b505af415801561152f573d6000803e3d6000fd5b5050505061153c846115ea565b5b50505050565b600080600090505b83600301805490508110156115de5783600301818154811061156957fe5b9060005260206000200160009054906101000a900473ffffffffffffffffffffffffffffffffffffffff1673ffffffffffffffffffffffffffffffffffffffff168373ffffffffffffffffffffffffffffffffffffffff1614156115d15760019150506115e4565b808060010191505061154b565b50600090505b92915050565b60006001600083815260200190815260200160002060006101000a81548160ff0219169083151502179055506000600260008381526020019081526020016000208190555050565b828054600181600116156101000203166002900490600052602060002090601f01602090048101928261166857600085556116af565b82601f1061168157805160ff19168380011785556116af565b828001600101855582156116af579182015b828111156116ae578251825591602001919060010190611693565b5b5090506116bc9190611873565b5090565b828054828255906000526020600020908101928215611739579160200282015b828111156117385782518260006101000a81548173ffffffffffffffffffffffffffffffffffffffff021916908373ffffffffffffffffffffffffffffffffffffffff160217905550916020019190600101906116e0565b5b5090506117469190611873565b5090565b828054828255906000526020600020908101928215611786579160200282015b8281111561178557825182559160200191906001019061176a565b5b5090506117939190611873565b5090565b8280548282559060005260206000209081019282156117e6579160200282015b828111156117e55782518290805190602001906117d5929190611632565b50916020019190600101906117b7565b5b5090506117f39190611890565b5090565b6040518061018001604052806000801916815260200160608152602001606081526020016060815260200160608152602001606081526020016060815260200160001515815260200160008152602001600073ffffffffffffffffffffffffffffffffffffffff16815260200160608152602001600081525090565b5b8082111561188c576000816000905550600101611874565b5090565b5b808211156118b057600081816118a791906118b4565b50600101611891565b5090565b50805460018160011615610100020316600290046000825580601f106118da57506118f9565b601f0160209004906000526020600020908101906118f89190611873565b5b50565b60008135905061190b81613096565b92915050565b600082601f83011261192257600080fd5b813561193561193082612b7d565b612b4c565b9150818183526020840193506020810190508385602084028201111561195a57600080fd5b60005b8381101561198a578161197088826118fc565b84526020840193506020830192505060018101905061195d565b5050505092915050565b600082601f8301126119a557600080fd5b81356119b86119b382612ba9565b612b4c565b915081818352602084019350602081019050838560208402820111156119dd57600080fd5b60005b83811015611a0d57816119f38882611b38565b8452602084019350602083019250506001810190506119e0565b5050505092915050565b600082601f830112611a2857600080fd5b8135611a3b611a3682612bd5565b612b4c565b9150818183526020840193506020810190508360005b83811015611a815781358601611a678882611b4d565b845260208401935060208301925050600181019050611a51565b5050505092915050565b600082601f830112611a9c57600080fd5b8135611aaf611aaa82612c01565b612b4c565b91508181835260208401935060208101905083856020840282011115611ad457600080fd5b60005b83811015611b045781611aea8882611ba1565b845260208401935060208301925050600181019050611ad7565b5050505092915050565b600081519050611b1d816130ad565b92915050565b600081359050611b32816130c4565b92915050565b600081359050611b47816130db565b92915050565b600082601f830112611b5e57600080fd5b8135611b71611b6c82612c2d565b612b4c565b91508082526020830160208301858383011115611b8d57600080fd5b611b98838284612fa6565b50505092915050565b600081359050611bb0816130f2565b92915050565b600081519050611bc5816130f2565b92915050565b600060208284031215611bdd57600080fd5b6000611beb84828501611b0e565b91505092915050565b60008060008060008060c08789031215611c0d57600080fd5b6000611c1b89828a01611b23565b965050602087013567ffffffffffffffff811115611c3857600080fd5b611c4489828a01611b4d565b955050604087013567ffffffffffffffff811115611c6157600080fd5b611c6d89828a01611911565b945050606087013567ffffffffffffffff811115611c8a57600080fd5b611c9689828a01611911565b935050608087013567ffffffffffffffff811115611cb357600080fd5b611cbf89828a01611a8b565b92505060a087013567ffffffffffffffff811115611cdc57600080fd5b611ce889828a01611a17565b9150509295509295509295565b600060208284031215611d0757600080fd5b6000611d1584828501611ba1565b91505092915050565b600060208284031215611d3057600080fd5b6000611d3e84828501611bb6565b91505092915050565b60008060408385031215611d5a57600080fd5b6000611d6885828601611ba1565b9250506020611d79858286016118fc565b9150509250929050565b60008060408385031215611d9657600080fd5b6000611da485828601611ba1565b925050602083013567ffffffffffffffff811115611dc157600080fd5b611dcd85828601611a8b565b9150509250929050565b600080600060608486031215611dec57600080fd5b6000611dfa86828701611ba1565b9350506020611e0b86828701611b23565b925050604084013567ffffffffffffffff811115611e2857600080fd5b611e3486828701611994565b9150509250925092565b6000611e4a8383611eee565b60208301905092915050565b6000611e62838361246e565b60208301905092915050565b6000611e7a838361247d565b905092915050565b6000611e8e83836124b6565b905092915050565b6000611ea283836127f4565b905092915050565b6000611eb68383612844565b905092915050565b6000611eca83836128ab565b60208301905092915050565b6000611ee283836128d8565b60208301905092915050565b611ef781612ed3565b82525050565b6000611f0882612d16565b611f128185612df9565b9350611f1d83612c5d565b8060005b83811015611f4e578151611f358882611e3e565b9750611f4083612d84565b925050600181019050611f21565b5085935050505092915050565b6000611f6682612d16565b611f708185612e0a565b9350611f7b83612c5d565b8060005b83811015611fac578151611f938882611e3e565b9750611f9e83612d84565b925050600181019050611f7f565b5085935050505092915050565b6000611fc482612d21565b611fce8185612df9565b9350611fd983612c6d565b8060005b8381101561201157611fee82613052565b611ff88882611e3e565b975061200383612d91565b925050600181019050611fdd565b5085935050505092915050565b600061202982612d2c565b6120338185612e1b565b935061203e83612c82565b8060005b8381101561206f5781516120568882611e56565b975061206183612d9e565b925050600181019050612042565b5085935050505092915050565b600061208782612d37565b6120918185612e2c565b9350836020820285016120a385612c92565b8060005b858110156120df57848403895281516120c08582611e6e565b94506120cb83612dab565b925060208a019950506001810190506120a7565b50829750879550505050505092915050565b60006120fc82612d42565b6121068185612e2c565b93508360208202850161211885612ca2565b8060005b85811015612153578484038952816121348582611e82565b945061213f83612db8565b925060208a0199505060018101905061211c565b50829750879550505050505092915050565b600061217082612d4d565b61217a8185612e3d565b93508360208202850161218c85612cb7565b8060005b858110156121c857848403895281516121a98582611e96565b94506121b483612dc5565b925060208a01995050600181019050612190565b50829750879550505050505092915050565b60006121e582612d58565b6121ef8185612e3d565b93508360208202850161220185612cc7565b8060005b8581101561223c5784840389528161221d8582611eaa565b945061222883612dd2565b925060208a01995050600181019050612205565b50829750879550505050505092915050565b600061225982612d63565b6122638185612e4e565b935061226e83612cdc565b8060005b8381101561229f5781516122868882611ebe565b975061229183612ddf565b925050600181019050612272565b5085935050505092915050565b60006122b782612d63565b6122c18185612e5f565b93506122cc83612cdc565b8060005b838110156122fd5781516122e48882611ebe565b97506122ef83612ddf565b9250506001810190506122d0565b5085935050505092915050565b600061231582612d63565b61231f8185612e70565b935061232a83612cdc565b8060005b8381101561235b5781516123428882611ed6565b975061234d83612ddf565b92505060018101905061232e565b5085935050505092915050565b600061237382612d6e565b61237d8185612e4e565b935061238883612cec565b8060005b838110156123c05761239d82613065565b6123a78882611ebe565b97506123b283612dec565b92505060018101905061238c565b5085935050505092915050565b60006123d882612d6e565b6123e28185612e70565b93506123ed83612cec565b8060005b838110156124255761240282613065565b61240c8882611ed6565b975061241783612dec565b9250506001810190506123f1565b5085935050505092915050565b61243b81612ee5565b82525050565b61244a81612ee5565b82525050565b61245981612ef1565b82525050565b61246881612ef1565b82525050565b61247781612efb565b82525050565b600061248882612d79565b6124928185612e81565b93506124a2818560208601612fb5565b6124ab81613078565b840191505092915050565b6000815460018116600081146124d357600181146124f95761253d565b607f60028304166124e48187612e81565b955060ff19831686526020860193505061253d565b600282046125078187612e81565b955061251285612d01565b60005b8281101561253457815481890152600182019150602081019050612515565b80880195505050505b505092915050565b61254e81612f5e565b82525050565b61255d81612f82565b82525050565b60006101808301600083015161257c6000860182612450565b5060208301518482036020860152612594828261247d565b915050604083015184820360408601526125ae8282611efd565b915050606083015184820360608601526125c88282611efd565b915050608083015184820360808601526125e2828261224e565b91505060a083015184820360a08601526125fc828261207c565b91505060c083015184820360c08601526126168282612165565b91505060e083015161262b60e0860182612432565b506101008301516126406101008601826128ab565b50610120830151612655610120860182611eee565b5061014083015184820361014086015261266f828261224e565b9150506101608301516126866101608601826128ab565b508091505092915050565b6000610180830160008084015490506126a98161301c565b6126b66000870182612450565b506001840185830360208701526126cd83826124b6565b9250506002840185830360408701526126e68382611fb9565b9250506003840185830360608701526126ff8382611fb9565b9250506004840185830360808701526127188382612368565b9250506005840185830360a087015261273183826120f1565b9250506006840185830360c087015261274a83826121da565b9250506007840154905061275d81613002565b61276a60e0870182612432565b506008840154905061277b81613036565b6127896101008701826128ab565b506009840154905061279a81612fe8565b6127a8610120870182611eee565b50600a84018583036101408701526127c08382612368565b925050600b84015490506127d381613036565b6127e16101608701826128ab565b50819250505092915050565b8082525050565b600060608301600083015161280c6000860182611eee565b50602083015161281f6020860182612450565b5060408301518482036040860152612837828261224e565b9150508091505092915050565b600060608301600080840154905061285b81612fe8565b6128686000870182611eee565b50600184015490506128798161301c565b6128866020870182612450565b5060028401858303604087015261289d8382612368565b925050819250505092915050565b6128b481612f47565b82525050565b6128c381612f47565b82525050565b6128d281612f47565b82525050565b6128e181612f47565b82525050565b6128f081612f51565b82525050565b600060408201905081810360008301526129108185611f5b565b9050818103602083015261292481846122ac565b90509392505050565b60006020820190506129426000830184612441565b92915050565b600060208201905081810360008301526129628184612563565b905092915050565b600060208201905061297f60008301846127ed565b92915050565b600060608201905061299a60008301866127ed565b6129a760208301856128c9565b81810360408301526129b9818461230a565b9050949350505050565b60006060820190506129d860008301866127ed565b6129e560208301856128c9565b81810360408301526129f781846123cd565b9050949350505050565b600060c082019050612a1660008301896127ed565b612a2360208301886128c9565b612a30604083018761245f565b8181036060830152612a42818661201e565b9050612a516080830185612554565b612a5e60a08301846128e7565b979650505050505050565b6000606082019050612a7e60008301866127ed565b612a8b60208301856128c9565b612a986040830184612545565b949350505050565b600060c082019050612ab560008301896127ed565b612ac260208301886128c9565b612acf6040830187612545565b612adc6060830186612554565b612ae960808301856128e7565b612af660a08301846128c9565b979650505050505050565b6000602082019050612b1660008301846128ba565b92915050565b6000604082019050612b3160008301856128ba565b8181036020830152612b438184612691565b90509392505050565b6000604051905081810181811067ffffffffffffffff82111715612b7357612b72613050565b5b8060405250919050565b600067ffffffffffffffff821115612b9857612b97613050565b5b602082029050602081019050919050565b600067ffffffffffffffff821115612bc457612bc3613050565b5b602082029050602081019050919050565b600067ffffffffffffffff821115612bf057612bef613050565b5b602082029050602081019050919050565b600067ffffffffffffffff821115612c1c57612c1b613050565b5b602082029050602081019050919050565b600067ffffffffffffffff821115612c4857612c47613050565b5b601f19601f8301169050602081019050919050565b6000819050602082019050919050565b60008190508160005260206000209050919050565b6000819050602082019050919050565b6000819050602082019050919050565b60008190508160005260206000209050919050565b6000819050602082019050919050565b60008190508160005260206000209050919050565b6000819050602082019050919050565b60008190508160005260206000209050919050565b60008190508160005260206000209050919050565b600081519050919050565b600081549050919050565b600081519050919050565b600081519050919050565b600081549050919050565b600081519050919050565b600081549050919050565b600081519050919050565b600081549050919050565b600081519050919050565b6000602082019050919050565b6000600182019050919050565b6000602082019050919050565b6000602082019050919050565b6000600182019050919050565b6000602082019050919050565b6000600382019050919050565b6000602082019050919050565b6000600182019050919050565b600082825260208201905092915050565b600082825260208201905092915050565b600082825260208201905092915050565b600082825260208201905092915050565b600082825260208201905092915050565b600082825260208201905092915050565b600082825260208201905092915050565b600082825260208201905092915050565b600082825260208201905092915050565b600073ffffffffffffffffffffffffffffffffffffffff82169050919050565b600060ff82169050919050565b6000819050919050565b6000819050919050565b6000612ede82612f27565b9050919050565b60008115159050919050565b6000819050919050565b60007fffffffffffffffff00000000000000000000000000000000000000000000000082169050919050565b600073ffffffffffffffffffffffffffffffffffffffff82169050919050565b6000819050919050565b600060ff82169050919050565b6000612f6982612f70565b9050919050565b6000612f7b82612f27565b9050919050565b6000612f8d82612f94565b9050919050565b6000612f9f82612f27565b9050919050565b82818337600083830152505050565b60005b83811015612fd3578082015181840152602081019050612fb8565b83811115612fe2576000848401525b50505050565b6000612ffb612ff683613089565b612e92565b9050919050565b600061301561301083613089565b612eb2565b9050919050565b600061302f61302a83613089565b612ebf565b9050919050565b600061304961304483613089565b612ec9565b9050919050565bfe5b600061305e8254612fe8565b9050919050565b60006130718254613036565b9050919050565b6000601f19601f8301169050919050565b60008160001c9050919050565b61309f81612ed3565b81146130aa57600080fd5b50565b6130b681612ee5565b81146130c157600080fd5b50565b6130cd81612ef1565b81146130d857600080fd5b50565b6130e481612efb565b81146130ef57600080fd5b50565b6130fb81612f47565b811461310657600080fd5b5056fea2646970667358221220c9119333f4e18f1225d60a693f45a08bd92fc9aa21864a0bee705341f3dc601564736f6c63430007040033",
  "libraries": {
    "TurnBasedGameContext": "0x588689A952baa821E168BF225F947746C05f66ce"
  },
  "devdoc": {
    "kind": "dev",
    "methods": {
      "applyVerificationResult(uint256)": {
        "params": {
          "_index": "index identifying the game"
        }
      },
      "challengeGame(uint256)": {
        "params": {
          "_index": "index identifying the game"
        },
        "returns": {
          "_0": "index of the Descartes computation"
        }
      },
      "claimResult(uint256,uint256[])": {
        "params": {
          "_fundsShare": "result of the game given as a distribution of the funds previously locked",
          "_index": "index identifying the game"
        }
      },
      "confirmResult(uint256)": {
        "params": {
          "_index": "index identifying the game"
        }
      },
      "constructor": {
        "params": {
          "descartesAddress": "address of the Descartes contract",
          "loggerAddress": "address of the Logger contract"
        }
      },
      "getContext(uint256)": {
        "params": {
          "_index": "index identifying the game"
        },
        "returns": {
          "_0": "GameContext struct for the specified game"
        }
      },
      "getSubInstances(uint256,address)": {
        "params": {
          "_index": "index identifying the game"
        }
      },
      "isConcerned(uint256,address)": {
        "params": {
          "_index": "index identifying the game",
          "_player": "a player's address"
        },
        "returns": {
          "_0": "true if the player is concerned about the game, false otherwise"
        }
      },
      "startGame(bytes32,bytes,address[],address[],uint256[],bytes[])": {
        "params": {
          "_gameMetadata": "game-specific initial metadata/parameters",
          "_gameTemplateHash": "template hash for the Cartesi Machine computation that verifies the game (identifies the game computation/logic)",
          "_playerFunds": "funds/balances that each player is bringing into the game",
          "_playerInfos": "game-specific information for each player",
          "_players": "addresses of the players involved",
          "_validators": "addresses of the validator nodes that will run a Descartes verification should it be needed"
        },
        "returns": {
          "_0": "index of the game instance"
        }
      },
      "submitTurn(uint256,bytes32,bytes8[])": {
        "params": {
          "_data": "game-specific turn data (array of 64-bit words)",
          "_index": "index identifying the game",
          "_stateHash": "game state for which the turn applies"
        }
      }
    },
    "title": "TurnBasedGame",
    "version": 1
  },
  "userdoc": {
    "kind": "user",
    "methods": {
      "applyVerificationResult(uint256)": {
        "notice": "Applies the result of a game verified by Descartes, transferring funds according to the Descartes computation output"
      },
      "challengeGame(uint256)": {
        "notice": "Challenges game state, triggering a verification by a Descartes computation"
      },
      "claimResult(uint256,uint256[])": {
        "notice": "Claims game has ended with the provided result (share of locked funds)"
      },
      "confirmResult(uint256)": {
        "notice": "Confirms game results previously claimed"
      },
      "constructor": {
        "notice": "Constructor"
      },
      "getContext(uint256)": {
        "notice": "Returns game context"
      },
      "getSubInstances(uint256,address)": {
        "notice": "Retrieves sub-instances of the game (required method for Instantiator)."
      },
      "isConcerned(uint256,address)": {
        "notice": "Indicates whether a given player is concerned about a game"
      },
      "startGame(bytes32,bytes,address[],address[],uint256[],bytes[])": {
        "notice": "Starts a new game"
      },
      "submitTurn(uint256,bytes32,bytes8[])": {
        "notice": "Submits a new turn for a given game"
      }
    },
    "notice": "Generic contract for handling turn-based games validated by Descartes computations",
    "version": 1
  },
  "storageLayout": {
    "storage": [
      {
        "astId": 674,
        "contract": "contracts/TurnBasedGame.sol:TurnBasedGame",
        "label": "currentIndex",
        "offset": 0,
        "slot": "0",
        "type": "t_uint256"
      },
      {
        "astId": 678,
        "contract": "contracts/TurnBasedGame.sol:TurnBasedGame",
        "label": "active",
        "offset": 0,
        "slot": "1",
        "type": "t_mapping(t_uint256,t_bool)"
      },
      {
        "astId": 682,
        "contract": "contracts/TurnBasedGame.sol:TurnBasedGame",
        "label": "nonce",
        "offset": 0,
        "slot": "2",
        "type": "t_mapping(t_uint256,t_uint256)"
      },
      {
        "astId": 1168,
        "contract": "contracts/TurnBasedGame.sol:TurnBasedGame",
        "label": "descartes",
        "offset": 0,
        "slot": "3",
        "type": "t_contract(DescartesInterface)86"
      },
      {
        "astId": 1170,
        "contract": "contracts/TurnBasedGame.sol:TurnBasedGame",
        "label": "logger",
        "offset": 0,
        "slot": "4",
        "type": "t_contract(Logger)562"
      },
      {
        "astId": 1172,
        "contract": "contracts/TurnBasedGame.sol:TurnBasedGame",
        "label": "emptyDataLogIndex",
        "offset": 0,
        "slot": "5",
        "type": "t_uint256"
      },
      {
        "astId": 1179,
        "contract": "contracts/TurnBasedGame.sol:TurnBasedGame",
        "label": "instances",
        "offset": 0,
        "slot": "6",
        "type": "t_mapping(t_uint256,t_struct(GameContext)1575_storage)"
      }
    ],
    "types": {
      "t_address": {
        "encoding": "inplace",
        "label": "address",
        "numberOfBytes": "20"
      },
      "t_array(t_address)dyn_storage": {
        "base": "t_address",
        "encoding": "dynamic_array",
        "label": "address[]",
        "numberOfBytes": "32"
      },
      "t_array(t_bytes_storage)dyn_storage": {
        "base": "t_bytes_storage",
        "encoding": "dynamic_array",
        "label": "bytes[]",
        "numberOfBytes": "32"
      },
      "t_array(t_struct(Turn)1544_storage)dyn_storage": {
        "base": "t_struct(Turn)1544_storage",
        "encoding": "dynamic_array",
        "label": "struct Turn[]",
        "numberOfBytes": "32"
      },
      "t_array(t_uint256)dyn_storage": {
        "base": "t_uint256",
        "encoding": "dynamic_array",
        "label": "uint256[]",
        "numberOfBytes": "32"
      },
      "t_bool": {
        "encoding": "inplace",
        "label": "bool",
        "numberOfBytes": "1"
      },
      "t_bytes32": {
        "encoding": "inplace",
        "label": "bytes32",
        "numberOfBytes": "32"
      },
      "t_bytes_storage": {
        "encoding": "bytes",
        "label": "bytes",
        "numberOfBytes": "32"
      },
      "t_contract(DescartesInterface)86": {
        "encoding": "inplace",
        "label": "contract DescartesInterface",
        "numberOfBytes": "20"
      },
      "t_contract(Logger)562": {
        "encoding": "inplace",
        "label": "contract Logger",
        "numberOfBytes": "20"
      },
      "t_mapping(t_uint256,t_bool)": {
        "encoding": "mapping",
        "key": "t_uint256",
        "label": "mapping(uint256 => bool)",
        "numberOfBytes": "32",
        "value": "t_bool"
      },
      "t_mapping(t_uint256,t_struct(GameContext)1575_storage)": {
        "encoding": "mapping",
        "key": "t_uint256",
        "label": "mapping(uint256 => struct GameContext)",
        "numberOfBytes": "32",
        "value": "t_struct(GameContext)1575_storage"
      },
      "t_mapping(t_uint256,t_uint256)": {
        "encoding": "mapping",
        "key": "t_uint256",
        "label": "mapping(uint256 => uint256)",
        "numberOfBytes": "32",
        "value": "t_uint256"
      },
      "t_struct(GameContext)1575_storage": {
        "encoding": "inplace",
        "label": "struct GameContext",
        "members": [
          {
            "astId": 1546,
            "contract": "contracts/TurnBasedGame.sol:TurnBasedGame",
            "label": "gameTemplateHash",
            "offset": 0,
            "slot": "0",
            "type": "t_bytes32"
          },
          {
            "astId": 1548,
            "contract": "contracts/TurnBasedGame.sol:TurnBasedGame",
            "label": "gameMetadata",
            "offset": 0,
            "slot": "1",
            "type": "t_bytes_storage"
          },
          {
            "astId": 1551,
            "contract": "contracts/TurnBasedGame.sol:TurnBasedGame",
            "label": "validators",
            "offset": 0,
            "slot": "2",
            "type": "t_array(t_address)dyn_storage"
          },
          {
            "astId": 1554,
            "contract": "contracts/TurnBasedGame.sol:TurnBasedGame",
            "label": "players",
            "offset": 0,
            "slot": "3",
            "type": "t_array(t_address)dyn_storage"
          },
          {
            "astId": 1557,
            "contract": "contracts/TurnBasedGame.sol:TurnBasedGame",
            "label": "playerFunds",
            "offset": 0,
            "slot": "4",
            "type": "t_array(t_uint256)dyn_storage"
          },
          {
            "astId": 1560,
            "contract": "contracts/TurnBasedGame.sol:TurnBasedGame",
            "label": "playerInfos",
            "offset": 0,
            "slot": "5",
            "type": "t_array(t_bytes_storage)dyn_storage"
          },
          {
            "astId": 1563,
            "contract": "contracts/TurnBasedGame.sol:TurnBasedGame",
            "label": "turns",
            "offset": 0,
            "slot": "6",
            "type": "t_array(t_struct(Turn)1544_storage)dyn_storage"
          },
          {
            "astId": 1565,
            "contract": "contracts/TurnBasedGame.sol:TurnBasedGame",
            "label": "isDescartesInstantiated",
            "offset": 0,
            "slot": "7",
            "type": "t_bool"
          },
          {
            "astId": 1567,
            "contract": "contracts/TurnBasedGame.sol:TurnBasedGame",
            "label": "descartesIndex",
            "offset": 0,
            "slot": "8",
            "type": "t_uint256"
          },
          {
            "astId": 1569,
            "contract": "contracts/TurnBasedGame.sol:TurnBasedGame",
            "label": "claimer",
            "offset": 0,
            "slot": "9",
            "type": "t_address"
          },
          {
            "astId": 1572,
            "contract": "contracts/TurnBasedGame.sol:TurnBasedGame",
            "label": "claimedFundsShare",
            "offset": 0,
            "slot": "10",
            "type": "t_array(t_uint256)dyn_storage"
          },
          {
            "astId": 1574,
            "contract": "contracts/TurnBasedGame.sol:TurnBasedGame",
            "label": "claimAgreementMask",
            "offset": 0,
            "slot": "11",
            "type": "t_uint256"
          }
        ],
        "numberOfBytes": "384"
      },
      "t_struct(Turn)1544_storage": {
        "encoding": "inplace",
        "label": "struct Turn",
        "members": [
          {
            "astId": 1538,
            "contract": "contracts/TurnBasedGame.sol:TurnBasedGame",
            "label": "player",
            "offset": 0,
            "slot": "0",
            "type": "t_address"
          },
          {
            "astId": 1540,
            "contract": "contracts/TurnBasedGame.sol:TurnBasedGame",
            "label": "stateHash",
            "offset": 0,
            "slot": "1",
            "type": "t_bytes32"
          },
          {
            "astId": 1543,
            "contract": "contracts/TurnBasedGame.sol:TurnBasedGame",
            "label": "dataLogIndices",
            "offset": 0,
            "slot": "2",
            "type": "t_array(t_uint256)dyn_storage"
          }
        ],
        "numberOfBytes": "96"
      },
      "t_uint256": {
        "encoding": "inplace",
        "label": "uint256",
        "numberOfBytes": "32"
      }
    }
  }
}