{
  "address": "0xEdeb0BAfEA59d4ccD00f4F376fEC24ED60e4E008",
  "abi": [
    {
      "inputs": [
        {
          "internalType": "address",
          "name": "_allowedERC20Address",
          "type": "address"
        },
        {
          "internalType": "address",
          "name": "_turnBasedGameAddress",
          "type": "address"
        }
      ],
      "stateMutability": "nonpayable",
      "type": "constructor"
    },
    {
      "inputs": [
        {
          "internalType": "bytes32",
          "name": "_gameTemplateHash",
          "type": "bytes32"
        },
        {
          "internalType": "bytes",
          "name": "_gameMetadata",
          "type": "bytes"
        },
        {
          "internalType": "address[]",
          "name": "_gameValidators",
          "type": "address[]"
        },
        {
          "internalType": "uint8",
          "name": "_gameNumPlayers",
          "type": "uint8"
        },
        {
          "internalType": "uint256",
          "name": "_gameMinFunds",
          "type": "uint256"
        }
      ],
      "name": "getQueue",
      "outputs": [
        {
          "components": [
            {
              "internalType": "address",
              "name": "addr",
              "type": "address"
            },
            {
              "internalType": "uint256",
              "name": "funds",
              "type": "uint256"
            },
            {
              "internalType": "bytes",
              "name": "info",
              "type": "bytes"
            }
          ],
          "internalType": "struct TurnBasedGameLobby.QueuedPlayer[]",
          "name": "",
          "type": "tuple[]"
        }
      ],
      "stateMutability": "view",
      "type": "function"
    },
    {
      "inputs": [
        {
          "internalType": "bytes32",
          "name": "_gameTemplateHash",
          "type": "bytes32"
        },
        {
          "internalType": "bytes",
          "name": "_gameMetadata",
          "type": "bytes"
        },
        {
          "internalType": "address[]",
          "name": "_gameValidators",
          "type": "address[]"
        },
        {
          "internalType": "uint8",
          "name": "_gameNumPlayers",
          "type": "uint8"
        },
        {
          "internalType": "uint256",
          "name": "_gameMinFunds",
          "type": "uint256"
        },
        {
          "internalType": "uint256",
          "name": "_playerFunds",
          "type": "uint256"
        },
        {
          "internalType": "address",
          "name": "_erc20Address",
          "type": "address"
        },
        {
          "internalType": "bytes",
          "name": "_playerInfo",
          "type": "bytes"
        }
      ],
      "name": "joinGame",
      "outputs": [],
      "stateMutability": "nonpayable",
      "type": "function"
    },
    {
      "inputs": [
        {
          "internalType": "contract IERC20",
          "name": "_tokenProvider",
          "type": "address"
        },
        {
          "internalType": "address",
          "name": "_playerAddress",
          "type": "address"
        },
        {
          "internalType": "uint256",
          "name": "_gameMinFunds",
          "type": "uint256"
        }
      ],
      "name": "lockFunds",
      "outputs": [],
      "stateMutability": "nonpayable",
      "type": "function"
    },
    {
      "inputs": [
        {
          "internalType": "contract IERC20",
          "name": "_tokenProvider",
          "type": "address"
        },
        {
          "internalType": "uint256",
          "name": "_tokensToTransfer",
          "type": "uint256"
        }
      ],
      "name": "transferTokensToGameAccount",
      "outputs": [],
      "stateMutability": "nonpayable",
      "type": "function"
    }
  ],
  "transactionHash": "0x259e7438782d536d512fd1b248261e17935a8a24aead98fe3598b71e0a484743",
  "args": [
    "0xBe2980dAC8189F9CF590d7BDB40F738a27f9fBa4",
    "0x8A7FeA6951591935Debc21DcEDB80CCB02733067"
  ],
  "solcInputHash": "fb9352d7420fec23812161acb4cf722a",
  "bytecode": "0x60806040523480156200001157600080fd5b5060405162001c2938038062001c298339818101604052810190620000379190620000d7565b816000806101000a81548173ffffffffffffffffffffffffffffffffffffffff021916908373ffffffffffffffffffffffffffffffffffffffff16021790555080600160006101000a81548173ffffffffffffffffffffffffffffffffffffffff021916908373ffffffffffffffffffffffffffffffffffffffff160217905550505062000166565b600081519050620000d1816200014c565b92915050565b60008060408385031215620000eb57600080fd5b6000620000fb85828601620000c0565b92505060206200010e85828601620000c0565b9150509250929050565b600062000125826200012c565b9050919050565b600073ffffffffffffffffffffffffffffffffffffffff82169050919050565b620001578162000118565b81146200016357600080fd5b50565b611ab380620001766000396000f3fe608060405234801561001057600080fd5b506004361061004c5760003560e01c80631f1fa37b1461005157806339b757111461006d5780636a5c5b9014610089578063a94d2415146100b9575b600080fd5b61006b60048036038101906100669190610eb8565b6100d5565b005b61008760048036038101906100829190611001565b6107e5565b005b6100a3600480360381019061009e9190610e11565b610899565b6040516100b0919061162f565b60405180910390f35b6100d360048036038101906100ce9190610fb2565b610a45565b005b83831015610118576040517f08c379a000000000000000000000000000000000000000000000000000000000815260040161010f90611715565b60405180910390fd5b60008054906101000a900473ffffffffffffffffffffffffffffffffffffffff1673ffffffffffffffffffffffffffffffffffffffff168273ffffffffffffffffffffffffffffffffffffffff16146101a6576040517f08c379a000000000000000000000000000000000000000000000000000000000815260040161019d906116d5565b60405180910390fd5b600088888888886040516020016101c1959493929190611578565b604051602081830303815290604052805190602001209050600060026000838152602001908152602001600020905060005b81805490508110156102b8573373ffffffffffffffffffffffffffffffffffffffff1682828154811061022257fe5b906000526020600020906003020160000160009054906101000a900473ffffffffffffffffffffffffffffffffffffffff1673ffffffffffffffffffffffffffffffffffffffff1614156102ab576040517f08c379a00000000000000000000000000000000000000000000000000000000081526004016102a2906116f5565b60405180910390fd5b80806001019150506101f3565b506102c4843388610a45565b6001870360ff16818054905010156103ca576102de610ada565b33816000019073ffffffffffffffffffffffffffffffffffffffff16908173ffffffffffffffffffffffffffffffffffffffff1681525050858160200181815250508381604001819052508181908060018154018082558091505060019003906000526020600020906003020160009091909190915060008201518160000160006101000a81548173ffffffffffffffffffffffffffffffffffffffff021916908373ffffffffffffffffffffffffffffffffffffffff1602179055506020820151816001015560408201518160020190805190602001906103c1929190610b11565b505050506107d9565b60608760ff1667ffffffffffffffff811180156103e657600080fd5b506040519080825280602002602001820160405280156104155781602001602082028036833780820191505090505b50905060608860ff1667ffffffffffffffff8111801561043457600080fd5b506040519080825280602002602001820160405280156104635781602001602082028036833780820191505090505b50905060608960ff1667ffffffffffffffff8111801561048257600080fd5b506040519080825280602002602001820160405280156104b657816020015b60608152602001906001900390816104a15790505b50905060005b60018b0360ff1681101561065e578481815481106104d657fe5b906000526020600020906003020160000160009054906101000a900473ffffffffffffffffffffffffffffffffffffffff1684828151811061051457fe5b602002602001019073ffffffffffffffffffffffffffffffffffffffff16908173ffffffffffffffffffffffffffffffffffffffff168152505084818154811061055a57fe5b90600052602060002090600302016001015483828151811061057857fe5b60200260200101818152505084818154811061059057fe5b90600052602060002090600302016002018054600181600116156101000203166002900480601f0160208091040260200160405190810160405280929190818152602001828054600181600116156101000203166002900480156106355780601f1061060a57610100808354040283529160200191610635565b820191906000526020600020905b81548152906001019060200180831161061857829003601f168201915b505050505082828151811061064657fe5b602002602001018190525080806001019150506104bc565b50338360018c0360ff168151811061067257fe5b602002602001019073ffffffffffffffffffffffffffffffffffffffff16908173ffffffffffffffffffffffffffffffffffffffff1681525050878260018c0360ff16815181106106bf57fe5b602002602001018181525050858160018c0360ff16815181106106de57fe5b60200260200101819052506000898b60ff160290506106fd88826107e5565b600160009054906101000a900473ffffffffffffffffffffffffffffffffffffffff1673ffffffffffffffffffffffffffffffffffffffff16632ab230888f8f8f8888886040518763ffffffff1660e01b815260040161076296959493929190611651565b602060405180830381600087803b15801561077c57600080fd5b505af1158015610790573d6000803e3d6000fd5b505050506040513d601f19601f820116820180604052508101906107b4919061103d565b506002600087815260200190815260200160002060006107d49190610b9f565b505050505b50505050505050505050565b8173ffffffffffffffffffffffffffffffffffffffff1663a9059cbb600160009054906101000a900473ffffffffffffffffffffffffffffffffffffffff16836040518363ffffffff1660e01b8152600401610842929190611606565b602060405180830381600087803b15801561085c57600080fd5b505af1158015610870573d6000803e3d6000fd5b505050506040513d601f19601f820116820180604052508101906108949190610de8565b505050565b6060600086868686866040516020016108b6959493929190611578565b60405160208183030381529060405280519060200120905060026000828152602001908152602001600020805480602002602001604051908101604052809291908181526020016000905b82821015610a3557838290600052602060002090600302016040518060600160405290816000820160009054906101000a900473ffffffffffffffffffffffffffffffffffffffff1673ffffffffffffffffffffffffffffffffffffffff1673ffffffffffffffffffffffffffffffffffffffff16815260200160018201548152602001600282018054600181600116156101000203166002900480601f016020809104026020016040519081016040528092919081815260200182805460018160011615610100020316600290048015610a1d5780601f106109f257610100808354040283529160200191610a1d565b820191906000526020600020905b815481529060010190602001808311610a0057829003601f168201915b50505050508152505081526020019060010190610901565b5050505091505095945050505050565b8273ffffffffffffffffffffffffffffffffffffffff166323b872dd8330846040518463ffffffff1660e01b8152600401610a82939291906115cf565b602060405180830381600087803b158015610a9c57600080fd5b505af1158015610ab0573d6000803e3d6000fd5b505050506040513d601f19601f82011682018060405250810190610ad49190610de8565b50505050565b6040518060600160405280600073ffffffffffffffffffffffffffffffffffffffff16815260200160008152602001606081525090565b828054600181600116156101000203166002900490600052602060002090601f016020900481019282610b475760008555610b8e565b82601f10610b6057805160ff1916838001178555610b8e565b82800160010185558215610b8e579182015b82811115610b8d578251825591602001919060010190610b72565b5b509050610b9b9190610bc3565b5090565b5080546000825560030290600052602060002090810190610bc09190610be0565b50565b5b80821115610bdc576000816000905550600101610bc4565b5090565b5b80821115610c3257600080820160006101000a81549073ffffffffffffffffffffffffffffffffffffffff02191690556001820160009055600282016000610c299190610c36565b50600301610be1565b5090565b50805460018160011615610100020316600290046000825580601f10610c5c5750610c7b565b601f016020900490600052602060002090810190610c7a9190610bc3565b5b50565b600081359050610c8d816119f3565b92915050565b600082601f830112610ca457600080fd5b8135610cb7610cb282611766565b611735565b91508181835260208401935060208101905083856020840282011115610cdc57600080fd5b60005b83811015610d0c5781610cf28882610c7e565b845260208401935060208301925050600181019050610cdf565b5050505092915050565b600081519050610d2581611a0a565b92915050565b600081359050610d3a81611a21565b92915050565b600082601f830112610d5157600080fd5b8135610d64610d5f82611792565b611735565b91508082526020830160208301858383011115610d8057600080fd5b610d8b83828461196b565b50505092915050565b600081359050610da381611a38565b92915050565b600081359050610db881611a4f565b92915050565b600081519050610dcd81611a4f565b92915050565b600081359050610de281611a66565b92915050565b600060208284031215610dfa57600080fd5b6000610e0884828501610d16565b91505092915050565b600080600080600060a08688031215610e2957600080fd5b6000610e3788828901610d2b565b955050602086013567ffffffffffffffff811115610e5457600080fd5b610e6088828901610d40565b945050604086013567ffffffffffffffff811115610e7d57600080fd5b610e8988828901610c93565b9350506060610e9a88828901610dd3565b9250506080610eab88828901610da9565b9150509295509295909350565b600080600080600080600080610100898b031215610ed557600080fd5b6000610ee38b828c01610d2b565b985050602089013567ffffffffffffffff811115610f0057600080fd5b610f0c8b828c01610d40565b975050604089013567ffffffffffffffff811115610f2957600080fd5b610f358b828c01610c93565b9650506060610f468b828c01610dd3565b9550506080610f578b828c01610da9565b94505060a0610f688b828c01610da9565b93505060c0610f798b828c01610c7e565b92505060e089013567ffffffffffffffff811115610f9657600080fd5b610fa28b828c01610d40565b9150509295985092959890939650565b600080600060608486031215610fc757600080fd5b6000610fd586828701610d94565b9350506020610fe686828701610c7e565b9250506040610ff786828701610da9565b9150509250925092565b6000806040838503121561101457600080fd5b600061102285828601610d94565b925050602061103385828601610da9565b9150509250929050565b60006020828403121561104f57600080fd5b600061105d84828501610dbe565b91505092915050565b600061107283836110d6565b60208301905092915050565b600061108a83836110f4565b60208301905092915050565b60006110a2838361132d565b905092915050565b60006110b683836114dc565b905092915050565b60006110ca838361152c565b60208301905092915050565b6110df816118fa565b82525050565b6110ee816118fa565b82525050565b6110fd816118fa565b82525050565b600061110e82611802565b611118818561186d565b9350611123836117c2565b8060005b8381101561115457815161113b8882611066565b975061114683611839565b925050600181019050611127565b5085935050505092915050565b600061116c82611802565b611176818561187e565b9350611181836117c2565b8060005b838110156111b2578151611199888261107e565b97506111a483611839565b925050600181019050611185565b5085935050505092915050565b60006111ca8261180d565b6111d48185611889565b9350836020820285016111e6856117d2565b8060005b8581101561122257848403895281516112038582611096565b945061120e83611846565b925060208a019950506001810190506111ea565b50829750879550505050505092915050565b600061123f82611818565b611249818561189a565b93508360208202850161125b856117e2565b8060005b85811015611297578484038952815161127885826110aa565b945061128383611853565b925060208a0199505060018101905061125f565b50829750879550505050505092915050565b60006112b482611823565b6112be81856118ab565b93506112c9836117f2565b8060005b838110156112fa5781516112e188826110be565b97506112ec83611860565b9250506001810190506112cd565b5085935050505092915050565b61131081611918565b82525050565b61132761132282611918565b6119ad565b82525050565b60006113388261182e565b61134281856118bc565b935061135281856020860161197a565b61135b816119d5565b840191505092915050565b60006113718261182e565b61137b81856118cd565b935061138b81856020860161197a565b611394816119d5565b840191505092915050565b60006113aa8261182e565b6113b481856118de565b93506113c481856020860161197a565b80840191505092915050565b60006113dd6019836118e9565b91507f556e657870656374656420746f6b656e2070726f7669646572000000000000006000830152602082019050919050565b600061141d6032836118e9565b91507f506c617965722068617320616c7265616479206265656e20656e71756575656460008301527f20746f206a6f696e20746869732067616d6500000000000000000000000000006020830152604082019050919050565b60006114836036836118e9565b91507f506c617965722773207374616b65642066756e647320697320696e737566666960008301527f6369656e7420746f206a6f696e207468652067616d65000000000000000000006020830152604082019050919050565b60006060830160008301516114f460008601826110d6565b506020830151611507602086018261152c565b506040830151848203604086015261151f828261132d565b9150508091505092915050565b61153581611954565b82525050565b61154481611954565b82525050565b61155b61155682611954565b6119b7565b82525050565b61157261156d8261195e565b6119c1565b82525050565b60006115848288611316565b602082019150611594828761139f565b91506115a08286611161565b91506115ac8285611561565b6001820191506115bc828461154a565b6020820191508190509695505050505050565b60006060820190506115e460008301866110e5565b6115f160208301856110e5565b6115fe604083018461153b565b949350505050565b600060408201905061161b60008301856110e5565b611628602083018461153b565b9392505050565b600060208201905081810360008301526116498184611234565b905092915050565b600060c0820190506116666000830189611307565b81810360208301526116788188611366565b9050818103604083015261168c8187611103565b905081810360608301526116a08186611103565b905081810360808301526116b481856112a9565b905081810360a08301526116c881846111bf565b9050979650505050505050565b600060208201905081810360008301526116ee816113d0565b9050919050565b6000602082019050818103600083015261170e81611410565b9050919050565b6000602082019050818103600083015261172e81611476565b9050919050565b6000604051905081810181811067ffffffffffffffff8211171561175c5761175b6119d3565b5b8060405250919050565b600067ffffffffffffffff821115611781576117806119d3565b5b602082029050602081019050919050565b600067ffffffffffffffff8211156117ad576117ac6119d3565b5b601f19601f8301169050602081019050919050565b6000819050602082019050919050565b6000819050602082019050919050565b6000819050602082019050919050565b6000819050602082019050919050565b600081519050919050565b600081519050919050565b600081519050919050565b600081519050919050565b600081519050919050565b6000602082019050919050565b6000602082019050919050565b6000602082019050919050565b6000602082019050919050565b600082825260208201905092915050565b600081905092915050565b600082825260208201905092915050565b600082825260208201905092915050565b600082825260208201905092915050565b600082825260208201905092915050565b600082825260208201905092915050565b600081905092915050565b600082825260208201905092915050565b600061190582611934565b9050919050565b60008115159050919050565b6000819050919050565b600061192d826118fa565b9050919050565b600073ffffffffffffffffffffffffffffffffffffffff82169050919050565b6000819050919050565b600060ff82169050919050565b82818337600083830152505050565b60005b8381101561199857808201518184015260208101905061197d565b838111156119a7576000848401525b50505050565b6000819050919050565b6000819050919050565b60006119cc826119e6565b9050919050565bfe5b6000601f19601f8301169050919050565b60008160f81b9050919050565b6119fc816118fa565b8114611a0757600080fd5b50565b611a138161190c565b8114611a1e57600080fd5b50565b611a2a81611918565b8114611a3557600080fd5b50565b611a4181611922565b8114611a4c57600080fd5b50565b611a5881611954565b8114611a6357600080fd5b50565b611a6f8161195e565b8114611a7a57600080fd5b5056fea26469706673582212205397fa88943c57233bd807ba58884ba4632bf8c0c7aa27ae7d4e4ea45410549f64736f6c63430007040033",
  "devdoc": {
    "kind": "dev",
    "methods": {
      "constructor": {
        "params": {
          "_allowedERC20Address": "Poker Token contract address used to ensure that this will be the only token provider (for now)",
          "_turnBasedGameAddress": "address of the TurnBasedGame contract used for starting games"
        }
      },
      "getQueue(bytes32,bytes,address[],uint8,uint256)": {
        "params": {
          "_gameMetadata": "game-specific initial metadata/parameters",
          "_gameMinFunds": "minimum funds required to be staked in order to join the game",
          "_gameNumPlayers": "number of players in the game",
          "_gameTemplateHash": "template hash for the Cartesi Machine computation that verifies the game (identifies the game computation/logic)",
          "_gameValidators": "addresses of the validator nodes that will run a Descartes verification should it be needed"
        },
        "returns": {
          "_0": "array of QueuedPlayer structs representing the currently enqueued players for the specified game"
        }
      },
      "joinGame(bytes32,bytes,address[],uint8,uint256,uint256,address,bytes)": {
        "params": {
          "_erc20Address": "Address for a ERC20 compatible token provider",
          "_gameMetadata": "game-specific initial metadata/parameters",
          "_gameMinFunds": "minimum funds required to be staked in order to join the game",
          "_gameNumPlayers": "number of players in the game",
          "_gameTemplateHash": "template hash for the Cartesi Machine computation that verifies the game (identifies the game computation/logic)",
          "_gameValidators": "addresses of the validator nodes that will run a Descartes verification should it be needed",
          "_playerFunds": "amount being staked by the player joining the game",
          "_playerInfo": "game-specific information for the player joining the game"
        }
      },
      "lockFunds(address,address,uint256)": {
        "params": {
          "_gameMinFunds": "minimum funds required to be staked in order to join the game",
          "_playerAddress": "address for the player whose tokens will be locked in lobby account",
          "_tokenProvider": "ERC20 compatible token provider instance"
        }
      },
      "transferTokensToGameAccount(address,uint256)": {
        "params": {
          "_tokenProvider": "ERC20 compatible token provider instance",
          "_tokensToTransfer": "Amount of tokens locked in lobby contract that will be transfered to game contract"
        }
      }
    },
    "title": "TurnBasedGameLobby",
    "version": 1
  },
  "userdoc": {
    "kind": "user",
    "methods": {
      "constructor": {
        "notice": "Constructor"
      },
      "getQueue(bytes32,bytes,address[],uint8,uint256)": {
        "notice": "Retrieves the current queue for a given game (specified by its template hash, metadata and number of players)"
      },
      "joinGame(bytes32,bytes,address[],uint8,uint256,uint256,address,bytes)": {
        "notice": "Allows a player to join a game. People are queued up as they join and the game starts when enough people are available."
      },
      "lockFunds(address,address,uint256)": {
        "notice": "Lock player tokens in the lobby contract until the game start"
      },
      "transferTokensToGameAccount(address,uint256)": {
        "notice": "Transfer players tokens locked in lobby contract to the game contract"
      }
    },
    "notice": "Entry point for players to join games handled by the TurnBasedGame contract",
    "version": 1
  },
  "storageLayout": {
    "storage": [
      {
        "astId": 2902,
        "contract": "contracts/TurnBasedGameLobby.sol:TurnBasedGameLobby",
        "label": "allowedERC20Address",
        "offset": 0,
        "slot": "0",
        "type": "t_address"
      },
      {
        "astId": 2904,
        "contract": "contracts/TurnBasedGameLobby.sol:TurnBasedGameLobby",
        "label": "turnBasedGame",
        "offset": 0,
        "slot": "1",
        "type": "t_contract(TurnBasedGame)1684"
      },
      {
        "astId": 2916,
        "contract": "contracts/TurnBasedGameLobby.sol:TurnBasedGameLobby",
        "label": "queues",
        "offset": 0,
        "slot": "2",
        "type": "t_mapping(t_bytes32,t_array(t_struct(QueuedPlayer)2911_storage)dyn_storage)"
      }
    ],
    "types": {
      "t_address": {
        "encoding": "inplace",
        "label": "address",
        "numberOfBytes": "20"
      },
      "t_array(t_struct(QueuedPlayer)2911_storage)dyn_storage": {
        "base": "t_struct(QueuedPlayer)2911_storage",
        "encoding": "dynamic_array",
        "label": "struct TurnBasedGameLobby.QueuedPlayer[]",
        "numberOfBytes": "32"
      },
      "t_bytes32": {
        "encoding": "inplace",
        "label": "bytes32",
        "numberOfBytes": "32"
      },
      "t_bytes_storage": {
        "encoding": "bytes",
        "label": "bytes",
        "numberOfBytes": "32"
      },
      "t_contract(TurnBasedGame)1684": {
        "encoding": "inplace",
        "label": "contract TurnBasedGame",
        "numberOfBytes": "20"
      },
      "t_mapping(t_bytes32,t_array(t_struct(QueuedPlayer)2911_storage)dyn_storage)": {
        "encoding": "mapping",
        "key": "t_bytes32",
        "label": "mapping(bytes32 => struct TurnBasedGameLobby.QueuedPlayer[])",
        "numberOfBytes": "32",
        "value": "t_array(t_struct(QueuedPlayer)2911_storage)dyn_storage"
      },
      "t_struct(QueuedPlayer)2911_storage": {
        "encoding": "inplace",
        "label": "struct TurnBasedGameLobby.QueuedPlayer",
        "members": [
          {
            "astId": 2906,
            "contract": "contracts/TurnBasedGameLobby.sol:TurnBasedGameLobby",
            "label": "addr",
            "offset": 0,
            "slot": "0",
            "type": "t_address"
          },
          {
            "astId": 2908,
            "contract": "contracts/TurnBasedGameLobby.sol:TurnBasedGameLobby",
            "label": "funds",
            "offset": 0,
            "slot": "1",
            "type": "t_uint256"
          },
          {
            "astId": 2910,
            "contract": "contracts/TurnBasedGameLobby.sol:TurnBasedGameLobby",
            "label": "info",
            "offset": 0,
            "slot": "2",
            "type": "t_bytes_storage"
          }
        ],
        "numberOfBytes": "96"
      },
      "t_uint256": {
        "encoding": "inplace",
        "label": "uint256",
        "numberOfBytes": "32"
      }
    }
  }
}