{
  "address": "0xb48B057994B7A43c2926fD7D1221B7B9E1027c3c",
  "abi": [
    {
      "inputs": [
        {
          "internalType": "address",
          "name": "_allowedERC20Address",
          "type": "address"
        },
        {
          "internalType": "address",
          "name": "_descartesAddress",
          "type": "address"
        },
        {
          "internalType": "address",
          "name": "_loggerAddress",
          "type": "address"
        }
      ],
      "stateMutability": "nonpayable",
      "type": "constructor"
    },
    {
      "inputs": [
        {
          "internalType": "uint256",
          "name": "_index",
          "type": "uint256"
        }
      ],
      "name": "applyVerificationResult",
      "outputs": [],
      "stateMutability": "nonpayable",
      "type": "function"
    },
    {
      "inputs": [
        {
          "internalType": "uint256",
          "name": "_index",
          "type": "uint256"
        },
        {
          "internalType": "string",
          "name": "_message",
          "type": "string"
        }
      ],
      "name": "challengeGame",
      "outputs": [
        {
          "internalType": "uint256",
          "name": "",
          "type": "uint256"
        }
      ],
      "stateMutability": "nonpayable",
      "type": "function"
    },
    {
      "inputs": [
        {
          "internalType": "uint256",
          "name": "_index",
          "type": "uint256"
        },
        {
          "internalType": "uint256[]",
          "name": "_fundsShare",
          "type": "uint256[]"
        }
      ],
      "name": "claimResult",
      "outputs": [],
      "stateMutability": "nonpayable",
      "type": "function"
    },
    {
      "inputs": [
        {
          "internalType": "uint256",
          "name": "_index",
          "type": "uint256"
        }
      ],
      "name": "claimTimeout",
      "outputs": [],
      "stateMutability": "nonpayable",
      "type": "function"
    },
    {
      "inputs": [
        {
          "internalType": "uint256",
          "name": "_index",
          "type": "uint256"
        }
      ],
      "name": "confirmResult",
      "outputs": [],
      "stateMutability": "nonpayable",
      "type": "function"
    },
    {
      "inputs": [],
      "name": "currentIndex",
      "outputs": [
        {
          "internalType": "uint256",
          "name": "",
          "type": "uint256"
        }
      ],
      "stateMutability": "view",
      "type": "function"
    },
    {
      "inputs": [
        {
          "internalType": "uint256",
          "name": "_index",
          "type": "uint256"
        }
      ],
      "name": "getContext",
      "outputs": [
        {
          "components": [
            {
              "internalType": "bytes32",
              "name": "gameTemplateHash",
              "type": "bytes32"
            },
            {
              "internalType": "bytes",
              "name": "gameMetadata",
              "type": "bytes"
            },
            {
              "internalType": "address[]",
              "name": "gameValidators",
              "type": "address[]"
            },
            {
              "internalType": "uint256",
              "name": "gameTimeout",
              "type": "uint256"
            },
            {
              "internalType": "address",
              "name": "gameERC20Address",
              "type": "address"
            },
            {
              "internalType": "address[]",
              "name": "players",
              "type": "address[]"
            },
            {
              "internalType": "uint256[]",
              "name": "playerFunds",
              "type": "uint256[]"
            },
            {
              "internalType": "bytes[]",
              "name": "playerInfos",
              "type": "bytes[]"
            },
            {
              "internalType": "uint256",
              "name": "startTimestamp",
              "type": "uint256"
            },
            {
              "components": [
                {
                  "internalType": "address",
                  "name": "player",
                  "type": "address"
                },
                {
                  "internalType": "address",
                  "name": "nextPlayer",
                  "type": "address"
                },
                {
                  "internalType": "uint256",
                  "name": "playerStake",
                  "type": "uint256"
                },
                {
                  "internalType": "uint256",
                  "name": "timestamp",
                  "type": "uint256"
                },
                {
                  "internalType": "uint256[]",
                  "name": "dataLogIndices",
                  "type": "uint256[]"
                }
              ],
              "internalType": "struct Turn[]",
              "name": "turns",
              "type": "tuple[]"
            },
            {
              "internalType": "bool",
              "name": "isDescartesInstantiated",
              "type": "bool"
            },
            {
              "internalType": "uint256",
              "name": "descartesIndex",
              "type": "uint256"
            },
            {
              "internalType": "address",
              "name": "claimer",
              "type": "address"
            },
            {
              "internalType": "uint256",
              "name": "claimTimestamp",
              "type": "uint256"
            },
            {
              "internalType": "uint256[]",
              "name": "claimedFundsShare",
              "type": "uint256[]"
            },
            {
              "internalType": "uint256",
              "name": "claimAgreementMask",
              "type": "uint256"
            }
          ],
          "internalType": "struct GameContext",
          "name": "",
          "type": "tuple"
        }
      ],
      "stateMutability": "view",
      "type": "function"
    },
    {
      "inputs": [
        {
          "internalType": "uint256",
          "name": "_index",
          "type": "uint256"
        }
      ],
      "name": "getNonce",
      "outputs": [
        {
          "internalType": "uint256",
          "name": "currentNonce",
          "type": "uint256"
        }
      ],
      "stateMutability": "view",
      "type": "function"
    },
    {
      "inputs": [
        {
          "internalType": "uint256",
          "name": "_index",
          "type": "uint256"
        },
        {
          "internalType": "address",
          "name": "",
          "type": "address"
        }
      ],
      "name": "getState",
      "outputs": [
        {
          "internalType": "bool",
          "name": "_isDescartesInstantiated",
          "type": "bool"
        }
      ],
      "stateMutability": "view",
      "type": "function"
    },
    {
      "inputs": [
        {
          "internalType": "uint256",
          "name": "_index",
          "type": "uint256"
        },
        {
          "internalType": "address",
          "name": "",
          "type": "address"
        }
      ],
      "name": "getSubInstances",
      "outputs": [
        {
          "internalType": "address[]",
          "name": "_addresses",
          "type": "address[]"
        },
        {
          "internalType": "uint256[]",
          "name": "_indices",
          "type": "uint256[]"
        }
      ],
      "stateMutability": "view",
      "type": "function"
    },
    {
      "inputs": [
        {
          "internalType": "uint256",
          "name": "_index",
          "type": "uint256"
        }
      ],
      "name": "isActive",
      "outputs": [
        {
          "internalType": "bool",
          "name": "",
          "type": "bool"
        }
      ],
      "stateMutability": "view",
      "type": "function"
    },
    {
      "inputs": [
        {
          "internalType": "uint256",
          "name": "_index",
          "type": "uint256"
        },
        {
          "internalType": "address",
          "name": "_player",
          "type": "address"
        }
      ],
      "name": "isConcerned",
      "outputs": [
        {
          "internalType": "bool",
          "name": "",
          "type": "bool"
        }
      ],
      "stateMutability": "view",
      "type": "function"
    },
    {
      "inputs": [
        {
          "internalType": "bytes32",
          "name": "_gameTemplateHash",
          "type": "bytes32"
        },
        {
          "internalType": "bytes",
          "name": "_gameMetadata",
          "type": "bytes"
        },
        {
          "internalType": "address[]",
          "name": "_gameValidators",
          "type": "address[]"
        },
        {
          "internalType": "uint256",
          "name": "_gameTimeout",
          "type": "uint256"
        },
        {
          "internalType": "address",
          "name": "_gameERC20Address",
          "type": "address"
        },
        {
          "internalType": "address[]",
          "name": "_players",
          "type": "address[]"
        },
        {
          "internalType": "uint256[]",
          "name": "_playerFunds",
          "type": "uint256[]"
        },
        {
          "internalType": "bytes[]",
          "name": "_playerInfos",
          "type": "bytes[]"
        }
      ],
      "name": "startGame",
      "outputs": [
        {
          "internalType": "uint256",
          "name": "",
          "type": "uint256"
        }
      ],
      "stateMutability": "nonpayable",
      "type": "function"
    },
    {
      "inputs": [
        {
          "internalType": "uint256",
          "name": "_index",
          "type": "uint256"
        },
        {
          "internalType": "uint256",
          "name": "_turnIndex",
          "type": "uint256"
        },
        {
          "internalType": "address",
          "name": "_nextPlayer",
          "type": "address"
        },
        {
          "internalType": "uint256",
          "name": "_playerStake",
          "type": "uint256"
        },
        {
          "internalType": "bytes",
          "name": "_data",
          "type": "bytes"
        }
      ],
      "name": "submitTurn",
      "outputs": [],
      "stateMutability": "nonpayable",
      "type": "function"
    },
    {
      "inputs": [
        {
          "internalType": "contract IERC20",
          "name": "_tokenProvider",
          "type": "address"
        },
        {
          "internalType": "address",
          "name": "_holder",
          "type": "address"
        },
        {
          "internalType": "uint256[]",
          "name": "_playerFunds",
          "type": "uint256[]"
        }
      ],
      "name": "transferTokensToGameAccount",
      "outputs": [],
      "stateMutability": "nonpayable",
      "type": "function"
    }
  ],
  "transactionHash": "0xe935a5d7220b0c0ef0cf6bafaa696053859c960bf1f0291e9c876ccdcc34b94f",
  "args": [
    "0x253aC655b7f7bB05c95811f617d4B9B78D3f5956",
    "0xC137b4c2a6019C8c4Af2615219a59A0Bd1afD5DA",
    "0xBf108162392b4cc6bb35b6E197b0F686A6078172"
  ],
  "solcInputHash": "b153eefb911426f0489d3d38b84d3a82",
  "bytecode": "0x6080604052600080553480156200001557600080fd5b50604051620043533803806200435383398181016040528101906200003b91906200030d565b82600360006101000a81548173ffffffffffffffffffffffffffffffffffffffff021916908373ffffffffffffffffffffffffffffffffffffffff16021790555081600460006101000a81548173ffffffffffffffffffffffffffffffffffffffff021916908373ffffffffffffffffffffffffffffffffffffffff16021790555080600560006101000a81548173ffffffffffffffffffffffffffffffffffffffff021916908373ffffffffffffffffffffffffffffffffffffffff1602179055506060600167ffffffffffffffff811180156200011957600080fd5b50604051908082528060200260200182016040528015620001495781602001602082028036833780820191505090505b5090506000600560009054906101000a900473ffffffffffffffffffffffffffffffffffffffff1673ffffffffffffffffffffffffffffffffffffffff16634891ea36600c846040518363ffffffff1660e01b8152600401620001ae9291906200048f565b602060405180830381600087803b158015620001c957600080fd5b505af1158015620001de573d6000803e3d6000fd5b505050506040513d601f19601f8201168201806040525081019062000204919062000363565b9050600560009054906101000a900473ffffffffffffffffffffffffffffffffffffffff1673ffffffffffffffffffffffffffffffffffffffff1663833459bc826040518263ffffffff1660e01b815260040162000263919062000472565b60206040518083038186803b1580156200027c57600080fd5b505afa15801562000291573d6000803e3d6000fd5b505050506040513d601f19601f82011682018060405250810190620002b791906200038f565b6006819055505050505050620005df565b600081519050620002d98162000591565b92915050565b600081519050620002f081620005ab565b92915050565b6000815190506200030781620005c5565b92915050565b6000806000606084860312156200032357600080fd5b60006200033386828701620002c8565b93505060206200034686828701620002c8565b92505060406200035986828701620002c8565b9150509250925092565b6000602082840312156200037657600080fd5b60006200038684828501620002df565b91505092915050565b600060208284031215620003a257600080fd5b6000620003b284828501620002f6565b91505092915050565b6000620003c9838362000450565b60208301905092915050565b6000620003e282620004d3565b620003ee8185620004eb565b9350620003fb83620004c3565b8060005b8381101562000432578151620004168882620003bb565b97506200042383620004de565b925050600181019050620003ff565b5085935050505092915050565b6200044a8162000510565b82525050565b6200045b816200051a565b82525050565b6200046c816200057d565b82525050565b60006020820190506200048960008301846200043f565b92915050565b6000604082019050620004a6600083018562000461565b8181036020830152620004ba8184620003d5565b90509392505050565b6000819050602082019050919050565b600081519050919050565b6000602082019050919050565b600082825260208201905092915050565b6000620005098262000546565b9050919050565b6000819050919050565b60007fffffffffffffffff00000000000000000000000000000000000000000000000082169050919050565b600073ffffffffffffffffffffffffffffffffffffffff82169050919050565b6000819050919050565b600060ff82169050919050565b60006200058a8262000570565b9050919050565b6200059c81620004fc565b8114620005a857600080fd5b50565b620005b68162000510565b8114620005c257600080fd5b50565b620005d08162000566565b8114620005dc57600080fd5b50565b613d6480620005ef6000396000f3fe608060405234801561001057600080fd5b50600436106100f55760003560e01c806373df161211610097578063b88f405211610066578063b88f4052146102a8578063c526656c146102c4578063e68defac146102f5578063eb05cf5114610325576100f5565b806373df16121461021057806382afd23b1461024057806385201b2b1461027057806386e773f11461028c576100f5565b806326987b60116100d357806326987b60146101765780633d46b819146101945780634830b0e8146101c45780636d470b10146101e0576100f5565b806301ff62ab146100fa57806303d2e2131461012a578063046ecd9f1461015a575b600080fd5b610114600480360381019061010f91906126f6565b610341565b60405161012191906134f4565b60405180910390f35b610144600480360381019061013f9190612786565b6103ef565b6040516101519190613767565b60405180910390f35b610174600480360381019061016f91906127da565b6105e1565b005b61017e610830565b60405161018b9190613767565b60405180910390f35b6101ae60048036038101906101a991906126a4565b610836565b6040516101bb9190613767565b60405180910390f35b6101de60048036038101906101d991906126a4565b610947565b005b6101fa60048036038101906101f59190612513565b610aee565b6040516102079190613767565b60405180910390f35b61022a600480360381019061022591906126f6565b610d03565b60405161023791906134f4565b60405180910390f35b61025a600480360381019061025591906126a4565b610db0565b60405161026791906134f4565b60405180910390f35b61028a6004803603810190610285919061263d565b610dda565b005b6102a660048036038101906102a191906126a4565b610ea7565b005b6102c260048036038101906102bd9190612732565b611050565b005b6102de60048036038101906102d991906126f6565b61126c565b6040516102ec9291906134bd565b60405180910390f35b61030f600480360381019061030a91906126a4565b6114e1565b60405161031c919061352f565b60405180910390f35b61033f600480360381019061033a91906126a4565b611b59565b005b60008280600054116103bb576040517f08c379a00000000000000000000000000000000000000000000000000000000081526004018080602001828103825260168152602001807f496e646578206e6f7420696e7374616e7469617465640000000000000000000081525060200191505060405180910390fd5b60006007600086815260200190815260200160002090506103e58482611e1590919063ffffffff16565b9250505092915050565b6000828060005411610469576040517f08c379a00000000000000000000000000000000000000000000000000000000081526004018080602001828103825260168152602001807f496e646578206e6f7420696e7374616e7469617465640000000000000000000081525060200191505060405180910390fd5b61047281610db0565b6104e4576040517f08c379a000000000000000000000000000000000000000000000000000000000815260040180806020018281038252600e8152602001807f496e64657820696e61637469766500000000000000000000000000000000000081525060200191505060405180910390fd5b60006007600086815260200190815260200160002090508073e18F3a49A50dAc3f87084318521cd300ef8e7FFA63f455270290918787600460009054906101000a900473ffffffffffffffffffffffffffffffffffffffff16600560009054906101000a900473ffffffffffffffffffffffffffffffffffffffff16600c6006546040518863ffffffff1660e01b8152600401610587979695949392919061366a565b60206040518083038186803b15801561059f57600080fd5b505af41580156105b3573d6000803e3d6000fd5b505050506040513d601f19601f820116820180604052508101906105d791906126cd565b9250505092915050565b858060005411610659576040517f08c379a00000000000000000000000000000000000000000000000000000000081526004018080602001828103825260168152602001807f496e646578206e6f7420696e7374616e7469617465640000000000000000000081525060200191505060405180910390fd5b61066281610db0565b6106d4576040517f08c379a000000000000000000000000000000000000000000000000000000000815260040180806020018281038252600e8152602001807f496e64657820696e61637469766500000000000000000000000000000000000081525060200191505060405180910390fd5b60006007600089815260200190815260200160002090508073e18F3a49A50dAc3f87084318521cd300ef8e7FFA631aa2405590918a6040518363ffffffff1660e01b815260040161072692919061358e565b60206040518083038186803b15801561073e57600080fd5b505af4158015610752573d6000803e3d6000fd5b505050506040513d601f19601f8201168201806040525081019061077691906124ea565b156107895761078488611ebc565b610826565b8073e18F3a49A50dAc3f87084318521cd300ef8e7FFA631775d98190918a8a8a8a8a8a600560009054906101000a900473ffffffffffffffffffffffffffffffffffffffff16600c6040518a63ffffffff1660e01b81526004016107f5999897969594939291906136e0565b60006040518083038186803b15801561080d57600080fd5b505af4158015610821573d6000803e3d6000fd5b505050505b5050505050505050565b60005481565b60008180600054116108b0576040517f08c379a00000000000000000000000000000000000000000000000000000000081526004018080602001828103825260168152602001807f496e646578206e6f7420696e7374616e7469617465640000000000000000000081525060200191505060405180910390fd5b6108b981610db0565b61092b576040517f08c379a000000000000000000000000000000000000000000000000000000000815260040180806020018281038252600e8152602001807f496e64657820696e61637469766500000000000000000000000000000000000081525060200191505060405180910390fd5b6002600084815260200190815260200160002054915050919050565b8080600054116109bf576040517f08c379a00000000000000000000000000000000000000000000000000000000081526004018080602001828103825260168152602001807f496e646578206e6f7420696e7374616e7469617465640000000000000000000081525060200191505060405180910390fd5b6109c881610db0565b610a3a576040517f08c379a000000000000000000000000000000000000000000000000000000000815260040180806020018281038252600e8152602001807f496e64657820696e61637469766500000000000000000000000000000000000081525060200191505060405180910390fd5b60006007600084815260200190815260200160002090508073e18F3a49A50dAc3f87084318521cd300ef8e7FFA63b5701feb909185600460009054906101000a900473ffffffffffffffffffffffffffffffffffffffff166040518463ffffffff1660e01b8152600401610ab093929190613633565b60006040518083038186803b158015610ac857600080fd5b505af4158015610adc573d6000803e3d6000fd5b50505050610ae983611ebc565b505050565b6000600360009054906101000a900473ffffffffffffffffffffffffffffffffffffffff1673ffffffffffffffffffffffffffffffffffffffff168573ffffffffffffffffffffffffffffffffffffffff1614610b80576040517f08c379a0000000000000000000000000000000000000000000000000000000008152600401610b779061350f565b60405180910390fd5b610b8b853385610dda565b60006007600080548152602001908152602001600020905089816000018190555088816001019080519060200190610bc4929190611f04565b5087816002019080519060200190610bdd929190611f92565b50868160030181905550858160040160006101000a81548173ffffffffffffffffffffffffffffffffffffffff021916908373ffffffffffffffffffffffffffffffffffffffff16021790555084816005019080519060200190610c42929190611f92565b5083816006019080519060200190610c5b92919061201c565b5082816007019080519060200190610c74929190612069565b504281600801819055506000547fe27f01eaafd5ea5bc2e1144cd41f471dd049e8a6e2f65bdda12be1f8deeda25f82604051610cb09190613551565b60405180910390a260018060008054815260200190815260200160002060006101000a81548160ff0219169083151502179055506000808154809291906001019190505591505098975050505050505050565b6000828060005411610d7d576040517f08c379a00000000000000000000000000000000000000000000000000000000081526004018080602001828103825260168152602001807f496e646578206e6f7420696e7374616e7469617465640000000000000000000081525060200191505060405180910390fd5b600060076000868152602001908152602001600020905080600a0160009054906101000a900460ff169250505092915050565b60006001600083815260200190815260200160002060009054906101000a900460ff169050919050565b600080600090505b8251811015610e1057828181518110610df757fe5b6020026020010151820191508080600101915050610de2565b508373ffffffffffffffffffffffffffffffffffffffff166323b872dd8430846040518463ffffffff1660e01b8152600401610e4e93929190613486565b602060405180830381600087803b158015610e6857600080fd5b505af1158015610e7c573d6000803e3d6000fd5b505050506040513d601f19601f82011682018060405250810190610ea091906124ea565b5050505050565b808060005411610f1f576040517f08c379a00000000000000000000000000000000000000000000000000000000081526004018080602001828103825260168152602001807f496e646578206e6f7420696e7374616e7469617465640000000000000000000081525060200191505060405180910390fd5b610f2881610db0565b610f9a576040517f08c379a000000000000000000000000000000000000000000000000000000000815260040180806020018281038252600e8152602001807f496e64657820696e61637469766500000000000000000000000000000000000081525060200191505060405180910390fd5b60006007600084815260200190815260200160002090508073e18F3a49A50dAc3f87084318521cd300ef8e7FFA631aa240559091856040518363ffffffff1660e01b8152600401610fec92919061358e565b60206040518083038186803b15801561100457600080fd5b505af4158015611018573d6000803e3d6000fd5b505050506040513d601f19601f8201168201806040525081019061103c91906124ea565b1561104b5761104a83611ebc565b5b505050565b8180600054116110c8576040517f08c379a00000000000000000000000000000000000000000000000000000000081526004018080602001828103825260168152602001807f496e646578206e6f7420696e7374616e7469617465640000000000000000000081525060200191505060405180910390fd5b6110d181610db0565b611143576040517f08c379a000000000000000000000000000000000000000000000000000000000815260040180806020018281038252600e8152602001807f496e64657820696e61637469766500000000000000000000000000000000000081525060200191505060405180910390fd5b60006007600085815260200190815260200160002090508073e18F3a49A50dAc3f87084318521cd300ef8e7FFA631aa240559091866040518363ffffffff1660e01b815260040161119592919061358e565b60206040518083038186803b1580156111ad57600080fd5b505af41580156111c1573d6000803e3d6000fd5b505050506040513d601f19601f820116820180604052508101906111e591906124ea565b156111f8576111f384611ebc565b611266565b8073e18F3a49A50dAc3f87084318521cd300ef8e7FFA630cdd31bc909186866040518463ffffffff1660e01b8152600401611235939291906135b7565b60006040518083038186803b15801561124d57600080fd5b505af4158015611261573d6000803e3d6000fd5b505050505b50505050565b6060808380600054116112e7576040517f08c379a00000000000000000000000000000000000000000000000000000000081526004018080602001828103825260168152602001807f496e646578206e6f7420696e7374616e7469617465640000000000000000000081525060200191505060405180910390fd5b600060076000878152602001908152602001600020905080600a0160009054906101000a900460ff1615611443576060600167ffffffffffffffff8111801561132f57600080fd5b5060405190808252806020026020018201604052801561135e5781602001602082028036833780820191505090505b5090506060600167ffffffffffffffff8111801561137b57600080fd5b506040519080825280602002602001820160405280156113aa5781602001602082028036833780820191505090505b509050600460009054906101000a900473ffffffffffffffffffffffffffffffffffffffff16826000815181106113dd57fe5b602002602001019073ffffffffffffffffffffffffffffffffffffffff16908173ffffffffffffffffffffffffffffffffffffffff168152505082600b01548160008151811061142957fe5b6020026020010181815250508181955095505050506114d9565b600067ffffffffffffffff8111801561145b57600080fd5b5060405190808252806020026020018201604052801561148a5781602001602082028036833780820191505090505b50600067ffffffffffffffff811180156114a357600080fd5b506040519080825280602002602001820160405280156114d25781602001602082028036833780820191505090505b5093509350505b509250929050565b6114e96120c9565b818060005411611561576040517f08c379a00000000000000000000000000000000000000000000000000000000081526004018080602001828103825260168152602001807f496e646578206e6f7420696e7374616e7469617465640000000000000000000081525060200191505060405180910390fd5b600760008481526020019081526020016000206040518061020001604052908160008201548152602001600182018054600181600116156101000203166002900480601f0160208091040260200160405190810160405280929190818152602001828054600181600116156101000203166002900480156116235780601f106115f857610100808354040283529160200191611623565b820191906000526020600020905b81548152906001019060200180831161160657829003601f168201915b50505050508152602001600282018054806020026020016040519081016040528092919081815260200182805480156116b157602002820191906000526020600020905b8160009054906101000a900473ffffffffffffffffffffffffffffffffffffffff1673ffffffffffffffffffffffffffffffffffffffff1681526020019060010190808311611667575b50505050508152602001600382015481526020016004820160009054906101000a900473ffffffffffffffffffffffffffffffffffffffff1673ffffffffffffffffffffffffffffffffffffffff1673ffffffffffffffffffffffffffffffffffffffff1681526020016005820180548060200260200160405190810160405280929190818152602001828054801561179f57602002820191906000526020600020905b8160009054906101000a900473ffffffffffffffffffffffffffffffffffffffff1673ffffffffffffffffffffffffffffffffffffffff1681526020019060010190808311611755575b50505050508152602001600682018054806020026020016040519081016040528092919081815260200182805480156117f757602002820191906000526020600020905b8154815260200190600101908083116117e3575b5050505050815260200160078201805480602002602001604051908101604052809291908181526020016000905b828210156118e1578382906000526020600020018054600181600116156101000203166002900480601f0160208091040260200160405190810160405280929190818152602001828054600181600116156101000203166002900480156118cd5780601f106118a2576101008083540402835291602001916118cd565b820191906000526020600020905b8154815290600101906020018083116118b057829003601f168201915b505050505081526020019060010190611825565b5050505081526020016008820154815260200160098201805480602002602001604051908101604052809291908181526020016000905b82821015611a6257838290600052602060002090600502016040518060a00160405290816000820160009054906101000a900473ffffffffffffffffffffffffffffffffffffffff1673ffffffffffffffffffffffffffffffffffffffff1673ffffffffffffffffffffffffffffffffffffffff1681526020016001820160009054906101000a900473ffffffffffffffffffffffffffffffffffffffff1673ffffffffffffffffffffffffffffffffffffffff1673ffffffffffffffffffffffffffffffffffffffff168152602001600282015481526020016003820154815260200160048201805480602002602001604051908101604052809291908181526020018280548015611a4a57602002820191906000526020600020905b815481526020019060010190808311611a36575b50505050508152505081526020019060010190611918565b505050508152602001600a820160009054906101000a900460ff16151515158152602001600b8201548152602001600c820160009054906101000a900473ffffffffffffffffffffffffffffffffffffffff1673ffffffffffffffffffffffffffffffffffffffff1673ffffffffffffffffffffffffffffffffffffffff168152602001600d8201548152602001600e8201805480602002602001604051908101604052809291908181526020018280548015611b3e57602002820191906000526020600020905b815481526020019060010190808311611b2a575b50505050508152602001600f82015481525050915050919050565b808060005411611bd1576040517f08c379a00000000000000000000000000000000000000000000000000000000081526004018080602001828103825260168152602001807f496e646578206e6f7420696e7374616e7469617465640000000000000000000081525060200191505060405180910390fd5b611bda81610db0565b611c4c576040517f08c379a000000000000000000000000000000000000000000000000000000000815260040180806020018281038252600e8152602001807f496e64657820696e61637469766500000000000000000000000000000000000081525060200191505060405180910390fd5b60006007600084815260200190815260200160002090508073e18F3a49A50dAc3f87084318521cd300ef8e7FFA631aa240559091856040518363ffffffff1660e01b8152600401611c9e92919061358e565b60206040518083038186803b158015611cb657600080fd5b505af4158015611cca573d6000803e3d6000fd5b505050506040513d601f19601f82011682018060405250810190611cee91906124ea565b15611d0157611cfc83611ebc565b611e10565b60008173e18F3a49A50dAc3f87084318521cd300ef8e7FFA63906cc66c90916040518263ffffffff1660e01b8152600401611d3c9190613573565b60206040518083038186803b158015611d5457600080fd5b505af4158015611d68573d6000803e3d6000fd5b505050506040513d601f19601f82011682018060405250810190611d8c91906124ea565b90508015611e0e578173e18F3a49A50dAc3f87084318521cd300ef8e7FFA63aba4442390918685600e016040518463ffffffff1660e01b8152600401611dd4939291906135f5565b60006040518083038186803b158015611dec57600080fd5b505af4158015611e00573d6000803e3d6000fd5b50505050611e0d84611ebc565b5b505b505050565b600080600090505b8360050180549050811015611eb057836005018181548110611e3b57fe5b9060005260206000200160009054906101000a900473ffffffffffffffffffffffffffffffffffffffff1673ffffffffffffffffffffffffffffffffffffffff168373ffffffffffffffffffffffffffffffffffffffff161415611ea3576001915050611eb6565b8080600101915050611e1d565b50600090505b92915050565b60006001600083815260200190815260200160002060006101000a81548160ff0219169083151502179055506000600260008381526020019081526020016000208190555050565b828054600181600116156101000203166002900490600052602060002090601f016020900481019282611f3a5760008555611f81565b82601f10611f5357805160ff1916838001178555611f81565b82800160010185558215611f81579182015b82811115611f80578251825591602001919060010190611f65565b5b509050611f8e9190612177565b5090565b82805482825590600052602060002090810192821561200b579160200282015b8281111561200a5782518260006101000a81548173ffffffffffffffffffffffffffffffffffffffff021916908373ffffffffffffffffffffffffffffffffffffffff16021790555091602001919060010190611fb2565b5b5090506120189190612177565b5090565b828054828255906000526020600020908101928215612058579160200282015b8281111561205757825182559160200191906001019061203c565b5b5090506120659190612177565b5090565b8280548282559060005260206000209081019282156120b8579160200282015b828111156120b75782518290805190602001906120a7929190611f04565b5091602001919060010190612089565b5b5090506120c59190612194565b5090565b60405180610200016040528060008019168152602001606081526020016060815260200160008152602001600073ffffffffffffffffffffffffffffffffffffffff168152602001606081526020016060815260200160608152602001600081526020016060815260200160001515815260200160008152602001600073ffffffffffffffffffffffffffffffffffffffff1681526020016000815260200160608152602001600081525090565b5b80821115612190576000816000905550600101612178565b5090565b5b808211156121b457600081816121ab91906121b8565b50600101612195565b5090565b50805460018160011615610100020316600290046000825580601f106121de57506121fd565b601f0160209004906000526020600020908101906121fc9190612177565b5b50565b60008135905061220f81613cbb565b92915050565b600082601f83011261222657600080fd5b8135612239612234826137b3565b613782565b9150818183526020840193506020810190508385602084028201111561225e57600080fd5b60005b8381101561228e57816122748882612200565b845260208401935060208301925050600181019050612261565b5050505092915050565b600082601f8301126122a957600080fd5b81356122bc6122b7826137df565b613782565b9150818183526020840193506020810190508360005b8381101561230257813586016122e88882612403565b8452602084019350602083019250506001810190506122d2565b5050505092915050565b600082601f83011261231d57600080fd5b813561233061232b8261380b565b613782565b9150818183526020840193506020810190508385602084028201111561235557600080fd5b60005b83811015612385578161236b88826124c0565b845260208401935060208301925050600181019050612358565b5050505092915050565b60008151905061239e81613cd2565b92915050565b6000813590506123b381613ce9565b92915050565b60008083601f8401126123cb57600080fd5b8235905067ffffffffffffffff8111156123e457600080fd5b6020830191508360018202830111156123fc57600080fd5b9250929050565b600082601f83011261241457600080fd5b813561242761242282613837565b613782565b9150808252602083016020830185838301111561244357600080fd5b61244e838284613bcb565b50505092915050565b60008135905061246681613d00565b92915050565b600082601f83011261247d57600080fd5b813561249061248b82613867565b613782565b915080825260208301602083018583830111156124ac57600080fd5b6124b7838284613bcb565b50505092915050565b6000813590506124cf81613d17565b92915050565b6000815190506124e481613d17565b92915050565b6000602082840312156124fc57600080fd5b600061250a8482850161238f565b91505092915050565b600080600080600080600080610100898b03121561253057600080fd5b600061253e8b828c016123a4565b985050602089013567ffffffffffffffff81111561255b57600080fd5b6125678b828c01612403565b975050604089013567ffffffffffffffff81111561258457600080fd5b6125908b828c01612215565b96505060606125a18b828c016124c0565b95505060806125b28b828c01612200565b94505060a089013567ffffffffffffffff8111156125cf57600080fd5b6125db8b828c01612215565b93505060c089013567ffffffffffffffff8111156125f857600080fd5b6126048b828c0161230c565b92505060e089013567ffffffffffffffff81111561262157600080fd5b61262d8b828c01612298565b9150509295985092959890939650565b60008060006060848603121561265257600080fd5b600061266086828701612457565b935050602061267186828701612200565b925050604084013567ffffffffffffffff81111561268e57600080fd5b61269a8682870161230c565b9150509250925092565b6000602082840312156126b657600080fd5b60006126c4848285016124c0565b91505092915050565b6000602082840312156126df57600080fd5b60006126ed848285016124d5565b91505092915050565b6000806040838503121561270957600080fd5b6000612717858286016124c0565b925050602061272885828601612200565b9150509250929050565b6000806040838503121561274557600080fd5b6000612753858286016124c0565b925050602083013567ffffffffffffffff81111561277057600080fd5b61277c8582860161230c565b9150509250929050565b6000806040838503121561279957600080fd5b60006127a7858286016124c0565b925050602083013567ffffffffffffffff8111156127c457600080fd5b6127d08582860161246c565b9150509250929050565b60008060008060008060a087890312156127f357600080fd5b600061280189828a016124c0565b965050602061281289828a016124c0565b955050604061282389828a01612200565b945050606061283489828a016124c0565b935050608087013567ffffffffffffffff81111561285157600080fd5b61285d89828a016123b9565b92509250509295509295509295565b60006128788383612904565b60208301905092915050565b60006128908383612e62565b905092915050565b60006128a48383612e9b565b905092915050565b60006128b88383613322565b905092915050565b60006128cc8383613398565b905092915050565b60006128e0838361343b565b60208301905092915050565b60006128f88383613468565b60208301905092915050565b61290d81613b12565b82525050565b61291c81613b12565b82525050565b61292b81613b12565b82525050565b600061293c82613940565b6129468185613a16565b935061295183613897565b8060005b83811015612982578151612969888261286c565b9750612974836139ae565b925050600181019050612955565b5085935050505092915050565b600061299a82613940565b6129a48185613a27565b93506129af83613897565b8060005b838110156129e05781516129c7888261286c565b97506129d2836139ae565b9250506001810190506129b3565b5085935050505092915050565b60006129f88261394b565b612a028185613a16565b9350612a0d836138a7565b8060005b83811015612a4557612a2282613c77565b612a2c888261286c565b9750612a37836139bb565b925050600181019050612a11565b5085935050505092915050565b6000612a5d82613956565b612a678185613a38565b935083602082028501612a79856138bc565b8060005b85811015612ab55784840389528151612a968582612884565b9450612aa1836139c8565b925060208a01995050600181019050612a7d565b50829750879550505050505092915050565b6000612ad282613961565b612adc8185613a38565b935083602082028501612aee856138cc565b8060005b85811015612b2957848403895281612b0a8582612898565b9450612b15836139d5565b925060208a01995050600181019050612af2565b50829750879550505050505092915050565b6000612b468261396c565b612b508185613a49565b935083602082028501612b62856138e1565b8060005b85811015612b9e5784840389528151612b7f85826128ac565b9450612b8a836139e2565b925060208a01995050600181019050612b66565b50829750879550505050505092915050565b6000612bbb82613977565b612bc58185613a49565b935083602082028501612bd7856138f1565b8060005b85811015612c1257848403895281612bf385826128c0565b9450612bfe836139ef565b925060208a01995050600181019050612bdb565b50829750879550505050505092915050565b6000612c2f82613982565b612c398185613a5a565b9350612c4483613906565b8060005b83811015612c75578151612c5c88826128d4565b9750612c67836139fc565b925050600181019050612c48565b5085935050505092915050565b6000612c8d82613982565b612c978185613a6b565b9350612ca283613906565b8060005b83811015612cd3578151612cba88826128d4565b9750612cc5836139fc565b925050600181019050612ca6565b5085935050505092915050565b6000612ceb82613982565b612cf58185613a7c565b9350612d0083613906565b8060005b83811015612d31578151612d1888826128ec565b9750612d23836139fc565b925050600181019050612d04565b5085935050505092915050565b6000612d498261398d565b612d538185613a5a565b9350612d5e83613916565b8060005b83811015612d9657612d7382613c8a565b612d7d88826128d4565b9750612d8883613a09565b925050600181019050612d62565b5085935050505092915050565b6000612dae8261398d565b612db88185613a7c565b9350612dc383613916565b8060005b83811015612dfb57612dd882613c8a565b612de288826128ec565b9750612ded83613a09565b925050600181019050612dc7565b5085935050505092915050565b612e1181613b24565b82525050565b612e2081613b24565b82525050565b612e2f81613b30565b82525050565b6000612e418385613a9e565b9350612e4e838584613bcb565b612e5783613c9d565b840190509392505050565b6000612e6d82613998565b612e778185613a8d565b9350612e87818560208601613bda565b612e9081613c9d565b840191505092915050565b600081546001811660008114612eb85760018114612ede57612f22565b607f6002830416612ec98187613a8d565b955060ff198316865260208601935050612f22565b60028204612eec8187613a8d565b9550612ef78561392b565b60005b82811015612f1957815481890152600182019150602081019050612efa565b80880195505050505b505092915050565b612f3381613b83565b82525050565b612f4281613ba7565b82525050565b6000612f53826139a3565b612f5d8185613ac0565b9350612f6d818560208601613bda565b612f7681613c9d565b840191505092915050565b6000612f8e601983613aaf565b91507f556e657870656374656420746f6b656e2070726f7669646572000000000000006000830152602082019050919050565b600061020083016000830151612fda6000860182612e26565b5060208301518482036020860152612ff28282612e62565b9150506040830151848203604086015261300c8282612931565b9150506060830151613021606086018261343b565b5060808301516130346080860182612904565b5060a083015184820360a086015261304c8282612931565b91505060c083015184820360c08601526130668282612c24565b91505060e083015184820360e08601526130808282612a52565b91505061010083015161309761010086018261343b565b506101208301518482036101208601526130b18282612b3b565b9150506101408301516130c8610140860182612e08565b506101608301516130dd61016086018261343b565b506101808301516130f2610180860182612904565b506101a08301516131076101a086018261343b565b506101c08301518482036101c08601526131218282612c24565b9150506101e08301516131386101e086018261343b565b508091505092915050565b60006102008301600080840154905061315b81613c41565b6131686000870182612e26565b5060018401858303602087015261317f8382612e9b565b92505060028401858303604087015261319883826129ed565b925050600384015490506131ab81613c5b565b6131b8606087018261343b565b50600484015490506131c981613c0d565b6131d66080870182612904565b506005840185830360a08701526131ed83826129ed565b9250506006840185830360c08701526132068382612d3e565b9250506007840185830360e087015261321f8382612ac7565b9250506008840154905061323281613c5b565b61324061010087018261343b565b50600984018583036101208701526132588382612bb0565b925050600a840154905061326b81613c27565b613279610140870182612e08565b50600b840154905061328a81613c5b565b61329861016087018261343b565b50600c84015490506132a981613c0d565b6132b7610180870182612904565b50600d84015490506132c881613c5b565b6132d66101a087018261343b565b50600e84018583036101c08701526132ee8382612d3e565b925050600f840154905061330181613c5b565b61330f6101e087018261343b565b50819250505092915050565b8082525050565b600060a08301600083015161333a6000860182612904565b50602083015161334d6020860182612904565b506040830151613360604086018261343b565b506060830151613373606086018261343b565b506080830151848203608086015261338b8282612c24565b9150508091505092915050565b600060a0830160008084015490506133af81613c0d565b6133bc6000870182612904565b50600184015490506133cd81613c0d565b6133da6020870182612904565b50600284015490506133eb81613c5b565b6133f8604087018261343b565b506003840154905061340981613c5b565b613416606087018261343b565b5060048401858303608087015261342d8382612d3e565b925050819250505092915050565b61344481613b6c565b82525050565b61345381613b6c565b82525050565b61346281613b6c565b82525050565b61347181613b6c565b82525050565b61348081613b76565b82525050565b600060608201905061349b6000830186612913565b6134a86020830185612913565b6134b5604083018461344a565b949350505050565b600060408201905081810360008301526134d7818561298f565b905081810360208301526134eb8184612c82565b90509392505050565b60006020820190506135096000830184612e17565b92915050565b6000602082019050818103600083015261352881612f81565b9050919050565b600060208201905081810360008301526135498184612fc1565b905092915050565b6000602082019050818103600083015261356b8184613143565b905092915050565b6000602082019050613588600083018461331b565b92915050565b60006040820190506135a3600083018561331b565b6135b06020830184613459565b9392505050565b60006060820190506135cc600083018661331b565b6135d96020830185613459565b81810360408301526135eb8184612ce0565b9050949350505050565b600060608201905061360a600083018661331b565b6136176020830185613459565b81810360408301526136298184612da3565b9050949350505050565b6000606082019050613648600083018661331b565b6136556020830185613459565b6136626040830184612f2a565b949350505050565b600060e08201905061367f600083018a61331b565b61368c6020830189613459565b818103604083015261369e8188612f48565b90506136ad6060830187612f2a565b6136ba6080830186612f39565b6136c760a0830185613477565b6136d460c0830184613459565b98975050505050505050565b6000610100820190506136f6600083018c61331b565b613703602083018b613459565b613710604083018a613459565b61371d6060830189612922565b61372a6080830188613459565b81810360a083015261373d818688612e35565b905061374c60c0830185612f39565b61375960e0830184613477565b9a9950505050505050505050565b600060208201905061377c600083018461344a565b92915050565b6000604051905081810181811067ffffffffffffffff821117156137a9576137a8613c75565b5b8060405250919050565b600067ffffffffffffffff8211156137ce576137cd613c75565b5b602082029050602081019050919050565b600067ffffffffffffffff8211156137fa576137f9613c75565b5b602082029050602081019050919050565b600067ffffffffffffffff82111561382657613825613c75565b5b602082029050602081019050919050565b600067ffffffffffffffff82111561385257613851613c75565b5b601f19601f8301169050602081019050919050565b600067ffffffffffffffff82111561388257613881613c75565b5b601f19601f8301169050602081019050919050565b6000819050602082019050919050565b60008190508160005260206000209050919050565b6000819050602082019050919050565b60008190508160005260206000209050919050565b6000819050602082019050919050565b60008190508160005260206000209050919050565b6000819050602082019050919050565b60008190508160005260206000209050919050565b60008190508160005260206000209050919050565b600081519050919050565b600081549050919050565b600081519050919050565b600081549050919050565b600081519050919050565b600081549050919050565b600081519050919050565b600081549050919050565b600081519050919050565b600081519050919050565b6000602082019050919050565b6000600182019050919050565b6000602082019050919050565b6000600182019050919050565b6000602082019050919050565b6000600582019050919050565b6000602082019050919050565b6000600182019050919050565b600082825260208201905092915050565b600082825260208201905092915050565b600082825260208201905092915050565b600082825260208201905092915050565b600082825260208201905092915050565b600082825260208201905092915050565b600082825260208201905092915050565b600082825260208201905092915050565b600082825260208201905092915050565b600082825260208201905092915050565b600082825260208201905092915050565b600073ffffffffffffffffffffffffffffffffffffffff82169050919050565b600060ff82169050919050565b6000819050919050565b6000819050919050565b6000613b1d82613b4c565b9050919050565b60008115159050919050565b6000819050919050565b6000613b4582613b12565b9050919050565b600073ffffffffffffffffffffffffffffffffffffffff82169050919050565b6000819050919050565b600060ff82169050919050565b6000613b8e82613b95565b9050919050565b6000613ba082613b4c565b9050919050565b6000613bb282613bb9565b9050919050565b6000613bc482613b4c565b9050919050565b82818337600083830152505050565b60005b83811015613bf8578082015181840152602081019050613bdd565b83811115613c07576000848401525b50505050565b6000613c20613c1b83613cae565b613ad1565b9050919050565b6000613c3a613c3583613cae565b613af1565b9050919050565b6000613c54613c4f83613cae565b613afe565b9050919050565b6000613c6e613c6983613cae565b613b08565b9050919050565bfe5b6000613c838254613c0d565b9050919050565b6000613c968254613c5b565b9050919050565b6000601f19601f8301169050919050565b60008160001c9050919050565b613cc481613b12565b8114613ccf57600080fd5b50565b613cdb81613b24565b8114613ce657600080fd5b50565b613cf281613b30565b8114613cfd57600080fd5b50565b613d0981613b3a565b8114613d1457600080fd5b50565b613d2081613b6c565b8114613d2b57600080fd5b5056fea2646970667358221220d875ffcc5cd1dc0ce1e1036969f5896402c3beaca38634b75a0d5de9d475e45464736f6c63430007040033",
  "deployedBytecode": "0x608060405234801561001057600080fd5b50600436106100f55760003560e01c806373df161211610097578063b88f405211610066578063b88f4052146102a8578063c526656c146102c4578063e68defac146102f5578063eb05cf5114610325576100f5565b806373df16121461021057806382afd23b1461024057806385201b2b1461027057806386e773f11461028c576100f5565b806326987b60116100d357806326987b60146101765780633d46b819146101945780634830b0e8146101c45780636d470b10146101e0576100f5565b806301ff62ab146100fa57806303d2e2131461012a578063046ecd9f1461015a575b600080fd5b610114600480360381019061010f91906126f6565b610341565b60405161012191906134f4565b60405180910390f35b610144600480360381019061013f9190612786565b6103ef565b6040516101519190613767565b60405180910390f35b610174600480360381019061016f91906127da565b6105e1565b005b61017e610830565b60405161018b9190613767565b60405180910390f35b6101ae60048036038101906101a991906126a4565b610836565b6040516101bb9190613767565b60405180910390f35b6101de60048036038101906101d991906126a4565b610947565b005b6101fa60048036038101906101f59190612513565b610aee565b6040516102079190613767565b60405180910390f35b61022a600480360381019061022591906126f6565b610d03565b60405161023791906134f4565b60405180910390f35b61025a600480360381019061025591906126a4565b610db0565b60405161026791906134f4565b60405180910390f35b61028a6004803603810190610285919061263d565b610dda565b005b6102a660048036038101906102a191906126a4565b610ea7565b005b6102c260048036038101906102bd9190612732565b611050565b005b6102de60048036038101906102d991906126f6565b61126c565b6040516102ec9291906134bd565b60405180910390f35b61030f600480360381019061030a91906126a4565b6114e1565b60405161031c919061352f565b60405180910390f35b61033f600480360381019061033a91906126a4565b611b59565b005b60008280600054116103bb576040517f08c379a00000000000000000000000000000000000000000000000000000000081526004018080602001828103825260168152602001807f496e646578206e6f7420696e7374616e7469617465640000000000000000000081525060200191505060405180910390fd5b60006007600086815260200190815260200160002090506103e58482611e1590919063ffffffff16565b9250505092915050565b6000828060005411610469576040517f08c379a00000000000000000000000000000000000000000000000000000000081526004018080602001828103825260168152602001807f496e646578206e6f7420696e7374616e7469617465640000000000000000000081525060200191505060405180910390fd5b61047281610db0565b6104e4576040517f08c379a000000000000000000000000000000000000000000000000000000000815260040180806020018281038252600e8152602001807f496e64657820696e61637469766500000000000000000000000000000000000081525060200191505060405180910390fd5b60006007600086815260200190815260200160002090508073__$2a307e3733810a923a91a6f7005edd72dc$__63f455270290918787600460009054906101000a900473ffffffffffffffffffffffffffffffffffffffff16600560009054906101000a900473ffffffffffffffffffffffffffffffffffffffff16600c6006546040518863ffffffff1660e01b8152600401610587979695949392919061366a565b60206040518083038186803b15801561059f57600080fd5b505af41580156105b3573d6000803e3d6000fd5b505050506040513d601f19601f820116820180604052508101906105d791906126cd565b9250505092915050565b858060005411610659576040517f08c379a00000000000000000000000000000000000000000000000000000000081526004018080602001828103825260168152602001807f496e646578206e6f7420696e7374616e7469617465640000000000000000000081525060200191505060405180910390fd5b61066281610db0565b6106d4576040517f08c379a000000000000000000000000000000000000000000000000000000000815260040180806020018281038252600e8152602001807f496e64657820696e61637469766500000000000000000000000000000000000081525060200191505060405180910390fd5b60006007600089815260200190815260200160002090508073__$2a307e3733810a923a91a6f7005edd72dc$__631aa2405590918a6040518363ffffffff1660e01b815260040161072692919061358e565b60206040518083038186803b15801561073e57600080fd5b505af4158015610752573d6000803e3d6000fd5b505050506040513d601f19601f8201168201806040525081019061077691906124ea565b156107895761078488611ebc565b610826565b8073__$2a307e3733810a923a91a6f7005edd72dc$__631775d98190918a8a8a8a8a8a600560009054906101000a900473ffffffffffffffffffffffffffffffffffffffff16600c6040518a63ffffffff1660e01b81526004016107f5999897969594939291906136e0565b60006040518083038186803b15801561080d57600080fd5b505af4158015610821573d6000803e3d6000fd5b505050505b5050505050505050565b60005481565b60008180600054116108b0576040517f08c379a00000000000000000000000000000000000000000000000000000000081526004018080602001828103825260168152602001807f496e646578206e6f7420696e7374616e7469617465640000000000000000000081525060200191505060405180910390fd5b6108b981610db0565b61092b576040517f08c379a000000000000000000000000000000000000000000000000000000000815260040180806020018281038252600e8152602001807f496e64657820696e61637469766500000000000000000000000000000000000081525060200191505060405180910390fd5b6002600084815260200190815260200160002054915050919050565b8080600054116109bf576040517f08c379a00000000000000000000000000000000000000000000000000000000081526004018080602001828103825260168152602001807f496e646578206e6f7420696e7374616e7469617465640000000000000000000081525060200191505060405180910390fd5b6109c881610db0565b610a3a576040517f08c379a000000000000000000000000000000000000000000000000000000000815260040180806020018281038252600e8152602001807f496e64657820696e61637469766500000000000000000000000000000000000081525060200191505060405180910390fd5b60006007600084815260200190815260200160002090508073__$2a307e3733810a923a91a6f7005edd72dc$__63b5701feb909185600460009054906101000a900473ffffffffffffffffffffffffffffffffffffffff166040518463ffffffff1660e01b8152600401610ab093929190613633565b60006040518083038186803b158015610ac857600080fd5b505af4158015610adc573d6000803e3d6000fd5b50505050610ae983611ebc565b505050565b6000600360009054906101000a900473ffffffffffffffffffffffffffffffffffffffff1673ffffffffffffffffffffffffffffffffffffffff168573ffffffffffffffffffffffffffffffffffffffff1614610b80576040517f08c379a0000000000000000000000000000000000000000000000000000000008152600401610b779061350f565b60405180910390fd5b610b8b853385610dda565b60006007600080548152602001908152602001600020905089816000018190555088816001019080519060200190610bc4929190611f04565b5087816002019080519060200190610bdd929190611f92565b50868160030181905550858160040160006101000a81548173ffffffffffffffffffffffffffffffffffffffff021916908373ffffffffffffffffffffffffffffffffffffffff16021790555084816005019080519060200190610c42929190611f92565b5083816006019080519060200190610c5b92919061201c565b5082816007019080519060200190610c74929190612069565b504281600801819055506000547fe27f01eaafd5ea5bc2e1144cd41f471dd049e8a6e2f65bdda12be1f8deeda25f82604051610cb09190613551565b60405180910390a260018060008054815260200190815260200160002060006101000a81548160ff0219169083151502179055506000808154809291906001019190505591505098975050505050505050565b6000828060005411610d7d576040517f08c379a00000000000000000000000000000000000000000000000000000000081526004018080602001828103825260168152602001807f496e646578206e6f7420696e7374616e7469617465640000000000000000000081525060200191505060405180910390fd5b600060076000868152602001908152602001600020905080600a0160009054906101000a900460ff169250505092915050565b60006001600083815260200190815260200160002060009054906101000a900460ff169050919050565b600080600090505b8251811015610e1057828181518110610df757fe5b6020026020010151820191508080600101915050610de2565b508373ffffffffffffffffffffffffffffffffffffffff166323b872dd8430846040518463ffffffff1660e01b8152600401610e4e93929190613486565b602060405180830381600087803b158015610e6857600080fd5b505af1158015610e7c573d6000803e3d6000fd5b505050506040513d601f19601f82011682018060405250810190610ea091906124ea565b5050505050565b808060005411610f1f576040517f08c379a00000000000000000000000000000000000000000000000000000000081526004018080602001828103825260168152602001807f496e646578206e6f7420696e7374616e7469617465640000000000000000000081525060200191505060405180910390fd5b610f2881610db0565b610f9a576040517f08c379a000000000000000000000000000000000000000000000000000000000815260040180806020018281038252600e8152602001807f496e64657820696e61637469766500000000000000000000000000000000000081525060200191505060405180910390fd5b60006007600084815260200190815260200160002090508073__$2a307e3733810a923a91a6f7005edd72dc$__631aa240559091856040518363ffffffff1660e01b8152600401610fec92919061358e565b60206040518083038186803b15801561100457600080fd5b505af4158015611018573d6000803e3d6000fd5b505050506040513d601f19601f8201168201806040525081019061103c91906124ea565b1561104b5761104a83611ebc565b5b505050565b8180600054116110c8576040517f08c379a00000000000000000000000000000000000000000000000000000000081526004018080602001828103825260168152602001807f496e646578206e6f7420696e7374616e7469617465640000000000000000000081525060200191505060405180910390fd5b6110d181610db0565b611143576040517f08c379a000000000000000000000000000000000000000000000000000000000815260040180806020018281038252600e8152602001807f496e64657820696e61637469766500000000000000000000000000000000000081525060200191505060405180910390fd5b60006007600085815260200190815260200160002090508073__$2a307e3733810a923a91a6f7005edd72dc$__631aa240559091866040518363ffffffff1660e01b815260040161119592919061358e565b60206040518083038186803b1580156111ad57600080fd5b505af41580156111c1573d6000803e3d6000fd5b505050506040513d601f19601f820116820180604052508101906111e591906124ea565b156111f8576111f384611ebc565b611266565b8073__$2a307e3733810a923a91a6f7005edd72dc$__630cdd31bc909186866040518463ffffffff1660e01b8152600401611235939291906135b7565b60006040518083038186803b15801561124d57600080fd5b505af4158015611261573d6000803e3d6000fd5b505050505b50505050565b6060808380600054116112e7576040517f08c379a00000000000000000000000000000000000000000000000000000000081526004018080602001828103825260168152602001807f496e646578206e6f7420696e7374616e7469617465640000000000000000000081525060200191505060405180910390fd5b600060076000878152602001908152602001600020905080600a0160009054906101000a900460ff1615611443576060600167ffffffffffffffff8111801561132f57600080fd5b5060405190808252806020026020018201604052801561135e5781602001602082028036833780820191505090505b5090506060600167ffffffffffffffff8111801561137b57600080fd5b506040519080825280602002602001820160405280156113aa5781602001602082028036833780820191505090505b509050600460009054906101000a900473ffffffffffffffffffffffffffffffffffffffff16826000815181106113dd57fe5b602002602001019073ffffffffffffffffffffffffffffffffffffffff16908173ffffffffffffffffffffffffffffffffffffffff168152505082600b01548160008151811061142957fe5b6020026020010181815250508181955095505050506114d9565b600067ffffffffffffffff8111801561145b57600080fd5b5060405190808252806020026020018201604052801561148a5781602001602082028036833780820191505090505b50600067ffffffffffffffff811180156114a357600080fd5b506040519080825280602002602001820160405280156114d25781602001602082028036833780820191505090505b5093509350505b509250929050565b6114e96120c9565b818060005411611561576040517f08c379a00000000000000000000000000000000000000000000000000000000081526004018080602001828103825260168152602001807f496e646578206e6f7420696e7374616e7469617465640000000000000000000081525060200191505060405180910390fd5b600760008481526020019081526020016000206040518061020001604052908160008201548152602001600182018054600181600116156101000203166002900480601f0160208091040260200160405190810160405280929190818152602001828054600181600116156101000203166002900480156116235780601f106115f857610100808354040283529160200191611623565b820191906000526020600020905b81548152906001019060200180831161160657829003601f168201915b50505050508152602001600282018054806020026020016040519081016040528092919081815260200182805480156116b157602002820191906000526020600020905b8160009054906101000a900473ffffffffffffffffffffffffffffffffffffffff1673ffffffffffffffffffffffffffffffffffffffff1681526020019060010190808311611667575b50505050508152602001600382015481526020016004820160009054906101000a900473ffffffffffffffffffffffffffffffffffffffff1673ffffffffffffffffffffffffffffffffffffffff1673ffffffffffffffffffffffffffffffffffffffff1681526020016005820180548060200260200160405190810160405280929190818152602001828054801561179f57602002820191906000526020600020905b8160009054906101000a900473ffffffffffffffffffffffffffffffffffffffff1673ffffffffffffffffffffffffffffffffffffffff1681526020019060010190808311611755575b50505050508152602001600682018054806020026020016040519081016040528092919081815260200182805480156117f757602002820191906000526020600020905b8154815260200190600101908083116117e3575b5050505050815260200160078201805480602002602001604051908101604052809291908181526020016000905b828210156118e1578382906000526020600020018054600181600116156101000203166002900480601f0160208091040260200160405190810160405280929190818152602001828054600181600116156101000203166002900480156118cd5780601f106118a2576101008083540402835291602001916118cd565b820191906000526020600020905b8154815290600101906020018083116118b057829003601f168201915b505050505081526020019060010190611825565b5050505081526020016008820154815260200160098201805480602002602001604051908101604052809291908181526020016000905b82821015611a6257838290600052602060002090600502016040518060a00160405290816000820160009054906101000a900473ffffffffffffffffffffffffffffffffffffffff1673ffffffffffffffffffffffffffffffffffffffff1673ffffffffffffffffffffffffffffffffffffffff1681526020016001820160009054906101000a900473ffffffffffffffffffffffffffffffffffffffff1673ffffffffffffffffffffffffffffffffffffffff1673ffffffffffffffffffffffffffffffffffffffff168152602001600282015481526020016003820154815260200160048201805480602002602001604051908101604052809291908181526020018280548015611a4a57602002820191906000526020600020905b815481526020019060010190808311611a36575b50505050508152505081526020019060010190611918565b505050508152602001600a820160009054906101000a900460ff16151515158152602001600b8201548152602001600c820160009054906101000a900473ffffffffffffffffffffffffffffffffffffffff1673ffffffffffffffffffffffffffffffffffffffff1673ffffffffffffffffffffffffffffffffffffffff168152602001600d8201548152602001600e8201805480602002602001604051908101604052809291908181526020018280548015611b3e57602002820191906000526020600020905b815481526020019060010190808311611b2a575b50505050508152602001600f82015481525050915050919050565b808060005411611bd1576040517f08c379a00000000000000000000000000000000000000000000000000000000081526004018080602001828103825260168152602001807f496e646578206e6f7420696e7374616e7469617465640000000000000000000081525060200191505060405180910390fd5b611bda81610db0565b611c4c576040517f08c379a000000000000000000000000000000000000000000000000000000000815260040180806020018281038252600e8152602001807f496e64657820696e61637469766500000000000000000000000000000000000081525060200191505060405180910390fd5b60006007600084815260200190815260200160002090508073__$2a307e3733810a923a91a6f7005edd72dc$__631aa240559091856040518363ffffffff1660e01b8152600401611c9e92919061358e565b60206040518083038186803b158015611cb657600080fd5b505af4158015611cca573d6000803e3d6000fd5b505050506040513d601f19601f82011682018060405250810190611cee91906124ea565b15611d0157611cfc83611ebc565b611e10565b60008173__$2a307e3733810a923a91a6f7005edd72dc$__63906cc66c90916040518263ffffffff1660e01b8152600401611d3c9190613573565b60206040518083038186803b158015611d5457600080fd5b505af4158015611d68573d6000803e3d6000fd5b505050506040513d601f19601f82011682018060405250810190611d8c91906124ea565b90508015611e0e578173__$2a307e3733810a923a91a6f7005edd72dc$__63aba4442390918685600e016040518463ffffffff1660e01b8152600401611dd4939291906135f5565b60006040518083038186803b158015611dec57600080fd5b505af4158015611e00573d6000803e3d6000fd5b50505050611e0d84611ebc565b5b505b505050565b600080600090505b8360050180549050811015611eb057836005018181548110611e3b57fe5b9060005260206000200160009054906101000a900473ffffffffffffffffffffffffffffffffffffffff1673ffffffffffffffffffffffffffffffffffffffff168373ffffffffffffffffffffffffffffffffffffffff161415611ea3576001915050611eb6565b8080600101915050611e1d565b50600090505b92915050565b60006001600083815260200190815260200160002060006101000a81548160ff0219169083151502179055506000600260008381526020019081526020016000208190555050565b828054600181600116156101000203166002900490600052602060002090601f016020900481019282611f3a5760008555611f81565b82601f10611f5357805160ff1916838001178555611f81565b82800160010185558215611f81579182015b82811115611f80578251825591602001919060010190611f65565b5b509050611f8e9190612177565b5090565b82805482825590600052602060002090810192821561200b579160200282015b8281111561200a5782518260006101000a81548173ffffffffffffffffffffffffffffffffffffffff021916908373ffffffffffffffffffffffffffffffffffffffff16021790555091602001919060010190611fb2565b5b5090506120189190612177565b5090565b828054828255906000526020600020908101928215612058579160200282015b8281111561205757825182559160200191906001019061203c565b5b5090506120659190612177565b5090565b8280548282559060005260206000209081019282156120b8579160200282015b828111156120b75782518290805190602001906120a7929190611f04565b5091602001919060010190612089565b5b5090506120c59190612194565b5090565b60405180610200016040528060008019168152602001606081526020016060815260200160008152602001600073ffffffffffffffffffffffffffffffffffffffff168152602001606081526020016060815260200160608152602001600081526020016060815260200160001515815260200160008152602001600073ffffffffffffffffffffffffffffffffffffffff1681526020016000815260200160608152602001600081525090565b5b80821115612190576000816000905550600101612178565b5090565b5b808211156121b457600081816121ab91906121b8565b50600101612195565b5090565b50805460018160011615610100020316600290046000825580601f106121de57506121fd565b601f0160209004906000526020600020908101906121fc9190612177565b5b50565b60008135905061220f81613cbb565b92915050565b600082601f83011261222657600080fd5b8135612239612234826137b3565b613782565b9150818183526020840193506020810190508385602084028201111561225e57600080fd5b60005b8381101561228e57816122748882612200565b845260208401935060208301925050600181019050612261565b5050505092915050565b600082601f8301126122a957600080fd5b81356122bc6122b7826137df565b613782565b9150818183526020840193506020810190508360005b8381101561230257813586016122e88882612403565b8452602084019350602083019250506001810190506122d2565b5050505092915050565b600082601f83011261231d57600080fd5b813561233061232b8261380b565b613782565b9150818183526020840193506020810190508385602084028201111561235557600080fd5b60005b83811015612385578161236b88826124c0565b845260208401935060208301925050600181019050612358565b5050505092915050565b60008151905061239e81613cd2565b92915050565b6000813590506123b381613ce9565b92915050565b60008083601f8401126123cb57600080fd5b8235905067ffffffffffffffff8111156123e457600080fd5b6020830191508360018202830111156123fc57600080fd5b9250929050565b600082601f83011261241457600080fd5b813561242761242282613837565b613782565b9150808252602083016020830185838301111561244357600080fd5b61244e838284613bcb565b50505092915050565b60008135905061246681613d00565b92915050565b600082601f83011261247d57600080fd5b813561249061248b82613867565b613782565b915080825260208301602083018583830111156124ac57600080fd5b6124b7838284613bcb565b50505092915050565b6000813590506124cf81613d17565b92915050565b6000815190506124e481613d17565b92915050565b6000602082840312156124fc57600080fd5b600061250a8482850161238f565b91505092915050565b600080600080600080600080610100898b03121561253057600080fd5b600061253e8b828c016123a4565b985050602089013567ffffffffffffffff81111561255b57600080fd5b6125678b828c01612403565b975050604089013567ffffffffffffffff81111561258457600080fd5b6125908b828c01612215565b96505060606125a18b828c016124c0565b95505060806125b28b828c01612200565b94505060a089013567ffffffffffffffff8111156125cf57600080fd5b6125db8b828c01612215565b93505060c089013567ffffffffffffffff8111156125f857600080fd5b6126048b828c0161230c565b92505060e089013567ffffffffffffffff81111561262157600080fd5b61262d8b828c01612298565b9150509295985092959890939650565b60008060006060848603121561265257600080fd5b600061266086828701612457565b935050602061267186828701612200565b925050604084013567ffffffffffffffff81111561268e57600080fd5b61269a8682870161230c565b9150509250925092565b6000602082840312156126b657600080fd5b60006126c4848285016124c0565b91505092915050565b6000602082840312156126df57600080fd5b60006126ed848285016124d5565b91505092915050565b6000806040838503121561270957600080fd5b6000612717858286016124c0565b925050602061272885828601612200565b9150509250929050565b6000806040838503121561274557600080fd5b6000612753858286016124c0565b925050602083013567ffffffffffffffff81111561277057600080fd5b61277c8582860161230c565b9150509250929050565b6000806040838503121561279957600080fd5b60006127a7858286016124c0565b925050602083013567ffffffffffffffff8111156127c457600080fd5b6127d08582860161246c565b9150509250929050565b60008060008060008060a087890312156127f357600080fd5b600061280189828a016124c0565b965050602061281289828a016124c0565b955050604061282389828a01612200565b945050606061283489828a016124c0565b935050608087013567ffffffffffffffff81111561285157600080fd5b61285d89828a016123b9565b92509250509295509295509295565b60006128788383612904565b60208301905092915050565b60006128908383612e62565b905092915050565b60006128a48383612e9b565b905092915050565b60006128b88383613322565b905092915050565b60006128cc8383613398565b905092915050565b60006128e0838361343b565b60208301905092915050565b60006128f88383613468565b60208301905092915050565b61290d81613b12565b82525050565b61291c81613b12565b82525050565b61292b81613b12565b82525050565b600061293c82613940565b6129468185613a16565b935061295183613897565b8060005b83811015612982578151612969888261286c565b9750612974836139ae565b925050600181019050612955565b5085935050505092915050565b600061299a82613940565b6129a48185613a27565b93506129af83613897565b8060005b838110156129e05781516129c7888261286c565b97506129d2836139ae565b9250506001810190506129b3565b5085935050505092915050565b60006129f88261394b565b612a028185613a16565b9350612a0d836138a7565b8060005b83811015612a4557612a2282613c77565b612a2c888261286c565b9750612a37836139bb565b925050600181019050612a11565b5085935050505092915050565b6000612a5d82613956565b612a678185613a38565b935083602082028501612a79856138bc565b8060005b85811015612ab55784840389528151612a968582612884565b9450612aa1836139c8565b925060208a01995050600181019050612a7d565b50829750879550505050505092915050565b6000612ad282613961565b612adc8185613a38565b935083602082028501612aee856138cc565b8060005b85811015612b2957848403895281612b0a8582612898565b9450612b15836139d5565b925060208a01995050600181019050612af2565b50829750879550505050505092915050565b6000612b468261396c565b612b508185613a49565b935083602082028501612b62856138e1565b8060005b85811015612b9e5784840389528151612b7f85826128ac565b9450612b8a836139e2565b925060208a01995050600181019050612b66565b50829750879550505050505092915050565b6000612bbb82613977565b612bc58185613a49565b935083602082028501612bd7856138f1565b8060005b85811015612c1257848403895281612bf385826128c0565b9450612bfe836139ef565b925060208a01995050600181019050612bdb565b50829750879550505050505092915050565b6000612c2f82613982565b612c398185613a5a565b9350612c4483613906565b8060005b83811015612c75578151612c5c88826128d4565b9750612c67836139fc565b925050600181019050612c48565b5085935050505092915050565b6000612c8d82613982565b612c978185613a6b565b9350612ca283613906565b8060005b83811015612cd3578151612cba88826128d4565b9750612cc5836139fc565b925050600181019050612ca6565b5085935050505092915050565b6000612ceb82613982565b612cf58185613a7c565b9350612d0083613906565b8060005b83811015612d31578151612d1888826128ec565b9750612d23836139fc565b925050600181019050612d04565b5085935050505092915050565b6000612d498261398d565b612d538185613a5a565b9350612d5e83613916565b8060005b83811015612d9657612d7382613c8a565b612d7d88826128d4565b9750612d8883613a09565b925050600181019050612d62565b5085935050505092915050565b6000612dae8261398d565b612db88185613a7c565b9350612dc383613916565b8060005b83811015612dfb57612dd882613c8a565b612de288826128ec565b9750612ded83613a09565b925050600181019050612dc7565b5085935050505092915050565b612e1181613b24565b82525050565b612e2081613b24565b82525050565b612e2f81613b30565b82525050565b6000612e418385613a9e565b9350612e4e838584613bcb565b612e5783613c9d565b840190509392505050565b6000612e6d82613998565b612e778185613a8d565b9350612e87818560208601613bda565b612e9081613c9d565b840191505092915050565b600081546001811660008114612eb85760018114612ede57612f22565b607f6002830416612ec98187613a8d565b955060ff198316865260208601935050612f22565b60028204612eec8187613a8d565b9550612ef78561392b565b60005b82811015612f1957815481890152600182019150602081019050612efa565b80880195505050505b505092915050565b612f3381613b83565b82525050565b612f4281613ba7565b82525050565b6000612f53826139a3565b612f5d8185613ac0565b9350612f6d818560208601613bda565b612f7681613c9d565b840191505092915050565b6000612f8e601983613aaf565b91507f556e657870656374656420746f6b656e2070726f7669646572000000000000006000830152602082019050919050565b600061020083016000830151612fda6000860182612e26565b5060208301518482036020860152612ff28282612e62565b9150506040830151848203604086015261300c8282612931565b9150506060830151613021606086018261343b565b5060808301516130346080860182612904565b5060a083015184820360a086015261304c8282612931565b91505060c083015184820360c08601526130668282612c24565b91505060e083015184820360e08601526130808282612a52565b91505061010083015161309761010086018261343b565b506101208301518482036101208601526130b18282612b3b565b9150506101408301516130c8610140860182612e08565b506101608301516130dd61016086018261343b565b506101808301516130f2610180860182612904565b506101a08301516131076101a086018261343b565b506101c08301518482036101c08601526131218282612c24565b9150506101e08301516131386101e086018261343b565b508091505092915050565b60006102008301600080840154905061315b81613c41565b6131686000870182612e26565b5060018401858303602087015261317f8382612e9b565b92505060028401858303604087015261319883826129ed565b925050600384015490506131ab81613c5b565b6131b8606087018261343b565b50600484015490506131c981613c0d565b6131d66080870182612904565b506005840185830360a08701526131ed83826129ed565b9250506006840185830360c08701526132068382612d3e565b9250506007840185830360e087015261321f8382612ac7565b9250506008840154905061323281613c5b565b61324061010087018261343b565b50600984018583036101208701526132588382612bb0565b925050600a840154905061326b81613c27565b613279610140870182612e08565b50600b840154905061328a81613c5b565b61329861016087018261343b565b50600c84015490506132a981613c0d565b6132b7610180870182612904565b50600d84015490506132c881613c5b565b6132d66101a087018261343b565b50600e84018583036101c08701526132ee8382612d3e565b925050600f840154905061330181613c5b565b61330f6101e087018261343b565b50819250505092915050565b8082525050565b600060a08301600083015161333a6000860182612904565b50602083015161334d6020860182612904565b506040830151613360604086018261343b565b506060830151613373606086018261343b565b506080830151848203608086015261338b8282612c24565b9150508091505092915050565b600060a0830160008084015490506133af81613c0d565b6133bc6000870182612904565b50600184015490506133cd81613c0d565b6133da6020870182612904565b50600284015490506133eb81613c5b565b6133f8604087018261343b565b506003840154905061340981613c5b565b613416606087018261343b565b5060048401858303608087015261342d8382612d3e565b925050819250505092915050565b61344481613b6c565b82525050565b61345381613b6c565b82525050565b61346281613b6c565b82525050565b61347181613b6c565b82525050565b61348081613b76565b82525050565b600060608201905061349b6000830186612913565b6134a86020830185612913565b6134b5604083018461344a565b949350505050565b600060408201905081810360008301526134d7818561298f565b905081810360208301526134eb8184612c82565b90509392505050565b60006020820190506135096000830184612e17565b92915050565b6000602082019050818103600083015261352881612f81565b9050919050565b600060208201905081810360008301526135498184612fc1565b905092915050565b6000602082019050818103600083015261356b8184613143565b905092915050565b6000602082019050613588600083018461331b565b92915050565b60006040820190506135a3600083018561331b565b6135b06020830184613459565b9392505050565b60006060820190506135cc600083018661331b565b6135d96020830185613459565b81810360408301526135eb8184612ce0565b9050949350505050565b600060608201905061360a600083018661331b565b6136176020830185613459565b81810360408301526136298184612da3565b9050949350505050565b6000606082019050613648600083018661331b565b6136556020830185613459565b6136626040830184612f2a565b949350505050565b600060e08201905061367f600083018a61331b565b61368c6020830189613459565b818103604083015261369e8188612f48565b90506136ad6060830187612f2a565b6136ba6080830186612f39565b6136c760a0830185613477565b6136d460c0830184613459565b98975050505050505050565b6000610100820190506136f6600083018c61331b565b613703602083018b613459565b613710604083018a613459565b61371d6060830189612922565b61372a6080830188613459565b81810360a083015261373d818688612e35565b905061374c60c0830185612f39565b61375960e0830184613477565b9a9950505050505050505050565b600060208201905061377c600083018461344a565b92915050565b6000604051905081810181811067ffffffffffffffff821117156137a9576137a8613c75565b5b8060405250919050565b600067ffffffffffffffff8211156137ce576137cd613c75565b5b602082029050602081019050919050565b600067ffffffffffffffff8211156137fa576137f9613c75565b5b602082029050602081019050919050565b600067ffffffffffffffff82111561382657613825613c75565b5b602082029050602081019050919050565b600067ffffffffffffffff82111561385257613851613c75565b5b601f19601f8301169050602081019050919050565b600067ffffffffffffffff82111561388257613881613c75565b5b601f19601f8301169050602081019050919050565b6000819050602082019050919050565b60008190508160005260206000209050919050565b6000819050602082019050919050565b60008190508160005260206000209050919050565b6000819050602082019050919050565b60008190508160005260206000209050919050565b6000819050602082019050919050565b60008190508160005260206000209050919050565b60008190508160005260206000209050919050565b600081519050919050565b600081549050919050565b600081519050919050565b600081549050919050565b600081519050919050565b600081549050919050565b600081519050919050565b600081549050919050565b600081519050919050565b600081519050919050565b6000602082019050919050565b6000600182019050919050565b6000602082019050919050565b6000600182019050919050565b6000602082019050919050565b6000600582019050919050565b6000602082019050919050565b6000600182019050919050565b600082825260208201905092915050565b600082825260208201905092915050565b600082825260208201905092915050565b600082825260208201905092915050565b600082825260208201905092915050565b600082825260208201905092915050565b600082825260208201905092915050565b600082825260208201905092915050565b600082825260208201905092915050565b600082825260208201905092915050565b600082825260208201905092915050565b600073ffffffffffffffffffffffffffffffffffffffff82169050919050565b600060ff82169050919050565b6000819050919050565b6000819050919050565b6000613b1d82613b4c565b9050919050565b60008115159050919050565b6000819050919050565b6000613b4582613b12565b9050919050565b600073ffffffffffffffffffffffffffffffffffffffff82169050919050565b6000819050919050565b600060ff82169050919050565b6000613b8e82613b95565b9050919050565b6000613ba082613b4c565b9050919050565b6000613bb282613bb9565b9050919050565b6000613bc482613b4c565b9050919050565b82818337600083830152505050565b60005b83811015613bf8578082015181840152602081019050613bdd565b83811115613c07576000848401525b50505050565b6000613c20613c1b83613cae565b613ad1565b9050919050565b6000613c3a613c3583613cae565b613af1565b9050919050565b6000613c54613c4f83613cae565b613afe565b9050919050565b6000613c6e613c6983613cae565b613b08565b9050919050565bfe5b6000613c838254613c0d565b9050919050565b6000613c968254613c5b565b9050919050565b6000601f19601f8301169050919050565b60008160001c9050919050565b613cc481613b12565b8114613ccf57600080fd5b50565b613cdb81613b24565b8114613ce657600080fd5b50565b613cf281613b30565b8114613cfd57600080fd5b50565b613d0981613b3a565b8114613d1457600080fd5b50565b613d2081613b6c565b8114613d2b57600080fd5b5056fea2646970667358221220d875ffcc5cd1dc0ce1e1036969f5896402c3beaca38634b75a0d5de9d475e45464736f6c63430007040033",
  "libraries": {
    "TurnBasedGameContext": "0xe18F3a49A50dAc3f87084318521cd300ef8e7FFA"
  },
  "devdoc": {
    "kind": "dev",
    "methods": {
      "applyVerificationResult(uint256)": {
        "params": {
          "_index": "index identifying the game"
        }
      },
      "challengeGame(uint256,string)": {
        "params": {
          "_index": "index identifying the game",
          "_message": "message associated with the challenge (e.g., alleged cause)"
        },
        "returns": {
          "_0": "index of the Descartes computation"
        }
      },
      "claimResult(uint256,uint256[])": {
        "params": {
          "_fundsShare": "result of the game given as a distribution of the funds previously locked",
          "_index": "index identifying the game"
        }
      },
      "claimTimeout(uint256)": {
        "params": {
          "_index": "index identifying the game"
        }
      },
      "confirmResult(uint256)": {
        "params": {
          "_index": "index identifying the game"
        }
      },
      "constructor": {
        "params": {
          "_allowedERC20Address": "address of the ERC20 compatible token provider",
          "_descartesAddress": "address of the Descartes contract",
          "_loggerAddress": "address of the Logger contract"
        }
      },
      "getContext(uint256)": {
        "params": {
          "_index": "index identifying the game"
        },
        "returns": {
          "_0": "GameContext struct for the specified game"
        }
      },
      "getState(uint256,address)": {
        "params": {
          "_index": "index identifying the game"
        },
        "returns": {
          "_isDescartesInstantiated": "whether an offchain Descartes computation has been instantiated for this game"
        }
      },
      "getSubInstances(uint256,address)": {
        "params": {
          "_index": "index identifying the game"
        }
      },
      "isConcerned(uint256,address)": {
        "params": {
          "_index": "index identifying the game",
          "_player": "a player's address"
        },
        "returns": {
          "_0": "true if the player is concerned about the game, false otherwise"
        }
      },
      "startGame(bytes32,bytes,address[],uint256,address,address[],uint256[],bytes[])": {
        "params": {
          "_gameERC20Address": "address for a ERC20 compatible token provider",
          "_gameMetadata": "game-specific initial metadata/parameters",
          "_gameTemplateHash": "template hash for the Cartesi Machine computation that verifies the game (identifies the game computation/logic)",
          "_gameTimeout": "global timeout for game activity in seconds, after which the game may be terminated (zero means there is no timeout limit)",
          "_gameValidators": "addresses of the validator nodes that will run a Descartes verification should it be needed",
          "_playerFunds": "funds/balances that each player is bringing into the game",
          "_playerInfos": "game-specific information for each player",
          "_players": "addresses of the players involved"
        },
        "returns": {
          "_0": "index of the game instance"
        }
      },
      "submitTurn(uint256,uint256,address,uint256,bytes)": {
        "params": {
          "_data": "game-specific turn data (array of 64-bit words)",
          "_index": "index identifying the game",
          "_nextPlayer": "address of a player responsible for next turn (can be empty, in which case no player will be held accountable for a timeout)",
          "_playerStake": "amount of tokens at stake after the turn",
          "_turnIndex": "a sequential number for the turn, which must be equal to the last submitted turn's index + 1"
        }
      },
      "transferTokensToGameAccount(address,address,uint256[])": {
        "params": {
          "_holder": "account from where tokens will be transferred to the game",
          "_playerFunds": "amount of tokens from each player",
          "_tokenProvider": "ERC20 compatible token provider instance"
        }
      }
    },
    "title": "TurnBasedGame",
    "version": 1
  },
  "userdoc": {
    "kind": "user",
    "methods": {
      "applyVerificationResult(uint256)": {
        "notice": "Applies the result of a game verified by Descartes, transferring funds according to the Descartes computation output"
      },
      "challengeGame(uint256,string)": {
        "notice": "Challenges game state, triggering a verification by a Descartes computation"
      },
      "claimResult(uint256,uint256[])": {
        "notice": "Claims game has ended with the provided result (share of locked funds)"
      },
      "claimTimeout(uint256)": {
        "notice": "Claims game has ended due to a timeout."
      },
      "confirmResult(uint256)": {
        "notice": "Confirms game results previously claimed"
      },
      "constructor": {
        "notice": "Constructor"
      },
      "getContext(uint256)": {
        "notice": "Returns game context"
      },
      "getState(uint256,address)": {
        "notice": "Returns state of the instance for offchain usage concerning given validator."
      },
      "getSubInstances(uint256,address)": {
        "notice": "Retrieves sub-instances of the game (required method for Instantiator, used by offchain dispatcher code)."
      },
      "isConcerned(uint256,address)": {
        "notice": "Indicates whether a given player is concerned about a game"
      },
      "startGame(bytes32,bytes,address[],uint256,address,address[],uint256[],bytes[])": {
        "notice": "Starts a new game"
      },
      "submitTurn(uint256,uint256,address,uint256,bytes)": {
        "notice": "Submits a new turn for a given game"
      },
      "transferTokensToGameAccount(address,address,uint256[])": {
        "notice": "Transfer tokens to the game contract account"
      }
    },
    "notice": "Generic contract for handling turn-based games validated by Descartes computations",
    "version": 1
  },
  "storageLayout": {
    "storage": [
      {
        "astId": 674,
        "contract": "contracts/TurnBasedGame.sol:TurnBasedGame",
        "label": "currentIndex",
        "offset": 0,
        "slot": "0",
        "type": "t_uint256"
      },
      {
        "astId": 678,
        "contract": "contracts/TurnBasedGame.sol:TurnBasedGame",
        "label": "active",
        "offset": 0,
        "slot": "1",
        "type": "t_mapping(t_uint256,t_bool)"
      },
      {
        "astId": 682,
        "contract": "contracts/TurnBasedGame.sol:TurnBasedGame",
        "label": "nonce",
        "offset": 0,
        "slot": "2",
        "type": "t_mapping(t_uint256,t_uint256)"
      },
      {
        "astId": 2183,
        "contract": "contracts/TurnBasedGame.sol:TurnBasedGame",
        "label": "allowedERC20Address",
        "offset": 0,
        "slot": "3",
        "type": "t_address"
      },
      {
        "astId": 2188,
        "contract": "contracts/TurnBasedGame.sol:TurnBasedGame",
        "label": "descartes",
        "offset": 0,
        "slot": "4",
        "type": "t_contract(DescartesInterface)86"
      },
      {
        "astId": 2190,
        "contract": "contracts/TurnBasedGame.sol:TurnBasedGame",
        "label": "logger",
        "offset": 0,
        "slot": "5",
        "type": "t_contract(Logger)562"
      },
      {
        "astId": 2192,
        "contract": "contracts/TurnBasedGame.sol:TurnBasedGame",
        "label": "emptyDataLogIndex",
        "offset": 0,
        "slot": "6",
        "type": "t_uint256"
      },
      {
        "astId": 2199,
        "contract": "contracts/TurnBasedGame.sol:TurnBasedGame",
        "label": "instances",
        "offset": 0,
        "slot": "7",
        "type": "t_mapping(t_uint256,t_struct(GameContext)2839_storage)"
      }
    ],
    "types": {
      "t_address": {
        "encoding": "inplace",
        "label": "address",
        "numberOfBytes": "20"
      },
      "t_array(t_address)dyn_storage": {
        "base": "t_address",
        "encoding": "dynamic_array",
        "label": "address[]",
        "numberOfBytes": "32"
      },
      "t_array(t_bytes_storage)dyn_storage": {
        "base": "t_bytes_storage",
        "encoding": "dynamic_array",
        "label": "bytes[]",
        "numberOfBytes": "32"
      },
      "t_array(t_struct(Turn)2800_storage)dyn_storage": {
        "base": "t_struct(Turn)2800_storage",
        "encoding": "dynamic_array",
        "label": "struct Turn[]",
        "numberOfBytes": "32"
      },
      "t_array(t_uint256)dyn_storage": {
        "base": "t_uint256",
        "encoding": "dynamic_array",
        "label": "uint256[]",
        "numberOfBytes": "32"
      },
      "t_bool": {
        "encoding": "inplace",
        "label": "bool",
        "numberOfBytes": "1"
      },
      "t_bytes32": {
        "encoding": "inplace",
        "label": "bytes32",
        "numberOfBytes": "32"
      },
      "t_bytes_storage": {
        "encoding": "bytes",
        "label": "bytes",
        "numberOfBytes": "32"
      },
      "t_contract(DescartesInterface)86": {
        "encoding": "inplace",
        "label": "contract DescartesInterface",
        "numberOfBytes": "20"
      },
      "t_contract(Logger)562": {
        "encoding": "inplace",
        "label": "contract Logger",
        "numberOfBytes": "20"
      },
      "t_mapping(t_uint256,t_bool)": {
        "encoding": "mapping",
        "key": "t_uint256",
        "label": "mapping(uint256 => bool)",
        "numberOfBytes": "32",
        "value": "t_bool"
      },
      "t_mapping(t_uint256,t_struct(GameContext)2839_storage)": {
        "encoding": "mapping",
        "key": "t_uint256",
        "label": "mapping(uint256 => struct GameContext)",
        "numberOfBytes": "32",
        "value": "t_struct(GameContext)2839_storage"
      },
      "t_mapping(t_uint256,t_uint256)": {
        "encoding": "mapping",
        "key": "t_uint256",
        "label": "mapping(uint256 => uint256)",
        "numberOfBytes": "32",
        "value": "t_uint256"
      },
      "t_struct(GameContext)2839_storage": {
        "encoding": "inplace",
        "label": "struct GameContext",
        "members": [
          {
            "astId": 2802,
            "contract": "contracts/TurnBasedGame.sol:TurnBasedGame",
            "label": "gameTemplateHash",
            "offset": 0,
            "slot": "0",
            "type": "t_bytes32"
          },
          {
            "astId": 2804,
            "contract": "contracts/TurnBasedGame.sol:TurnBasedGame",
            "label": "gameMetadata",
            "offset": 0,
            "slot": "1",
            "type": "t_bytes_storage"
          },
          {
            "astId": 2807,
            "contract": "contracts/TurnBasedGame.sol:TurnBasedGame",
            "label": "gameValidators",
            "offset": 0,
            "slot": "2",
            "type": "t_array(t_address)dyn_storage"
          },
          {
            "astId": 2809,
            "contract": "contracts/TurnBasedGame.sol:TurnBasedGame",
            "label": "gameTimeout",
            "offset": 0,
            "slot": "3",
            "type": "t_uint256"
          },
          {
            "astId": 2811,
            "contract": "contracts/TurnBasedGame.sol:TurnBasedGame",
            "label": "gameERC20Address",
            "offset": 0,
            "slot": "4",
            "type": "t_address"
          },
          {
            "astId": 2814,
            "contract": "contracts/TurnBasedGame.sol:TurnBasedGame",
            "label": "players",
            "offset": 0,
            "slot": "5",
            "type": "t_array(t_address)dyn_storage"
          },
          {
            "astId": 2817,
            "contract": "contracts/TurnBasedGame.sol:TurnBasedGame",
            "label": "playerFunds",
            "offset": 0,
            "slot": "6",
            "type": "t_array(t_uint256)dyn_storage"
          },
          {
            "astId": 2820,
            "contract": "contracts/TurnBasedGame.sol:TurnBasedGame",
            "label": "playerInfos",
            "offset": 0,
            "slot": "7",
            "type": "t_array(t_bytes_storage)dyn_storage"
          },
          {
            "astId": 2822,
            "contract": "contracts/TurnBasedGame.sol:TurnBasedGame",
            "label": "startTimestamp",
            "offset": 0,
            "slot": "8",
            "type": "t_uint256"
          },
          {
            "astId": 2825,
            "contract": "contracts/TurnBasedGame.sol:TurnBasedGame",
            "label": "turns",
            "offset": 0,
            "slot": "9",
            "type": "t_array(t_struct(Turn)2800_storage)dyn_storage"
          },
          {
            "astId": 2827,
            "contract": "contracts/TurnBasedGame.sol:TurnBasedGame",
            "label": "isDescartesInstantiated",
            "offset": 0,
            "slot": "10",
            "type": "t_bool"
          },
          {
            "astId": 2829,
            "contract": "contracts/TurnBasedGame.sol:TurnBasedGame",
            "label": "descartesIndex",
            "offset": 0,
            "slot": "11",
            "type": "t_uint256"
          },
          {
            "astId": 2831,
            "contract": "contracts/TurnBasedGame.sol:TurnBasedGame",
            "label": "claimer",
            "offset": 0,
            "slot": "12",
            "type": "t_address"
          },
          {
            "astId": 2833,
            "contract": "contracts/TurnBasedGame.sol:TurnBasedGame",
            "label": "claimTimestamp",
            "offset": 0,
            "slot": "13",
            "type": "t_uint256"
          },
          {
            "astId": 2836,
            "contract": "contracts/TurnBasedGame.sol:TurnBasedGame",
            "label": "claimedFundsShare",
            "offset": 0,
            "slot": "14",
            "type": "t_array(t_uint256)dyn_storage"
          },
          {
            "astId": 2838,
            "contract": "contracts/TurnBasedGame.sol:TurnBasedGame",
            "label": "claimAgreementMask",
            "offset": 0,
            "slot": "15",
            "type": "t_uint256"
          }
        ],
        "numberOfBytes": "512"
      },
      "t_struct(Turn)2800_storage": {
        "encoding": "inplace",
        "label": "struct Turn",
        "members": [
          {
            "astId": 2790,
            "contract": "contracts/TurnBasedGame.sol:TurnBasedGame",
            "label": "player",
            "offset": 0,
            "slot": "0",
            "type": "t_address"
          },
          {
            "astId": 2792,
            "contract": "contracts/TurnBasedGame.sol:TurnBasedGame",
            "label": "nextPlayer",
            "offset": 0,
            "slot": "1",
            "type": "t_address"
          },
          {
            "astId": 2794,
            "contract": "contracts/TurnBasedGame.sol:TurnBasedGame",
            "label": "playerStake",
            "offset": 0,
            "slot": "2",
            "type": "t_uint256"
          },
          {
            "astId": 2796,
            "contract": "contracts/TurnBasedGame.sol:TurnBasedGame",
            "label": "timestamp",
            "offset": 0,
            "slot": "3",
            "type": "t_uint256"
          },
          {
            "astId": 2799,
            "contract": "contracts/TurnBasedGame.sol:TurnBasedGame",
            "label": "dataLogIndices",
            "offset": 0,
            "slot": "4",
            "type": "t_array(t_uint256)dyn_storage"
          }
        ],
        "numberOfBytes": "160"
      },
      "t_uint256": {
        "encoding": "inplace",
        "label": "uint256",
        "numberOfBytes": "32"
      }
    }
  }
}