{
  "address": "0x4C7f1991D485dfa9b61398950f6288C327CD7c1c",
  "abi": [
    {
      "inputs": [
        {
          "internalType": "address",
          "name": "turnBasedGameAddress",
          "type": "address"
        }
      ],
      "stateMutability": "nonpayable",
      "type": "constructor"
    },
    {
      "inputs": [
        {
          "internalType": "bytes32",
          "name": "_gameTemplateHash",
          "type": "bytes32"
        },
        {
          "internalType": "bytes",
          "name": "_gameMetadata",
          "type": "bytes"
        },
        {
          "internalType": "address[]",
          "name": "_gameValidators",
          "type": "address[]"
        },
        {
          "internalType": "uint8",
          "name": "_gameNumPlayers",
          "type": "uint8"
        },
        {
          "internalType": "uint256",
          "name": "_gameMinFunds",
          "type": "uint256"
        }
      ],
      "name": "getQueue",
      "outputs": [
        {
          "components": [
            {
              "internalType": "address",
              "name": "addr",
              "type": "address"
            },
            {
              "internalType": "uint256",
              "name": "funds",
              "type": "uint256"
            },
            {
              "internalType": "bytes",
              "name": "info",
              "type": "bytes"
            }
          ],
          "internalType": "struct TurnBasedGameLobby.QueuedPlayer[]",
          "name": "",
          "type": "tuple[]"
        }
      ],
      "stateMutability": "view",
      "type": "function"
    },
    {
      "inputs": [
        {
          "internalType": "bytes32",
          "name": "_gameTemplateHash",
          "type": "bytes32"
        },
        {
          "internalType": "bytes",
          "name": "_gameMetadata",
          "type": "bytes"
        },
        {
          "internalType": "address[]",
          "name": "_gameValidators",
          "type": "address[]"
        },
        {
          "internalType": "uint8",
          "name": "_gameNumPlayers",
          "type": "uint8"
        },
        {
          "internalType": "uint256",
          "name": "_gameMinFunds",
          "type": "uint256"
        },
        {
          "internalType": "uint256",
          "name": "_playerFunds",
          "type": "uint256"
        },
        {
          "internalType": "bytes",
          "name": "_playerInfo",
          "type": "bytes"
        }
      ],
      "name": "joinGame",
      "outputs": [],
      "stateMutability": "nonpayable",
      "type": "function"
    }
  ],
  "transactionHash": "0x912b663d60dafd0f3f01fccb325854f9ea95fa7cbde5ef8f1e7634f22427ba42",
  "args": [
    "0x3cb8744F83EA31EaDDCD703f2DCDd4522679Ba4c"
  ],
  "solcInputHash": "b8408245dbf1729b8b99494f1680c87c",
  "bytecode": "0x60806040523480156200001157600080fd5b506040516200176e3803806200176e833981810160405281019062000037919062000095565b806000806101000a81548173ffffffffffffffffffffffffffffffffffffffff021916908373ffffffffffffffffffffffffffffffffffffffff160217905550506200010f565b6000815190506200008f81620000f5565b92915050565b600060208284031215620000a857600080fd5b6000620000b8848285016200007e565b91505092915050565b6000620000ce82620000d5565b9050919050565b600073ffffffffffffffffffffffffffffffffffffffff82169050919050565b6200010081620000c1565b81146200010c57600080fd5b50565b61164f806200011f6000396000f3fe608060405234801561001057600080fd5b50600436106100365760003560e01c80631fb154981461003b5780636a5c5b9014610057575b600080fd5b61005560048036038101906100509190610c1d565b610087565b005b610071600480360381019061006c9190610b76565b6106e6565b60405161007e9190611237565b60405180910390f35b828210156100ca576040517f08c379a00000000000000000000000000000000000000000000000000000000081526004016100c1906112fd565b60405180910390fd5b600087878787876040516020016100e59594939291906111e0565b604051602081830303815290604052805190602001209050600060016000838152602001908152602001600020905060005b81805490508110156101dc573373ffffffffffffffffffffffffffffffffffffffff1682828154811061014657fe5b906000526020600020906003020160000160009054906101000a900473ffffffffffffffffffffffffffffffffffffffff1673ffffffffffffffffffffffffffffffffffffffff1614156101cf576040517f08c379a00000000000000000000000000000000000000000000000000000000081526004016101c6906112dd565b60405180910390fd5b8080600101915050610117565b506001860360ff16818054905010156102e3576101f7610892565b33816000019073ffffffffffffffffffffffffffffffffffffffff16908173ffffffffffffffffffffffffffffffffffffffff1681525050848160200181815250508381604001819052508181908060018154018082558091505060019003906000526020600020906003020160009091909190915060008201518160000160006101000a81548173ffffffffffffffffffffffffffffffffffffffff021916908373ffffffffffffffffffffffffffffffffffffffff1602179055506020820151816001015560408201518160020190805190602001906102da9291906108c9565b505050506106db565b60608660ff1667ffffffffffffffff811180156102ff57600080fd5b5060405190808252806020026020018201604052801561032e5781602001602082028036833780820191505090505b50905060608760ff1667ffffffffffffffff8111801561034d57600080fd5b5060405190808252806020026020018201604052801561037c5781602001602082028036833780820191505090505b50905060608860ff1667ffffffffffffffff8111801561039b57600080fd5b506040519080825280602002602001820160405280156103cf57816020015b60608152602001906001900390816103ba5790505b50905060005b60018a0360ff16811015610577578481815481106103ef57fe5b906000526020600020906003020160000160009054906101000a900473ffffffffffffffffffffffffffffffffffffffff1684828151811061042d57fe5b602002602001019073ffffffffffffffffffffffffffffffffffffffff16908173ffffffffffffffffffffffffffffffffffffffff168152505084818154811061047357fe5b90600052602060002090600302016001015483828151811061049157fe5b6020026020010181815250508481815481106104a957fe5b90600052602060002090600302016002018054600181600116156101000203166002900480601f01602080910402602001604051908101604052809291908181526020018280546001816001161561010002031660029004801561054e5780601f106105235761010080835404028352916020019161054e565b820191906000526020600020905b81548152906001019060200180831161053157829003601f168201915b505050505082828151811061055f57fe5b602002602001018190525080806001019150506103d5565b50338360018b0360ff168151811061058b57fe5b602002602001019073ffffffffffffffffffffffffffffffffffffffff16908173ffffffffffffffffffffffffffffffffffffffff1681525050868260018b0360ff16815181106105d857fe5b602002602001018181525050858160018b0360ff16815181106105f757fe5b602002602001018190525060008054906101000a900473ffffffffffffffffffffffffffffffffffffffff1673ffffffffffffffffffffffffffffffffffffffff16632ab230888d8d8d8787876040518763ffffffff1660e01b815260040161066596959493929190611259565b602060405180830381600087803b15801561067f57600080fd5b505af1158015610693573d6000803e3d6000fd5b505050506040513d601f19601f820116820180604052508101906106b79190610d03565b506001600086815260200190815260200160002060006106d79190610957565b5050505b505050505050505050565b6060600086868686866040516020016107039594939291906111e0565b60405160208183030381529060405280519060200120905060016000828152602001908152602001600020805480602002602001604051908101604052809291908181526020016000905b8282101561088257838290600052602060002090600302016040518060600160405290816000820160009054906101000a900473ffffffffffffffffffffffffffffffffffffffff1673ffffffffffffffffffffffffffffffffffffffff1673ffffffffffffffffffffffffffffffffffffffff16815260200160018201548152602001600282018054600181600116156101000203166002900480601f01602080910402602001604051908101604052809291908181526020018280546001816001161561010002031660029004801561086a5780601f1061083f5761010080835404028352916020019161086a565b820191906000526020600020905b81548152906001019060200180831161084d57829003601f168201915b5050505050815250508152602001906001019061074e565b5050505091505095945050505050565b6040518060600160405280600073ffffffffffffffffffffffffffffffffffffffff16815260200160008152602001606081525090565b828054600181600116156101000203166002900490600052602060002090601f0160209004810192826108ff5760008555610946565b82601f1061091857805160ff1916838001178555610946565b82800160010185558215610946579182015b8281111561094557825182559160200191906001019061092a565b5b509050610953919061097b565b5090565b50805460008255600302906000526020600020908101906109789190610998565b50565b5b8082111561099457600081600090555060010161097c565b5090565b5b808211156109ea57600080820160006101000a81549073ffffffffffffffffffffffffffffffffffffffff021916905560018201600090556002820160006109e191906109ee565b50600301610999565b5090565b50805460018160011615610100020316600290046000825580601f10610a145750610a33565b601f016020900490600052602060002090810190610a32919061097b565b5b50565b600081359050610a45816115bd565b92915050565b600082601f830112610a5c57600080fd5b8135610a6f610a6a8261134e565b61131d565b91508181835260208401935060208101905083856020840282011115610a9457600080fd5b60005b83811015610ac45781610aaa8882610a36565b845260208401935060208301925050600181019050610a97565b5050505092915050565b600081359050610add816115d4565b92915050565b600082601f830112610af457600080fd5b8135610b07610b028261137a565b61131d565b91508082526020830160208301858383011115610b2357600080fd5b610b2e838284611535565b50505092915050565b600081359050610b46816115eb565b92915050565b600081519050610b5b816115eb565b92915050565b600081359050610b7081611602565b92915050565b600080600080600060a08688031215610b8e57600080fd5b6000610b9c88828901610ace565b955050602086013567ffffffffffffffff811115610bb957600080fd5b610bc588828901610ae3565b945050604086013567ffffffffffffffff811115610be257600080fd5b610bee88828901610a4b565b9350506060610bff88828901610b61565b9250506080610c1088828901610b37565b9150509295509295909350565b600080600080600080600060e0888a031215610c3857600080fd5b6000610c468a828b01610ace565b975050602088013567ffffffffffffffff811115610c6357600080fd5b610c6f8a828b01610ae3565b965050604088013567ffffffffffffffff811115610c8c57600080fd5b610c988a828b01610a4b565b9550506060610ca98a828b01610b61565b9450506080610cba8a828b01610b37565b93505060a0610ccb8a828b01610b37565b92505060c088013567ffffffffffffffff811115610ce857600080fd5b610cf48a828b01610ae3565b91505092959891949750929550565b600060208284031215610d1557600080fd5b6000610d2384828501610b4c565b91505092915050565b6000610d388383610d9c565b60208301905092915050565b6000610d508383610dab565b60208301905092915050565b6000610d688383610fe4565b905092915050565b6000610d7c8383611153565b905092915050565b6000610d9083836111a3565b60208301905092915050565b610da5816114e2565b82525050565b610db4816114e2565b82525050565b6000610dc5826113ea565b610dcf8185611455565b9350610dda836113aa565b8060005b83811015610e0b578151610df28882610d2c565b9750610dfd83611421565b925050600181019050610dde565b5085935050505092915050565b6000610e23826113ea565b610e2d8185611466565b9350610e38836113aa565b8060005b83811015610e69578151610e508882610d44565b9750610e5b83611421565b925050600181019050610e3c565b5085935050505092915050565b6000610e81826113f5565b610e8b8185611471565b935083602082028501610e9d856113ba565b8060005b85811015610ed95784840389528151610eba8582610d5c565b9450610ec58361142e565b925060208a01995050600181019050610ea1565b50829750879550505050505092915050565b6000610ef682611400565b610f008185611482565b935083602082028501610f12856113ca565b8060005b85811015610f4e5784840389528151610f2f8582610d70565b9450610f3a8361143b565b925060208a01995050600181019050610f16565b50829750879550505050505092915050565b6000610f6b8261140b565b610f758185611493565b9350610f80836113da565b8060005b83811015610fb1578151610f988882610d84565b9750610fa383611448565b925050600181019050610f84565b5085935050505092915050565b610fc7816114f4565b82525050565b610fde610fd9826114f4565b611577565b82525050565b6000610fef82611416565b610ff981856114a4565b9350611009818560208601611544565b6110128161159f565b840191505092915050565b600061102882611416565b61103281856114b5565b9350611042818560208601611544565b61104b8161159f565b840191505092915050565b600061106182611416565b61106b81856114c6565b935061107b818560208601611544565b80840191505092915050565b60006110946032836114d1565b91507f506c617965722068617320616c7265616479206265656e20656e71756575656460008301527f20746f206a6f696e20746869732067616d6500000000000000000000000000006020830152604082019050919050565b60006110fa6036836114d1565b91507f506c617965722773207374616b65642066756e647320697320696e737566666960008301527f6369656e7420746f206a6f696e207468652067616d65000000000000000000006020830152604082019050919050565b600060608301600083015161116b6000860182610d9c565b50602083015161117e60208601826111a3565b50604083015184820360408601526111968282610fe4565b9150508091505092915050565b6111ac8161151e565b82525050565b6111c36111be8261151e565b611581565b82525050565b6111da6111d582611528565b61158b565b82525050565b60006111ec8288610fcd565b6020820191506111fc8287611056565b91506112088286610e18565b915061121482856111c9565b60018201915061122482846111b2565b6020820191508190509695505050505050565b600060208201905081810360008301526112518184610eeb565b905092915050565b600060c08201905061126e6000830189610fbe565b8181036020830152611280818861101d565b905081810360408301526112948187610dba565b905081810360608301526112a88186610dba565b905081810360808301526112bc8185610f60565b905081810360a08301526112d08184610e76565b9050979650505050505050565b600060208201905081810360008301526112f681611087565b9050919050565b60006020820190508181036000830152611316816110ed565b9050919050565b6000604051905081810181811067ffffffffffffffff821117156113445761134361159d565b5b8060405250919050565b600067ffffffffffffffff8211156113695761136861159d565b5b602082029050602081019050919050565b600067ffffffffffffffff8211156113955761139461159d565b5b601f19601f8301169050602081019050919050565b6000819050602082019050919050565b6000819050602082019050919050565b6000819050602082019050919050565b6000819050602082019050919050565b600081519050919050565b600081519050919050565b600081519050919050565b600081519050919050565b600081519050919050565b6000602082019050919050565b6000602082019050919050565b6000602082019050919050565b6000602082019050919050565b600082825260208201905092915050565b600081905092915050565b600082825260208201905092915050565b600082825260208201905092915050565b600082825260208201905092915050565b600082825260208201905092915050565b600082825260208201905092915050565b600081905092915050565b600082825260208201905092915050565b60006114ed826114fe565b9050919050565b6000819050919050565b600073ffffffffffffffffffffffffffffffffffffffff82169050919050565b6000819050919050565b600060ff82169050919050565b82818337600083830152505050565b60005b83811015611562578082015181840152602081019050611547565b83811115611571576000848401525b50505050565b6000819050919050565b6000819050919050565b6000611596826115b0565b9050919050565bfe5b6000601f19601f8301169050919050565b60008160f81b9050919050565b6115c6816114e2565b81146115d157600080fd5b50565b6115dd816114f4565b81146115e857600080fd5b50565b6115f48161151e565b81146115ff57600080fd5b50565b61160b81611528565b811461161657600080fd5b5056fea2646970667358221220c9c76aaeb14655a0c338a5ec270466d0426f74f1ebf682b6fe336f84ef8e452464736f6c63430007040033",
  "devdoc": {
    "kind": "dev",
    "methods": {
      "constructor": {
        "params": {
          "turnBasedGameAddress": "address of the TurnBasedGame contract used for starting games"
        }
      },
      "getQueue(bytes32,bytes,address[],uint8,uint256)": {
        "params": {
          "_gameMetadata": "game-specific initial metadata/parameters",
          "_gameMinFunds": "minimum funds required to be staked in order to join the game",
          "_gameNumPlayers": "number of players in the game",
          "_gameTemplateHash": "template hash for the Cartesi Machine computation that verifies the game (identifies the game computation/logic)",
          "_gameValidators": "addresses of the validator nodes that will run a Descartes verification should it be needed"
        },
        "returns": {
          "_0": "array of QueuedPlayer structs representing the currently enqueued players for the specified game"
        }
      },
      "joinGame(bytes32,bytes,address[],uint8,uint256,uint256,bytes)": {
        "params": {
          "_gameMetadata": "game-specific initial metadata/parameters",
          "_gameMinFunds": "minimum funds required to be staked in order to join the game",
          "_gameNumPlayers": "number of players in the game",
          "_gameTemplateHash": "template hash for the Cartesi Machine computation that verifies the game (identifies the game computation/logic)",
          "_gameValidators": "addresses of the validator nodes that will run a Descartes verification should it be needed",
          "_playerFunds": "amount being staked by the player joining the game",
          "_playerInfo": "game-specific information for the player joining the game"
        }
      }
    },
    "title": "TurnBasedGameLobby",
    "version": 1
  },
  "userdoc": {
    "kind": "user",
    "methods": {
      "constructor": {
        "notice": "Constructor"
      },
      "getQueue(bytes32,bytes,address[],uint8,uint256)": {
        "notice": "Retrieves the current queue for a given game (specified by its template hash, metadata and number of players)"
      },
      "joinGame(bytes32,bytes,address[],uint8,uint256,uint256,bytes)": {
        "notice": "Allows a player to join a game. People are queued up as they join and the game starts when enough people are available."
      }
    },
    "notice": "Entry point for players to join games handled by the TurnBasedGame contract",
    "version": 1
  },
  "storageLayout": {
    "storage": [
      {
        "astId": 2613,
        "contract": "contracts/TurnBasedGameLobby.sol:TurnBasedGameLobby",
        "label": "turnBasedGame",
        "offset": 0,
        "slot": "0",
        "type": "t_contract(TurnBasedGame)1530"
      },
      {
        "astId": 2625,
        "contract": "contracts/TurnBasedGameLobby.sol:TurnBasedGameLobby",
        "label": "queues",
        "offset": 0,
        "slot": "1",
        "type": "t_mapping(t_bytes32,t_array(t_struct(QueuedPlayer)2620_storage)dyn_storage)"
      }
    ],
    "types": {
      "t_address": {
        "encoding": "inplace",
        "label": "address",
        "numberOfBytes": "20"
      },
      "t_array(t_struct(QueuedPlayer)2620_storage)dyn_storage": {
        "base": "t_struct(QueuedPlayer)2620_storage",
        "encoding": "dynamic_array",
        "label": "struct TurnBasedGameLobby.QueuedPlayer[]",
        "numberOfBytes": "32"
      },
      "t_bytes32": {
        "encoding": "inplace",
        "label": "bytes32",
        "numberOfBytes": "32"
      },
      "t_bytes_storage": {
        "encoding": "bytes",
        "label": "bytes",
        "numberOfBytes": "32"
      },
      "t_contract(TurnBasedGame)1530": {
        "encoding": "inplace",
        "label": "contract TurnBasedGame",
        "numberOfBytes": "20"
      },
      "t_mapping(t_bytes32,t_array(t_struct(QueuedPlayer)2620_storage)dyn_storage)": {
        "encoding": "mapping",
        "key": "t_bytes32",
        "label": "mapping(bytes32 => struct TurnBasedGameLobby.QueuedPlayer[])",
        "numberOfBytes": "32",
        "value": "t_array(t_struct(QueuedPlayer)2620_storage)dyn_storage"
      },
      "t_struct(QueuedPlayer)2620_storage": {
        "encoding": "inplace",
        "label": "struct TurnBasedGameLobby.QueuedPlayer",
        "members": [
          {
            "astId": 2615,
            "contract": "contracts/TurnBasedGameLobby.sol:TurnBasedGameLobby",
            "label": "addr",
            "offset": 0,
            "slot": "0",
            "type": "t_address"
          },
          {
            "astId": 2617,
            "contract": "contracts/TurnBasedGameLobby.sol:TurnBasedGameLobby",
            "label": "funds",
            "offset": 0,
            "slot": "1",
            "type": "t_uint256"
          },
          {
            "astId": 2619,
            "contract": "contracts/TurnBasedGameLobby.sol:TurnBasedGameLobby",
            "label": "info",
            "offset": 0,
            "slot": "2",
            "type": "t_bytes_storage"
          }
        ],
        "numberOfBytes": "96"
      },
      "t_uint256": {
        "encoding": "inplace",
        "label": "uint256",
        "numberOfBytes": "32"
      }
    }
  }
}