{
  "address": "0x8A7FeA6951591935Debc21DcEDB80CCB02733067",
  "abi": [
    {
      "inputs": [
        {
          "internalType": "address",
          "name": "descartesAddress",
          "type": "address"
        },
        {
          "internalType": "address",
          "name": "loggerAddress",
          "type": "address"
        }
      ],
      "stateMutability": "nonpayable",
      "type": "constructor"
    },
    {
      "inputs": [
        {
          "internalType": "uint256",
          "name": "_index",
          "type": "uint256"
        }
      ],
      "name": "applyVerificationResult",
      "outputs": [],
      "stateMutability": "nonpayable",
      "type": "function"
    },
    {
      "inputs": [
        {
          "internalType": "uint256",
          "name": "_index",
          "type": "uint256"
        }
      ],
      "name": "challengeGame",
      "outputs": [
        {
          "internalType": "uint256",
          "name": "",
          "type": "uint256"
        }
      ],
      "stateMutability": "nonpayable",
      "type": "function"
    },
    {
      "inputs": [
        {
          "internalType": "uint256",
          "name": "_index",
          "type": "uint256"
        },
        {
          "internalType": "uint256[]",
          "name": "_fundsShare",
          "type": "uint256[]"
        }
      ],
      "name": "claimResult",
      "outputs": [],
      "stateMutability": "nonpayable",
      "type": "function"
    },
    {
      "inputs": [
        {
          "internalType": "uint256",
          "name": "_index",
          "type": "uint256"
        }
      ],
      "name": "confirmResult",
      "outputs": [],
      "stateMutability": "nonpayable",
      "type": "function"
    },
    {
      "inputs": [],
      "name": "currentIndex",
      "outputs": [
        {
          "internalType": "uint256",
          "name": "",
          "type": "uint256"
        }
      ],
      "stateMutability": "view",
      "type": "function"
    },
    {
      "inputs": [
        {
          "internalType": "uint256",
          "name": "_index",
          "type": "uint256"
        }
      ],
      "name": "getContext",
      "outputs": [
        {
          "components": [
            {
              "internalType": "bytes32",
              "name": "gameTemplateHash",
              "type": "bytes32"
            },
            {
              "internalType": "bytes",
              "name": "gameMetadata",
              "type": "bytes"
            },
            {
              "internalType": "address[]",
              "name": "validators",
              "type": "address[]"
            },
            {
              "internalType": "address[]",
              "name": "players",
              "type": "address[]"
            },
            {
              "internalType": "uint256[]",
              "name": "playerFunds",
              "type": "uint256[]"
            },
            {
              "internalType": "bytes[]",
              "name": "playerInfos",
              "type": "bytes[]"
            },
            {
              "components": [
                {
                  "internalType": "address",
                  "name": "player",
                  "type": "address"
                },
                {
                  "internalType": "uint256",
                  "name": "timestamp",
                  "type": "uint256"
                },
                {
                  "internalType": "uint256[]",
                  "name": "dataLogIndices",
                  "type": "uint256[]"
                }
              ],
              "internalType": "struct Turn[]",
              "name": "turns",
              "type": "tuple[]"
            },
            {
              "internalType": "bool",
              "name": "isDescartesInstantiated",
              "type": "bool"
            },
            {
              "internalType": "uint256",
              "name": "descartesIndex",
              "type": "uint256"
            },
            {
              "internalType": "address",
              "name": "claimer",
              "type": "address"
            },
            {
              "internalType": "uint256[]",
              "name": "claimedFundsShare",
              "type": "uint256[]"
            },
            {
              "internalType": "uint256",
              "name": "claimAgreementMask",
              "type": "uint256"
            }
          ],
          "internalType": "struct GameContext",
          "name": "",
          "type": "tuple"
        }
      ],
      "stateMutability": "view",
      "type": "function"
    },
    {
      "inputs": [
        {
          "internalType": "uint256",
          "name": "_index",
          "type": "uint256"
        }
      ],
      "name": "getNonce",
      "outputs": [
        {
          "internalType": "uint256",
          "name": "currentNonce",
          "type": "uint256"
        }
      ],
      "stateMutability": "view",
      "type": "function"
    },
    {
      "inputs": [
        {
          "internalType": "uint256",
          "name": "_index",
          "type": "uint256"
        },
        {
          "internalType": "address",
          "name": "",
          "type": "address"
        }
      ],
      "name": "getState",
      "outputs": [
        {
          "internalType": "bool",
          "name": "_isDescartesInstantiated",
          "type": "bool"
        }
      ],
      "stateMutability": "view",
      "type": "function"
    },
    {
      "inputs": [
        {
          "internalType": "uint256",
          "name": "_index",
          "type": "uint256"
        },
        {
          "internalType": "address",
          "name": "",
          "type": "address"
        }
      ],
      "name": "getSubInstances",
      "outputs": [
        {
          "internalType": "address[]",
          "name": "_addresses",
          "type": "address[]"
        },
        {
          "internalType": "uint256[]",
          "name": "_indices",
          "type": "uint256[]"
        }
      ],
      "stateMutability": "view",
      "type": "function"
    },
    {
      "inputs": [
        {
          "internalType": "uint256",
          "name": "_index",
          "type": "uint256"
        }
      ],
      "name": "isActive",
      "outputs": [
        {
          "internalType": "bool",
          "name": "",
          "type": "bool"
        }
      ],
      "stateMutability": "view",
      "type": "function"
    },
    {
      "inputs": [
        {
          "internalType": "uint256",
          "name": "_index",
          "type": "uint256"
        },
        {
          "internalType": "address",
          "name": "_player",
          "type": "address"
        }
      ],
      "name": "isConcerned",
      "outputs": [
        {
          "internalType": "bool",
          "name": "",
          "type": "bool"
        }
      ],
      "stateMutability": "view",
      "type": "function"
    },
    {
      "inputs": [
        {
          "internalType": "bytes32",
          "name": "_gameTemplateHash",
          "type": "bytes32"
        },
        {
          "internalType": "bytes",
          "name": "_gameMetadata",
          "type": "bytes"
        },
        {
          "internalType": "address[]",
          "name": "_validators",
          "type": "address[]"
        },
        {
          "internalType": "address[]",
          "name": "_players",
          "type": "address[]"
        },
        {
          "internalType": "uint256[]",
          "name": "_playerFunds",
          "type": "uint256[]"
        },
        {
          "internalType": "bytes[]",
          "name": "_playerInfos",
          "type": "bytes[]"
        }
      ],
      "name": "startGame",
      "outputs": [
        {
          "internalType": "uint256",
          "name": "",
          "type": "uint256"
        }
      ],
      "stateMutability": "nonpayable",
      "type": "function"
    },
    {
      "inputs": [
        {
          "internalType": "uint256",
          "name": "_index",
          "type": "uint256"
        },
        {
          "internalType": "uint256",
          "name": "_turnIndex",
          "type": "uint256"
        },
        {
          "internalType": "bytes",
          "name": "_data",
          "type": "bytes"
        }
      ],
      "name": "submitTurn",
      "outputs": [],
      "stateMutability": "nonpayable",
      "type": "function"
    }
  ],
  "transactionHash": "0x8f767ece98f66f86f62a38b46114da2f90a64fa9646d73e604320e072c921111",
  "args": [
    "0x470A953Fb69d44d47b8eb5A443524649c097DDf7",
    "0xBf108162392b4cc6bb35b6E197b0F686A6078172"
  ],
  "solcInputHash": "fb9352d7420fec23812161acb4cf722a",
  "bytecode": "0x6080604052600080553480156200001557600080fd5b50604051620037dc380380620037dc83398181016040528101906200003b9190620002cb565b81600360006101000a81548173ffffffffffffffffffffffffffffffffffffffff021916908373ffffffffffffffffffffffffffffffffffffffff16021790555080600460006101000a81548173ffffffffffffffffffffffffffffffffffffffff021916908373ffffffffffffffffffffffffffffffffffffffff1602179055506060600167ffffffffffffffff81118015620000d857600080fd5b50604051908082528060200260200182016040528015620001085781602001602082028036833780820191505090505b5090506000600460009054906101000a900473ffffffffffffffffffffffffffffffffffffffff1673ffffffffffffffffffffffffffffffffffffffff16634891ea36600a846040518363ffffffff1660e01b81526004016200016d92919062000438565b602060405180830381600087803b1580156200018857600080fd5b505af11580156200019d573d6000803e3d6000fd5b505050506040513d601f19601f82011682018060405250810190620001c391906200030c565b9050600460009054906101000a900473ffffffffffffffffffffffffffffffffffffffff1673ffffffffffffffffffffffffffffffffffffffff1663833459bc826040518263ffffffff1660e01b81526004016200022291906200041b565b60206040518083038186803b1580156200023b57600080fd5b505afa15801562000250573d6000803e3d6000fd5b505050506040513d601f19601f8201168201806040525081019062000276919062000338565b6005819055505050505062000588565b60008151905062000297816200053a565b92915050565b600081519050620002ae8162000554565b92915050565b600081519050620002c5816200056e565b92915050565b60008060408385031215620002df57600080fd5b6000620002ef8582860162000286565b9250506020620003028582860162000286565b9150509250929050565b6000602082840312156200031f57600080fd5b60006200032f848285016200029d565b91505092915050565b6000602082840312156200034b57600080fd5b60006200035b84828501620002b4565b91505092915050565b6000620003728383620003f9565b60208301905092915050565b60006200038b826200047c565b62000397818562000494565b9350620003a4836200046c565b8060005b83811015620003db578151620003bf888262000364565b9750620003cc8362000487565b925050600181019050620003a8565b5085935050505092915050565b620003f381620004b9565b82525050565b6200040481620004c3565b82525050565b620004158162000526565b82525050565b6000602082019050620004326000830184620003e8565b92915050565b60006040820190506200044f60008301856200040a565b81810360208301526200046381846200037e565b90509392505050565b6000819050602082019050919050565b600081519050919050565b6000602082019050919050565b600082825260208201905092915050565b6000620004b282620004ef565b9050919050565b6000819050919050565b60007fffffffffffffffff00000000000000000000000000000000000000000000000082169050919050565b600073ffffffffffffffffffffffffffffffffffffffff82169050919050565b6000819050919050565b600060ff82169050919050565b6000620005338262000519565b9050919050565b6200054581620004a5565b81146200055157600080fd5b50565b6200055f81620004b9565b81146200056b57600080fd5b50565b62000579816200050f565b81146200058557600080fd5b50565b61324480620005986000396000f3fe608060405234801561001057600080fd5b50600436106100cf5760003560e01c806373df16121161008c578063b88f405211610066578063b88f40521461024a578063c526656c14610266578063e68defac14610297578063eb05cf51146102c7576100cf565b806373df1612146101ce57806382afd23b146101fe5780638a8b74641461022e576100cf565b806301ff62ab146100d457806317f491ac1461010457806326987b60146101345780632ab23088146101525780633d46b819146101825780634830b0e8146101b2575b600080fd5b6100ee60048036038101906100e99190611f51565b6102e3565b6040516100fb9190612ad5565b60405180910390f35b61011e60048036038101906101199190611eff565b610391565b60405161012b9190612ccd565b60405180910390f35b61013c610580565b6040516101499190612ccd565b60405180910390f35b61016c60048036038101906101679190611dfe565b610586565b6040516101799190612ccd565b60405180910390f35b61019c60048036038101906101979190611eff565b6106a8565b6040516101a99190612ccd565b60405180910390f35b6101cc60048036038101906101c79190611eff565b6107b9565b005b6101e860048036038101906101e39190611f51565b610960565b6040516101f59190612ad5565b60405180910390f35b61021860048036038101906102139190611eff565b610a0d565b6040516102259190612ad5565b60405180910390f35b61024860048036038101906102439190611fe1565b610a37565b005b610264600480360381019061025f9190611f8d565b610be1565b005b610280600480360381019061027b9190611f51565b610d5e565b60405161028e929190612a9e565b60405180910390f35b6102b160048036038101906102ac9190611eff565b610fd3565b6040516102be9190612af0565b60405180910390f35b6102e160048036038101906102dc9190611eff565b611577565b005b600082806000541161035d576040517f08c379a00000000000000000000000000000000000000000000000000000000081526004018080602001828103825260168152602001807f496e646578206e6f7420696e7374616e7469617465640000000000000000000081525060200191505060405180910390fd5b6000600660008681526020019081526020016000209050610387848261179b90919063ffffffff16565b9250505092915050565b600081806000541161040b576040517f08c379a00000000000000000000000000000000000000000000000000000000081526004018080602001828103825260168152602001807f496e646578206e6f7420696e7374616e7469617465640000000000000000000081525060200191505060405180910390fd5b61041481610a0d565b610486576040517f08c379a000000000000000000000000000000000000000000000000000000000815260040180806020018281038252600e8152602001807f496e64657820696e61637469766500000000000000000000000000000000000081525060200191505060405180910390fd5b6000600660008581526020019081526020016000209050807398e34A7e69fa7E6b1EfA325b9a4Bb572D77C2D916315093ea2909186600360009054906101000a900473ffffffffffffffffffffffffffffffffffffffff16600460009054906101000a900473ffffffffffffffffffffffffffffffffffffffff16600a6005546040518763ffffffff1660e01b815260040161052796959493929190612c02565b60206040518083038186803b15801561053f57600080fd5b505af4158015610553573d6000803e3d6000fd5b505050506040513d601f19601f820116820180604052508101906105779190611f28565b92505050919050565b60005481565b60008060066000805481526020019081526020016000209050878160000181905550868160010190805190602001906105c092919061188a565b50858160020190805190602001906105d9929190611918565b50848160030190805190602001906105f2929190611918565b508381600401908051906020019061060b9291906119a2565b50828160050190805190602001906106249291906119ef565b506000547f68a2022fd82fb97a822f65e5cd6e5ae2b84e4add32eba66a72689d8f9ac1693d826040516106579190612b12565b60405180910390a260018060008054815260200190815260200160002060006101000a81548160ff021916908315150217905550600080815480929190600101919050559150509695505050505050565b6000818060005411610722576040517f08c379a00000000000000000000000000000000000000000000000000000000081526004018080602001828103825260168152602001807f496e646578206e6f7420696e7374616e7469617465640000000000000000000081525060200191505060405180910390fd5b61072b81610a0d565b61079d576040517f08c379a000000000000000000000000000000000000000000000000000000000815260040180806020018281038252600e8152602001807f496e64657820696e61637469766500000000000000000000000000000000000081525060200191505060405180910390fd5b6002600084815260200190815260200160002054915050919050565b808060005411610831576040517f08c379a00000000000000000000000000000000000000000000000000000000081526004018080602001828103825260168152602001807f496e646578206e6f7420696e7374616e7469617465640000000000000000000081525060200191505060405180910390fd5b61083a81610a0d565b6108ac576040517f08c379a000000000000000000000000000000000000000000000000000000000815260040180806020018281038252600e8152602001807f496e64657820696e61637469766500000000000000000000000000000000000081525060200191505060405180910390fd5b6000600660008481526020019081526020016000209050807398e34A7e69fa7E6b1EfA325b9a4Bb572D77C2D9163b5701feb909185600360009054906101000a900473ffffffffffffffffffffffffffffffffffffffff166040518463ffffffff1660e01b815260040161092293929190612bcb565b60006040518083038186803b15801561093a57600080fd5b505af415801561094e573d6000803e3d6000fd5b5050505061095b83611842565b505050565b60008280600054116109da576040517f08c379a00000000000000000000000000000000000000000000000000000000081526004018080602001828103825260168152602001807f496e646578206e6f7420696e7374616e7469617465640000000000000000000081525060200191505060405180910390fd5b60006006600086815260200190815260200160002090508060070160009054906101000a900460ff169250505092915050565b60006001600083815260200190815260200160002060009054906101000a900460ff169050919050565b838060005411610aaf576040517f08c379a00000000000000000000000000000000000000000000000000000000081526004018080602001828103825260168152602001807f496e646578206e6f7420696e7374616e7469617465640000000000000000000081525060200191505060405180910390fd5b610ab881610a0d565b610b2a576040517f08c379a000000000000000000000000000000000000000000000000000000000815260040180806020018281038252600e8152602001807f496e64657820696e61637469766500000000000000000000000000000000000081525060200191505060405180910390fd5b6000600660008781526020019081526020016000209050807398e34A7e69fa7E6b1EfA325b9a4Bb572D77C2D916396483c2c909188888888600460009054906101000a900473ffffffffffffffffffffffffffffffffffffffff16600a6040518863ffffffff1660e01b8152600401610ba99796959493929190612c63565b60006040518083038186803b158015610bc157600080fd5b505af4158015610bd5573d6000803e3d6000fd5b50505050505050505050565b818060005411610c59576040517f08c379a00000000000000000000000000000000000000000000000000000000081526004018080602001828103825260168152602001807f496e646578206e6f7420696e7374616e7469617465640000000000000000000081525060200191505060405180910390fd5b610c6281610a0d565b610cd4576040517f08c379a000000000000000000000000000000000000000000000000000000000815260040180806020018281038252600e8152602001807f496e64657820696e61637469766500000000000000000000000000000000000081525060200191505060405180910390fd5b6000600660008581526020019081526020016000209050807398e34A7e69fa7E6b1EfA325b9a4Bb572D77C2D91630cdd31bc909186866040518463ffffffff1660e01b8152600401610d2893929190612b4f565b60006040518083038186803b158015610d4057600080fd5b505af4158015610d54573d6000803e3d6000fd5b5050505050505050565b606080838060005411610dd9576040517f08c379a00000000000000000000000000000000000000000000000000000000081526004018080602001828103825260168152602001807f496e646578206e6f7420696e7374616e7469617465640000000000000000000081525060200191505060405180910390fd5b60006006600087815260200190815260200160002090508060070160009054906101000a900460ff1615610f35576060600167ffffffffffffffff81118015610e2157600080fd5b50604051908082528060200260200182016040528015610e505781602001602082028036833780820191505090505b5090506060600167ffffffffffffffff81118015610e6d57600080fd5b50604051908082528060200260200182016040528015610e9c5781602001602082028036833780820191505090505b509050600360009054906101000a900473ffffffffffffffffffffffffffffffffffffffff1682600081518110610ecf57fe5b602002602001019073ffffffffffffffffffffffffffffffffffffffff16908173ffffffffffffffffffffffffffffffffffffffff1681525050826008015481600081518110610f1b57fe5b602002602001018181525050818195509550505050610fcb565b600067ffffffffffffffff81118015610f4d57600080fd5b50604051908082528060200260200182016040528015610f7c5781602001602082028036833780820191505090505b50600067ffffffffffffffff81118015610f9557600080fd5b50604051908082528060200260200182016040528015610fc45781602001602082028036833780820191505090505b5093509350505b509250929050565b610fdb611a4f565b818060005411611053576040517f08c379a00000000000000000000000000000000000000000000000000000000081526004018080602001828103825260168152602001807f496e646578206e6f7420696e7374616e7469617465640000000000000000000081525060200191505060405180910390fd5b600660008481526020019081526020016000206040518061018001604052908160008201548152602001600182018054600181600116156101000203166002900480601f0160208091040260200160405190810160405280929190818152602001828054600181600116156101000203166002900480156111155780601f106110ea57610100808354040283529160200191611115565b820191906000526020600020905b8154815290600101906020018083116110f857829003601f168201915b50505050508152602001600282018054806020026020016040519081016040528092919081815260200182805480156111a357602002820191906000526020600020905b8160009054906101000a900473ffffffffffffffffffffffffffffffffffffffff1673ffffffffffffffffffffffffffffffffffffffff1681526020019060010190808311611159575b505050505081526020016003820180548060200260200160405190810160405280929190818152602001828054801561123157602002820191906000526020600020905b8160009054906101000a900473ffffffffffffffffffffffffffffffffffffffff1673ffffffffffffffffffffffffffffffffffffffff16815260200190600101908083116111e7575b505050505081526020016004820180548060200260200160405190810160405280929190818152602001828054801561128957602002820191906000526020600020905b815481526020019060010190808311611275575b5050505050815260200160058201805480602002602001604051908101604052809291908181526020016000905b82821015611373578382906000526020600020018054600181600116156101000203166002900480601f01602080910402602001604051908101604052809291908181526020018280546001816001161561010002031660029004801561135f5780601f106113345761010080835404028352916020019161135f565b820191906000526020600020905b81548152906001019060200180831161134257829003601f168201915b5050505050815260200190600101906112b7565b50505050815260200160068201805480602002602001604051908101604052809291908181526020016000905b8282101561148a57838290600052602060002090600302016040518060600160405290816000820160009054906101000a900473ffffffffffffffffffffffffffffffffffffffff1673ffffffffffffffffffffffffffffffffffffffff1673ffffffffffffffffffffffffffffffffffffffff168152602001600182015481526020016002820180548060200260200160405190810160405280929190818152602001828054801561147257602002820191906000526020600020905b81548152602001906001019080831161145e575b505050505081525050815260200190600101906113a0565b5050505081526020016007820160009054906101000a900460ff16151515158152602001600882015481526020016009820160009054906101000a900473ffffffffffffffffffffffffffffffffffffffff1673ffffffffffffffffffffffffffffffffffffffff1673ffffffffffffffffffffffffffffffffffffffff168152602001600a820180548060200260200160405190810160405280929190818152602001828054801561155c57602002820191906000526020600020905b815481526020019060010190808311611548575b50505050508152602001600b82015481525050915050919050565b8080600054116115ef576040517f08c379a00000000000000000000000000000000000000000000000000000000081526004018080602001828103825260168152602001807f496e646578206e6f7420696e7374616e7469617465640000000000000000000081525060200191505060405180910390fd5b6115f881610a0d565b61166a576040517f08c379a000000000000000000000000000000000000000000000000000000000815260040180806020018281038252600e8152602001807f496e64657820696e61637469766500000000000000000000000000000000000081525060200191505060405180910390fd5b60006006600084815260200190815260200160002090506000817398e34A7e69fa7E6b1EfA325b9a4Bb572D77C2D9163906cc66c90916040518263ffffffff1660e01b81526004016116bc9190612b34565b60206040518083038186803b1580156116d457600080fd5b505af41580156116e8573d6000803e3d6000fd5b505050506040513d601f19601f8201168201806040525081019061170c9190611dd5565b905060011515811515141561179557817398e34A7e69fa7E6b1EfA325b9a4Bb572D77C2D9163aba4442390918685600a016040518463ffffffff1660e01b815260040161175b93929190612b8d565b60006040518083038186803b15801561177357600080fd5b505af4158015611787573d6000803e3d6000fd5b5050505061179484611842565b5b50505050565b600080600090505b8360030180549050811015611836578360030181815481106117c157fe5b9060005260206000200160009054906101000a900473ffffffffffffffffffffffffffffffffffffffff1673ffffffffffffffffffffffffffffffffffffffff168373ffffffffffffffffffffffffffffffffffffffff16141561182957600191505061183c565b80806001019150506117a3565b50600090505b92915050565b60006001600083815260200190815260200160002060006101000a81548160ff0219169083151502179055506000600260008381526020019081526020016000208190555050565b828054600181600116156101000203166002900490600052602060002090601f0160209004810192826118c05760008555611907565b82601f106118d957805160ff1916838001178555611907565b82800160010185558215611907579182015b828111156119065782518255916020019190600101906118eb565b5b5090506119149190611acb565b5090565b828054828255906000526020600020908101928215611991579160200282015b828111156119905782518260006101000a81548173ffffffffffffffffffffffffffffffffffffffff021916908373ffffffffffffffffffffffffffffffffffffffff16021790555091602001919060010190611938565b5b50905061199e9190611acb565b5090565b8280548282559060005260206000209081019282156119de579160200282015b828111156119dd5782518255916020019190600101906119c2565b5b5090506119eb9190611acb565b5090565b828054828255906000526020600020908101928215611a3e579160200282015b82811115611a3d578251829080519060200190611a2d92919061188a565b5091602001919060010190611a0f565b5b509050611a4b9190611ae8565b5090565b6040518061018001604052806000801916815260200160608152602001606081526020016060815260200160608152602001606081526020016060815260200160001515815260200160008152602001600073ffffffffffffffffffffffffffffffffffffffff16815260200160608152602001600081525090565b5b80821115611ae4576000816000905550600101611acc565b5090565b5b80821115611b085760008181611aff9190611b0c565b50600101611ae9565b5090565b50805460018160011615610100020316600290046000825580601f10611b325750611b51565b601f016020900490600052602060002090810190611b509190611acb565b5b50565b600081359050611b63816131b2565b92915050565b600082601f830112611b7a57600080fd5b8135611b8d611b8882612d19565b612ce8565b91508181835260208401935060208101905083856020840282011115611bb257600080fd5b60005b83811015611be25781611bc88882611b54565b845260208401935060208301925050600181019050611bb5565b5050505092915050565b600082601f830112611bfd57600080fd5b8135611c10611c0b82612d45565b612ce8565b9150818183526020840193506020810190508360005b83811015611c565781358601611c3c8882611d57565b845260208401935060208301925050600181019050611c26565b5050505092915050565b600082601f830112611c7157600080fd5b8135611c84611c7f82612d71565b612ce8565b91508181835260208401935060208101905083856020840282011115611ca957600080fd5b60005b83811015611cd95781611cbf8882611dab565b845260208401935060208301925050600181019050611cac565b5050505092915050565b600081519050611cf2816131c9565b92915050565b600081359050611d07816131e0565b92915050565b60008083601f840112611d1f57600080fd5b8235905067ffffffffffffffff811115611d3857600080fd5b602083019150836001820283011115611d5057600080fd5b9250929050565b600082601f830112611d6857600080fd5b8135611d7b611d7682612d9d565b612ce8565b91508082526020830160208301858383011115611d9757600080fd5b611da28382846130c2565b50505092915050565b600081359050611dba816131f7565b92915050565b600081519050611dcf816131f7565b92915050565b600060208284031215611de757600080fd5b6000611df584828501611ce3565b91505092915050565b60008060008060008060c08789031215611e1757600080fd5b6000611e2589828a01611cf8565b965050602087013567ffffffffffffffff811115611e4257600080fd5b611e4e89828a01611d57565b955050604087013567ffffffffffffffff811115611e6b57600080fd5b611e7789828a01611b69565b945050606087013567ffffffffffffffff811115611e9457600080fd5b611ea089828a01611b69565b935050608087013567ffffffffffffffff811115611ebd57600080fd5b611ec989828a01611c60565b92505060a087013567ffffffffffffffff811115611ee657600080fd5b611ef289828a01611bec565b9150509295509295509295565b600060208284031215611f1157600080fd5b6000611f1f84828501611dab565b91505092915050565b600060208284031215611f3a57600080fd5b6000611f4884828501611dc0565b91505092915050565b60008060408385031215611f6457600080fd5b6000611f7285828601611dab565b9250506020611f8385828601611b54565b9150509250929050565b60008060408385031215611fa057600080fd5b6000611fae85828601611dab565b925050602083013567ffffffffffffffff811115611fcb57600080fd5b611fd785828601611c60565b9150509250929050565b60008060008060608587031215611ff757600080fd5b600061200587828801611dab565b945050602061201687828801611dab565b935050604085013567ffffffffffffffff81111561203357600080fd5b61203f87828801611d0d565b925092505092959194509250565b600061205983836120e5565b60208301905092915050565b60006120718383612625565b905092915050565b6000612085838361265e565b905092915050565b6000612099838361299c565b905092915050565b60006120ad83836129ec565b905092915050565b60006120c18383612a53565b60208301905092915050565b60006120d98383612a80565b60208301905092915050565b6120ee8161301b565b82525050565b60006120ff82612e76565b6121098185612f41565b935061211483612dcd565b8060005b8381101561214557815161212c888261204d565b975061213783612ed9565b925050600181019050612118565b5085935050505092915050565b600061215d82612e76565b6121678185612f52565b935061217283612dcd565b8060005b838110156121a357815161218a888261204d565b975061219583612ed9565b925050600181019050612176565b5085935050505092915050565b60006121bb82612e81565b6121c58185612f41565b93506121d083612ddd565b8060005b83811015612208576121e58261316e565b6121ef888261204d565b97506121fa83612ee6565b9250506001810190506121d4565b5085935050505092915050565b600061222082612e8c565b61222a8185612f63565b93508360208202850161223c85612df2565b8060005b8581101561227857848403895281516122598582612065565b945061226483612ef3565b925060208a01995050600181019050612240565b50829750879550505050505092915050565b600061229582612e97565b61229f8185612f63565b9350836020820285016122b185612e02565b8060005b858110156122ec578484038952816122cd8582612079565b94506122d883612f00565b925060208a019950506001810190506122b5565b50829750879550505050505092915050565b600061230982612ea2565b6123138185612f74565b93508360208202850161232585612e17565b8060005b858110156123615784840389528151612342858261208d565b945061234d83612f0d565b925060208a01995050600181019050612329565b50829750879550505050505092915050565b600061237e82612ead565b6123888185612f74565b93508360208202850161239a85612e27565b8060005b858110156123d5578484038952816123b685826120a1565b94506123c183612f1a565b925060208a0199505060018101905061239e565b50829750879550505050505092915050565b60006123f282612eb8565b6123fc8185612f85565b935061240783612e3c565b8060005b8381101561243857815161241f88826120b5565b975061242a83612f27565b92505060018101905061240b565b5085935050505092915050565b600061245082612eb8565b61245a8185612f96565b935061246583612e3c565b8060005b8381101561249657815161247d88826120b5565b975061248883612f27565b925050600181019050612469565b5085935050505092915050565b60006124ae82612eb8565b6124b88185612fa7565b93506124c383612e3c565b8060005b838110156124f45781516124db88826120cd565b97506124e683612f27565b9250506001810190506124c7565b5085935050505092915050565b600061250c82612ec3565b6125168185612f85565b935061252183612e4c565b8060005b838110156125595761253682613181565b61254088826120b5565b975061254b83612f34565b925050600181019050612525565b5085935050505092915050565b600061257182612ec3565b61257b8185612fa7565b935061258683612e4c565b8060005b838110156125be5761259b82613181565b6125a588826120cd565b97506125b083612f34565b92505060018101905061258a565b5085935050505092915050565b6125d48161302d565b82525050565b6125e38161302d565b82525050565b6125f281613039565b82525050565b60006126048385612fc9565b93506126118385846130c2565b61261a83613194565b840190509392505050565b600061263082612ece565b61263a8185612fb8565b935061264a8185602086016130d1565b61265381613194565b840191505092915050565b60008154600181166000811461267b57600181146126a1576126e5565b607f600283041661268c8187612fb8565b955060ff1983168652602086019350506126e5565b600282046126af8187612fb8565b95506126ba85612e61565b60005b828110156126dc578154818901526001820191506020810190506126bd565b80880195505050505b505092915050565b6126f68161307a565b82525050565b6127058161309e565b82525050565b60006101808301600083015161272460008601826125e9565b506020830151848203602086015261273c8282612625565b9150506040830151848203604086015261275682826120f4565b9150506060830151848203606086015261277082826120f4565b9150506080830151848203608086015261278a82826123e7565b91505060a083015184820360a08601526127a48282612215565b91505060c083015184820360c08601526127be82826122fe565b91505060e08301516127d360e08601826125cb565b506101008301516127e8610100860182612a53565b506101208301516127fd6101208601826120e5565b5061014083015184820361014086015261281782826123e7565b91505061016083015161282e610160860182612a53565b508091505092915050565b60006101808301600080840154905061285181613138565b61285e60008701826125e9565b50600184018583036020870152612875838261265e565b92505060028401858303604087015261288e83826121b0565b9250506003840185830360608701526128a783826121b0565b9250506004840185830360808701526128c08382612501565b9250506005840185830360a08701526128d9838261228a565b9250506006840185830360c08701526128f28382612373565b925050600784015490506129058161311e565b61291260e08701826125cb565b506008840154905061292381613152565b612931610100870182612a53565b506009840154905061294281613104565b6129506101208701826120e5565b50600a84018583036101408701526129688382612501565b925050600b840154905061297b81613152565b612989610160870182612a53565b50819250505092915050565b8082525050565b60006060830160008301516129b460008601826120e5565b5060208301516129c76020860182612a53565b50604083015184820360408601526129df82826123e7565b9150508091505092915050565b6000606083016000808401549050612a0381613104565b612a1060008701826120e5565b5060018401549050612a2181613152565b612a2e6020870182612a53565b50600284018583036040870152612a458382612501565b925050819250505092915050565b612a5c81613063565b82525050565b612a6b81613063565b82525050565b612a7a81613063565b82525050565b612a8981613063565b82525050565b612a988161306d565b82525050565b60006040820190508181036000830152612ab88185612152565b90508181036020830152612acc8184612445565b90509392505050565b6000602082019050612aea60008301846125da565b92915050565b60006020820190508181036000830152612b0a818461270b565b905092915050565b60006020820190508181036000830152612b2c8184612839565b905092915050565b6000602082019050612b496000830184612995565b92915050565b6000606082019050612b646000830186612995565b612b716020830185612a71565b8181036040830152612b8381846124a3565b9050949350505050565b6000606082019050612ba26000830186612995565b612baf6020830185612a71565b8181036040830152612bc18184612566565b9050949350505050565b6000606082019050612be06000830186612995565b612bed6020830185612a71565b612bfa60408301846126ed565b949350505050565b600060c082019050612c176000830189612995565b612c246020830188612a71565b612c3160408301876126ed565b612c3e60608301866126fc565b612c4b6080830185612a8f565b612c5860a0830184612a71565b979650505050505050565b600060c082019050612c78600083018a612995565b612c856020830189612a71565b612c926040830188612a71565b8181036060830152612ca58186886125f8565b9050612cb460808301856126fc565b612cc160a0830184612a8f565b98975050505050505050565b6000602082019050612ce26000830184612a62565b92915050565b6000604051905081810181811067ffffffffffffffff82111715612d0f57612d0e61316c565b5b8060405250919050565b600067ffffffffffffffff821115612d3457612d3361316c565b5b602082029050602081019050919050565b600067ffffffffffffffff821115612d6057612d5f61316c565b5b602082029050602081019050919050565b600067ffffffffffffffff821115612d8c57612d8b61316c565b5b602082029050602081019050919050565b600067ffffffffffffffff821115612db857612db761316c565b5b601f19601f8301169050602081019050919050565b6000819050602082019050919050565b60008190508160005260206000209050919050565b6000819050602082019050919050565b60008190508160005260206000209050919050565b6000819050602082019050919050565b60008190508160005260206000209050919050565b6000819050602082019050919050565b60008190508160005260206000209050919050565b60008190508160005260206000209050919050565b600081519050919050565b600081549050919050565b600081519050919050565b600081549050919050565b600081519050919050565b600081549050919050565b600081519050919050565b600081549050919050565b600081519050919050565b6000602082019050919050565b6000600182019050919050565b6000602082019050919050565b6000600182019050919050565b6000602082019050919050565b6000600382019050919050565b6000602082019050919050565b6000600182019050919050565b600082825260208201905092915050565b600082825260208201905092915050565b600082825260208201905092915050565b600082825260208201905092915050565b600082825260208201905092915050565b600082825260208201905092915050565b600082825260208201905092915050565b600082825260208201905092915050565b600082825260208201905092915050565b600073ffffffffffffffffffffffffffffffffffffffff82169050919050565b600060ff82169050919050565b6000819050919050565b6000819050919050565b600061302682613043565b9050919050565b60008115159050919050565b6000819050919050565b600073ffffffffffffffffffffffffffffffffffffffff82169050919050565b6000819050919050565b600060ff82169050919050565b60006130858261308c565b9050919050565b600061309782613043565b9050919050565b60006130a9826130b0565b9050919050565b60006130bb82613043565b9050919050565b82818337600083830152505050565b60005b838110156130ef5780820151818401526020810190506130d4565b838111156130fe576000848401525b50505050565b6000613117613112836131a5565b612fda565b9050919050565b600061313161312c836131a5565b612ffa565b9050919050565b600061314b613146836131a5565b613007565b9050919050565b6000613165613160836131a5565b613011565b9050919050565bfe5b600061317a8254613104565b9050919050565b600061318d8254613152565b9050919050565b6000601f19601f8301169050919050565b60008160001c9050919050565b6131bb8161301b565b81146131c657600080fd5b50565b6131d28161302d565b81146131dd57600080fd5b50565b6131e981613039565b81146131f457600080fd5b50565b61320081613063565b811461320b57600080fd5b5056fea264697066735822122009de8a112455cedecb3198454f7a71d4704d638437e87226417a2bfa1c5f3b0164736f6c63430007040033",
  "deployedBytecode": "0x608060405234801561001057600080fd5b50600436106100cf5760003560e01c806373df16121161008c578063b88f405211610066578063b88f40521461024a578063c526656c14610266578063e68defac14610297578063eb05cf51146102c7576100cf565b806373df1612146101ce57806382afd23b146101fe5780638a8b74641461022e576100cf565b806301ff62ab146100d457806317f491ac1461010457806326987b60146101345780632ab23088146101525780633d46b819146101825780634830b0e8146101b2575b600080fd5b6100ee60048036038101906100e99190611f51565b6102e3565b6040516100fb9190612ad5565b60405180910390f35b61011e60048036038101906101199190611eff565b610391565b60405161012b9190612ccd565b60405180910390f35b61013c610580565b6040516101499190612ccd565b60405180910390f35b61016c60048036038101906101679190611dfe565b610586565b6040516101799190612ccd565b60405180910390f35b61019c60048036038101906101979190611eff565b6106a8565b6040516101a99190612ccd565b60405180910390f35b6101cc60048036038101906101c79190611eff565b6107b9565b005b6101e860048036038101906101e39190611f51565b610960565b6040516101f59190612ad5565b60405180910390f35b61021860048036038101906102139190611eff565b610a0d565b6040516102259190612ad5565b60405180910390f35b61024860048036038101906102439190611fe1565b610a37565b005b610264600480360381019061025f9190611f8d565b610be1565b005b610280600480360381019061027b9190611f51565b610d5e565b60405161028e929190612a9e565b60405180910390f35b6102b160048036038101906102ac9190611eff565b610fd3565b6040516102be9190612af0565b60405180910390f35b6102e160048036038101906102dc9190611eff565b611577565b005b600082806000541161035d576040517f08c379a00000000000000000000000000000000000000000000000000000000081526004018080602001828103825260168152602001807f496e646578206e6f7420696e7374616e7469617465640000000000000000000081525060200191505060405180910390fd5b6000600660008681526020019081526020016000209050610387848261179b90919063ffffffff16565b9250505092915050565b600081806000541161040b576040517f08c379a00000000000000000000000000000000000000000000000000000000081526004018080602001828103825260168152602001807f496e646578206e6f7420696e7374616e7469617465640000000000000000000081525060200191505060405180910390fd5b61041481610a0d565b610486576040517f08c379a000000000000000000000000000000000000000000000000000000000815260040180806020018281038252600e8152602001807f496e64657820696e61637469766500000000000000000000000000000000000081525060200191505060405180910390fd5b60006006600085815260200190815260200160002090508073__$2a307e3733810a923a91a6f7005edd72dc$__6315093ea2909186600360009054906101000a900473ffffffffffffffffffffffffffffffffffffffff16600460009054906101000a900473ffffffffffffffffffffffffffffffffffffffff16600a6005546040518763ffffffff1660e01b815260040161052796959493929190612c02565b60206040518083038186803b15801561053f57600080fd5b505af4158015610553573d6000803e3d6000fd5b505050506040513d601f19601f820116820180604052508101906105779190611f28565b92505050919050565b60005481565b60008060066000805481526020019081526020016000209050878160000181905550868160010190805190602001906105c092919061188a565b50858160020190805190602001906105d9929190611918565b50848160030190805190602001906105f2929190611918565b508381600401908051906020019061060b9291906119a2565b50828160050190805190602001906106249291906119ef565b506000547f68a2022fd82fb97a822f65e5cd6e5ae2b84e4add32eba66a72689d8f9ac1693d826040516106579190612b12565b60405180910390a260018060008054815260200190815260200160002060006101000a81548160ff021916908315150217905550600080815480929190600101919050559150509695505050505050565b6000818060005411610722576040517f08c379a00000000000000000000000000000000000000000000000000000000081526004018080602001828103825260168152602001807f496e646578206e6f7420696e7374616e7469617465640000000000000000000081525060200191505060405180910390fd5b61072b81610a0d565b61079d576040517f08c379a000000000000000000000000000000000000000000000000000000000815260040180806020018281038252600e8152602001807f496e64657820696e61637469766500000000000000000000000000000000000081525060200191505060405180910390fd5b6002600084815260200190815260200160002054915050919050565b808060005411610831576040517f08c379a00000000000000000000000000000000000000000000000000000000081526004018080602001828103825260168152602001807f496e646578206e6f7420696e7374616e7469617465640000000000000000000081525060200191505060405180910390fd5b61083a81610a0d565b6108ac576040517f08c379a000000000000000000000000000000000000000000000000000000000815260040180806020018281038252600e8152602001807f496e64657820696e61637469766500000000000000000000000000000000000081525060200191505060405180910390fd5b60006006600084815260200190815260200160002090508073__$2a307e3733810a923a91a6f7005edd72dc$__63b5701feb909185600360009054906101000a900473ffffffffffffffffffffffffffffffffffffffff166040518463ffffffff1660e01b815260040161092293929190612bcb565b60006040518083038186803b15801561093a57600080fd5b505af415801561094e573d6000803e3d6000fd5b5050505061095b83611842565b505050565b60008280600054116109da576040517f08c379a00000000000000000000000000000000000000000000000000000000081526004018080602001828103825260168152602001807f496e646578206e6f7420696e7374616e7469617465640000000000000000000081525060200191505060405180910390fd5b60006006600086815260200190815260200160002090508060070160009054906101000a900460ff169250505092915050565b60006001600083815260200190815260200160002060009054906101000a900460ff169050919050565b838060005411610aaf576040517f08c379a00000000000000000000000000000000000000000000000000000000081526004018080602001828103825260168152602001807f496e646578206e6f7420696e7374616e7469617465640000000000000000000081525060200191505060405180910390fd5b610ab881610a0d565b610b2a576040517f08c379a000000000000000000000000000000000000000000000000000000000815260040180806020018281038252600e8152602001807f496e64657820696e61637469766500000000000000000000000000000000000081525060200191505060405180910390fd5b60006006600087815260200190815260200160002090508073__$2a307e3733810a923a91a6f7005edd72dc$__6396483c2c909188888888600460009054906101000a900473ffffffffffffffffffffffffffffffffffffffff16600a6040518863ffffffff1660e01b8152600401610ba99796959493929190612c63565b60006040518083038186803b158015610bc157600080fd5b505af4158015610bd5573d6000803e3d6000fd5b50505050505050505050565b818060005411610c59576040517f08c379a00000000000000000000000000000000000000000000000000000000081526004018080602001828103825260168152602001807f496e646578206e6f7420696e7374616e7469617465640000000000000000000081525060200191505060405180910390fd5b610c6281610a0d565b610cd4576040517f08c379a000000000000000000000000000000000000000000000000000000000815260040180806020018281038252600e8152602001807f496e64657820696e61637469766500000000000000000000000000000000000081525060200191505060405180910390fd5b60006006600085815260200190815260200160002090508073__$2a307e3733810a923a91a6f7005edd72dc$__630cdd31bc909186866040518463ffffffff1660e01b8152600401610d2893929190612b4f565b60006040518083038186803b158015610d4057600080fd5b505af4158015610d54573d6000803e3d6000fd5b5050505050505050565b606080838060005411610dd9576040517f08c379a00000000000000000000000000000000000000000000000000000000081526004018080602001828103825260168152602001807f496e646578206e6f7420696e7374616e7469617465640000000000000000000081525060200191505060405180910390fd5b60006006600087815260200190815260200160002090508060070160009054906101000a900460ff1615610f35576060600167ffffffffffffffff81118015610e2157600080fd5b50604051908082528060200260200182016040528015610e505781602001602082028036833780820191505090505b5090506060600167ffffffffffffffff81118015610e6d57600080fd5b50604051908082528060200260200182016040528015610e9c5781602001602082028036833780820191505090505b509050600360009054906101000a900473ffffffffffffffffffffffffffffffffffffffff1682600081518110610ecf57fe5b602002602001019073ffffffffffffffffffffffffffffffffffffffff16908173ffffffffffffffffffffffffffffffffffffffff1681525050826008015481600081518110610f1b57fe5b602002602001018181525050818195509550505050610fcb565b600067ffffffffffffffff81118015610f4d57600080fd5b50604051908082528060200260200182016040528015610f7c5781602001602082028036833780820191505090505b50600067ffffffffffffffff81118015610f9557600080fd5b50604051908082528060200260200182016040528015610fc45781602001602082028036833780820191505090505b5093509350505b509250929050565b610fdb611a4f565b818060005411611053576040517f08c379a00000000000000000000000000000000000000000000000000000000081526004018080602001828103825260168152602001807f496e646578206e6f7420696e7374616e7469617465640000000000000000000081525060200191505060405180910390fd5b600660008481526020019081526020016000206040518061018001604052908160008201548152602001600182018054600181600116156101000203166002900480601f0160208091040260200160405190810160405280929190818152602001828054600181600116156101000203166002900480156111155780601f106110ea57610100808354040283529160200191611115565b820191906000526020600020905b8154815290600101906020018083116110f857829003601f168201915b50505050508152602001600282018054806020026020016040519081016040528092919081815260200182805480156111a357602002820191906000526020600020905b8160009054906101000a900473ffffffffffffffffffffffffffffffffffffffff1673ffffffffffffffffffffffffffffffffffffffff1681526020019060010190808311611159575b505050505081526020016003820180548060200260200160405190810160405280929190818152602001828054801561123157602002820191906000526020600020905b8160009054906101000a900473ffffffffffffffffffffffffffffffffffffffff1673ffffffffffffffffffffffffffffffffffffffff16815260200190600101908083116111e7575b505050505081526020016004820180548060200260200160405190810160405280929190818152602001828054801561128957602002820191906000526020600020905b815481526020019060010190808311611275575b5050505050815260200160058201805480602002602001604051908101604052809291908181526020016000905b82821015611373578382906000526020600020018054600181600116156101000203166002900480601f01602080910402602001604051908101604052809291908181526020018280546001816001161561010002031660029004801561135f5780601f106113345761010080835404028352916020019161135f565b820191906000526020600020905b81548152906001019060200180831161134257829003601f168201915b5050505050815260200190600101906112b7565b50505050815260200160068201805480602002602001604051908101604052809291908181526020016000905b8282101561148a57838290600052602060002090600302016040518060600160405290816000820160009054906101000a900473ffffffffffffffffffffffffffffffffffffffff1673ffffffffffffffffffffffffffffffffffffffff1673ffffffffffffffffffffffffffffffffffffffff168152602001600182015481526020016002820180548060200260200160405190810160405280929190818152602001828054801561147257602002820191906000526020600020905b81548152602001906001019080831161145e575b505050505081525050815260200190600101906113a0565b5050505081526020016007820160009054906101000a900460ff16151515158152602001600882015481526020016009820160009054906101000a900473ffffffffffffffffffffffffffffffffffffffff1673ffffffffffffffffffffffffffffffffffffffff1673ffffffffffffffffffffffffffffffffffffffff168152602001600a820180548060200260200160405190810160405280929190818152602001828054801561155c57602002820191906000526020600020905b815481526020019060010190808311611548575b50505050508152602001600b82015481525050915050919050565b8080600054116115ef576040517f08c379a00000000000000000000000000000000000000000000000000000000081526004018080602001828103825260168152602001807f496e646578206e6f7420696e7374616e7469617465640000000000000000000081525060200191505060405180910390fd5b6115f881610a0d565b61166a576040517f08c379a000000000000000000000000000000000000000000000000000000000815260040180806020018281038252600e8152602001807f496e64657820696e61637469766500000000000000000000000000000000000081525060200191505060405180910390fd5b600060066000848152602001908152602001600020905060008173__$2a307e3733810a923a91a6f7005edd72dc$__63906cc66c90916040518263ffffffff1660e01b81526004016116bc9190612b34565b60206040518083038186803b1580156116d457600080fd5b505af41580156116e8573d6000803e3d6000fd5b505050506040513d601f19601f8201168201806040525081019061170c9190611dd5565b9050600115158115151415611795578173__$2a307e3733810a923a91a6f7005edd72dc$__63aba4442390918685600a016040518463ffffffff1660e01b815260040161175b93929190612b8d565b60006040518083038186803b15801561177357600080fd5b505af4158015611787573d6000803e3d6000fd5b5050505061179484611842565b5b50505050565b600080600090505b8360030180549050811015611836578360030181815481106117c157fe5b9060005260206000200160009054906101000a900473ffffffffffffffffffffffffffffffffffffffff1673ffffffffffffffffffffffffffffffffffffffff168373ffffffffffffffffffffffffffffffffffffffff16141561182957600191505061183c565b80806001019150506117a3565b50600090505b92915050565b60006001600083815260200190815260200160002060006101000a81548160ff0219169083151502179055506000600260008381526020019081526020016000208190555050565b828054600181600116156101000203166002900490600052602060002090601f0160209004810192826118c05760008555611907565b82601f106118d957805160ff1916838001178555611907565b82800160010185558215611907579182015b828111156119065782518255916020019190600101906118eb565b5b5090506119149190611acb565b5090565b828054828255906000526020600020908101928215611991579160200282015b828111156119905782518260006101000a81548173ffffffffffffffffffffffffffffffffffffffff021916908373ffffffffffffffffffffffffffffffffffffffff16021790555091602001919060010190611938565b5b50905061199e9190611acb565b5090565b8280548282559060005260206000209081019282156119de579160200282015b828111156119dd5782518255916020019190600101906119c2565b5b5090506119eb9190611acb565b5090565b828054828255906000526020600020908101928215611a3e579160200282015b82811115611a3d578251829080519060200190611a2d92919061188a565b5091602001919060010190611a0f565b5b509050611a4b9190611ae8565b5090565b6040518061018001604052806000801916815260200160608152602001606081526020016060815260200160608152602001606081526020016060815260200160001515815260200160008152602001600073ffffffffffffffffffffffffffffffffffffffff16815260200160608152602001600081525090565b5b80821115611ae4576000816000905550600101611acc565b5090565b5b80821115611b085760008181611aff9190611b0c565b50600101611ae9565b5090565b50805460018160011615610100020316600290046000825580601f10611b325750611b51565b601f016020900490600052602060002090810190611b509190611acb565b5b50565b600081359050611b63816131b2565b92915050565b600082601f830112611b7a57600080fd5b8135611b8d611b8882612d19565b612ce8565b91508181835260208401935060208101905083856020840282011115611bb257600080fd5b60005b83811015611be25781611bc88882611b54565b845260208401935060208301925050600181019050611bb5565b5050505092915050565b600082601f830112611bfd57600080fd5b8135611c10611c0b82612d45565b612ce8565b9150818183526020840193506020810190508360005b83811015611c565781358601611c3c8882611d57565b845260208401935060208301925050600181019050611c26565b5050505092915050565b600082601f830112611c7157600080fd5b8135611c84611c7f82612d71565b612ce8565b91508181835260208401935060208101905083856020840282011115611ca957600080fd5b60005b83811015611cd95781611cbf8882611dab565b845260208401935060208301925050600181019050611cac565b5050505092915050565b600081519050611cf2816131c9565b92915050565b600081359050611d07816131e0565b92915050565b60008083601f840112611d1f57600080fd5b8235905067ffffffffffffffff811115611d3857600080fd5b602083019150836001820283011115611d5057600080fd5b9250929050565b600082601f830112611d6857600080fd5b8135611d7b611d7682612d9d565b612ce8565b91508082526020830160208301858383011115611d9757600080fd5b611da28382846130c2565b50505092915050565b600081359050611dba816131f7565b92915050565b600081519050611dcf816131f7565b92915050565b600060208284031215611de757600080fd5b6000611df584828501611ce3565b91505092915050565b60008060008060008060c08789031215611e1757600080fd5b6000611e2589828a01611cf8565b965050602087013567ffffffffffffffff811115611e4257600080fd5b611e4e89828a01611d57565b955050604087013567ffffffffffffffff811115611e6b57600080fd5b611e7789828a01611b69565b945050606087013567ffffffffffffffff811115611e9457600080fd5b611ea089828a01611b69565b935050608087013567ffffffffffffffff811115611ebd57600080fd5b611ec989828a01611c60565b92505060a087013567ffffffffffffffff811115611ee657600080fd5b611ef289828a01611bec565b9150509295509295509295565b600060208284031215611f1157600080fd5b6000611f1f84828501611dab565b91505092915050565b600060208284031215611f3a57600080fd5b6000611f4884828501611dc0565b91505092915050565b60008060408385031215611f6457600080fd5b6000611f7285828601611dab565b9250506020611f8385828601611b54565b9150509250929050565b60008060408385031215611fa057600080fd5b6000611fae85828601611dab565b925050602083013567ffffffffffffffff811115611fcb57600080fd5b611fd785828601611c60565b9150509250929050565b60008060008060608587031215611ff757600080fd5b600061200587828801611dab565b945050602061201687828801611dab565b935050604085013567ffffffffffffffff81111561203357600080fd5b61203f87828801611d0d565b925092505092959194509250565b600061205983836120e5565b60208301905092915050565b60006120718383612625565b905092915050565b6000612085838361265e565b905092915050565b6000612099838361299c565b905092915050565b60006120ad83836129ec565b905092915050565b60006120c18383612a53565b60208301905092915050565b60006120d98383612a80565b60208301905092915050565b6120ee8161301b565b82525050565b60006120ff82612e76565b6121098185612f41565b935061211483612dcd565b8060005b8381101561214557815161212c888261204d565b975061213783612ed9565b925050600181019050612118565b5085935050505092915050565b600061215d82612e76565b6121678185612f52565b935061217283612dcd565b8060005b838110156121a357815161218a888261204d565b975061219583612ed9565b925050600181019050612176565b5085935050505092915050565b60006121bb82612e81565b6121c58185612f41565b93506121d083612ddd565b8060005b83811015612208576121e58261316e565b6121ef888261204d565b97506121fa83612ee6565b9250506001810190506121d4565b5085935050505092915050565b600061222082612e8c565b61222a8185612f63565b93508360208202850161223c85612df2565b8060005b8581101561227857848403895281516122598582612065565b945061226483612ef3565b925060208a01995050600181019050612240565b50829750879550505050505092915050565b600061229582612e97565b61229f8185612f63565b9350836020820285016122b185612e02565b8060005b858110156122ec578484038952816122cd8582612079565b94506122d883612f00565b925060208a019950506001810190506122b5565b50829750879550505050505092915050565b600061230982612ea2565b6123138185612f74565b93508360208202850161232585612e17565b8060005b858110156123615784840389528151612342858261208d565b945061234d83612f0d565b925060208a01995050600181019050612329565b50829750879550505050505092915050565b600061237e82612ead565b6123888185612f74565b93508360208202850161239a85612e27565b8060005b858110156123d5578484038952816123b685826120a1565b94506123c183612f1a565b925060208a0199505060018101905061239e565b50829750879550505050505092915050565b60006123f282612eb8565b6123fc8185612f85565b935061240783612e3c565b8060005b8381101561243857815161241f88826120b5565b975061242a83612f27565b92505060018101905061240b565b5085935050505092915050565b600061245082612eb8565b61245a8185612f96565b935061246583612e3c565b8060005b8381101561249657815161247d88826120b5565b975061248883612f27565b925050600181019050612469565b5085935050505092915050565b60006124ae82612eb8565b6124b88185612fa7565b93506124c383612e3c565b8060005b838110156124f45781516124db88826120cd565b97506124e683612f27565b9250506001810190506124c7565b5085935050505092915050565b600061250c82612ec3565b6125168185612f85565b935061252183612e4c565b8060005b838110156125595761253682613181565b61254088826120b5565b975061254b83612f34565b925050600181019050612525565b5085935050505092915050565b600061257182612ec3565b61257b8185612fa7565b935061258683612e4c565b8060005b838110156125be5761259b82613181565b6125a588826120cd565b97506125b083612f34565b92505060018101905061258a565b5085935050505092915050565b6125d48161302d565b82525050565b6125e38161302d565b82525050565b6125f281613039565b82525050565b60006126048385612fc9565b93506126118385846130c2565b61261a83613194565b840190509392505050565b600061263082612ece565b61263a8185612fb8565b935061264a8185602086016130d1565b61265381613194565b840191505092915050565b60008154600181166000811461267b57600181146126a1576126e5565b607f600283041661268c8187612fb8565b955060ff1983168652602086019350506126e5565b600282046126af8187612fb8565b95506126ba85612e61565b60005b828110156126dc578154818901526001820191506020810190506126bd565b80880195505050505b505092915050565b6126f68161307a565b82525050565b6127058161309e565b82525050565b60006101808301600083015161272460008601826125e9565b506020830151848203602086015261273c8282612625565b9150506040830151848203604086015261275682826120f4565b9150506060830151848203606086015261277082826120f4565b9150506080830151848203608086015261278a82826123e7565b91505060a083015184820360a08601526127a48282612215565b91505060c083015184820360c08601526127be82826122fe565b91505060e08301516127d360e08601826125cb565b506101008301516127e8610100860182612a53565b506101208301516127fd6101208601826120e5565b5061014083015184820361014086015261281782826123e7565b91505061016083015161282e610160860182612a53565b508091505092915050565b60006101808301600080840154905061285181613138565b61285e60008701826125e9565b50600184018583036020870152612875838261265e565b92505060028401858303604087015261288e83826121b0565b9250506003840185830360608701526128a783826121b0565b9250506004840185830360808701526128c08382612501565b9250506005840185830360a08701526128d9838261228a565b9250506006840185830360c08701526128f28382612373565b925050600784015490506129058161311e565b61291260e08701826125cb565b506008840154905061292381613152565b612931610100870182612a53565b506009840154905061294281613104565b6129506101208701826120e5565b50600a84018583036101408701526129688382612501565b925050600b840154905061297b81613152565b612989610160870182612a53565b50819250505092915050565b8082525050565b60006060830160008301516129b460008601826120e5565b5060208301516129c76020860182612a53565b50604083015184820360408601526129df82826123e7565b9150508091505092915050565b6000606083016000808401549050612a0381613104565b612a1060008701826120e5565b5060018401549050612a2181613152565b612a2e6020870182612a53565b50600284018583036040870152612a458382612501565b925050819250505092915050565b612a5c81613063565b82525050565b612a6b81613063565b82525050565b612a7a81613063565b82525050565b612a8981613063565b82525050565b612a988161306d565b82525050565b60006040820190508181036000830152612ab88185612152565b90508181036020830152612acc8184612445565b90509392505050565b6000602082019050612aea60008301846125da565b92915050565b60006020820190508181036000830152612b0a818461270b565b905092915050565b60006020820190508181036000830152612b2c8184612839565b905092915050565b6000602082019050612b496000830184612995565b92915050565b6000606082019050612b646000830186612995565b612b716020830185612a71565b8181036040830152612b8381846124a3565b9050949350505050565b6000606082019050612ba26000830186612995565b612baf6020830185612a71565b8181036040830152612bc18184612566565b9050949350505050565b6000606082019050612be06000830186612995565b612bed6020830185612a71565b612bfa60408301846126ed565b949350505050565b600060c082019050612c176000830189612995565b612c246020830188612a71565b612c3160408301876126ed565b612c3e60608301866126fc565b612c4b6080830185612a8f565b612c5860a0830184612a71565b979650505050505050565b600060c082019050612c78600083018a612995565b612c856020830189612a71565b612c926040830188612a71565b8181036060830152612ca58186886125f8565b9050612cb460808301856126fc565b612cc160a0830184612a8f565b98975050505050505050565b6000602082019050612ce26000830184612a62565b92915050565b6000604051905081810181811067ffffffffffffffff82111715612d0f57612d0e61316c565b5b8060405250919050565b600067ffffffffffffffff821115612d3457612d3361316c565b5b602082029050602081019050919050565b600067ffffffffffffffff821115612d6057612d5f61316c565b5b602082029050602081019050919050565b600067ffffffffffffffff821115612d8c57612d8b61316c565b5b602082029050602081019050919050565b600067ffffffffffffffff821115612db857612db761316c565b5b601f19601f8301169050602081019050919050565b6000819050602082019050919050565b60008190508160005260206000209050919050565b6000819050602082019050919050565b60008190508160005260206000209050919050565b6000819050602082019050919050565b60008190508160005260206000209050919050565b6000819050602082019050919050565b60008190508160005260206000209050919050565b60008190508160005260206000209050919050565b600081519050919050565b600081549050919050565b600081519050919050565b600081549050919050565b600081519050919050565b600081549050919050565b600081519050919050565b600081549050919050565b600081519050919050565b6000602082019050919050565b6000600182019050919050565b6000602082019050919050565b6000600182019050919050565b6000602082019050919050565b6000600382019050919050565b6000602082019050919050565b6000600182019050919050565b600082825260208201905092915050565b600082825260208201905092915050565b600082825260208201905092915050565b600082825260208201905092915050565b600082825260208201905092915050565b600082825260208201905092915050565b600082825260208201905092915050565b600082825260208201905092915050565b600082825260208201905092915050565b600073ffffffffffffffffffffffffffffffffffffffff82169050919050565b600060ff82169050919050565b6000819050919050565b6000819050919050565b600061302682613043565b9050919050565b60008115159050919050565b6000819050919050565b600073ffffffffffffffffffffffffffffffffffffffff82169050919050565b6000819050919050565b600060ff82169050919050565b60006130858261308c565b9050919050565b600061309782613043565b9050919050565b60006130a9826130b0565b9050919050565b60006130bb82613043565b9050919050565b82818337600083830152505050565b60005b838110156130ef5780820151818401526020810190506130d4565b838111156130fe576000848401525b50505050565b6000613117613112836131a5565b612fda565b9050919050565b600061313161312c836131a5565b612ffa565b9050919050565b600061314b613146836131a5565b613007565b9050919050565b6000613165613160836131a5565b613011565b9050919050565bfe5b600061317a8254613104565b9050919050565b600061318d8254613152565b9050919050565b6000601f19601f8301169050919050565b60008160001c9050919050565b6131bb8161301b565b81146131c657600080fd5b50565b6131d28161302d565b81146131dd57600080fd5b50565b6131e981613039565b81146131f457600080fd5b50565b61320081613063565b811461320b57600080fd5b5056fea264697066735822122009de8a112455cedecb3198454f7a71d4704d638437e87226417a2bfa1c5f3b0164736f6c63430007040033",
  "libraries": {
    "TurnBasedGameContext": "0x98e34A7e69fa7E6b1EfA325b9a4Bb572D77C2D91"
  },
  "devdoc": {
    "kind": "dev",
    "methods": {
      "applyVerificationResult(uint256)": {
        "params": {
          "_index": "index identifying the game"
        }
      },
      "challengeGame(uint256)": {
        "params": {
          "_index": "index identifying the game"
        },
        "returns": {
          "_0": "index of the Descartes computation"
        }
      },
      "claimResult(uint256,uint256[])": {
        "params": {
          "_fundsShare": "result of the game given as a distribution of the funds previously locked",
          "_index": "index identifying the game"
        }
      },
      "confirmResult(uint256)": {
        "params": {
          "_index": "index identifying the game"
        }
      },
      "constructor": {
        "params": {
          "descartesAddress": "address of the Descartes contract",
          "loggerAddress": "address of the Logger contract"
        }
      },
      "getContext(uint256)": {
        "params": {
          "_index": "index identifying the game"
        },
        "returns": {
          "_0": "GameContext struct for the specified game"
        }
      },
      "getState(uint256,address)": {
        "params": {
          "_index": "index identifying the game"
        },
        "returns": {
          "_isDescartesInstantiated": "whether an offchain Descartes computation has been instantiated for this game"
        }
      },
      "getSubInstances(uint256,address)": {
        "params": {
          "_index": "index identifying the game"
        }
      },
      "isConcerned(uint256,address)": {
        "params": {
          "_index": "index identifying the game",
          "_player": "a player's address"
        },
        "returns": {
          "_0": "true if the player is concerned about the game, false otherwise"
        }
      },
      "startGame(bytes32,bytes,address[],address[],uint256[],bytes[])": {
        "params": {
          "_gameMetadata": "game-specific initial metadata/parameters",
          "_gameTemplateHash": "template hash for the Cartesi Machine computation that verifies the game (identifies the game computation/logic)",
          "_playerFunds": "funds/balances that each player is bringing into the game",
          "_playerInfos": "game-specific information for each player",
          "_players": "addresses of the players involved",
          "_validators": "addresses of the validator nodes that will run a Descartes verification should it be needed"
        },
        "returns": {
          "_0": "index of the game instance"
        }
      },
      "submitTurn(uint256,uint256,bytes)": {
        "params": {
          "_data": "game-specific turn data (array of 64-bit words)",
          "_index": "index identifying the game",
          "_turnIndex": "a sequential number for the turn, which must be equal to the last submitted turn's index + 1"
        }
      }
    },
    "title": "TurnBasedGame",
    "version": 1
  },
  "userdoc": {
    "kind": "user",
    "methods": {
      "applyVerificationResult(uint256)": {
        "notice": "Applies the result of a game verified by Descartes, transferring funds according to the Descartes computation output"
      },
      "challengeGame(uint256)": {
        "notice": "Challenges game state, triggering a verification by a Descartes computation"
      },
      "claimResult(uint256,uint256[])": {
        "notice": "Claims game has ended with the provided result (share of locked funds)"
      },
      "confirmResult(uint256)": {
        "notice": "Confirms game results previously claimed"
      },
      "constructor": {
        "notice": "Constructor"
      },
      "getContext(uint256)": {
        "notice": "Returns game context"
      },
      "getState(uint256,address)": {
        "notice": "Returns state of the instance for offchain usage concerning given validator."
      },
      "getSubInstances(uint256,address)": {
        "notice": "Retrieves sub-instances of the game (required method for Instantiator, used by offchain dispatcher code)."
      },
      "isConcerned(uint256,address)": {
        "notice": "Indicates whether a given player is concerned about a game"
      },
      "startGame(bytes32,bytes,address[],address[],uint256[],bytes[])": {
        "notice": "Starts a new game"
      },
      "submitTurn(uint256,uint256,bytes)": {
        "notice": "Submits a new turn for a given game"
      }
    },
    "notice": "Generic contract for handling turn-based games validated by Descartes computations",
    "version": 1
  },
  "storageLayout": {
    "storage": [
      {
        "astId": 674,
        "contract": "contracts/TurnBasedGame.sol:TurnBasedGame",
        "label": "currentIndex",
        "offset": 0,
        "slot": "0",
        "type": "t_uint256"
      },
      {
        "astId": 678,
        "contract": "contracts/TurnBasedGame.sol:TurnBasedGame",
        "label": "active",
        "offset": 0,
        "slot": "1",
        "type": "t_mapping(t_uint256,t_bool)"
      },
      {
        "astId": 682,
        "contract": "contracts/TurnBasedGame.sol:TurnBasedGame",
        "label": "nonce",
        "offset": 0,
        "slot": "2",
        "type": "t_mapping(t_uint256,t_uint256)"
      },
      {
        "astId": 1246,
        "contract": "contracts/TurnBasedGame.sol:TurnBasedGame",
        "label": "descartes",
        "offset": 0,
        "slot": "3",
        "type": "t_contract(DescartesInterface)86"
      },
      {
        "astId": 1248,
        "contract": "contracts/TurnBasedGame.sol:TurnBasedGame",
        "label": "logger",
        "offset": 0,
        "slot": "4",
        "type": "t_contract(Logger)562"
      },
      {
        "astId": 1250,
        "contract": "contracts/TurnBasedGame.sol:TurnBasedGame",
        "label": "emptyDataLogIndex",
        "offset": 0,
        "slot": "5",
        "type": "t_uint256"
      },
      {
        "astId": 1257,
        "contract": "contracts/TurnBasedGame.sol:TurnBasedGame",
        "label": "instances",
        "offset": 0,
        "slot": "6",
        "type": "t_mapping(t_uint256,t_struct(GameContext)1728_storage)"
      }
    ],
    "types": {
      "t_address": {
        "encoding": "inplace",
        "label": "address",
        "numberOfBytes": "20"
      },
      "t_array(t_address)dyn_storage": {
        "base": "t_address",
        "encoding": "dynamic_array",
        "label": "address[]",
        "numberOfBytes": "32"
      },
      "t_array(t_bytes_storage)dyn_storage": {
        "base": "t_bytes_storage",
        "encoding": "dynamic_array",
        "label": "bytes[]",
        "numberOfBytes": "32"
      },
      "t_array(t_struct(Turn)1697_storage)dyn_storage": {
        "base": "t_struct(Turn)1697_storage",
        "encoding": "dynamic_array",
        "label": "struct Turn[]",
        "numberOfBytes": "32"
      },
      "t_array(t_uint256)dyn_storage": {
        "base": "t_uint256",
        "encoding": "dynamic_array",
        "label": "uint256[]",
        "numberOfBytes": "32"
      },
      "t_bool": {
        "encoding": "inplace",
        "label": "bool",
        "numberOfBytes": "1"
      },
      "t_bytes32": {
        "encoding": "inplace",
        "label": "bytes32",
        "numberOfBytes": "32"
      },
      "t_bytes_storage": {
        "encoding": "bytes",
        "label": "bytes",
        "numberOfBytes": "32"
      },
      "t_contract(DescartesInterface)86": {
        "encoding": "inplace",
        "label": "contract DescartesInterface",
        "numberOfBytes": "20"
      },
      "t_contract(Logger)562": {
        "encoding": "inplace",
        "label": "contract Logger",
        "numberOfBytes": "20"
      },
      "t_mapping(t_uint256,t_bool)": {
        "encoding": "mapping",
        "key": "t_uint256",
        "label": "mapping(uint256 => bool)",
        "numberOfBytes": "32",
        "value": "t_bool"
      },
      "t_mapping(t_uint256,t_struct(GameContext)1728_storage)": {
        "encoding": "mapping",
        "key": "t_uint256",
        "label": "mapping(uint256 => struct GameContext)",
        "numberOfBytes": "32",
        "value": "t_struct(GameContext)1728_storage"
      },
      "t_mapping(t_uint256,t_uint256)": {
        "encoding": "mapping",
        "key": "t_uint256",
        "label": "mapping(uint256 => uint256)",
        "numberOfBytes": "32",
        "value": "t_uint256"
      },
      "t_struct(GameContext)1728_storage": {
        "encoding": "inplace",
        "label": "struct GameContext",
        "members": [
          {
            "astId": 1699,
            "contract": "contracts/TurnBasedGame.sol:TurnBasedGame",
            "label": "gameTemplateHash",
            "offset": 0,
            "slot": "0",
            "type": "t_bytes32"
          },
          {
            "astId": 1701,
            "contract": "contracts/TurnBasedGame.sol:TurnBasedGame",
            "label": "gameMetadata",
            "offset": 0,
            "slot": "1",
            "type": "t_bytes_storage"
          },
          {
            "astId": 1704,
            "contract": "contracts/TurnBasedGame.sol:TurnBasedGame",
            "label": "validators",
            "offset": 0,
            "slot": "2",
            "type": "t_array(t_address)dyn_storage"
          },
          {
            "astId": 1707,
            "contract": "contracts/TurnBasedGame.sol:TurnBasedGame",
            "label": "players",
            "offset": 0,
            "slot": "3",
            "type": "t_array(t_address)dyn_storage"
          },
          {
            "astId": 1710,
            "contract": "contracts/TurnBasedGame.sol:TurnBasedGame",
            "label": "playerFunds",
            "offset": 0,
            "slot": "4",
            "type": "t_array(t_uint256)dyn_storage"
          },
          {
            "astId": 1713,
            "contract": "contracts/TurnBasedGame.sol:TurnBasedGame",
            "label": "playerInfos",
            "offset": 0,
            "slot": "5",
            "type": "t_array(t_bytes_storage)dyn_storage"
          },
          {
            "astId": 1716,
            "contract": "contracts/TurnBasedGame.sol:TurnBasedGame",
            "label": "turns",
            "offset": 0,
            "slot": "6",
            "type": "t_array(t_struct(Turn)1697_storage)dyn_storage"
          },
          {
            "astId": 1718,
            "contract": "contracts/TurnBasedGame.sol:TurnBasedGame",
            "label": "isDescartesInstantiated",
            "offset": 0,
            "slot": "7",
            "type": "t_bool"
          },
          {
            "astId": 1720,
            "contract": "contracts/TurnBasedGame.sol:TurnBasedGame",
            "label": "descartesIndex",
            "offset": 0,
            "slot": "8",
            "type": "t_uint256"
          },
          {
            "astId": 1722,
            "contract": "contracts/TurnBasedGame.sol:TurnBasedGame",
            "label": "claimer",
            "offset": 0,
            "slot": "9",
            "type": "t_address"
          },
          {
            "astId": 1725,
            "contract": "contracts/TurnBasedGame.sol:TurnBasedGame",
            "label": "claimedFundsShare",
            "offset": 0,
            "slot": "10",
            "type": "t_array(t_uint256)dyn_storage"
          },
          {
            "astId": 1727,
            "contract": "contracts/TurnBasedGame.sol:TurnBasedGame",
            "label": "claimAgreementMask",
            "offset": 0,
            "slot": "11",
            "type": "t_uint256"
          }
        ],
        "numberOfBytes": "384"
      },
      "t_struct(Turn)1697_storage": {
        "encoding": "inplace",
        "label": "struct Turn",
        "members": [
          {
            "astId": 1691,
            "contract": "contracts/TurnBasedGame.sol:TurnBasedGame",
            "label": "player",
            "offset": 0,
            "slot": "0",
            "type": "t_address"
          },
          {
            "astId": 1693,
            "contract": "contracts/TurnBasedGame.sol:TurnBasedGame",
            "label": "timestamp",
            "offset": 0,
            "slot": "1",
            "type": "t_uint256"
          },
          {
            "astId": 1696,
            "contract": "contracts/TurnBasedGame.sol:TurnBasedGame",
            "label": "dataLogIndices",
            "offset": 0,
            "slot": "2",
            "type": "t_array(t_uint256)dyn_storage"
          }
        ],
        "numberOfBytes": "96"
      },
      "t_uint256": {
        "encoding": "inplace",
        "label": "uint256",
        "numberOfBytes": "32"
      }
    }
  }
}