{
  "address": "0xd1C05658849d92E47C6Ebe84a888e0FD5Dea4AB0",
  "abi": [
    {
      "inputs": [
        {
          "internalType": "address",
          "name": "descartesAddress",
          "type": "address"
        },
        {
          "internalType": "address",
          "name": "loggerAddress",
          "type": "address"
        }
      ],
      "stateMutability": "nonpayable",
      "type": "constructor"
    },
    {
      "inputs": [
        {
          "internalType": "uint256",
          "name": "_index",
          "type": "uint256"
        }
      ],
      "name": "applyVerificationResult",
      "outputs": [],
      "stateMutability": "nonpayable",
      "type": "function"
    },
    {
      "inputs": [
        {
          "internalType": "uint256",
          "name": "_index",
          "type": "uint256"
        }
      ],
      "name": "challengeGame",
      "outputs": [
        {
          "internalType": "uint256",
          "name": "",
          "type": "uint256"
        }
      ],
      "stateMutability": "nonpayable",
      "type": "function"
    },
    {
      "inputs": [
        {
          "internalType": "uint256",
          "name": "_index",
          "type": "uint256"
        },
        {
          "internalType": "uint256[]",
          "name": "_fundsShare",
          "type": "uint256[]"
        }
      ],
      "name": "claimResult",
      "outputs": [],
      "stateMutability": "nonpayable",
      "type": "function"
    },
    {
      "inputs": [
        {
          "internalType": "uint256",
          "name": "_index",
          "type": "uint256"
        }
      ],
      "name": "confirmResult",
      "outputs": [],
      "stateMutability": "nonpayable",
      "type": "function"
    },
    {
      "inputs": [],
      "name": "currentIndex",
      "outputs": [
        {
          "internalType": "uint256",
          "name": "",
          "type": "uint256"
        }
      ],
      "stateMutability": "view",
      "type": "function"
    },
    {
      "inputs": [
        {
          "internalType": "uint256",
          "name": "_index",
          "type": "uint256"
        }
      ],
      "name": "getContext",
      "outputs": [
        {
          "components": [
            {
              "internalType": "bytes32",
              "name": "gameTemplateHash",
              "type": "bytes32"
            },
            {
              "internalType": "bytes",
              "name": "gameMetadata",
              "type": "bytes"
            },
            {
              "internalType": "address[]",
              "name": "validators",
              "type": "address[]"
            },
            {
              "internalType": "address[]",
              "name": "players",
              "type": "address[]"
            },
            {
              "internalType": "uint256[]",
              "name": "playerFunds",
              "type": "uint256[]"
            },
            {
              "internalType": "bytes[]",
              "name": "playerInfos",
              "type": "bytes[]"
            },
            {
              "components": [
                {
                  "internalType": "address",
                  "name": "player",
                  "type": "address"
                },
                {
                  "internalType": "bytes32",
                  "name": "stateHash",
                  "type": "bytes32"
                },
                {
                  "internalType": "uint256[]",
                  "name": "dataLogIndices",
                  "type": "uint256[]"
                }
              ],
              "internalType": "struct Turn[]",
              "name": "turns",
              "type": "tuple[]"
            },
            {
              "internalType": "bool",
              "name": "isDescartesInstantiated",
              "type": "bool"
            },
            {
              "internalType": "uint256",
              "name": "descartesIndex",
              "type": "uint256"
            },
            {
              "internalType": "address",
              "name": "claimer",
              "type": "address"
            },
            {
              "internalType": "uint256[]",
              "name": "claimedFundsShare",
              "type": "uint256[]"
            },
            {
              "internalType": "uint256",
              "name": "claimAgreementMask",
              "type": "uint256"
            }
          ],
          "internalType": "struct GameContext",
          "name": "",
          "type": "tuple"
        }
      ],
      "stateMutability": "view",
      "type": "function"
    },
    {
      "inputs": [
        {
          "internalType": "uint256",
          "name": "_index",
          "type": "uint256"
        }
      ],
      "name": "getNonce",
      "outputs": [
        {
          "internalType": "uint256",
          "name": "currentNonce",
          "type": "uint256"
        }
      ],
      "stateMutability": "view",
      "type": "function"
    },
    {
      "inputs": [
        {
          "internalType": "uint256",
          "name": "_index",
          "type": "uint256"
        },
        {
          "internalType": "address",
          "name": "",
          "type": "address"
        }
      ],
      "name": "getSubInstances",
      "outputs": [
        {
          "internalType": "address[]",
          "name": "_addresses",
          "type": "address[]"
        },
        {
          "internalType": "uint256[]",
          "name": "_indices",
          "type": "uint256[]"
        }
      ],
      "stateMutability": "view",
      "type": "function"
    },
    {
      "inputs": [
        {
          "internalType": "uint256",
          "name": "_index",
          "type": "uint256"
        }
      ],
      "name": "isActive",
      "outputs": [
        {
          "internalType": "bool",
          "name": "",
          "type": "bool"
        }
      ],
      "stateMutability": "view",
      "type": "function"
    },
    {
      "inputs": [
        {
          "internalType": "uint256",
          "name": "_index",
          "type": "uint256"
        },
        {
          "internalType": "address",
          "name": "_player",
          "type": "address"
        }
      ],
      "name": "isConcerned",
      "outputs": [
        {
          "internalType": "bool",
          "name": "",
          "type": "bool"
        }
      ],
      "stateMutability": "view",
      "type": "function"
    },
    {
      "inputs": [
        {
          "internalType": "bytes32",
          "name": "_gameTemplateHash",
          "type": "bytes32"
        },
        {
          "internalType": "bytes",
          "name": "_gameMetadata",
          "type": "bytes"
        },
        {
          "internalType": "address[]",
          "name": "_validators",
          "type": "address[]"
        },
        {
          "internalType": "address[]",
          "name": "_players",
          "type": "address[]"
        },
        {
          "internalType": "uint256[]",
          "name": "_playerFunds",
          "type": "uint256[]"
        },
        {
          "internalType": "bytes[]",
          "name": "_playerInfos",
          "type": "bytes[]"
        }
      ],
      "name": "startGame",
      "outputs": [
        {
          "internalType": "uint256",
          "name": "",
          "type": "uint256"
        }
      ],
      "stateMutability": "nonpayable",
      "type": "function"
    },
    {
      "inputs": [
        {
          "internalType": "uint256",
          "name": "_index",
          "type": "uint256"
        },
        {
          "internalType": "bytes32",
          "name": "_stateHash",
          "type": "bytes32"
        },
        {
          "internalType": "bytes",
          "name": "_data",
          "type": "bytes"
        }
      ],
      "name": "submitTurn",
      "outputs": [],
      "stateMutability": "nonpayable",
      "type": "function"
    }
  ],
  "transactionHash": "0x45b260edbcb0858b45eb3c2632b72df0ae3a5e2b571af1728278e112da9b4c98",
  "args": [
    "0x470A953Fb69d44d47b8eb5A443524649c097DDf7",
    "0xBf108162392b4cc6bb35b6E197b0F686A6078172"
  ],
  "solcInputHash": "2ea36956ec38fc801b053883b59900a4",
  "bytecode": "0x6080604052600080553480156200001557600080fd5b50604051620035a4380380620035a483398181016040528101906200003b9190620002cb565b81600360006101000a81548173ffffffffffffffffffffffffffffffffffffffff021916908373ffffffffffffffffffffffffffffffffffffffff16021790555080600460006101000a81548173ffffffffffffffffffffffffffffffffffffffff021916908373ffffffffffffffffffffffffffffffffffffffff1602179055506060600167ffffffffffffffff81118015620000d857600080fd5b50604051908082528060200260200182016040528015620001085781602001602082028036833780820191505090505b5090506000600460009054906101000a900473ffffffffffffffffffffffffffffffffffffffff1673ffffffffffffffffffffffffffffffffffffffff16634891ea36600a846040518363ffffffff1660e01b81526004016200016d92919062000438565b602060405180830381600087803b1580156200018857600080fd5b505af11580156200019d573d6000803e3d6000fd5b505050506040513d601f19601f82011682018060405250810190620001c391906200030c565b9050600460009054906101000a900473ffffffffffffffffffffffffffffffffffffffff1673ffffffffffffffffffffffffffffffffffffffff1663833459bc826040518263ffffffff1660e01b81526004016200022291906200041b565b60206040518083038186803b1580156200023b57600080fd5b505afa15801562000250573d6000803e3d6000fd5b505050506040513d601f19601f8201168201806040525081019062000276919062000338565b6005819055505050505062000588565b60008151905062000297816200053a565b92915050565b600081519050620002ae8162000554565b92915050565b600081519050620002c5816200056e565b92915050565b60008060408385031215620002df57600080fd5b6000620002ef8582860162000286565b9250506020620003028582860162000286565b9150509250929050565b6000602082840312156200031f57600080fd5b60006200032f848285016200029d565b91505092915050565b6000602082840312156200034b57600080fd5b60006200035b84828501620002b4565b91505092915050565b6000620003728383620003f9565b60208301905092915050565b60006200038b826200047c565b62000397818562000494565b9350620003a4836200046c565b8060005b83811015620003db578151620003bf888262000364565b9750620003cc8362000487565b925050600181019050620003a8565b5085935050505092915050565b620003f381620004b9565b82525050565b6200040481620004c3565b82525050565b620004158162000526565b82525050565b6000602082019050620004326000830184620003e8565b92915050565b60006040820190506200044f60008301856200040a565b81810360208301526200046381846200037e565b90509392505050565b6000819050602082019050919050565b600081519050919050565b6000602082019050919050565b600082825260208201905092915050565b6000620004b282620004ef565b9050919050565b6000819050919050565b60007fffffffffffffffff00000000000000000000000000000000000000000000000082169050919050565b600073ffffffffffffffffffffffffffffffffffffffff82169050919050565b6000819050919050565b600060ff82169050919050565b6000620005338262000519565b9050919050565b6200054581620004a5565b81146200055157600080fd5b50565b6200055f81620004b9565b81146200056b57600080fd5b50565b62000579816200050f565b81146200058557600080fd5b50565b61300c80620005986000396000f3fe608060405234801561001057600080fd5b50600436106100b45760003560e01c806382afd23b1161007157806382afd23b146101b3578063aee40d12146101e3578063b88f4052146101ff578063c526656c1461021b578063e68defac1461024c578063eb05cf511461027c576100b4565b806301ff62ab146100b957806317f491ac146100e957806326987b60146101195780632ab23088146101375780633d46b819146101675780634830b0e814610197575b600080fd5b6100d360048036038101906100ce9190611cfc565b610298565b6040516100e0919061288f565b60405180910390f35b61010360048036038101906100fe9190611caa565b610346565b6040516101109190612a65565b60405180910390f35b610121610535565b60405161012e9190612a65565b60405180910390f35b610151600480360381019061014c9190611ba9565b61053b565b60405161015e9190612a65565b60405180910390f35b610181600480360381019061017c9190611caa565b61065e565b60405161018e9190612a65565b60405180910390f35b6101b160048036038101906101ac9190611caa565b61076f565b005b6101cd60048036038101906101c89190611caa565b610916565b6040516101da919061288f565b60405180910390f35b6101fd60048036038101906101f89190611d8c565b610940565b005b61021960048036038101906102149190611d38565b610aea565b005b61023560048036038101906102309190611cfc565b610c67565b604051610243929190612858565b60405180910390f35b61026660048036038101906102619190611caa565b610d7e565b60405161027391906128aa565b60405180910390f35b61029660048036038101906102919190611caa565b611322565b005b6000828060005411610312576040517f08c379a00000000000000000000000000000000000000000000000000000000081526004018080602001828103825260168152602001807f496e646578206e6f7420696e7374616e7469617465640000000000000000000081525060200191505060405180910390fd5b600060066000868152602001908152602001600020905061033c848261154690919063ffffffff16565b9250505092915050565b60008180600054116103c0576040517f08c379a00000000000000000000000000000000000000000000000000000000081526004018080602001828103825260168152602001807f496e646578206e6f7420696e7374616e7469617465640000000000000000000081525060200191505060405180910390fd5b6103c981610916565b61043b576040517f08c379a000000000000000000000000000000000000000000000000000000000815260040180806020018281038252600e8152602001807f496e64657820696e61637469766500000000000000000000000000000000000081525060200191505060405180910390fd5b600060066000858152602001908152602001600020905080735ECe6b2cb88dE6d72aaE9F2bA1FBffACe19Fb18A6315093ea2909186600360009054906101000a900473ffffffffffffffffffffffffffffffffffffffff16600460009054906101000a900473ffffffffffffffffffffffffffffffffffffffff16600a6005546040518763ffffffff1660e01b81526004016104dc96959493929190612a04565b60206040518083038186803b1580156104f457600080fd5b505af4158015610508573d6000803e3d6000fd5b505050506040513d601f19601f8201168201806040525081019061052c9190611cd3565b92505050919050565b60005481565b6000806006600080548152602001908152602001600020905087816000018190555086816001019080519060200190610575929190611635565b508581600201908051906020019061058e9291906116c3565b50848160030190805190602001906105a79291906116c3565b50838160040190805190602001906105c092919061174d565b50828160050190805190602001906105d992919061179a565b507ffdc1977e3a07952630c899cd042a8bedae0115fe5d439a9a07a1443b94801a366000548260405161060d929190612a80565b60405180910390a160018060008054815260200190815260200160002060006101000a81548160ff021916908315150217905550600080815480929190600101919050559150509695505050505050565b60008180600054116106d8576040517f08c379a00000000000000000000000000000000000000000000000000000000081526004018080602001828103825260168152602001807f496e646578206e6f7420696e7374616e7469617465640000000000000000000081525060200191505060405180910390fd5b6106e181610916565b610753576040517f08c379a000000000000000000000000000000000000000000000000000000000815260040180806020018281038252600e8152602001807f496e64657820696e61637469766500000000000000000000000000000000000081525060200191505060405180910390fd5b6002600084815260200190815260200160002054915050919050565b8080600054116107e7576040517f08c379a00000000000000000000000000000000000000000000000000000000081526004018080602001828103825260168152602001807f496e646578206e6f7420696e7374616e7469617465640000000000000000000081525060200191505060405180910390fd5b6107f081610916565b610862576040517f08c379a000000000000000000000000000000000000000000000000000000000815260040180806020018281038252600e8152602001807f496e64657820696e61637469766500000000000000000000000000000000000081525060200191505060405180910390fd5b600060066000848152602001908152602001600020905080735ECe6b2cb88dE6d72aaE9F2bA1FBffACe19Fb18A63b5701feb909185600360009054906101000a900473ffffffffffffffffffffffffffffffffffffffff166040518463ffffffff1660e01b81526004016108d8939291906129cd565b60006040518083038186803b1580156108f057600080fd5b505af4158015610904573d6000803e3d6000fd5b50505050610911836115ed565b505050565b60006001600083815260200190815260200160002060009054906101000a900460ff169050919050565b8380600054116109b8576040517f08c379a00000000000000000000000000000000000000000000000000000000081526004018080602001828103825260168152602001807f496e646578206e6f7420696e7374616e7469617465640000000000000000000081525060200191505060405180910390fd5b6109c181610916565b610a33576040517f08c379a000000000000000000000000000000000000000000000000000000000815260040180806020018281038252600e8152602001807f496e64657820696e61637469766500000000000000000000000000000000000081525060200191505060405180910390fd5b600060066000878152602001908152602001600020905080735ECe6b2cb88dE6d72aaE9F2bA1FBffACe19Fb18A6309141f46909188888888600460009054906101000a900473ffffffffffffffffffffffffffffffffffffffff16600a6040518863ffffffff1660e01b8152600401610ab29796959493929190612963565b60006040518083038186803b158015610aca57600080fd5b505af4158015610ade573d6000803e3d6000fd5b50505050505050505050565b818060005411610b62576040517f08c379a00000000000000000000000000000000000000000000000000000000081526004018080602001828103825260168152602001807f496e646578206e6f7420696e7374616e7469617465640000000000000000000081525060200191505060405180910390fd5b610b6b81610916565b610bdd576040517f08c379a000000000000000000000000000000000000000000000000000000000815260040180806020018281038252600e8152602001807f496e64657820696e61637469766500000000000000000000000000000000000081525060200191505060405180910390fd5b600060066000858152602001908152602001600020905080735ECe6b2cb88dE6d72aaE9F2bA1FBffACe19Fb18A630cdd31bc909186866040518463ffffffff1660e01b8152600401610c31939291906128e7565b60006040518083038186803b158015610c4957600080fd5b505af4158015610c5d573d6000803e3d6000fd5b5050505050505050565b606080838060005411610ce2576040517f08c379a00000000000000000000000000000000000000000000000000000000081526004018080602001828103825260168152602001807f496e646578206e6f7420696e7374616e7469617465640000000000000000000081525060200191505060405180910390fd5b600067ffffffffffffffff81118015610cfa57600080fd5b50604051908082528060200260200182016040528015610d295781602001602082028036833780820191505090505b50600067ffffffffffffffff81118015610d4257600080fd5b50604051908082528060200260200182016040528015610d715781602001602082028036833780820191505090505b5092509250509250929050565b610d866117fa565b818060005411610dfe576040517f08c379a00000000000000000000000000000000000000000000000000000000081526004018080602001828103825260168152602001807f496e646578206e6f7420696e7374616e7469617465640000000000000000000081525060200191505060405180910390fd5b600660008481526020019081526020016000206040518061018001604052908160008201548152602001600182018054600181600116156101000203166002900480601f016020809104026020016040519081016040528092919081815260200182805460018160011615610100020316600290048015610ec05780601f10610e9557610100808354040283529160200191610ec0565b820191906000526020600020905b815481529060010190602001808311610ea357829003601f168201915b5050505050815260200160028201805480602002602001604051908101604052809291908181526020018280548015610f4e57602002820191906000526020600020905b8160009054906101000a900473ffffffffffffffffffffffffffffffffffffffff1673ffffffffffffffffffffffffffffffffffffffff1681526020019060010190808311610f04575b5050505050815260200160038201805480602002602001604051908101604052809291908181526020018280548015610fdc57602002820191906000526020600020905b8160009054906101000a900473ffffffffffffffffffffffffffffffffffffffff1673ffffffffffffffffffffffffffffffffffffffff1681526020019060010190808311610f92575b505050505081526020016004820180548060200260200160405190810160405280929190818152602001828054801561103457602002820191906000526020600020905b815481526020019060010190808311611020575b5050505050815260200160058201805480602002602001604051908101604052809291908181526020016000905b8282101561111e578382906000526020600020018054600181600116156101000203166002900480601f01602080910402602001604051908101604052809291908181526020018280546001816001161561010002031660029004801561110a5780601f106110df5761010080835404028352916020019161110a565b820191906000526020600020905b8154815290600101906020018083116110ed57829003601f168201915b505050505081526020019060010190611062565b50505050815260200160068201805480602002602001604051908101604052809291908181526020016000905b8282101561123557838290600052602060002090600302016040518060600160405290816000820160009054906101000a900473ffffffffffffffffffffffffffffffffffffffff1673ffffffffffffffffffffffffffffffffffffffff1673ffffffffffffffffffffffffffffffffffffffff168152602001600182015481526020016002820180548060200260200160405190810160405280929190818152602001828054801561121d57602002820191906000526020600020905b815481526020019060010190808311611209575b5050505050815250508152602001906001019061114b565b5050505081526020016007820160009054906101000a900460ff16151515158152602001600882015481526020016009820160009054906101000a900473ffffffffffffffffffffffffffffffffffffffff1673ffffffffffffffffffffffffffffffffffffffff1673ffffffffffffffffffffffffffffffffffffffff168152602001600a820180548060200260200160405190810160405280929190818152602001828054801561130757602002820191906000526020600020905b8154815260200190600101908083116112f3575b50505050508152602001600b82015481525050915050919050565b80806000541161139a576040517f08c379a00000000000000000000000000000000000000000000000000000000081526004018080602001828103825260168152602001807f496e646578206e6f7420696e7374616e7469617465640000000000000000000081525060200191505060405180910390fd5b6113a381610916565b611415576040517f08c379a000000000000000000000000000000000000000000000000000000000815260040180806020018281038252600e8152602001807f496e64657820696e61637469766500000000000000000000000000000000000081525060200191505060405180910390fd5b6000600660008481526020019081526020016000209050600081735ECe6b2cb88dE6d72aaE9F2bA1FBffACe19Fb18A63906cc66c90916040518263ffffffff1660e01b815260040161146791906128cc565b60206040518083038186803b15801561147f57600080fd5b505af4158015611493573d6000803e3d6000fd5b505050506040513d601f19601f820116820180604052508101906114b79190611b80565b90506001151581151514156115405781735ECe6b2cb88dE6d72aaE9F2bA1FBffACe19Fb18A63aba4442390918685600a016040518463ffffffff1660e01b815260040161150693929190612925565b60006040518083038186803b15801561151e57600080fd5b505af4158015611532573d6000803e3d6000fd5b5050505061153f846115ed565b5b50505050565b600080600090505b83600301805490508110156115e15783600301818154811061156c57fe5b9060005260206000200160009054906101000a900473ffffffffffffffffffffffffffffffffffffffff1673ffffffffffffffffffffffffffffffffffffffff168373ffffffffffffffffffffffffffffffffffffffff1614156115d45760019150506115e7565b808060010191505061154e565b50600090505b92915050565b60006001600083815260200190815260200160002060006101000a81548160ff0219169083151502179055506000600260008381526020019081526020016000208190555050565b828054600181600116156101000203166002900490600052602060002090601f01602090048101928261166b57600085556116b2565b82601f1061168457805160ff19168380011785556116b2565b828001600101855582156116b2579182015b828111156116b1578251825591602001919060010190611696565b5b5090506116bf9190611876565b5090565b82805482825590600052602060002090810192821561173c579160200282015b8281111561173b5782518260006101000a81548173ffffffffffffffffffffffffffffffffffffffff021916908373ffffffffffffffffffffffffffffffffffffffff160217905550916020019190600101906116e3565b5b5090506117499190611876565b5090565b828054828255906000526020600020908101928215611789579160200282015b8281111561178857825182559160200191906001019061176d565b5b5090506117969190611876565b5090565b8280548282559060005260206000209081019282156117e9579160200282015b828111156117e85782518290805190602001906117d8929190611635565b50916020019190600101906117ba565b5b5090506117f69190611893565b5090565b6040518061018001604052806000801916815260200160608152602001606081526020016060815260200160608152602001606081526020016060815260200160001515815260200160008152602001600073ffffffffffffffffffffffffffffffffffffffff16815260200160608152602001600081525090565b5b8082111561188f576000816000905550600101611877565b5090565b5b808211156118b357600081816118aa91906118b7565b50600101611894565b5090565b50805460018160011615610100020316600290046000825580601f106118dd57506118fc565b601f0160209004906000526020600020908101906118fb9190611876565b5b50565b60008135905061190e81612f7a565b92915050565b600082601f83011261192557600080fd5b813561193861193382612ae1565b612ab0565b9150818183526020840193506020810190508385602084028201111561195d57600080fd5b60005b8381101561198d578161197388826118ff565b845260208401935060208301925050600181019050611960565b5050505092915050565b600082601f8301126119a857600080fd5b81356119bb6119b682612b0d565b612ab0565b9150818183526020840193506020810190508360005b83811015611a0157813586016119e78882611b02565b8452602084019350602083019250506001810190506119d1565b5050505092915050565b600082601f830112611a1c57600080fd5b8135611a2f611a2a82612b39565b612ab0565b91508181835260208401935060208101905083856020840282011115611a5457600080fd5b60005b83811015611a845781611a6a8882611b56565b845260208401935060208301925050600181019050611a57565b5050505092915050565b600081519050611a9d81612f91565b92915050565b600081359050611ab281612fa8565b92915050565b60008083601f840112611aca57600080fd5b8235905067ffffffffffffffff811115611ae357600080fd5b602083019150836001820283011115611afb57600080fd5b9250929050565b600082601f830112611b1357600080fd5b8135611b26611b2182612b65565b612ab0565b91508082526020830160208301858383011115611b4257600080fd5b611b4d838284612e8a565b50505092915050565b600081359050611b6581612fbf565b92915050565b600081519050611b7a81612fbf565b92915050565b600060208284031215611b9257600080fd5b6000611ba084828501611a8e565b91505092915050565b60008060008060008060c08789031215611bc257600080fd5b6000611bd089828a01611aa3565b965050602087013567ffffffffffffffff811115611bed57600080fd5b611bf989828a01611b02565b955050604087013567ffffffffffffffff811115611c1657600080fd5b611c2289828a01611914565b945050606087013567ffffffffffffffff811115611c3f57600080fd5b611c4b89828a01611914565b935050608087013567ffffffffffffffff811115611c6857600080fd5b611c7489828a01611a0b565b92505060a087013567ffffffffffffffff811115611c9157600080fd5b611c9d89828a01611997565b9150509295509295509295565b600060208284031215611cbc57600080fd5b6000611cca84828501611b56565b91505092915050565b600060208284031215611ce557600080fd5b6000611cf384828501611b6b565b91505092915050565b60008060408385031215611d0f57600080fd5b6000611d1d85828601611b56565b9250506020611d2e858286016118ff565b9150509250929050565b60008060408385031215611d4b57600080fd5b6000611d5985828601611b56565b925050602083013567ffffffffffffffff811115611d7657600080fd5b611d8285828601611a0b565b9150509250929050565b60008060008060608587031215611da257600080fd5b6000611db087828801611b56565b9450506020611dc187828801611aa3565b935050604085013567ffffffffffffffff811115611dde57600080fd5b611dea87828801611ab8565b925092505092959194509250565b6000611e048383611e90565b60208301905092915050565b6000611e1c83836123df565b905092915050565b6000611e308383612418565b905092915050565b6000611e448383612756565b905092915050565b6000611e5883836127a6565b905092915050565b6000611e6c838361280d565b60208301905092915050565b6000611e84838361283a565b60208301905092915050565b611e9981612de3565b82525050565b6000611eaa82612c3e565b611eb48185612d09565b9350611ebf83612b95565b8060005b83811015611ef0578151611ed78882611df8565b9750611ee283612ca1565b925050600181019050611ec3565b5085935050505092915050565b6000611f0882612c3e565b611f128185612d1a565b9350611f1d83612b95565b8060005b83811015611f4e578151611f358882611df8565b9750611f4083612ca1565b925050600181019050611f21565b5085935050505092915050565b6000611f6682612c49565b611f708185612d09565b9350611f7b83612ba5565b8060005b83811015611fb357611f9082612f36565b611f9a8882611df8565b9750611fa583612cae565b925050600181019050611f7f565b5085935050505092915050565b6000611fcb82612c54565b611fd58185612d2b565b935083602082028501611fe785612bba565b8060005b8581101561202357848403895281516120048582611e10565b945061200f83612cbb565b925060208a01995050600181019050611feb565b50829750879550505050505092915050565b600061204082612c5f565b61204a8185612d2b565b93508360208202850161205c85612bca565b8060005b85811015612097578484038952816120788582611e24565b945061208383612cc8565b925060208a01995050600181019050612060565b50829750879550505050505092915050565b60006120b482612c6a565b6120be8185612d3c565b9350836020820285016120d085612bdf565b8060005b8581101561210c57848403895281516120ed8582611e38565b94506120f883612cd5565b925060208a019950506001810190506120d4565b50829750879550505050505092915050565b600061212982612c75565b6121338185612d3c565b93508360208202850161214585612bef565b8060005b85811015612180578484038952816121618582611e4c565b945061216c83612ce2565b925060208a01995050600181019050612149565b50829750879550505050505092915050565b600061219d82612c80565b6121a78185612d4d565b93506121b283612c04565b8060005b838110156121e35781516121ca8882611e60565b97506121d583612cef565b9250506001810190506121b6565b5085935050505092915050565b60006121fb82612c80565b6122058185612d5e565b935061221083612c04565b8060005b838110156122415781516122288882611e60565b975061223383612cef565b925050600181019050612214565b5085935050505092915050565b600061225982612c80565b6122638185612d6f565b935061226e83612c04565b8060005b8381101561229f5781516122868882611e78565b975061229183612cef565b925050600181019050612272565b5085935050505092915050565b60006122b782612c8b565b6122c18185612d4d565b93506122cc83612c14565b8060005b83811015612304576122e182612f49565b6122eb8882611e60565b97506122f683612cfc565b9250506001810190506122d0565b5085935050505092915050565b600061231c82612c8b565b6123268185612d6f565b935061233183612c14565b8060005b838110156123695761234682612f49565b6123508882611e78565b975061235b83612cfc565b925050600181019050612335565b5085935050505092915050565b61237f81612df5565b82525050565b61238e81612df5565b82525050565b61239d81612e01565b82525050565b6123ac81612e01565b82525050565b60006123be8385612d91565b93506123cb838584612e8a565b6123d483612f5c565b840190509392505050565b60006123ea82612c96565b6123f48185612d80565b9350612404818560208601612e99565b61240d81612f5c565b840191505092915050565b600081546001811660008114612435576001811461245b5761249f565b607f60028304166124468187612d80565b955060ff19831686526020860193505061249f565b600282046124698187612d80565b955061247485612c29565b60005b8281101561249657815481890152600182019150602081019050612477565b80880195505050505b505092915050565b6124b081612e42565b82525050565b6124bf81612e66565b82525050565b6000610180830160008301516124de6000860182612394565b50602083015184820360208601526124f682826123df565b915050604083015184820360408601526125108282611e9f565b9150506060830151848203606086015261252a8282611e9f565b915050608083015184820360808601526125448282612192565b91505060a083015184820360a086015261255e8282611fc0565b91505060c083015184820360c086015261257882826120a9565b91505060e083015161258d60e0860182612376565b506101008301516125a261010086018261280d565b506101208301516125b7610120860182611e90565b506101408301518482036101408601526125d18282612192565b9150506101608301516125e861016086018261280d565b508091505092915050565b60006101808301600080840154905061260b81612f00565b6126186000870182612394565b5060018401858303602087015261262f8382612418565b9250506002840185830360408701526126488382611f5b565b9250506003840185830360608701526126618382611f5b565b92505060048401858303608087015261267a83826122ac565b9250506005840185830360a08701526126938382612035565b9250506006840185830360c08701526126ac838261211e565b925050600784015490506126bf81612ee6565b6126cc60e0870182612376565b50600884015490506126dd81612f1a565b6126eb61010087018261280d565b50600984015490506126fc81612ecc565b61270a610120870182611e90565b50600a840185830361014087015261272283826122ac565b925050600b840154905061273581612f1a565b61274361016087018261280d565b50819250505092915050565b8082525050565b600060608301600083015161276e6000860182611e90565b5060208301516127816020860182612394565b50604083015184820360408601526127998282612192565b9150508091505092915050565b60006060830160008084015490506127bd81612ecc565b6127ca6000870182611e90565b50600184015490506127db81612f00565b6127e86020870182612394565b506002840185830360408701526127ff83826122ac565b925050819250505092915050565b61281681612e2b565b82525050565b61282581612e2b565b82525050565b61283481612e2b565b82525050565b61284381612e2b565b82525050565b61285281612e35565b82525050565b600060408201905081810360008301526128728185611efd565b9050818103602083015261288681846121f0565b90509392505050565b60006020820190506128a46000830184612385565b92915050565b600060208201905081810360008301526128c481846124c5565b905092915050565b60006020820190506128e1600083018461274f565b92915050565b60006060820190506128fc600083018661274f565b612909602083018561282b565b818103604083015261291b818461224e565b9050949350505050565b600060608201905061293a600083018661274f565b612947602083018561282b565b81810360408301526129598184612311565b9050949350505050565b600060c082019050612978600083018a61274f565b612985602083018961282b565b61299260408301886123a3565b81810360608301526129a58186886123b2565b90506129b460808301856124b6565b6129c160a0830184612849565b98975050505050505050565b60006060820190506129e2600083018661274f565b6129ef602083018561282b565b6129fc60408301846124a7565b949350505050565b600060c082019050612a19600083018961274f565b612a26602083018861282b565b612a3360408301876124a7565b612a4060608301866124b6565b612a4d6080830185612849565b612a5a60a083018461282b565b979650505050505050565b6000602082019050612a7a600083018461281c565b92915050565b6000604082019050612a95600083018561281c565b8181036020830152612aa781846125f3565b90509392505050565b6000604051905081810181811067ffffffffffffffff82111715612ad757612ad6612f34565b5b8060405250919050565b600067ffffffffffffffff821115612afc57612afb612f34565b5b602082029050602081019050919050565b600067ffffffffffffffff821115612b2857612b27612f34565b5b602082029050602081019050919050565b600067ffffffffffffffff821115612b5457612b53612f34565b5b602082029050602081019050919050565b600067ffffffffffffffff821115612b8057612b7f612f34565b5b601f19601f8301169050602081019050919050565b6000819050602082019050919050565b60008190508160005260206000209050919050565b6000819050602082019050919050565b60008190508160005260206000209050919050565b6000819050602082019050919050565b60008190508160005260206000209050919050565b6000819050602082019050919050565b60008190508160005260206000209050919050565b60008190508160005260206000209050919050565b600081519050919050565b600081549050919050565b600081519050919050565b600081549050919050565b600081519050919050565b600081549050919050565b600081519050919050565b600081549050919050565b600081519050919050565b6000602082019050919050565b6000600182019050919050565b6000602082019050919050565b6000600182019050919050565b6000602082019050919050565b6000600382019050919050565b6000602082019050919050565b6000600182019050919050565b600082825260208201905092915050565b600082825260208201905092915050565b600082825260208201905092915050565b600082825260208201905092915050565b600082825260208201905092915050565b600082825260208201905092915050565b600082825260208201905092915050565b600082825260208201905092915050565b600082825260208201905092915050565b600073ffffffffffffffffffffffffffffffffffffffff82169050919050565b600060ff82169050919050565b6000819050919050565b6000819050919050565b6000612dee82612e0b565b9050919050565b60008115159050919050565b6000819050919050565b600073ffffffffffffffffffffffffffffffffffffffff82169050919050565b6000819050919050565b600060ff82169050919050565b6000612e4d82612e54565b9050919050565b6000612e5f82612e0b565b9050919050565b6000612e7182612e78565b9050919050565b6000612e8382612e0b565b9050919050565b82818337600083830152505050565b60005b83811015612eb7578082015181840152602081019050612e9c565b83811115612ec6576000848401525b50505050565b6000612edf612eda83612f6d565b612da2565b9050919050565b6000612ef9612ef483612f6d565b612dc2565b9050919050565b6000612f13612f0e83612f6d565b612dcf565b9050919050565b6000612f2d612f2883612f6d565b612dd9565b9050919050565bfe5b6000612f428254612ecc565b9050919050565b6000612f558254612f1a565b9050919050565b6000601f19601f8301169050919050565b60008160001c9050919050565b612f8381612de3565b8114612f8e57600080fd5b50565b612f9a81612df5565b8114612fa557600080fd5b50565b612fb181612e01565b8114612fbc57600080fd5b50565b612fc881612e2b565b8114612fd357600080fd5b5056fea26469706673582212202a660f3ecba82e63b1c9e8dface8bddf6d5d2dbcf05d55880047c1669dbca13164736f6c63430007040033",
  "deployedBytecode": "0x608060405234801561001057600080fd5b50600436106100b45760003560e01c806382afd23b1161007157806382afd23b146101b3578063aee40d12146101e3578063b88f4052146101ff578063c526656c1461021b578063e68defac1461024c578063eb05cf511461027c576100b4565b806301ff62ab146100b957806317f491ac146100e957806326987b60146101195780632ab23088146101375780633d46b819146101675780634830b0e814610197575b600080fd5b6100d360048036038101906100ce9190611cfc565b610298565b6040516100e0919061288f565b60405180910390f35b61010360048036038101906100fe9190611caa565b610346565b6040516101109190612a65565b60405180910390f35b610121610535565b60405161012e9190612a65565b60405180910390f35b610151600480360381019061014c9190611ba9565b61053b565b60405161015e9190612a65565b60405180910390f35b610181600480360381019061017c9190611caa565b61065e565b60405161018e9190612a65565b60405180910390f35b6101b160048036038101906101ac9190611caa565b61076f565b005b6101cd60048036038101906101c89190611caa565b610916565b6040516101da919061288f565b60405180910390f35b6101fd60048036038101906101f89190611d8c565b610940565b005b61021960048036038101906102149190611d38565b610aea565b005b61023560048036038101906102309190611cfc565b610c67565b604051610243929190612858565b60405180910390f35b61026660048036038101906102619190611caa565b610d7e565b60405161027391906128aa565b60405180910390f35b61029660048036038101906102919190611caa565b611322565b005b6000828060005411610312576040517f08c379a00000000000000000000000000000000000000000000000000000000081526004018080602001828103825260168152602001807f496e646578206e6f7420696e7374616e7469617465640000000000000000000081525060200191505060405180910390fd5b600060066000868152602001908152602001600020905061033c848261154690919063ffffffff16565b9250505092915050565b60008180600054116103c0576040517f08c379a00000000000000000000000000000000000000000000000000000000081526004018080602001828103825260168152602001807f496e646578206e6f7420696e7374616e7469617465640000000000000000000081525060200191505060405180910390fd5b6103c981610916565b61043b576040517f08c379a000000000000000000000000000000000000000000000000000000000815260040180806020018281038252600e8152602001807f496e64657820696e61637469766500000000000000000000000000000000000081525060200191505060405180910390fd5b60006006600085815260200190815260200160002090508073__$2a307e3733810a923a91a6f7005edd72dc$__6315093ea2909186600360009054906101000a900473ffffffffffffffffffffffffffffffffffffffff16600460009054906101000a900473ffffffffffffffffffffffffffffffffffffffff16600a6005546040518763ffffffff1660e01b81526004016104dc96959493929190612a04565b60206040518083038186803b1580156104f457600080fd5b505af4158015610508573d6000803e3d6000fd5b505050506040513d601f19601f8201168201806040525081019061052c9190611cd3565b92505050919050565b60005481565b6000806006600080548152602001908152602001600020905087816000018190555086816001019080519060200190610575929190611635565b508581600201908051906020019061058e9291906116c3565b50848160030190805190602001906105a79291906116c3565b50838160040190805190602001906105c092919061174d565b50828160050190805190602001906105d992919061179a565b507ffdc1977e3a07952630c899cd042a8bedae0115fe5d439a9a07a1443b94801a366000548260405161060d929190612a80565b60405180910390a160018060008054815260200190815260200160002060006101000a81548160ff021916908315150217905550600080815480929190600101919050559150509695505050505050565b60008180600054116106d8576040517f08c379a00000000000000000000000000000000000000000000000000000000081526004018080602001828103825260168152602001807f496e646578206e6f7420696e7374616e7469617465640000000000000000000081525060200191505060405180910390fd5b6106e181610916565b610753576040517f08c379a000000000000000000000000000000000000000000000000000000000815260040180806020018281038252600e8152602001807f496e64657820696e61637469766500000000000000000000000000000000000081525060200191505060405180910390fd5b6002600084815260200190815260200160002054915050919050565b8080600054116107e7576040517f08c379a00000000000000000000000000000000000000000000000000000000081526004018080602001828103825260168152602001807f496e646578206e6f7420696e7374616e7469617465640000000000000000000081525060200191505060405180910390fd5b6107f081610916565b610862576040517f08c379a000000000000000000000000000000000000000000000000000000000815260040180806020018281038252600e8152602001807f496e64657820696e61637469766500000000000000000000000000000000000081525060200191505060405180910390fd5b60006006600084815260200190815260200160002090508073__$2a307e3733810a923a91a6f7005edd72dc$__63b5701feb909185600360009054906101000a900473ffffffffffffffffffffffffffffffffffffffff166040518463ffffffff1660e01b81526004016108d8939291906129cd565b60006040518083038186803b1580156108f057600080fd5b505af4158015610904573d6000803e3d6000fd5b50505050610911836115ed565b505050565b60006001600083815260200190815260200160002060009054906101000a900460ff169050919050565b8380600054116109b8576040517f08c379a00000000000000000000000000000000000000000000000000000000081526004018080602001828103825260168152602001807f496e646578206e6f7420696e7374616e7469617465640000000000000000000081525060200191505060405180910390fd5b6109c181610916565b610a33576040517f08c379a000000000000000000000000000000000000000000000000000000000815260040180806020018281038252600e8152602001807f496e64657820696e61637469766500000000000000000000000000000000000081525060200191505060405180910390fd5b60006006600087815260200190815260200160002090508073__$2a307e3733810a923a91a6f7005edd72dc$__6309141f46909188888888600460009054906101000a900473ffffffffffffffffffffffffffffffffffffffff16600a6040518863ffffffff1660e01b8152600401610ab29796959493929190612963565b60006040518083038186803b158015610aca57600080fd5b505af4158015610ade573d6000803e3d6000fd5b50505050505050505050565b818060005411610b62576040517f08c379a00000000000000000000000000000000000000000000000000000000081526004018080602001828103825260168152602001807f496e646578206e6f7420696e7374616e7469617465640000000000000000000081525060200191505060405180910390fd5b610b6b81610916565b610bdd576040517f08c379a000000000000000000000000000000000000000000000000000000000815260040180806020018281038252600e8152602001807f496e64657820696e61637469766500000000000000000000000000000000000081525060200191505060405180910390fd5b60006006600085815260200190815260200160002090508073__$2a307e3733810a923a91a6f7005edd72dc$__630cdd31bc909186866040518463ffffffff1660e01b8152600401610c31939291906128e7565b60006040518083038186803b158015610c4957600080fd5b505af4158015610c5d573d6000803e3d6000fd5b5050505050505050565b606080838060005411610ce2576040517f08c379a00000000000000000000000000000000000000000000000000000000081526004018080602001828103825260168152602001807f496e646578206e6f7420696e7374616e7469617465640000000000000000000081525060200191505060405180910390fd5b600067ffffffffffffffff81118015610cfa57600080fd5b50604051908082528060200260200182016040528015610d295781602001602082028036833780820191505090505b50600067ffffffffffffffff81118015610d4257600080fd5b50604051908082528060200260200182016040528015610d715781602001602082028036833780820191505090505b5092509250509250929050565b610d866117fa565b818060005411610dfe576040517f08c379a00000000000000000000000000000000000000000000000000000000081526004018080602001828103825260168152602001807f496e646578206e6f7420696e7374616e7469617465640000000000000000000081525060200191505060405180910390fd5b600660008481526020019081526020016000206040518061018001604052908160008201548152602001600182018054600181600116156101000203166002900480601f016020809104026020016040519081016040528092919081815260200182805460018160011615610100020316600290048015610ec05780601f10610e9557610100808354040283529160200191610ec0565b820191906000526020600020905b815481529060010190602001808311610ea357829003601f168201915b5050505050815260200160028201805480602002602001604051908101604052809291908181526020018280548015610f4e57602002820191906000526020600020905b8160009054906101000a900473ffffffffffffffffffffffffffffffffffffffff1673ffffffffffffffffffffffffffffffffffffffff1681526020019060010190808311610f04575b5050505050815260200160038201805480602002602001604051908101604052809291908181526020018280548015610fdc57602002820191906000526020600020905b8160009054906101000a900473ffffffffffffffffffffffffffffffffffffffff1673ffffffffffffffffffffffffffffffffffffffff1681526020019060010190808311610f92575b505050505081526020016004820180548060200260200160405190810160405280929190818152602001828054801561103457602002820191906000526020600020905b815481526020019060010190808311611020575b5050505050815260200160058201805480602002602001604051908101604052809291908181526020016000905b8282101561111e578382906000526020600020018054600181600116156101000203166002900480601f01602080910402602001604051908101604052809291908181526020018280546001816001161561010002031660029004801561110a5780601f106110df5761010080835404028352916020019161110a565b820191906000526020600020905b8154815290600101906020018083116110ed57829003601f168201915b505050505081526020019060010190611062565b50505050815260200160068201805480602002602001604051908101604052809291908181526020016000905b8282101561123557838290600052602060002090600302016040518060600160405290816000820160009054906101000a900473ffffffffffffffffffffffffffffffffffffffff1673ffffffffffffffffffffffffffffffffffffffff1673ffffffffffffffffffffffffffffffffffffffff168152602001600182015481526020016002820180548060200260200160405190810160405280929190818152602001828054801561121d57602002820191906000526020600020905b815481526020019060010190808311611209575b5050505050815250508152602001906001019061114b565b5050505081526020016007820160009054906101000a900460ff16151515158152602001600882015481526020016009820160009054906101000a900473ffffffffffffffffffffffffffffffffffffffff1673ffffffffffffffffffffffffffffffffffffffff1673ffffffffffffffffffffffffffffffffffffffff168152602001600a820180548060200260200160405190810160405280929190818152602001828054801561130757602002820191906000526020600020905b8154815260200190600101908083116112f3575b50505050508152602001600b82015481525050915050919050565b80806000541161139a576040517f08c379a00000000000000000000000000000000000000000000000000000000081526004018080602001828103825260168152602001807f496e646578206e6f7420696e7374616e7469617465640000000000000000000081525060200191505060405180910390fd5b6113a381610916565b611415576040517f08c379a000000000000000000000000000000000000000000000000000000000815260040180806020018281038252600e8152602001807f496e64657820696e61637469766500000000000000000000000000000000000081525060200191505060405180910390fd5b600060066000848152602001908152602001600020905060008173__$2a307e3733810a923a91a6f7005edd72dc$__63906cc66c90916040518263ffffffff1660e01b815260040161146791906128cc565b60206040518083038186803b15801561147f57600080fd5b505af4158015611493573d6000803e3d6000fd5b505050506040513d601f19601f820116820180604052508101906114b79190611b80565b9050600115158115151415611540578173__$2a307e3733810a923a91a6f7005edd72dc$__63aba4442390918685600a016040518463ffffffff1660e01b815260040161150693929190612925565b60006040518083038186803b15801561151e57600080fd5b505af4158015611532573d6000803e3d6000fd5b5050505061153f846115ed565b5b50505050565b600080600090505b83600301805490508110156115e15783600301818154811061156c57fe5b9060005260206000200160009054906101000a900473ffffffffffffffffffffffffffffffffffffffff1673ffffffffffffffffffffffffffffffffffffffff168373ffffffffffffffffffffffffffffffffffffffff1614156115d45760019150506115e7565b808060010191505061154e565b50600090505b92915050565b60006001600083815260200190815260200160002060006101000a81548160ff0219169083151502179055506000600260008381526020019081526020016000208190555050565b828054600181600116156101000203166002900490600052602060002090601f01602090048101928261166b57600085556116b2565b82601f1061168457805160ff19168380011785556116b2565b828001600101855582156116b2579182015b828111156116b1578251825591602001919060010190611696565b5b5090506116bf9190611876565b5090565b82805482825590600052602060002090810192821561173c579160200282015b8281111561173b5782518260006101000a81548173ffffffffffffffffffffffffffffffffffffffff021916908373ffffffffffffffffffffffffffffffffffffffff160217905550916020019190600101906116e3565b5b5090506117499190611876565b5090565b828054828255906000526020600020908101928215611789579160200282015b8281111561178857825182559160200191906001019061176d565b5b5090506117969190611876565b5090565b8280548282559060005260206000209081019282156117e9579160200282015b828111156117e85782518290805190602001906117d8929190611635565b50916020019190600101906117ba565b5b5090506117f69190611893565b5090565b6040518061018001604052806000801916815260200160608152602001606081526020016060815260200160608152602001606081526020016060815260200160001515815260200160008152602001600073ffffffffffffffffffffffffffffffffffffffff16815260200160608152602001600081525090565b5b8082111561188f576000816000905550600101611877565b5090565b5b808211156118b357600081816118aa91906118b7565b50600101611894565b5090565b50805460018160011615610100020316600290046000825580601f106118dd57506118fc565b601f0160209004906000526020600020908101906118fb9190611876565b5b50565b60008135905061190e81612f7a565b92915050565b600082601f83011261192557600080fd5b813561193861193382612ae1565b612ab0565b9150818183526020840193506020810190508385602084028201111561195d57600080fd5b60005b8381101561198d578161197388826118ff565b845260208401935060208301925050600181019050611960565b5050505092915050565b600082601f8301126119a857600080fd5b81356119bb6119b682612b0d565b612ab0565b9150818183526020840193506020810190508360005b83811015611a0157813586016119e78882611b02565b8452602084019350602083019250506001810190506119d1565b5050505092915050565b600082601f830112611a1c57600080fd5b8135611a2f611a2a82612b39565b612ab0565b91508181835260208401935060208101905083856020840282011115611a5457600080fd5b60005b83811015611a845781611a6a8882611b56565b845260208401935060208301925050600181019050611a57565b5050505092915050565b600081519050611a9d81612f91565b92915050565b600081359050611ab281612fa8565b92915050565b60008083601f840112611aca57600080fd5b8235905067ffffffffffffffff811115611ae357600080fd5b602083019150836001820283011115611afb57600080fd5b9250929050565b600082601f830112611b1357600080fd5b8135611b26611b2182612b65565b612ab0565b91508082526020830160208301858383011115611b4257600080fd5b611b4d838284612e8a565b50505092915050565b600081359050611b6581612fbf565b92915050565b600081519050611b7a81612fbf565b92915050565b600060208284031215611b9257600080fd5b6000611ba084828501611a8e565b91505092915050565b60008060008060008060c08789031215611bc257600080fd5b6000611bd089828a01611aa3565b965050602087013567ffffffffffffffff811115611bed57600080fd5b611bf989828a01611b02565b955050604087013567ffffffffffffffff811115611c1657600080fd5b611c2289828a01611914565b945050606087013567ffffffffffffffff811115611c3f57600080fd5b611c4b89828a01611914565b935050608087013567ffffffffffffffff811115611c6857600080fd5b611c7489828a01611a0b565b92505060a087013567ffffffffffffffff811115611c9157600080fd5b611c9d89828a01611997565b9150509295509295509295565b600060208284031215611cbc57600080fd5b6000611cca84828501611b56565b91505092915050565b600060208284031215611ce557600080fd5b6000611cf384828501611b6b565b91505092915050565b60008060408385031215611d0f57600080fd5b6000611d1d85828601611b56565b9250506020611d2e858286016118ff565b9150509250929050565b60008060408385031215611d4b57600080fd5b6000611d5985828601611b56565b925050602083013567ffffffffffffffff811115611d7657600080fd5b611d8285828601611a0b565b9150509250929050565b60008060008060608587031215611da257600080fd5b6000611db087828801611b56565b9450506020611dc187828801611aa3565b935050604085013567ffffffffffffffff811115611dde57600080fd5b611dea87828801611ab8565b925092505092959194509250565b6000611e048383611e90565b60208301905092915050565b6000611e1c83836123df565b905092915050565b6000611e308383612418565b905092915050565b6000611e448383612756565b905092915050565b6000611e5883836127a6565b905092915050565b6000611e6c838361280d565b60208301905092915050565b6000611e84838361283a565b60208301905092915050565b611e9981612de3565b82525050565b6000611eaa82612c3e565b611eb48185612d09565b9350611ebf83612b95565b8060005b83811015611ef0578151611ed78882611df8565b9750611ee283612ca1565b925050600181019050611ec3565b5085935050505092915050565b6000611f0882612c3e565b611f128185612d1a565b9350611f1d83612b95565b8060005b83811015611f4e578151611f358882611df8565b9750611f4083612ca1565b925050600181019050611f21565b5085935050505092915050565b6000611f6682612c49565b611f708185612d09565b9350611f7b83612ba5565b8060005b83811015611fb357611f9082612f36565b611f9a8882611df8565b9750611fa583612cae565b925050600181019050611f7f565b5085935050505092915050565b6000611fcb82612c54565b611fd58185612d2b565b935083602082028501611fe785612bba565b8060005b8581101561202357848403895281516120048582611e10565b945061200f83612cbb565b925060208a01995050600181019050611feb565b50829750879550505050505092915050565b600061204082612c5f565b61204a8185612d2b565b93508360208202850161205c85612bca565b8060005b85811015612097578484038952816120788582611e24565b945061208383612cc8565b925060208a01995050600181019050612060565b50829750879550505050505092915050565b60006120b482612c6a565b6120be8185612d3c565b9350836020820285016120d085612bdf565b8060005b8581101561210c57848403895281516120ed8582611e38565b94506120f883612cd5565b925060208a019950506001810190506120d4565b50829750879550505050505092915050565b600061212982612c75565b6121338185612d3c565b93508360208202850161214585612bef565b8060005b85811015612180578484038952816121618582611e4c565b945061216c83612ce2565b925060208a01995050600181019050612149565b50829750879550505050505092915050565b600061219d82612c80565b6121a78185612d4d565b93506121b283612c04565b8060005b838110156121e35781516121ca8882611e60565b97506121d583612cef565b9250506001810190506121b6565b5085935050505092915050565b60006121fb82612c80565b6122058185612d5e565b935061221083612c04565b8060005b838110156122415781516122288882611e60565b975061223383612cef565b925050600181019050612214565b5085935050505092915050565b600061225982612c80565b6122638185612d6f565b935061226e83612c04565b8060005b8381101561229f5781516122868882611e78565b975061229183612cef565b925050600181019050612272565b5085935050505092915050565b60006122b782612c8b565b6122c18185612d4d565b93506122cc83612c14565b8060005b83811015612304576122e182612f49565b6122eb8882611e60565b97506122f683612cfc565b9250506001810190506122d0565b5085935050505092915050565b600061231c82612c8b565b6123268185612d6f565b935061233183612c14565b8060005b838110156123695761234682612f49565b6123508882611e78565b975061235b83612cfc565b925050600181019050612335565b5085935050505092915050565b61237f81612df5565b82525050565b61238e81612df5565b82525050565b61239d81612e01565b82525050565b6123ac81612e01565b82525050565b60006123be8385612d91565b93506123cb838584612e8a565b6123d483612f5c565b840190509392505050565b60006123ea82612c96565b6123f48185612d80565b9350612404818560208601612e99565b61240d81612f5c565b840191505092915050565b600081546001811660008114612435576001811461245b5761249f565b607f60028304166124468187612d80565b955060ff19831686526020860193505061249f565b600282046124698187612d80565b955061247485612c29565b60005b8281101561249657815481890152600182019150602081019050612477565b80880195505050505b505092915050565b6124b081612e42565b82525050565b6124bf81612e66565b82525050565b6000610180830160008301516124de6000860182612394565b50602083015184820360208601526124f682826123df565b915050604083015184820360408601526125108282611e9f565b9150506060830151848203606086015261252a8282611e9f565b915050608083015184820360808601526125448282612192565b91505060a083015184820360a086015261255e8282611fc0565b91505060c083015184820360c086015261257882826120a9565b91505060e083015161258d60e0860182612376565b506101008301516125a261010086018261280d565b506101208301516125b7610120860182611e90565b506101408301518482036101408601526125d18282612192565b9150506101608301516125e861016086018261280d565b508091505092915050565b60006101808301600080840154905061260b81612f00565b6126186000870182612394565b5060018401858303602087015261262f8382612418565b9250506002840185830360408701526126488382611f5b565b9250506003840185830360608701526126618382611f5b565b92505060048401858303608087015261267a83826122ac565b9250506005840185830360a08701526126938382612035565b9250506006840185830360c08701526126ac838261211e565b925050600784015490506126bf81612ee6565b6126cc60e0870182612376565b50600884015490506126dd81612f1a565b6126eb61010087018261280d565b50600984015490506126fc81612ecc565b61270a610120870182611e90565b50600a840185830361014087015261272283826122ac565b925050600b840154905061273581612f1a565b61274361016087018261280d565b50819250505092915050565b8082525050565b600060608301600083015161276e6000860182611e90565b5060208301516127816020860182612394565b50604083015184820360408601526127998282612192565b9150508091505092915050565b60006060830160008084015490506127bd81612ecc565b6127ca6000870182611e90565b50600184015490506127db81612f00565b6127e86020870182612394565b506002840185830360408701526127ff83826122ac565b925050819250505092915050565b61281681612e2b565b82525050565b61282581612e2b565b82525050565b61283481612e2b565b82525050565b61284381612e2b565b82525050565b61285281612e35565b82525050565b600060408201905081810360008301526128728185611efd565b9050818103602083015261288681846121f0565b90509392505050565b60006020820190506128a46000830184612385565b92915050565b600060208201905081810360008301526128c481846124c5565b905092915050565b60006020820190506128e1600083018461274f565b92915050565b60006060820190506128fc600083018661274f565b612909602083018561282b565b818103604083015261291b818461224e565b9050949350505050565b600060608201905061293a600083018661274f565b612947602083018561282b565b81810360408301526129598184612311565b9050949350505050565b600060c082019050612978600083018a61274f565b612985602083018961282b565b61299260408301886123a3565b81810360608301526129a58186886123b2565b90506129b460808301856124b6565b6129c160a0830184612849565b98975050505050505050565b60006060820190506129e2600083018661274f565b6129ef602083018561282b565b6129fc60408301846124a7565b949350505050565b600060c082019050612a19600083018961274f565b612a26602083018861282b565b612a3360408301876124a7565b612a4060608301866124b6565b612a4d6080830185612849565b612a5a60a083018461282b565b979650505050505050565b6000602082019050612a7a600083018461281c565b92915050565b6000604082019050612a95600083018561281c565b8181036020830152612aa781846125f3565b90509392505050565b6000604051905081810181811067ffffffffffffffff82111715612ad757612ad6612f34565b5b8060405250919050565b600067ffffffffffffffff821115612afc57612afb612f34565b5b602082029050602081019050919050565b600067ffffffffffffffff821115612b2857612b27612f34565b5b602082029050602081019050919050565b600067ffffffffffffffff821115612b5457612b53612f34565b5b602082029050602081019050919050565b600067ffffffffffffffff821115612b8057612b7f612f34565b5b601f19601f8301169050602081019050919050565b6000819050602082019050919050565b60008190508160005260206000209050919050565b6000819050602082019050919050565b60008190508160005260206000209050919050565b6000819050602082019050919050565b60008190508160005260206000209050919050565b6000819050602082019050919050565b60008190508160005260206000209050919050565b60008190508160005260206000209050919050565b600081519050919050565b600081549050919050565b600081519050919050565b600081549050919050565b600081519050919050565b600081549050919050565b600081519050919050565b600081549050919050565b600081519050919050565b6000602082019050919050565b6000600182019050919050565b6000602082019050919050565b6000600182019050919050565b6000602082019050919050565b6000600382019050919050565b6000602082019050919050565b6000600182019050919050565b600082825260208201905092915050565b600082825260208201905092915050565b600082825260208201905092915050565b600082825260208201905092915050565b600082825260208201905092915050565b600082825260208201905092915050565b600082825260208201905092915050565b600082825260208201905092915050565b600082825260208201905092915050565b600073ffffffffffffffffffffffffffffffffffffffff82169050919050565b600060ff82169050919050565b6000819050919050565b6000819050919050565b6000612dee82612e0b565b9050919050565b60008115159050919050565b6000819050919050565b600073ffffffffffffffffffffffffffffffffffffffff82169050919050565b6000819050919050565b600060ff82169050919050565b6000612e4d82612e54565b9050919050565b6000612e5f82612e0b565b9050919050565b6000612e7182612e78565b9050919050565b6000612e8382612e0b565b9050919050565b82818337600083830152505050565b60005b83811015612eb7578082015181840152602081019050612e9c565b83811115612ec6576000848401525b50505050565b6000612edf612eda83612f6d565b612da2565b9050919050565b6000612ef9612ef483612f6d565b612dc2565b9050919050565b6000612f13612f0e83612f6d565b612dcf565b9050919050565b6000612f2d612f2883612f6d565b612dd9565b9050919050565bfe5b6000612f428254612ecc565b9050919050565b6000612f558254612f1a565b9050919050565b6000601f19601f8301169050919050565b60008160001c9050919050565b612f8381612de3565b8114612f8e57600080fd5b50565b612f9a81612df5565b8114612fa557600080fd5b50565b612fb181612e01565b8114612fbc57600080fd5b50565b612fc881612e2b565b8114612fd357600080fd5b5056fea26469706673582212202a660f3ecba82e63b1c9e8dface8bddf6d5d2dbcf05d55880047c1669dbca13164736f6c63430007040033",
  "libraries": {
    "TurnBasedGameContext": "0x5ECe6b2cb88dE6d72aaE9F2bA1FBffACe19Fb18A"
  },
  "devdoc": {
    "kind": "dev",
    "methods": {
      "applyVerificationResult(uint256)": {
        "params": {
          "_index": "index identifying the game"
        }
      },
      "challengeGame(uint256)": {
        "params": {
          "_index": "index identifying the game"
        },
        "returns": {
          "_0": "index of the Descartes computation"
        }
      },
      "claimResult(uint256,uint256[])": {
        "params": {
          "_fundsShare": "result of the game given as a distribution of the funds previously locked",
          "_index": "index identifying the game"
        }
      },
      "confirmResult(uint256)": {
        "params": {
          "_index": "index identifying the game"
        }
      },
      "constructor": {
        "params": {
          "descartesAddress": "address of the Descartes contract",
          "loggerAddress": "address of the Logger contract"
        }
      },
      "getContext(uint256)": {
        "params": {
          "_index": "index identifying the game"
        },
        "returns": {
          "_0": "GameContext struct for the specified game"
        }
      },
      "getSubInstances(uint256,address)": {
        "params": {
          "_index": "index identifying the game"
        }
      },
      "isConcerned(uint256,address)": {
        "params": {
          "_index": "index identifying the game",
          "_player": "a player's address"
        },
        "returns": {
          "_0": "true if the player is concerned about the game, false otherwise"
        }
      },
      "startGame(bytes32,bytes,address[],address[],uint256[],bytes[])": {
        "params": {
          "_gameMetadata": "game-specific initial metadata/parameters",
          "_gameTemplateHash": "template hash for the Cartesi Machine computation that verifies the game (identifies the game computation/logic)",
          "_playerFunds": "funds/balances that each player is bringing into the game",
          "_playerInfos": "game-specific information for each player",
          "_players": "addresses of the players involved",
          "_validators": "addresses of the validator nodes that will run a Descartes verification should it be needed"
        },
        "returns": {
          "_0": "index of the game instance"
        }
      },
      "submitTurn(uint256,bytes32,bytes)": {
        "params": {
          "_data": "game-specific turn data (array of 64-bit words)",
          "_index": "index identifying the game",
          "_stateHash": "game state for which the turn applies"
        }
      }
    },
    "title": "TurnBasedGame",
    "version": 1
  },
  "userdoc": {
    "kind": "user",
    "methods": {
      "applyVerificationResult(uint256)": {
        "notice": "Applies the result of a game verified by Descartes, transferring funds according to the Descartes computation output"
      },
      "challengeGame(uint256)": {
        "notice": "Challenges game state, triggering a verification by a Descartes computation"
      },
      "claimResult(uint256,uint256[])": {
        "notice": "Claims game has ended with the provided result (share of locked funds)"
      },
      "confirmResult(uint256)": {
        "notice": "Confirms game results previously claimed"
      },
      "constructor": {
        "notice": "Constructor"
      },
      "getContext(uint256)": {
        "notice": "Returns game context"
      },
      "getSubInstances(uint256,address)": {
        "notice": "Retrieves sub-instances of the game (required method for Instantiator)."
      },
      "isConcerned(uint256,address)": {
        "notice": "Indicates whether a given player is concerned about a game"
      },
      "startGame(bytes32,bytes,address[],address[],uint256[],bytes[])": {
        "notice": "Starts a new game"
      },
      "submitTurn(uint256,bytes32,bytes)": {
        "notice": "Submits a new turn for a given game"
      }
    },
    "notice": "Generic contract for handling turn-based games validated by Descartes computations",
    "version": 1
  },
  "storageLayout": {
    "storage": [
      {
        "astId": 674,
        "contract": "contracts/TurnBasedGame.sol:TurnBasedGame",
        "label": "currentIndex",
        "offset": 0,
        "slot": "0",
        "type": "t_uint256"
      },
      {
        "astId": 678,
        "contract": "contracts/TurnBasedGame.sol:TurnBasedGame",
        "label": "active",
        "offset": 0,
        "slot": "1",
        "type": "t_mapping(t_uint256,t_bool)"
      },
      {
        "astId": 682,
        "contract": "contracts/TurnBasedGame.sol:TurnBasedGame",
        "label": "nonce",
        "offset": 0,
        "slot": "2",
        "type": "t_mapping(t_uint256,t_uint256)"
      },
      {
        "astId": 1168,
        "contract": "contracts/TurnBasedGame.sol:TurnBasedGame",
        "label": "descartes",
        "offset": 0,
        "slot": "3",
        "type": "t_contract(DescartesInterface)86"
      },
      {
        "astId": 1170,
        "contract": "contracts/TurnBasedGame.sol:TurnBasedGame",
        "label": "logger",
        "offset": 0,
        "slot": "4",
        "type": "t_contract(Logger)562"
      },
      {
        "astId": 1172,
        "contract": "contracts/TurnBasedGame.sol:TurnBasedGame",
        "label": "emptyDataLogIndex",
        "offset": 0,
        "slot": "5",
        "type": "t_uint256"
      },
      {
        "astId": 1179,
        "contract": "contracts/TurnBasedGame.sol:TurnBasedGame",
        "label": "instances",
        "offset": 0,
        "slot": "6",
        "type": "t_mapping(t_uint256,t_struct(GameContext)1574_storage)"
      }
    ],
    "types": {
      "t_address": {
        "encoding": "inplace",
        "label": "address",
        "numberOfBytes": "20"
      },
      "t_array(t_address)dyn_storage": {
        "base": "t_address",
        "encoding": "dynamic_array",
        "label": "address[]",
        "numberOfBytes": "32"
      },
      "t_array(t_bytes_storage)dyn_storage": {
        "base": "t_bytes_storage",
        "encoding": "dynamic_array",
        "label": "bytes[]",
        "numberOfBytes": "32"
      },
      "t_array(t_struct(Turn)1543_storage)dyn_storage": {
        "base": "t_struct(Turn)1543_storage",
        "encoding": "dynamic_array",
        "label": "struct Turn[]",
        "numberOfBytes": "32"
      },
      "t_array(t_uint256)dyn_storage": {
        "base": "t_uint256",
        "encoding": "dynamic_array",
        "label": "uint256[]",
        "numberOfBytes": "32"
      },
      "t_bool": {
        "encoding": "inplace",
        "label": "bool",
        "numberOfBytes": "1"
      },
      "t_bytes32": {
        "encoding": "inplace",
        "label": "bytes32",
        "numberOfBytes": "32"
      },
      "t_bytes_storage": {
        "encoding": "bytes",
        "label": "bytes",
        "numberOfBytes": "32"
      },
      "t_contract(DescartesInterface)86": {
        "encoding": "inplace",
        "label": "contract DescartesInterface",
        "numberOfBytes": "20"
      },
      "t_contract(Logger)562": {
        "encoding": "inplace",
        "label": "contract Logger",
        "numberOfBytes": "20"
      },
      "t_mapping(t_uint256,t_bool)": {
        "encoding": "mapping",
        "key": "t_uint256",
        "label": "mapping(uint256 => bool)",
        "numberOfBytes": "32",
        "value": "t_bool"
      },
      "t_mapping(t_uint256,t_struct(GameContext)1574_storage)": {
        "encoding": "mapping",
        "key": "t_uint256",
        "label": "mapping(uint256 => struct GameContext)",
        "numberOfBytes": "32",
        "value": "t_struct(GameContext)1574_storage"
      },
      "t_mapping(t_uint256,t_uint256)": {
        "encoding": "mapping",
        "key": "t_uint256",
        "label": "mapping(uint256 => uint256)",
        "numberOfBytes": "32",
        "value": "t_uint256"
      },
      "t_struct(GameContext)1574_storage": {
        "encoding": "inplace",
        "label": "struct GameContext",
        "members": [
          {
            "astId": 1545,
            "contract": "contracts/TurnBasedGame.sol:TurnBasedGame",
            "label": "gameTemplateHash",
            "offset": 0,
            "slot": "0",
            "type": "t_bytes32"
          },
          {
            "astId": 1547,
            "contract": "contracts/TurnBasedGame.sol:TurnBasedGame",
            "label": "gameMetadata",
            "offset": 0,
            "slot": "1",
            "type": "t_bytes_storage"
          },
          {
            "astId": 1550,
            "contract": "contracts/TurnBasedGame.sol:TurnBasedGame",
            "label": "validators",
            "offset": 0,
            "slot": "2",
            "type": "t_array(t_address)dyn_storage"
          },
          {
            "astId": 1553,
            "contract": "contracts/TurnBasedGame.sol:TurnBasedGame",
            "label": "players",
            "offset": 0,
            "slot": "3",
            "type": "t_array(t_address)dyn_storage"
          },
          {
            "astId": 1556,
            "contract": "contracts/TurnBasedGame.sol:TurnBasedGame",
            "label": "playerFunds",
            "offset": 0,
            "slot": "4",
            "type": "t_array(t_uint256)dyn_storage"
          },
          {
            "astId": 1559,
            "contract": "contracts/TurnBasedGame.sol:TurnBasedGame",
            "label": "playerInfos",
            "offset": 0,
            "slot": "5",
            "type": "t_array(t_bytes_storage)dyn_storage"
          },
          {
            "astId": 1562,
            "contract": "contracts/TurnBasedGame.sol:TurnBasedGame",
            "label": "turns",
            "offset": 0,
            "slot": "6",
            "type": "t_array(t_struct(Turn)1543_storage)dyn_storage"
          },
          {
            "astId": 1564,
            "contract": "contracts/TurnBasedGame.sol:TurnBasedGame",
            "label": "isDescartesInstantiated",
            "offset": 0,
            "slot": "7",
            "type": "t_bool"
          },
          {
            "astId": 1566,
            "contract": "contracts/TurnBasedGame.sol:TurnBasedGame",
            "label": "descartesIndex",
            "offset": 0,
            "slot": "8",
            "type": "t_uint256"
          },
          {
            "astId": 1568,
            "contract": "contracts/TurnBasedGame.sol:TurnBasedGame",
            "label": "claimer",
            "offset": 0,
            "slot": "9",
            "type": "t_address"
          },
          {
            "astId": 1571,
            "contract": "contracts/TurnBasedGame.sol:TurnBasedGame",
            "label": "claimedFundsShare",
            "offset": 0,
            "slot": "10",
            "type": "t_array(t_uint256)dyn_storage"
          },
          {
            "astId": 1573,
            "contract": "contracts/TurnBasedGame.sol:TurnBasedGame",
            "label": "claimAgreementMask",
            "offset": 0,
            "slot": "11",
            "type": "t_uint256"
          }
        ],
        "numberOfBytes": "384"
      },
      "t_struct(Turn)1543_storage": {
        "encoding": "inplace",
        "label": "struct Turn",
        "members": [
          {
            "astId": 1537,
            "contract": "contracts/TurnBasedGame.sol:TurnBasedGame",
            "label": "player",
            "offset": 0,
            "slot": "0",
            "type": "t_address"
          },
          {
            "astId": 1539,
            "contract": "contracts/TurnBasedGame.sol:TurnBasedGame",
            "label": "stateHash",
            "offset": 0,
            "slot": "1",
            "type": "t_bytes32"
          },
          {
            "astId": 1542,
            "contract": "contracts/TurnBasedGame.sol:TurnBasedGame",
            "label": "dataLogIndices",
            "offset": 0,
            "slot": "2",
            "type": "t_array(t_uint256)dyn_storage"
          }
        ],
        "numberOfBytes": "96"
      },
      "t_uint256": {
        "encoding": "inplace",
        "label": "uint256",
        "numberOfBytes": "32"
      }
    }
  }
}