{
  "address": "0xE87c643343686eED9910D78e007B9ea23132Dd53",
  "abi": [
    {
      "inputs": [
        {
          "internalType": "address",
          "name": "_allowedERC20Address",
          "type": "address"
        },
        {
          "internalType": "address",
          "name": "_descartesAddress",
          "type": "address"
        },
        {
          "internalType": "address",
          "name": "_loggerAddress",
          "type": "address"
        }
      ],
      "stateMutability": "nonpayable",
      "type": "constructor"
    },
    {
      "inputs": [
        {
          "internalType": "uint256",
          "name": "_index",
          "type": "uint256"
        }
      ],
      "name": "applyVerificationResult",
      "outputs": [],
      "stateMutability": "nonpayable",
      "type": "function"
    },
    {
      "inputs": [
        {
          "internalType": "uint256",
          "name": "_index",
          "type": "uint256"
        }
      ],
      "name": "challengeGame",
      "outputs": [
        {
          "internalType": "uint256",
          "name": "",
          "type": "uint256"
        }
      ],
      "stateMutability": "nonpayable",
      "type": "function"
    },
    {
      "inputs": [
        {
          "internalType": "uint256",
          "name": "_index",
          "type": "uint256"
        },
        {
          "internalType": "uint256[]",
          "name": "_fundsShare",
          "type": "uint256[]"
        }
      ],
      "name": "claimResult",
      "outputs": [],
      "stateMutability": "nonpayable",
      "type": "function"
    },
    {
      "inputs": [
        {
          "internalType": "uint256",
          "name": "_index",
          "type": "uint256"
        }
      ],
      "name": "confirmResult",
      "outputs": [],
      "stateMutability": "nonpayable",
      "type": "function"
    },
    {
      "inputs": [],
      "name": "currentIndex",
      "outputs": [
        {
          "internalType": "uint256",
          "name": "",
          "type": "uint256"
        }
      ],
      "stateMutability": "view",
      "type": "function"
    },
    {
      "inputs": [
        {
          "internalType": "uint256",
          "name": "_index",
          "type": "uint256"
        }
      ],
      "name": "getContext",
      "outputs": [
        {
          "components": [
            {
              "internalType": "bytes32",
              "name": "gameTemplateHash",
              "type": "bytes32"
            },
            {
              "internalType": "bytes",
              "name": "gameMetadata",
              "type": "bytes"
            },
            {
              "internalType": "address[]",
              "name": "gameValidators",
              "type": "address[]"
            },
            {
              "internalType": "address",
              "name": "gameERC20Address",
              "type": "address"
            },
            {
              "internalType": "address[]",
              "name": "players",
              "type": "address[]"
            },
            {
              "internalType": "uint256[]",
              "name": "playerFunds",
              "type": "uint256[]"
            },
            {
              "internalType": "bytes[]",
              "name": "playerInfos",
              "type": "bytes[]"
            },
            {
              "components": [
                {
                  "internalType": "address",
                  "name": "player",
                  "type": "address"
                },
                {
                  "internalType": "uint256",
                  "name": "timestamp",
                  "type": "uint256"
                },
                {
                  "internalType": "uint256[]",
                  "name": "dataLogIndices",
                  "type": "uint256[]"
                }
              ],
              "internalType": "struct Turn[]",
              "name": "turns",
              "type": "tuple[]"
            },
            {
              "internalType": "bool",
              "name": "isDescartesInstantiated",
              "type": "bool"
            },
            {
              "internalType": "uint256",
              "name": "descartesIndex",
              "type": "uint256"
            },
            {
              "internalType": "address",
              "name": "claimer",
              "type": "address"
            },
            {
              "internalType": "uint256[]",
              "name": "claimedFundsShare",
              "type": "uint256[]"
            },
            {
              "internalType": "uint256",
              "name": "claimAgreementMask",
              "type": "uint256"
            }
          ],
          "internalType": "struct GameContext",
          "name": "",
          "type": "tuple"
        }
      ],
      "stateMutability": "view",
      "type": "function"
    },
    {
      "inputs": [
        {
          "internalType": "uint256",
          "name": "_index",
          "type": "uint256"
        }
      ],
      "name": "getNonce",
      "outputs": [
        {
          "internalType": "uint256",
          "name": "currentNonce",
          "type": "uint256"
        }
      ],
      "stateMutability": "view",
      "type": "function"
    },
    {
      "inputs": [
        {
          "internalType": "uint256",
          "name": "_index",
          "type": "uint256"
        },
        {
          "internalType": "address",
          "name": "",
          "type": "address"
        }
      ],
      "name": "getState",
      "outputs": [
        {
          "internalType": "bool",
          "name": "_isDescartesInstantiated",
          "type": "bool"
        }
      ],
      "stateMutability": "view",
      "type": "function"
    },
    {
      "inputs": [
        {
          "internalType": "uint256",
          "name": "_index",
          "type": "uint256"
        },
        {
          "internalType": "address",
          "name": "",
          "type": "address"
        }
      ],
      "name": "getSubInstances",
      "outputs": [
        {
          "internalType": "address[]",
          "name": "_addresses",
          "type": "address[]"
        },
        {
          "internalType": "uint256[]",
          "name": "_indices",
          "type": "uint256[]"
        }
      ],
      "stateMutability": "view",
      "type": "function"
    },
    {
      "inputs": [
        {
          "internalType": "uint256",
          "name": "_index",
          "type": "uint256"
        }
      ],
      "name": "isActive",
      "outputs": [
        {
          "internalType": "bool",
          "name": "",
          "type": "bool"
        }
      ],
      "stateMutability": "view",
      "type": "function"
    },
    {
      "inputs": [
        {
          "internalType": "uint256",
          "name": "_index",
          "type": "uint256"
        },
        {
          "internalType": "address",
          "name": "_player",
          "type": "address"
        }
      ],
      "name": "isConcerned",
      "outputs": [
        {
          "internalType": "bool",
          "name": "",
          "type": "bool"
        }
      ],
      "stateMutability": "view",
      "type": "function"
    },
    {
      "inputs": [
        {
          "internalType": "bytes32",
          "name": "_gameTemplateHash",
          "type": "bytes32"
        },
        {
          "internalType": "bytes",
          "name": "_gameMetadata",
          "type": "bytes"
        },
        {
          "internalType": "address[]",
          "name": "_gameValidators",
          "type": "address[]"
        },
        {
          "internalType": "address",
          "name": "_gameERC20Address",
          "type": "address"
        },
        {
          "internalType": "address[]",
          "name": "_players",
          "type": "address[]"
        },
        {
          "internalType": "uint256[]",
          "name": "_playerFunds",
          "type": "uint256[]"
        },
        {
          "internalType": "bytes[]",
          "name": "_playerInfos",
          "type": "bytes[]"
        }
      ],
      "name": "startGame",
      "outputs": [
        {
          "internalType": "uint256",
          "name": "",
          "type": "uint256"
        }
      ],
      "stateMutability": "nonpayable",
      "type": "function"
    },
    {
      "inputs": [
        {
          "internalType": "uint256",
          "name": "_index",
          "type": "uint256"
        },
        {
          "internalType": "uint256",
          "name": "_turnIndex",
          "type": "uint256"
        },
        {
          "internalType": "bytes",
          "name": "_data",
          "type": "bytes"
        }
      ],
      "name": "submitTurn",
      "outputs": [],
      "stateMutability": "nonpayable",
      "type": "function"
    },
    {
      "inputs": [
        {
          "internalType": "contract IERC20",
          "name": "_tokenProvider",
          "type": "address"
        },
        {
          "internalType": "address",
          "name": "_holder",
          "type": "address"
        },
        {
          "internalType": "uint256[]",
          "name": "_playerFunds",
          "type": "uint256[]"
        }
      ],
      "name": "transferTokensToGameAccount",
      "outputs": [],
      "stateMutability": "nonpayable",
      "type": "function"
    }
  ],
  "transactionHash": "0xd6e8b1f17baacfae7c8fc6ed2a451413941b8f8381714ceb597d8cc9291977b0",
  "args": [
    "0x253aC655b7f7bB05c95811f617d4B9B78D3f5956",
    "0xC137b4c2a6019C8c4Af2615219a59A0Bd1afD5DA",
    "0xBf108162392b4cc6bb35b6E197b0F686A6078172"
  ],
  "solcInputHash": "9682768dea776c4c337afaf366f4c424",
  "bytecode": "0x6080604052600080553480156200001557600080fd5b5060405162003c2f38038062003c2f83398181016040528101906200003b91906200030d565b82600360006101000a81548173ffffffffffffffffffffffffffffffffffffffff021916908373ffffffffffffffffffffffffffffffffffffffff16021790555081600460006101000a81548173ffffffffffffffffffffffffffffffffffffffff021916908373ffffffffffffffffffffffffffffffffffffffff16021790555080600560006101000a81548173ffffffffffffffffffffffffffffffffffffffff021916908373ffffffffffffffffffffffffffffffffffffffff1602179055506060600167ffffffffffffffff811180156200011957600080fd5b50604051908082528060200260200182016040528015620001495781602001602082028036833780820191505090505b5090506000600560009054906101000a900473ffffffffffffffffffffffffffffffffffffffff1673ffffffffffffffffffffffffffffffffffffffff16634891ea36600c846040518363ffffffff1660e01b8152600401620001ae9291906200048f565b602060405180830381600087803b158015620001c957600080fd5b505af1158015620001de573d6000803e3d6000fd5b505050506040513d601f19601f8201168201806040525081019062000204919062000363565b9050600560009054906101000a900473ffffffffffffffffffffffffffffffffffffffff1673ffffffffffffffffffffffffffffffffffffffff1663833459bc826040518263ffffffff1660e01b815260040162000263919062000472565b60206040518083038186803b1580156200027c57600080fd5b505afa15801562000291573d6000803e3d6000fd5b505050506040513d601f19601f82011682018060405250810190620002b791906200038f565b6006819055505050505050620005df565b600081519050620002d98162000591565b92915050565b600081519050620002f081620005ab565b92915050565b6000815190506200030781620005c5565b92915050565b6000806000606084860312156200032357600080fd5b60006200033386828701620002c8565b93505060206200034686828701620002c8565b92505060406200035986828701620002c8565b9150509250925092565b6000602082840312156200037657600080fd5b60006200038684828501620002df565b91505092915050565b600060208284031215620003a257600080fd5b6000620003b284828501620002f6565b91505092915050565b6000620003c9838362000450565b60208301905092915050565b6000620003e282620004d3565b620003ee8185620004eb565b9350620003fb83620004c3565b8060005b8381101562000432578151620004168882620003bb565b97506200042383620004de565b925050600181019050620003ff565b5085935050505092915050565b6200044a8162000510565b82525050565b6200045b816200051a565b82525050565b6200046c816200057d565b82525050565b60006020820190506200048960008301846200043f565b92915050565b6000604082019050620004a6600083018562000461565b8181036020830152620004ba8184620003d5565b90509392505050565b6000819050602082019050919050565b600081519050919050565b6000602082019050919050565b600082825260208201905092915050565b6000620005098262000546565b9050919050565b6000819050919050565b60007fffffffffffffffff00000000000000000000000000000000000000000000000082169050919050565b600073ffffffffffffffffffffffffffffffffffffffff82169050919050565b6000819050919050565b600060ff82169050919050565b60006200058a8262000570565b9050919050565b6200059c81620004fc565b8114620005a857600080fd5b50565b620005b68162000510565b8114620005c257600080fd5b50565b620005d08162000566565b8114620005dc57600080fd5b50565b61364080620005ef6000396000f3fe608060405234801561001057600080fd5b50600436106100ea5760003560e01c806385201b2b1161008c578063c526656c11610066578063c526656c1461026d578063e68defac1461029e578063e831dc38146102ce578063eb05cf51146102fe576100ea565b806385201b2b146102195780638a8b746414610235578063b88f405214610251576100ea565b80633d46b819116100c85780633d46b8191461016d5780634830b0e81461019d57806373df1612146101b957806382afd23b146101e9576100ea565b806301ff62ab146100ef57806317f491ac1461011f57806326987b601461014f575b600080fd5b61010960048036038101906101049190612239565b61031a565b6040516101169190612e77565b60405180910390f35b610139600480360381019061013491906121e7565b6103c8565b604051610146919061308f565b60405180910390f35b6101576105b7565b604051610164919061308f565b60405180910390f35b610187600480360381019061018291906121e7565b6105bd565b604051610194919061308f565b60405180910390f35b6101b760048036038101906101b291906121e7565b6106ce565b005b6101d360048036038101906101ce9190612239565b610875565b6040516101e09190612e77565b60405180910390f35b61020360048036038101906101fe91906121e7565b610922565b6040516102109190612e77565b60405180910390f35b610233600480360381019061022e9190612180565b61094c565b005b61024f600480360381019061024a91906122c9565b610a19565b005b61026b60048036038101906102669190612275565b610bc3565b005b61028760048036038101906102829190612239565b610d40565b604051610295929190612e40565b60405180910390f35b6102b860048036038101906102b391906121e7565b610fb5565b6040516102c59190612eb2565b60405180910390f35b6102e860048036038101906102e3919061206a565b6115af565b6040516102f5919061308f565b60405180910390f35b610318600480360381019061031391906121e7565b6117b1565b005b6000828060005411610394576040517f08c379a00000000000000000000000000000000000000000000000000000000081526004018080602001828103825260168152602001807f496e646578206e6f7420696e7374616e7469617465640000000000000000000081525060200191505060405180910390fd5b60006007600086815260200190815260200160002090506103be84826119d590919063ffffffff16565b9250505092915050565b6000818060005411610442576040517f08c379a00000000000000000000000000000000000000000000000000000000081526004018080602001828103825260168152602001807f496e646578206e6f7420696e7374616e7469617465640000000000000000000081525060200191505060405180910390fd5b61044b81610922565b6104bd576040517f08c379a000000000000000000000000000000000000000000000000000000000815260040180806020018281038252600e8152602001807f496e64657820696e61637469766500000000000000000000000000000000000081525060200191505060405180910390fd5b60006007600085815260200190815260200160002090508073e6754F9292bf934710f9330811623e82068b2c6E6315093ea2909186600460009054906101000a900473ffffffffffffffffffffffffffffffffffffffff16600560009054906101000a900473ffffffffffffffffffffffffffffffffffffffff16600c6006546040518763ffffffff1660e01b815260040161055e96959493929190612fc4565b60206040518083038186803b15801561057657600080fd5b505af415801561058a573d6000803e3d6000fd5b505050506040513d601f19601f820116820180604052508101906105ae9190612210565b92505050919050565b60005481565b6000818060005411610637576040517f08c379a00000000000000000000000000000000000000000000000000000000081526004018080602001828103825260168152602001807f496e646578206e6f7420696e7374616e7469617465640000000000000000000081525060200191505060405180910390fd5b61064081610922565b6106b2576040517f08c379a000000000000000000000000000000000000000000000000000000000815260040180806020018281038252600e8152602001807f496e64657820696e61637469766500000000000000000000000000000000000081525060200191505060405180910390fd5b6002600084815260200190815260200160002054915050919050565b808060005411610746576040517f08c379a00000000000000000000000000000000000000000000000000000000081526004018080602001828103825260168152602001807f496e646578206e6f7420696e7374616e7469617465640000000000000000000081525060200191505060405180910390fd5b61074f81610922565b6107c1576040517f08c379a000000000000000000000000000000000000000000000000000000000815260040180806020018281038252600e8152602001807f496e64657820696e61637469766500000000000000000000000000000000000081525060200191505060405180910390fd5b60006007600084815260200190815260200160002090508073e6754F9292bf934710f9330811623e82068b2c6E63b5701feb909185600460009054906101000a900473ffffffffffffffffffffffffffffffffffffffff166040518463ffffffff1660e01b815260040161083793929190612f8d565b60006040518083038186803b15801561084f57600080fd5b505af4158015610863573d6000803e3d6000fd5b5050505061087083611a7c565b505050565b60008280600054116108ef576040517f08c379a00000000000000000000000000000000000000000000000000000000081526004018080602001828103825260168152602001807f496e646578206e6f7420696e7374616e7469617465640000000000000000000081525060200191505060405180910390fd5b60006007600086815260200190815260200160002090508060080160009054906101000a900460ff169250505092915050565b60006001600083815260200190815260200160002060009054906101000a900460ff169050919050565b600080600090505b82518110156109825782818151811061096957fe5b6020026020010151820191508080600101915050610954565b508373ffffffffffffffffffffffffffffffffffffffff166323b872dd8430846040518463ffffffff1660e01b81526004016109c093929190612e09565b602060405180830381600087803b1580156109da57600080fd5b505af11580156109ee573d6000803e3d6000fd5b505050506040513d601f19601f82011682018060405250810190610a129190612041565b5050505050565b838060005411610a91576040517f08c379a00000000000000000000000000000000000000000000000000000000081526004018080602001828103825260168152602001807f496e646578206e6f7420696e7374616e7469617465640000000000000000000081525060200191505060405180910390fd5b610a9a81610922565b610b0c576040517f08c379a000000000000000000000000000000000000000000000000000000000815260040180806020018281038252600e8152602001807f496e64657820696e61637469766500000000000000000000000000000000000081525060200191505060405180910390fd5b60006007600087815260200190815260200160002090508073e6754F9292bf934710f9330811623e82068b2c6E6396483c2c909188888888600560009054906101000a900473ffffffffffffffffffffffffffffffffffffffff16600c6040518863ffffffff1660e01b8152600401610b8b9796959493929190613025565b60006040518083038186803b158015610ba357600080fd5b505af4158015610bb7573d6000803e3d6000fd5b50505050505050505050565b818060005411610c3b576040517f08c379a00000000000000000000000000000000000000000000000000000000081526004018080602001828103825260168152602001807f496e646578206e6f7420696e7374616e7469617465640000000000000000000081525060200191505060405180910390fd5b610c4481610922565b610cb6576040517f08c379a000000000000000000000000000000000000000000000000000000000815260040180806020018281038252600e8152602001807f496e64657820696e61637469766500000000000000000000000000000000000081525060200191505060405180910390fd5b60006007600085815260200190815260200160002090508073e6754F9292bf934710f9330811623e82068b2c6E630cdd31bc909186866040518463ffffffff1660e01b8152600401610d0a93929190612f11565b60006040518083038186803b158015610d2257600080fd5b505af4158015610d36573d6000803e3d6000fd5b5050505050505050565b606080838060005411610dbb576040517f08c379a00000000000000000000000000000000000000000000000000000000081526004018080602001828103825260168152602001807f496e646578206e6f7420696e7374616e7469617465640000000000000000000081525060200191505060405180910390fd5b60006007600087815260200190815260200160002090508060080160009054906101000a900460ff1615610f17576060600167ffffffffffffffff81118015610e0357600080fd5b50604051908082528060200260200182016040528015610e325781602001602082028036833780820191505090505b5090506060600167ffffffffffffffff81118015610e4f57600080fd5b50604051908082528060200260200182016040528015610e7e5781602001602082028036833780820191505090505b509050600460009054906101000a900473ffffffffffffffffffffffffffffffffffffffff1682600081518110610eb157fe5b602002602001019073ffffffffffffffffffffffffffffffffffffffff16908173ffffffffffffffffffffffffffffffffffffffff1681525050826009015481600081518110610efd57fe5b602002602001018181525050818195509550505050610fad565b600067ffffffffffffffff81118015610f2f57600080fd5b50604051908082528060200260200182016040528015610f5e5781602001602082028036833780820191505090505b50600067ffffffffffffffff81118015610f7757600080fd5b50604051908082528060200260200182016040528015610fa65781602001602082028036833780820191505090505b5093509350505b509250929050565b610fbd611ac4565b818060005411611035576040517f08c379a00000000000000000000000000000000000000000000000000000000081526004018080602001828103825260168152602001807f496e646578206e6f7420696e7374616e7469617465640000000000000000000081525060200191505060405180910390fd5b60076000848152602001908152602001600020604051806101a001604052908160008201548152602001600182018054600181600116156101000203166002900480601f0160208091040260200160405190810160405280929190818152602001828054600181600116156101000203166002900480156110f75780601f106110cc576101008083540402835291602001916110f7565b820191906000526020600020905b8154815290600101906020018083116110da57829003601f168201915b505050505081526020016002820180548060200260200160405190810160405280929190818152602001828054801561118557602002820191906000526020600020905b8160009054906101000a900473ffffffffffffffffffffffffffffffffffffffff1673ffffffffffffffffffffffffffffffffffffffff168152602001906001019080831161113b575b505050505081526020016003820160009054906101000a900473ffffffffffffffffffffffffffffffffffffffff1673ffffffffffffffffffffffffffffffffffffffff1673ffffffffffffffffffffffffffffffffffffffff1681526020016004820180548060200260200160405190810160405280929190818152602001828054801561126957602002820191906000526020600020905b8160009054906101000a900473ffffffffffffffffffffffffffffffffffffffff1673ffffffffffffffffffffffffffffffffffffffff168152602001906001019080831161121f575b50505050508152602001600582018054806020026020016040519081016040528092919081815260200182805480156112c157602002820191906000526020600020905b8154815260200190600101908083116112ad575b5050505050815260200160068201805480602002602001604051908101604052809291908181526020016000905b828210156113ab578382906000526020600020018054600181600116156101000203166002900480601f0160208091040260200160405190810160405280929190818152602001828054600181600116156101000203166002900480156113975780601f1061136c57610100808354040283529160200191611397565b820191906000526020600020905b81548152906001019060200180831161137a57829003601f168201915b5050505050815260200190600101906112ef565b50505050815260200160078201805480602002602001604051908101604052809291908181526020016000905b828210156114c257838290600052602060002090600302016040518060600160405290816000820160009054906101000a900473ffffffffffffffffffffffffffffffffffffffff1673ffffffffffffffffffffffffffffffffffffffff1673ffffffffffffffffffffffffffffffffffffffff16815260200160018201548152602001600282018054806020026020016040519081016040528092919081815260200182805480156114aa57602002820191906000526020600020905b815481526020019060010190808311611496575b505050505081525050815260200190600101906113d8565b5050505081526020016008820160009054906101000a900460ff1615151515815260200160098201548152602001600a820160009054906101000a900473ffffffffffffffffffffffffffffffffffffffff1673ffffffffffffffffffffffffffffffffffffffff1673ffffffffffffffffffffffffffffffffffffffff168152602001600b820180548060200260200160405190810160405280929190818152602001828054801561159457602002820191906000526020600020905b815481526020019060010190808311611580575b50505050508152602001600c82015481525050915050919050565b6000600360009054906101000a900473ffffffffffffffffffffffffffffffffffffffff1673ffffffffffffffffffffffffffffffffffffffff168573ffffffffffffffffffffffffffffffffffffffff1614611641576040517f08c379a000000000000000000000000000000000000000000000000000000000815260040161163890612e92565b60405180910390fd5b61164c85338561094c565b60006007600080548152602001908152602001600020905088816000018190555087816001019080519060200190611685929190611b5d565b508681600201908051906020019061169e929190611beb565b50858160030160006101000a81548173ffffffffffffffffffffffffffffffffffffffff021916908373ffffffffffffffffffffffffffffffffffffffff160217905550848160040190805190602001906116fa929190611beb565b5083816005019080519060200190611713929190611c75565b508281600601908051906020019061172c929190611cc2565b506000547fdf1b9505f9920d379f1cc0d03e3d6c1e227705b3d9f4c5d1d74e367bd29fc16c8260405161175f9190612ed4565b60405180910390a260018060008054815260200190815260200160002060006101000a81548160ff02191690831515021790555060008081548092919060010191905055915050979650505050505050565b808060005411611829576040517f08c379a00000000000000000000000000000000000000000000000000000000081526004018080602001828103825260168152602001807f496e646578206e6f7420696e7374616e7469617465640000000000000000000081525060200191505060405180910390fd5b61183281610922565b6118a4576040517f08c379a000000000000000000000000000000000000000000000000000000000815260040180806020018281038252600e8152602001807f496e64657820696e61637469766500000000000000000000000000000000000081525060200191505060405180910390fd5b600060076000848152602001908152602001600020905060008173e6754F9292bf934710f9330811623e82068b2c6E63906cc66c90916040518263ffffffff1660e01b81526004016118f69190612ef6565b60206040518083038186803b15801561190e57600080fd5b505af4158015611922573d6000803e3d6000fd5b505050506040513d601f19601f820116820180604052508101906119469190612041565b90506001151581151514156119cf578173e6754F9292bf934710f9330811623e82068b2c6E63aba4442390918685600b016040518463ffffffff1660e01b815260040161199593929190612f4f565b60006040518083038186803b1580156119ad57600080fd5b505af41580156119c1573d6000803e3d6000fd5b505050506119ce84611a7c565b5b50505050565b600080600090505b8360040180549050811015611a70578360040181815481106119fb57fe5b9060005260206000200160009054906101000a900473ffffffffffffffffffffffffffffffffffffffff1673ffffffffffffffffffffffffffffffffffffffff168373ffffffffffffffffffffffffffffffffffffffff161415611a63576001915050611a76565b80806001019150506119dd565b50600090505b92915050565b60006001600083815260200190815260200160002060006101000a81548160ff0219169083151502179055506000600260008381526020019081526020016000208190555050565b604051806101a00160405280600080191681526020016060815260200160608152602001600073ffffffffffffffffffffffffffffffffffffffff1681526020016060815260200160608152602001606081526020016060815260200160001515815260200160008152602001600073ffffffffffffffffffffffffffffffffffffffff16815260200160608152602001600081525090565b828054600181600116156101000203166002900490600052602060002090601f016020900481019282611b935760008555611bda565b82601f10611bac57805160ff1916838001178555611bda565b82800160010185558215611bda579182015b82811115611bd9578251825591602001919060010190611bbe565b5b509050611be79190611d22565b5090565b828054828255906000526020600020908101928215611c64579160200282015b82811115611c635782518260006101000a81548173ffffffffffffffffffffffffffffffffffffffff021916908373ffffffffffffffffffffffffffffffffffffffff16021790555091602001919060010190611c0b565b5b509050611c719190611d22565b5090565b828054828255906000526020600020908101928215611cb1579160200282015b82811115611cb0578251825591602001919060010190611c95565b5b509050611cbe9190611d22565b5090565b828054828255906000526020600020908101928215611d11579160200282015b82811115611d10578251829080519060200190611d00929190611b5d565b5091602001919060010190611ce2565b5b509050611d1e9190611d3f565b5090565b5b80821115611d3b576000816000905550600101611d23565b5090565b5b80821115611d5f5760008181611d569190611d63565b50600101611d40565b5090565b50805460018160011615610100020316600290046000825580601f10611d895750611da8565b601f016020900490600052602060002090810190611da79190611d22565b5b50565b600081359050611dba81613597565b92915050565b600082601f830112611dd157600080fd5b8135611de4611ddf826130db565b6130aa565b91508181835260208401935060208101905083856020840282011115611e0957600080fd5b60005b83811015611e395781611e1f8882611dab565b845260208401935060208301925050600181019050611e0c565b5050505092915050565b600082601f830112611e5457600080fd5b8135611e67611e6282613107565b6130aa565b9150818183526020840193506020810190508360005b83811015611ead5781358601611e938882611fae565b845260208401935060208301925050600181019050611e7d565b5050505092915050565b600082601f830112611ec857600080fd5b8135611edb611ed682613133565b6130aa565b91508181835260208401935060208101905083856020840282011115611f0057600080fd5b60005b83811015611f305781611f168882612017565b845260208401935060208301925050600181019050611f03565b5050505092915050565b600081519050611f49816135ae565b92915050565b600081359050611f5e816135c5565b92915050565b60008083601f840112611f7657600080fd5b8235905067ffffffffffffffff811115611f8f57600080fd5b602083019150836001820283011115611fa757600080fd5b9250929050565b600082601f830112611fbf57600080fd5b8135611fd2611fcd8261315f565b6130aa565b91508082526020830160208301858383011115611fee57600080fd5b611ff98382846134a7565b50505092915050565b600081359050612011816135dc565b92915050565b600081359050612026816135f3565b92915050565b60008151905061203b816135f3565b92915050565b60006020828403121561205357600080fd5b600061206184828501611f3a565b91505092915050565b600080600080600080600060e0888a03121561208557600080fd5b60006120938a828b01611f4f565b975050602088013567ffffffffffffffff8111156120b057600080fd5b6120bc8a828b01611fae565b965050604088013567ffffffffffffffff8111156120d957600080fd5b6120e58a828b01611dc0565b95505060606120f68a828b01611dab565b945050608088013567ffffffffffffffff81111561211357600080fd5b61211f8a828b01611dc0565b93505060a088013567ffffffffffffffff81111561213c57600080fd5b6121488a828b01611eb7565b92505060c088013567ffffffffffffffff81111561216557600080fd5b6121718a828b01611e43565b91505092959891949750929550565b60008060006060848603121561219557600080fd5b60006121a386828701612002565b93505060206121b486828701611dab565b925050604084013567ffffffffffffffff8111156121d157600080fd5b6121dd86828701611eb7565b9150509250925092565b6000602082840312156121f957600080fd5b600061220784828501612017565b91505092915050565b60006020828403121561222257600080fd5b60006122308482850161202c565b91505092915050565b6000806040838503121561224c57600080fd5b600061225a85828601612017565b925050602061226b85828601611dab565b9150509250929050565b6000806040838503121561228857600080fd5b600061229685828601612017565b925050602083013567ffffffffffffffff8111156122b357600080fd5b6122bf85828601611eb7565b9150509250929050565b600080600080606085870312156122df57600080fd5b60006122ed87828801612017565b94505060206122fe87828801612017565b935050604085013567ffffffffffffffff81111561231b57600080fd5b61232787828801611f64565b925092505092959194509250565b600061234183836123cd565b60208301905092915050565b6000612359838361291c565b905092915050565b600061236d8383612955565b905092915050565b60006123818383612d07565b905092915050565b60006123958383612d57565b905092915050565b60006123a98383612dbe565b60208301905092915050565b60006123c18383612deb565b60208301905092915050565b6123d6816133ee565b82525050565b6123e5816133ee565b82525050565b60006123f682613238565b6124008185613303565b935061240b8361318f565b8060005b8381101561243c5781516124238882612335565b975061242e8361329b565b92505060018101905061240f565b5085935050505092915050565b600061245482613238565b61245e8185613314565b93506124698361318f565b8060005b8381101561249a5781516124818882612335565b975061248c8361329b565b92505060018101905061246d565b5085935050505092915050565b60006124b282613243565b6124bc8185613303565b93506124c78361319f565b8060005b838110156124ff576124dc82613553565b6124e68882612335565b97506124f1836132a8565b9250506001810190506124cb565b5085935050505092915050565b60006125178261324e565b6125218185613325565b935083602082028501612533856131b4565b8060005b8581101561256f5784840389528151612550858261234d565b945061255b836132b5565b925060208a01995050600181019050612537565b50829750879550505050505092915050565b600061258c82613259565b6125968185613325565b9350836020820285016125a8856131c4565b8060005b858110156125e3578484038952816125c48582612361565b94506125cf836132c2565b925060208a019950506001810190506125ac565b50829750879550505050505092915050565b600061260082613264565b61260a8185613336565b93508360208202850161261c856131d9565b8060005b8581101561265857848403895281516126398582612375565b9450612644836132cf565b925060208a01995050600181019050612620565b50829750879550505050505092915050565b60006126758261326f565b61267f8185613336565b935083602082028501612691856131e9565b8060005b858110156126cc578484038952816126ad8582612389565b94506126b8836132dc565b925060208a01995050600181019050612695565b50829750879550505050505092915050565b60006126e98261327a565b6126f38185613347565b93506126fe836131fe565b8060005b8381101561272f578151612716888261239d565b9750612721836132e9565b925050600181019050612702565b5085935050505092915050565b60006127478261327a565b6127518185613358565b935061275c836131fe565b8060005b8381101561278d578151612774888261239d565b975061277f836132e9565b925050600181019050612760565b5085935050505092915050565b60006127a58261327a565b6127af8185613369565b93506127ba836131fe565b8060005b838110156127eb5781516127d288826123b5565b97506127dd836132e9565b9250506001810190506127be565b5085935050505092915050565b600061280382613285565b61280d8185613347565b93506128188361320e565b8060005b838110156128505761282d82613566565b612837888261239d565b9750612842836132f6565b92505060018101905061281c565b5085935050505092915050565b600061286882613285565b6128728185613369565b935061287d8361320e565b8060005b838110156128b55761289282613566565b61289c88826123b5565b97506128a7836132f6565b925050600181019050612881565b5085935050505092915050565b6128cb81613400565b82525050565b6128da81613400565b82525050565b6128e98161340c565b82525050565b60006128fb838561338b565b93506129088385846134a7565b61291183613579565b840190509392505050565b600061292782613290565b612931818561337a565b93506129418185602086016134b6565b61294a81613579565b840191505092915050565b6000815460018116600081146129725760018114612998576129dc565b607f6002830416612983818761337a565b955060ff1983168652602086019350506129dc565b600282046129a6818761337a565b95506129b185613223565b60005b828110156129d3578154818901526001820191506020810190506129b4565b80880195505050505b505092915050565b6129ed8161345f565b82525050565b6129fc81613483565b82525050565b6000612a0f60198361339c565b91507f556e657870656374656420746f6b656e2070726f7669646572000000000000006000830152602082019050919050565b60006101a083016000830151612a5b60008601826128e0565b5060208301518482036020860152612a73828261291c565b91505060408301518482036040860152612a8d82826123eb565b9150506060830151612aa260608601826123cd565b5060808301518482036080860152612aba82826123eb565b91505060a083015184820360a0860152612ad482826126de565b91505060c083015184820360c0860152612aee828261250c565b91505060e083015184820360e0860152612b0882826125f5565b915050610100830151612b1f6101008601826128c2565b50610120830151612b34610120860182612dbe565b50610140830151612b496101408601826123cd565b50610160830151848203610160860152612b6382826126de565b915050610180830151612b7a610180860182612dbe565b508091505092915050565b60006101a083016000808401549050612b9d8161351d565b612baa60008701826128e0565b50600184018583036020870152612bc18382612955565b925050600284018583036040870152612bda83826124a7565b92505060038401549050612bed816134e9565b612bfa60608701826123cd565b50600484018583036080870152612c1183826124a7565b9250506005840185830360a0870152612c2a83826127f8565b9250506006840185830360c0870152612c438382612581565b9250506007840185830360e0870152612c5c838261266a565b92505060088401549050612c6f81613503565b612c7d6101008701826128c2565b5060098401549050612c8e81613537565b612c9c610120870182612dbe565b50600a8401549050612cad816134e9565b612cbb6101408701826123cd565b50600b8401858303610160870152612cd383826127f8565b925050600c8401549050612ce681613537565b612cf4610180870182612dbe565b50819250505092915050565b8082525050565b6000606083016000830151612d1f60008601826123cd565b506020830151612d326020860182612dbe565b5060408301518482036040860152612d4a82826126de565b9150508091505092915050565b6000606083016000808401549050612d6e816134e9565b612d7b60008701826123cd565b5060018401549050612d8c81613537565b612d996020870182612dbe565b50600284018583036040870152612db083826127f8565b925050819250505092915050565b612dc781613448565b82525050565b612dd681613448565b82525050565b612de581613448565b82525050565b612df481613448565b82525050565b612e0381613452565b82525050565b6000606082019050612e1e60008301866123dc565b612e2b60208301856123dc565b612e386040830184612dcd565b949350505050565b60006040820190508181036000830152612e5a8185612449565b90508181036020830152612e6e818461273c565b90509392505050565b6000602082019050612e8c60008301846128d1565b92915050565b60006020820190508181036000830152612eab81612a02565b9050919050565b60006020820190508181036000830152612ecc8184612a42565b905092915050565b60006020820190508181036000830152612eee8184612b85565b905092915050565b6000602082019050612f0b6000830184612d00565b92915050565b6000606082019050612f266000830186612d00565b612f336020830185612ddc565b8181036040830152612f45818461279a565b9050949350505050565b6000606082019050612f646000830186612d00565b612f716020830185612ddc565b8181036040830152612f83818461285d565b9050949350505050565b6000606082019050612fa26000830186612d00565b612faf6020830185612ddc565b612fbc60408301846129e4565b949350505050565b600060c082019050612fd96000830189612d00565b612fe66020830188612ddc565b612ff360408301876129e4565b61300060608301866129f3565b61300d6080830185612dfa565b61301a60a0830184612ddc565b979650505050505050565b600060c08201905061303a600083018a612d00565b6130476020830189612ddc565b6130546040830188612ddc565b81810360608301526130678186886128ef565b905061307660808301856129f3565b61308360a0830184612dfa565b98975050505050505050565b60006020820190506130a46000830184612dcd565b92915050565b6000604051905081810181811067ffffffffffffffff821117156130d1576130d0613551565b5b8060405250919050565b600067ffffffffffffffff8211156130f6576130f5613551565b5b602082029050602081019050919050565b600067ffffffffffffffff82111561312257613121613551565b5b602082029050602081019050919050565b600067ffffffffffffffff82111561314e5761314d613551565b5b602082029050602081019050919050565b600067ffffffffffffffff82111561317a57613179613551565b5b601f19601f8301169050602081019050919050565b6000819050602082019050919050565b60008190508160005260206000209050919050565b6000819050602082019050919050565b60008190508160005260206000209050919050565b6000819050602082019050919050565b60008190508160005260206000209050919050565b6000819050602082019050919050565b60008190508160005260206000209050919050565b60008190508160005260206000209050919050565b600081519050919050565b600081549050919050565b600081519050919050565b600081549050919050565b600081519050919050565b600081549050919050565b600081519050919050565b600081549050919050565b600081519050919050565b6000602082019050919050565b6000600182019050919050565b6000602082019050919050565b6000600182019050919050565b6000602082019050919050565b6000600382019050919050565b6000602082019050919050565b6000600182019050919050565b600082825260208201905092915050565b600082825260208201905092915050565b600082825260208201905092915050565b600082825260208201905092915050565b600082825260208201905092915050565b600082825260208201905092915050565b600082825260208201905092915050565b600082825260208201905092915050565b600082825260208201905092915050565b600082825260208201905092915050565b600073ffffffffffffffffffffffffffffffffffffffff82169050919050565b600060ff82169050919050565b6000819050919050565b6000819050919050565b60006133f982613428565b9050919050565b60008115159050919050565b6000819050919050565b6000613421826133ee565b9050919050565b600073ffffffffffffffffffffffffffffffffffffffff82169050919050565b6000819050919050565b600060ff82169050919050565b600061346a82613471565b9050919050565b600061347c82613428565b9050919050565b600061348e82613495565b9050919050565b60006134a082613428565b9050919050565b82818337600083830152505050565b60005b838110156134d45780820151818401526020810190506134b9565b838111156134e3576000848401525b50505050565b60006134fc6134f78361358a565b6133ad565b9050919050565b60006135166135118361358a565b6133cd565b9050919050565b600061353061352b8361358a565b6133da565b9050919050565b600061354a6135458361358a565b6133e4565b9050919050565bfe5b600061355f82546134e9565b9050919050565b60006135728254613537565b9050919050565b6000601f19601f8301169050919050565b60008160001c9050919050565b6135a0816133ee565b81146135ab57600080fd5b50565b6135b781613400565b81146135c257600080fd5b50565b6135ce8161340c565b81146135d957600080fd5b50565b6135e581613416565b81146135f057600080fd5b50565b6135fc81613448565b811461360757600080fd5b5056fea26469706673582212207991580803411321b87bc20c64314cb6463fe0693301415854e91c209f71dec564736f6c63430007040033",
  "deployedBytecode": "0x608060405234801561001057600080fd5b50600436106100ea5760003560e01c806385201b2b1161008c578063c526656c11610066578063c526656c1461026d578063e68defac1461029e578063e831dc38146102ce578063eb05cf51146102fe576100ea565b806385201b2b146102195780638a8b746414610235578063b88f405214610251576100ea565b80633d46b819116100c85780633d46b8191461016d5780634830b0e81461019d57806373df1612146101b957806382afd23b146101e9576100ea565b806301ff62ab146100ef57806317f491ac1461011f57806326987b601461014f575b600080fd5b61010960048036038101906101049190612239565b61031a565b6040516101169190612e77565b60405180910390f35b610139600480360381019061013491906121e7565b6103c8565b604051610146919061308f565b60405180910390f35b6101576105b7565b604051610164919061308f565b60405180910390f35b610187600480360381019061018291906121e7565b6105bd565b604051610194919061308f565b60405180910390f35b6101b760048036038101906101b291906121e7565b6106ce565b005b6101d360048036038101906101ce9190612239565b610875565b6040516101e09190612e77565b60405180910390f35b61020360048036038101906101fe91906121e7565b610922565b6040516102109190612e77565b60405180910390f35b610233600480360381019061022e9190612180565b61094c565b005b61024f600480360381019061024a91906122c9565b610a19565b005b61026b60048036038101906102669190612275565b610bc3565b005b61028760048036038101906102829190612239565b610d40565b604051610295929190612e40565b60405180910390f35b6102b860048036038101906102b391906121e7565b610fb5565b6040516102c59190612eb2565b60405180910390f35b6102e860048036038101906102e3919061206a565b6115af565b6040516102f5919061308f565b60405180910390f35b610318600480360381019061031391906121e7565b6117b1565b005b6000828060005411610394576040517f08c379a00000000000000000000000000000000000000000000000000000000081526004018080602001828103825260168152602001807f496e646578206e6f7420696e7374616e7469617465640000000000000000000081525060200191505060405180910390fd5b60006007600086815260200190815260200160002090506103be84826119d590919063ffffffff16565b9250505092915050565b6000818060005411610442576040517f08c379a00000000000000000000000000000000000000000000000000000000081526004018080602001828103825260168152602001807f496e646578206e6f7420696e7374616e7469617465640000000000000000000081525060200191505060405180910390fd5b61044b81610922565b6104bd576040517f08c379a000000000000000000000000000000000000000000000000000000000815260040180806020018281038252600e8152602001807f496e64657820696e61637469766500000000000000000000000000000000000081525060200191505060405180910390fd5b60006007600085815260200190815260200160002090508073__$2a307e3733810a923a91a6f7005edd72dc$__6315093ea2909186600460009054906101000a900473ffffffffffffffffffffffffffffffffffffffff16600560009054906101000a900473ffffffffffffffffffffffffffffffffffffffff16600c6006546040518763ffffffff1660e01b815260040161055e96959493929190612fc4565b60206040518083038186803b15801561057657600080fd5b505af415801561058a573d6000803e3d6000fd5b505050506040513d601f19601f820116820180604052508101906105ae9190612210565b92505050919050565b60005481565b6000818060005411610637576040517f08c379a00000000000000000000000000000000000000000000000000000000081526004018080602001828103825260168152602001807f496e646578206e6f7420696e7374616e7469617465640000000000000000000081525060200191505060405180910390fd5b61064081610922565b6106b2576040517f08c379a000000000000000000000000000000000000000000000000000000000815260040180806020018281038252600e8152602001807f496e64657820696e61637469766500000000000000000000000000000000000081525060200191505060405180910390fd5b6002600084815260200190815260200160002054915050919050565b808060005411610746576040517f08c379a00000000000000000000000000000000000000000000000000000000081526004018080602001828103825260168152602001807f496e646578206e6f7420696e7374616e7469617465640000000000000000000081525060200191505060405180910390fd5b61074f81610922565b6107c1576040517f08c379a000000000000000000000000000000000000000000000000000000000815260040180806020018281038252600e8152602001807f496e64657820696e61637469766500000000000000000000000000000000000081525060200191505060405180910390fd5b60006007600084815260200190815260200160002090508073__$2a307e3733810a923a91a6f7005edd72dc$__63b5701feb909185600460009054906101000a900473ffffffffffffffffffffffffffffffffffffffff166040518463ffffffff1660e01b815260040161083793929190612f8d565b60006040518083038186803b15801561084f57600080fd5b505af4158015610863573d6000803e3d6000fd5b5050505061087083611a7c565b505050565b60008280600054116108ef576040517f08c379a00000000000000000000000000000000000000000000000000000000081526004018080602001828103825260168152602001807f496e646578206e6f7420696e7374616e7469617465640000000000000000000081525060200191505060405180910390fd5b60006007600086815260200190815260200160002090508060080160009054906101000a900460ff169250505092915050565b60006001600083815260200190815260200160002060009054906101000a900460ff169050919050565b600080600090505b82518110156109825782818151811061096957fe5b6020026020010151820191508080600101915050610954565b508373ffffffffffffffffffffffffffffffffffffffff166323b872dd8430846040518463ffffffff1660e01b81526004016109c093929190612e09565b602060405180830381600087803b1580156109da57600080fd5b505af11580156109ee573d6000803e3d6000fd5b505050506040513d601f19601f82011682018060405250810190610a129190612041565b5050505050565b838060005411610a91576040517f08c379a00000000000000000000000000000000000000000000000000000000081526004018080602001828103825260168152602001807f496e646578206e6f7420696e7374616e7469617465640000000000000000000081525060200191505060405180910390fd5b610a9a81610922565b610b0c576040517f08c379a000000000000000000000000000000000000000000000000000000000815260040180806020018281038252600e8152602001807f496e64657820696e61637469766500000000000000000000000000000000000081525060200191505060405180910390fd5b60006007600087815260200190815260200160002090508073__$2a307e3733810a923a91a6f7005edd72dc$__6396483c2c909188888888600560009054906101000a900473ffffffffffffffffffffffffffffffffffffffff16600c6040518863ffffffff1660e01b8152600401610b8b9796959493929190613025565b60006040518083038186803b158015610ba357600080fd5b505af4158015610bb7573d6000803e3d6000fd5b50505050505050505050565b818060005411610c3b576040517f08c379a00000000000000000000000000000000000000000000000000000000081526004018080602001828103825260168152602001807f496e646578206e6f7420696e7374616e7469617465640000000000000000000081525060200191505060405180910390fd5b610c4481610922565b610cb6576040517f08c379a000000000000000000000000000000000000000000000000000000000815260040180806020018281038252600e8152602001807f496e64657820696e61637469766500000000000000000000000000000000000081525060200191505060405180910390fd5b60006007600085815260200190815260200160002090508073__$2a307e3733810a923a91a6f7005edd72dc$__630cdd31bc909186866040518463ffffffff1660e01b8152600401610d0a93929190612f11565b60006040518083038186803b158015610d2257600080fd5b505af4158015610d36573d6000803e3d6000fd5b5050505050505050565b606080838060005411610dbb576040517f08c379a00000000000000000000000000000000000000000000000000000000081526004018080602001828103825260168152602001807f496e646578206e6f7420696e7374616e7469617465640000000000000000000081525060200191505060405180910390fd5b60006007600087815260200190815260200160002090508060080160009054906101000a900460ff1615610f17576060600167ffffffffffffffff81118015610e0357600080fd5b50604051908082528060200260200182016040528015610e325781602001602082028036833780820191505090505b5090506060600167ffffffffffffffff81118015610e4f57600080fd5b50604051908082528060200260200182016040528015610e7e5781602001602082028036833780820191505090505b509050600460009054906101000a900473ffffffffffffffffffffffffffffffffffffffff1682600081518110610eb157fe5b602002602001019073ffffffffffffffffffffffffffffffffffffffff16908173ffffffffffffffffffffffffffffffffffffffff1681525050826009015481600081518110610efd57fe5b602002602001018181525050818195509550505050610fad565b600067ffffffffffffffff81118015610f2f57600080fd5b50604051908082528060200260200182016040528015610f5e5781602001602082028036833780820191505090505b50600067ffffffffffffffff81118015610f7757600080fd5b50604051908082528060200260200182016040528015610fa65781602001602082028036833780820191505090505b5093509350505b509250929050565b610fbd611ac4565b818060005411611035576040517f08c379a00000000000000000000000000000000000000000000000000000000081526004018080602001828103825260168152602001807f496e646578206e6f7420696e7374616e7469617465640000000000000000000081525060200191505060405180910390fd5b60076000848152602001908152602001600020604051806101a001604052908160008201548152602001600182018054600181600116156101000203166002900480601f0160208091040260200160405190810160405280929190818152602001828054600181600116156101000203166002900480156110f75780601f106110cc576101008083540402835291602001916110f7565b820191906000526020600020905b8154815290600101906020018083116110da57829003601f168201915b505050505081526020016002820180548060200260200160405190810160405280929190818152602001828054801561118557602002820191906000526020600020905b8160009054906101000a900473ffffffffffffffffffffffffffffffffffffffff1673ffffffffffffffffffffffffffffffffffffffff168152602001906001019080831161113b575b505050505081526020016003820160009054906101000a900473ffffffffffffffffffffffffffffffffffffffff1673ffffffffffffffffffffffffffffffffffffffff1673ffffffffffffffffffffffffffffffffffffffff1681526020016004820180548060200260200160405190810160405280929190818152602001828054801561126957602002820191906000526020600020905b8160009054906101000a900473ffffffffffffffffffffffffffffffffffffffff1673ffffffffffffffffffffffffffffffffffffffff168152602001906001019080831161121f575b50505050508152602001600582018054806020026020016040519081016040528092919081815260200182805480156112c157602002820191906000526020600020905b8154815260200190600101908083116112ad575b5050505050815260200160068201805480602002602001604051908101604052809291908181526020016000905b828210156113ab578382906000526020600020018054600181600116156101000203166002900480601f0160208091040260200160405190810160405280929190818152602001828054600181600116156101000203166002900480156113975780601f1061136c57610100808354040283529160200191611397565b820191906000526020600020905b81548152906001019060200180831161137a57829003601f168201915b5050505050815260200190600101906112ef565b50505050815260200160078201805480602002602001604051908101604052809291908181526020016000905b828210156114c257838290600052602060002090600302016040518060600160405290816000820160009054906101000a900473ffffffffffffffffffffffffffffffffffffffff1673ffffffffffffffffffffffffffffffffffffffff1673ffffffffffffffffffffffffffffffffffffffff16815260200160018201548152602001600282018054806020026020016040519081016040528092919081815260200182805480156114aa57602002820191906000526020600020905b815481526020019060010190808311611496575b505050505081525050815260200190600101906113d8565b5050505081526020016008820160009054906101000a900460ff1615151515815260200160098201548152602001600a820160009054906101000a900473ffffffffffffffffffffffffffffffffffffffff1673ffffffffffffffffffffffffffffffffffffffff1673ffffffffffffffffffffffffffffffffffffffff168152602001600b820180548060200260200160405190810160405280929190818152602001828054801561159457602002820191906000526020600020905b815481526020019060010190808311611580575b50505050508152602001600c82015481525050915050919050565b6000600360009054906101000a900473ffffffffffffffffffffffffffffffffffffffff1673ffffffffffffffffffffffffffffffffffffffff168573ffffffffffffffffffffffffffffffffffffffff1614611641576040517f08c379a000000000000000000000000000000000000000000000000000000000815260040161163890612e92565b60405180910390fd5b61164c85338561094c565b60006007600080548152602001908152602001600020905088816000018190555087816001019080519060200190611685929190611b5d565b508681600201908051906020019061169e929190611beb565b50858160030160006101000a81548173ffffffffffffffffffffffffffffffffffffffff021916908373ffffffffffffffffffffffffffffffffffffffff160217905550848160040190805190602001906116fa929190611beb565b5083816005019080519060200190611713929190611c75565b508281600601908051906020019061172c929190611cc2565b506000547fdf1b9505f9920d379f1cc0d03e3d6c1e227705b3d9f4c5d1d74e367bd29fc16c8260405161175f9190612ed4565b60405180910390a260018060008054815260200190815260200160002060006101000a81548160ff02191690831515021790555060008081548092919060010191905055915050979650505050505050565b808060005411611829576040517f08c379a00000000000000000000000000000000000000000000000000000000081526004018080602001828103825260168152602001807f496e646578206e6f7420696e7374616e7469617465640000000000000000000081525060200191505060405180910390fd5b61183281610922565b6118a4576040517f08c379a000000000000000000000000000000000000000000000000000000000815260040180806020018281038252600e8152602001807f496e64657820696e61637469766500000000000000000000000000000000000081525060200191505060405180910390fd5b600060076000848152602001908152602001600020905060008173__$2a307e3733810a923a91a6f7005edd72dc$__63906cc66c90916040518263ffffffff1660e01b81526004016118f69190612ef6565b60206040518083038186803b15801561190e57600080fd5b505af4158015611922573d6000803e3d6000fd5b505050506040513d601f19601f820116820180604052508101906119469190612041565b90506001151581151514156119cf578173__$2a307e3733810a923a91a6f7005edd72dc$__63aba4442390918685600b016040518463ffffffff1660e01b815260040161199593929190612f4f565b60006040518083038186803b1580156119ad57600080fd5b505af41580156119c1573d6000803e3d6000fd5b505050506119ce84611a7c565b5b50505050565b600080600090505b8360040180549050811015611a70578360040181815481106119fb57fe5b9060005260206000200160009054906101000a900473ffffffffffffffffffffffffffffffffffffffff1673ffffffffffffffffffffffffffffffffffffffff168373ffffffffffffffffffffffffffffffffffffffff161415611a63576001915050611a76565b80806001019150506119dd565b50600090505b92915050565b60006001600083815260200190815260200160002060006101000a81548160ff0219169083151502179055506000600260008381526020019081526020016000208190555050565b604051806101a00160405280600080191681526020016060815260200160608152602001600073ffffffffffffffffffffffffffffffffffffffff1681526020016060815260200160608152602001606081526020016060815260200160001515815260200160008152602001600073ffffffffffffffffffffffffffffffffffffffff16815260200160608152602001600081525090565b828054600181600116156101000203166002900490600052602060002090601f016020900481019282611b935760008555611bda565b82601f10611bac57805160ff1916838001178555611bda565b82800160010185558215611bda579182015b82811115611bd9578251825591602001919060010190611bbe565b5b509050611be79190611d22565b5090565b828054828255906000526020600020908101928215611c64579160200282015b82811115611c635782518260006101000a81548173ffffffffffffffffffffffffffffffffffffffff021916908373ffffffffffffffffffffffffffffffffffffffff16021790555091602001919060010190611c0b565b5b509050611c719190611d22565b5090565b828054828255906000526020600020908101928215611cb1579160200282015b82811115611cb0578251825591602001919060010190611c95565b5b509050611cbe9190611d22565b5090565b828054828255906000526020600020908101928215611d11579160200282015b82811115611d10578251829080519060200190611d00929190611b5d565b5091602001919060010190611ce2565b5b509050611d1e9190611d3f565b5090565b5b80821115611d3b576000816000905550600101611d23565b5090565b5b80821115611d5f5760008181611d569190611d63565b50600101611d40565b5090565b50805460018160011615610100020316600290046000825580601f10611d895750611da8565b601f016020900490600052602060002090810190611da79190611d22565b5b50565b600081359050611dba81613597565b92915050565b600082601f830112611dd157600080fd5b8135611de4611ddf826130db565b6130aa565b91508181835260208401935060208101905083856020840282011115611e0957600080fd5b60005b83811015611e395781611e1f8882611dab565b845260208401935060208301925050600181019050611e0c565b5050505092915050565b600082601f830112611e5457600080fd5b8135611e67611e6282613107565b6130aa565b9150818183526020840193506020810190508360005b83811015611ead5781358601611e938882611fae565b845260208401935060208301925050600181019050611e7d565b5050505092915050565b600082601f830112611ec857600080fd5b8135611edb611ed682613133565b6130aa565b91508181835260208401935060208101905083856020840282011115611f0057600080fd5b60005b83811015611f305781611f168882612017565b845260208401935060208301925050600181019050611f03565b5050505092915050565b600081519050611f49816135ae565b92915050565b600081359050611f5e816135c5565b92915050565b60008083601f840112611f7657600080fd5b8235905067ffffffffffffffff811115611f8f57600080fd5b602083019150836001820283011115611fa757600080fd5b9250929050565b600082601f830112611fbf57600080fd5b8135611fd2611fcd8261315f565b6130aa565b91508082526020830160208301858383011115611fee57600080fd5b611ff98382846134a7565b50505092915050565b600081359050612011816135dc565b92915050565b600081359050612026816135f3565b92915050565b60008151905061203b816135f3565b92915050565b60006020828403121561205357600080fd5b600061206184828501611f3a565b91505092915050565b600080600080600080600060e0888a03121561208557600080fd5b60006120938a828b01611f4f565b975050602088013567ffffffffffffffff8111156120b057600080fd5b6120bc8a828b01611fae565b965050604088013567ffffffffffffffff8111156120d957600080fd5b6120e58a828b01611dc0565b95505060606120f68a828b01611dab565b945050608088013567ffffffffffffffff81111561211357600080fd5b61211f8a828b01611dc0565b93505060a088013567ffffffffffffffff81111561213c57600080fd5b6121488a828b01611eb7565b92505060c088013567ffffffffffffffff81111561216557600080fd5b6121718a828b01611e43565b91505092959891949750929550565b60008060006060848603121561219557600080fd5b60006121a386828701612002565b93505060206121b486828701611dab565b925050604084013567ffffffffffffffff8111156121d157600080fd5b6121dd86828701611eb7565b9150509250925092565b6000602082840312156121f957600080fd5b600061220784828501612017565b91505092915050565b60006020828403121561222257600080fd5b60006122308482850161202c565b91505092915050565b6000806040838503121561224c57600080fd5b600061225a85828601612017565b925050602061226b85828601611dab565b9150509250929050565b6000806040838503121561228857600080fd5b600061229685828601612017565b925050602083013567ffffffffffffffff8111156122b357600080fd5b6122bf85828601611eb7565b9150509250929050565b600080600080606085870312156122df57600080fd5b60006122ed87828801612017565b94505060206122fe87828801612017565b935050604085013567ffffffffffffffff81111561231b57600080fd5b61232787828801611f64565b925092505092959194509250565b600061234183836123cd565b60208301905092915050565b6000612359838361291c565b905092915050565b600061236d8383612955565b905092915050565b60006123818383612d07565b905092915050565b60006123958383612d57565b905092915050565b60006123a98383612dbe565b60208301905092915050565b60006123c18383612deb565b60208301905092915050565b6123d6816133ee565b82525050565b6123e5816133ee565b82525050565b60006123f682613238565b6124008185613303565b935061240b8361318f565b8060005b8381101561243c5781516124238882612335565b975061242e8361329b565b92505060018101905061240f565b5085935050505092915050565b600061245482613238565b61245e8185613314565b93506124698361318f565b8060005b8381101561249a5781516124818882612335565b975061248c8361329b565b92505060018101905061246d565b5085935050505092915050565b60006124b282613243565b6124bc8185613303565b93506124c78361319f565b8060005b838110156124ff576124dc82613553565b6124e68882612335565b97506124f1836132a8565b9250506001810190506124cb565b5085935050505092915050565b60006125178261324e565b6125218185613325565b935083602082028501612533856131b4565b8060005b8581101561256f5784840389528151612550858261234d565b945061255b836132b5565b925060208a01995050600181019050612537565b50829750879550505050505092915050565b600061258c82613259565b6125968185613325565b9350836020820285016125a8856131c4565b8060005b858110156125e3578484038952816125c48582612361565b94506125cf836132c2565b925060208a019950506001810190506125ac565b50829750879550505050505092915050565b600061260082613264565b61260a8185613336565b93508360208202850161261c856131d9565b8060005b8581101561265857848403895281516126398582612375565b9450612644836132cf565b925060208a01995050600181019050612620565b50829750879550505050505092915050565b60006126758261326f565b61267f8185613336565b935083602082028501612691856131e9565b8060005b858110156126cc578484038952816126ad8582612389565b94506126b8836132dc565b925060208a01995050600181019050612695565b50829750879550505050505092915050565b60006126e98261327a565b6126f38185613347565b93506126fe836131fe565b8060005b8381101561272f578151612716888261239d565b9750612721836132e9565b925050600181019050612702565b5085935050505092915050565b60006127478261327a565b6127518185613358565b935061275c836131fe565b8060005b8381101561278d578151612774888261239d565b975061277f836132e9565b925050600181019050612760565b5085935050505092915050565b60006127a58261327a565b6127af8185613369565b93506127ba836131fe565b8060005b838110156127eb5781516127d288826123b5565b97506127dd836132e9565b9250506001810190506127be565b5085935050505092915050565b600061280382613285565b61280d8185613347565b93506128188361320e565b8060005b838110156128505761282d82613566565b612837888261239d565b9750612842836132f6565b92505060018101905061281c565b5085935050505092915050565b600061286882613285565b6128728185613369565b935061287d8361320e565b8060005b838110156128b55761289282613566565b61289c88826123b5565b97506128a7836132f6565b925050600181019050612881565b5085935050505092915050565b6128cb81613400565b82525050565b6128da81613400565b82525050565b6128e98161340c565b82525050565b60006128fb838561338b565b93506129088385846134a7565b61291183613579565b840190509392505050565b600061292782613290565b612931818561337a565b93506129418185602086016134b6565b61294a81613579565b840191505092915050565b6000815460018116600081146129725760018114612998576129dc565b607f6002830416612983818761337a565b955060ff1983168652602086019350506129dc565b600282046129a6818761337a565b95506129b185613223565b60005b828110156129d3578154818901526001820191506020810190506129b4565b80880195505050505b505092915050565b6129ed8161345f565b82525050565b6129fc81613483565b82525050565b6000612a0f60198361339c565b91507f556e657870656374656420746f6b656e2070726f7669646572000000000000006000830152602082019050919050565b60006101a083016000830151612a5b60008601826128e0565b5060208301518482036020860152612a73828261291c565b91505060408301518482036040860152612a8d82826123eb565b9150506060830151612aa260608601826123cd565b5060808301518482036080860152612aba82826123eb565b91505060a083015184820360a0860152612ad482826126de565b91505060c083015184820360c0860152612aee828261250c565b91505060e083015184820360e0860152612b0882826125f5565b915050610100830151612b1f6101008601826128c2565b50610120830151612b34610120860182612dbe565b50610140830151612b496101408601826123cd565b50610160830151848203610160860152612b6382826126de565b915050610180830151612b7a610180860182612dbe565b508091505092915050565b60006101a083016000808401549050612b9d8161351d565b612baa60008701826128e0565b50600184018583036020870152612bc18382612955565b925050600284018583036040870152612bda83826124a7565b92505060038401549050612bed816134e9565b612bfa60608701826123cd565b50600484018583036080870152612c1183826124a7565b9250506005840185830360a0870152612c2a83826127f8565b9250506006840185830360c0870152612c438382612581565b9250506007840185830360e0870152612c5c838261266a565b92505060088401549050612c6f81613503565b612c7d6101008701826128c2565b5060098401549050612c8e81613537565b612c9c610120870182612dbe565b50600a8401549050612cad816134e9565b612cbb6101408701826123cd565b50600b8401858303610160870152612cd383826127f8565b925050600c8401549050612ce681613537565b612cf4610180870182612dbe565b50819250505092915050565b8082525050565b6000606083016000830151612d1f60008601826123cd565b506020830151612d326020860182612dbe565b5060408301518482036040860152612d4a82826126de565b9150508091505092915050565b6000606083016000808401549050612d6e816134e9565b612d7b60008701826123cd565b5060018401549050612d8c81613537565b612d996020870182612dbe565b50600284018583036040870152612db083826127f8565b925050819250505092915050565b612dc781613448565b82525050565b612dd681613448565b82525050565b612de581613448565b82525050565b612df481613448565b82525050565b612e0381613452565b82525050565b6000606082019050612e1e60008301866123dc565b612e2b60208301856123dc565b612e386040830184612dcd565b949350505050565b60006040820190508181036000830152612e5a8185612449565b90508181036020830152612e6e818461273c565b90509392505050565b6000602082019050612e8c60008301846128d1565b92915050565b60006020820190508181036000830152612eab81612a02565b9050919050565b60006020820190508181036000830152612ecc8184612a42565b905092915050565b60006020820190508181036000830152612eee8184612b85565b905092915050565b6000602082019050612f0b6000830184612d00565b92915050565b6000606082019050612f266000830186612d00565b612f336020830185612ddc565b8181036040830152612f45818461279a565b9050949350505050565b6000606082019050612f646000830186612d00565b612f716020830185612ddc565b8181036040830152612f83818461285d565b9050949350505050565b6000606082019050612fa26000830186612d00565b612faf6020830185612ddc565b612fbc60408301846129e4565b949350505050565b600060c082019050612fd96000830189612d00565b612fe66020830188612ddc565b612ff360408301876129e4565b61300060608301866129f3565b61300d6080830185612dfa565b61301a60a0830184612ddc565b979650505050505050565b600060c08201905061303a600083018a612d00565b6130476020830189612ddc565b6130546040830188612ddc565b81810360608301526130678186886128ef565b905061307660808301856129f3565b61308360a0830184612dfa565b98975050505050505050565b60006020820190506130a46000830184612dcd565b92915050565b6000604051905081810181811067ffffffffffffffff821117156130d1576130d0613551565b5b8060405250919050565b600067ffffffffffffffff8211156130f6576130f5613551565b5b602082029050602081019050919050565b600067ffffffffffffffff82111561312257613121613551565b5b602082029050602081019050919050565b600067ffffffffffffffff82111561314e5761314d613551565b5b602082029050602081019050919050565b600067ffffffffffffffff82111561317a57613179613551565b5b601f19601f8301169050602081019050919050565b6000819050602082019050919050565b60008190508160005260206000209050919050565b6000819050602082019050919050565b60008190508160005260206000209050919050565b6000819050602082019050919050565b60008190508160005260206000209050919050565b6000819050602082019050919050565b60008190508160005260206000209050919050565b60008190508160005260206000209050919050565b600081519050919050565b600081549050919050565b600081519050919050565b600081549050919050565b600081519050919050565b600081549050919050565b600081519050919050565b600081549050919050565b600081519050919050565b6000602082019050919050565b6000600182019050919050565b6000602082019050919050565b6000600182019050919050565b6000602082019050919050565b6000600382019050919050565b6000602082019050919050565b6000600182019050919050565b600082825260208201905092915050565b600082825260208201905092915050565b600082825260208201905092915050565b600082825260208201905092915050565b600082825260208201905092915050565b600082825260208201905092915050565b600082825260208201905092915050565b600082825260208201905092915050565b600082825260208201905092915050565b600082825260208201905092915050565b600073ffffffffffffffffffffffffffffffffffffffff82169050919050565b600060ff82169050919050565b6000819050919050565b6000819050919050565b60006133f982613428565b9050919050565b60008115159050919050565b6000819050919050565b6000613421826133ee565b9050919050565b600073ffffffffffffffffffffffffffffffffffffffff82169050919050565b6000819050919050565b600060ff82169050919050565b600061346a82613471565b9050919050565b600061347c82613428565b9050919050565b600061348e82613495565b9050919050565b60006134a082613428565b9050919050565b82818337600083830152505050565b60005b838110156134d45780820151818401526020810190506134b9565b838111156134e3576000848401525b50505050565b60006134fc6134f78361358a565b6133ad565b9050919050565b60006135166135118361358a565b6133cd565b9050919050565b600061353061352b8361358a565b6133da565b9050919050565b600061354a6135458361358a565b6133e4565b9050919050565bfe5b600061355f82546134e9565b9050919050565b60006135728254613537565b9050919050565b6000601f19601f8301169050919050565b60008160001c9050919050565b6135a0816133ee565b81146135ab57600080fd5b50565b6135b781613400565b81146135c257600080fd5b50565b6135ce8161340c565b81146135d957600080fd5b50565b6135e581613416565b81146135f057600080fd5b50565b6135fc81613448565b811461360757600080fd5b5056fea26469706673582212207991580803411321b87bc20c64314cb6463fe0693301415854e91c209f71dec564736f6c63430007040033",
  "libraries": {
    "TurnBasedGameContext": "0xe6754F9292bf934710f9330811623e82068b2c6E"
  },
  "devdoc": {
    "kind": "dev",
    "methods": {
      "applyVerificationResult(uint256)": {
        "params": {
          "_index": "index identifying the game"
        }
      },
      "challengeGame(uint256)": {
        "params": {
          "_index": "index identifying the game"
        },
        "returns": {
          "_0": "index of the Descartes computation"
        }
      },
      "claimResult(uint256,uint256[])": {
        "params": {
          "_fundsShare": "result of the game given as a distribution of the funds previously locked",
          "_index": "index identifying the game"
        }
      },
      "confirmResult(uint256)": {
        "params": {
          "_index": "index identifying the game"
        }
      },
      "constructor": {
        "params": {
          "_allowedERC20Address": "address of the ERC20 compatible token provider",
          "_descartesAddress": "address of the Descartes contract",
          "_loggerAddress": "address of the Logger contract"
        }
      },
      "getContext(uint256)": {
        "params": {
          "_index": "index identifying the game"
        },
        "returns": {
          "_0": "GameContext struct for the specified game"
        }
      },
      "getState(uint256,address)": {
        "params": {
          "_index": "index identifying the game"
        },
        "returns": {
          "_isDescartesInstantiated": "whether an offchain Descartes computation has been instantiated for this game"
        }
      },
      "getSubInstances(uint256,address)": {
        "params": {
          "_index": "index identifying the game"
        }
      },
      "isConcerned(uint256,address)": {
        "params": {
          "_index": "index identifying the game",
          "_player": "a player's address"
        },
        "returns": {
          "_0": "true if the player is concerned about the game, false otherwise"
        }
      },
      "startGame(bytes32,bytes,address[],address,address[],uint256[],bytes[])": {
        "params": {
          "_gameERC20Address": "address for a ERC20 compatible token provider",
          "_gameMetadata": "game-specific initial metadata/parameters",
          "_gameTemplateHash": "template hash for the Cartesi Machine computation that verifies the game (identifies the game computation/logic)",
          "_gameValidators": "addresses of the validator nodes that will run a Descartes verification should it be needed",
          "_playerFunds": "funds/balances that each player is bringing into the game",
          "_playerInfos": "game-specific information for each player",
          "_players": "addresses of the players involved"
        },
        "returns": {
          "_0": "index of the game instance"
        }
      },
      "submitTurn(uint256,uint256,bytes)": {
        "params": {
          "_data": "game-specific turn data (array of 64-bit words)",
          "_index": "index identifying the game",
          "_turnIndex": "a sequential number for the turn, which must be equal to the last submitted turn's index + 1"
        }
      },
      "transferTokensToGameAccount(address,address,uint256[])": {
        "params": {
          "_holder": "account from where tokens will be transferred to the game",
          "_playerFunds": "amount of tokens from each player",
          "_tokenProvider": "ERC20 compatible token provider instance"
        }
      }
    },
    "title": "TurnBasedGame",
    "version": 1
  },
  "userdoc": {
    "kind": "user",
    "methods": {
      "applyVerificationResult(uint256)": {
        "notice": "Applies the result of a game verified by Descartes, transferring funds according to the Descartes computation output"
      },
      "challengeGame(uint256)": {
        "notice": "Challenges game state, triggering a verification by a Descartes computation"
      },
      "claimResult(uint256,uint256[])": {
        "notice": "Claims game has ended with the provided result (share of locked funds)"
      },
      "confirmResult(uint256)": {
        "notice": "Confirms game results previously claimed"
      },
      "constructor": {
        "notice": "Constructor"
      },
      "getContext(uint256)": {
        "notice": "Returns game context"
      },
      "getState(uint256,address)": {
        "notice": "Returns state of the instance for offchain usage concerning given validator."
      },
      "getSubInstances(uint256,address)": {
        "notice": "Retrieves sub-instances of the game (required method for Instantiator, used by offchain dispatcher code)."
      },
      "isConcerned(uint256,address)": {
        "notice": "Indicates whether a given player is concerned about a game"
      },
      "startGame(bytes32,bytes,address[],address,address[],uint256[],bytes[])": {
        "notice": "Starts a new game"
      },
      "submitTurn(uint256,uint256,bytes)": {
        "notice": "Submits a new turn for a given game"
      },
      "transferTokensToGameAccount(address,address,uint256[])": {
        "notice": "Transfer tokens to the game contract account"
      }
    },
    "notice": "Generic contract for handling turn-based games validated by Descartes computations",
    "version": 1
  },
  "storageLayout": {
    "storage": [
      {
        "astId": 674,
        "contract": "contracts/TurnBasedGame.sol:TurnBasedGame",
        "label": "currentIndex",
        "offset": 0,
        "slot": "0",
        "type": "t_uint256"
      },
      {
        "astId": 678,
        "contract": "contracts/TurnBasedGame.sol:TurnBasedGame",
        "label": "active",
        "offset": 0,
        "slot": "1",
        "type": "t_mapping(t_uint256,t_bool)"
      },
      {
        "astId": 682,
        "contract": "contracts/TurnBasedGame.sol:TurnBasedGame",
        "label": "nonce",
        "offset": 0,
        "slot": "2",
        "type": "t_mapping(t_uint256,t_uint256)"
      },
      {
        "astId": 2183,
        "contract": "contracts/TurnBasedGame.sol:TurnBasedGame",
        "label": "allowedERC20Address",
        "offset": 0,
        "slot": "3",
        "type": "t_address"
      },
      {
        "astId": 2188,
        "contract": "contracts/TurnBasedGame.sol:TurnBasedGame",
        "label": "descartes",
        "offset": 0,
        "slot": "4",
        "type": "t_contract(DescartesInterface)86"
      },
      {
        "astId": 2190,
        "contract": "contracts/TurnBasedGame.sol:TurnBasedGame",
        "label": "logger",
        "offset": 0,
        "slot": "5",
        "type": "t_contract(Logger)562"
      },
      {
        "astId": 2192,
        "contract": "contracts/TurnBasedGame.sol:TurnBasedGame",
        "label": "emptyDataLogIndex",
        "offset": 0,
        "slot": "6",
        "type": "t_uint256"
      },
      {
        "astId": 2199,
        "contract": "contracts/TurnBasedGame.sol:TurnBasedGame",
        "label": "instances",
        "offset": 0,
        "slot": "7",
        "type": "t_mapping(t_uint256,t_struct(GameContext)2748_storage)"
      }
    ],
    "types": {
      "t_address": {
        "encoding": "inplace",
        "label": "address",
        "numberOfBytes": "20"
      },
      "t_array(t_address)dyn_storage": {
        "base": "t_address",
        "encoding": "dynamic_array",
        "label": "address[]",
        "numberOfBytes": "32"
      },
      "t_array(t_bytes_storage)dyn_storage": {
        "base": "t_bytes_storage",
        "encoding": "dynamic_array",
        "label": "bytes[]",
        "numberOfBytes": "32"
      },
      "t_array(t_struct(Turn)2715_storage)dyn_storage": {
        "base": "t_struct(Turn)2715_storage",
        "encoding": "dynamic_array",
        "label": "struct Turn[]",
        "numberOfBytes": "32"
      },
      "t_array(t_uint256)dyn_storage": {
        "base": "t_uint256",
        "encoding": "dynamic_array",
        "label": "uint256[]",
        "numberOfBytes": "32"
      },
      "t_bool": {
        "encoding": "inplace",
        "label": "bool",
        "numberOfBytes": "1"
      },
      "t_bytes32": {
        "encoding": "inplace",
        "label": "bytes32",
        "numberOfBytes": "32"
      },
      "t_bytes_storage": {
        "encoding": "bytes",
        "label": "bytes",
        "numberOfBytes": "32"
      },
      "t_contract(DescartesInterface)86": {
        "encoding": "inplace",
        "label": "contract DescartesInterface",
        "numberOfBytes": "20"
      },
      "t_contract(Logger)562": {
        "encoding": "inplace",
        "label": "contract Logger",
        "numberOfBytes": "20"
      },
      "t_mapping(t_uint256,t_bool)": {
        "encoding": "mapping",
        "key": "t_uint256",
        "label": "mapping(uint256 => bool)",
        "numberOfBytes": "32",
        "value": "t_bool"
      },
      "t_mapping(t_uint256,t_struct(GameContext)2748_storage)": {
        "encoding": "mapping",
        "key": "t_uint256",
        "label": "mapping(uint256 => struct GameContext)",
        "numberOfBytes": "32",
        "value": "t_struct(GameContext)2748_storage"
      },
      "t_mapping(t_uint256,t_uint256)": {
        "encoding": "mapping",
        "key": "t_uint256",
        "label": "mapping(uint256 => uint256)",
        "numberOfBytes": "32",
        "value": "t_uint256"
      },
      "t_struct(GameContext)2748_storage": {
        "encoding": "inplace",
        "label": "struct GameContext",
        "members": [
          {
            "astId": 2717,
            "contract": "contracts/TurnBasedGame.sol:TurnBasedGame",
            "label": "gameTemplateHash",
            "offset": 0,
            "slot": "0",
            "type": "t_bytes32"
          },
          {
            "astId": 2719,
            "contract": "contracts/TurnBasedGame.sol:TurnBasedGame",
            "label": "gameMetadata",
            "offset": 0,
            "slot": "1",
            "type": "t_bytes_storage"
          },
          {
            "astId": 2722,
            "contract": "contracts/TurnBasedGame.sol:TurnBasedGame",
            "label": "gameValidators",
            "offset": 0,
            "slot": "2",
            "type": "t_array(t_address)dyn_storage"
          },
          {
            "astId": 2724,
            "contract": "contracts/TurnBasedGame.sol:TurnBasedGame",
            "label": "gameERC20Address",
            "offset": 0,
            "slot": "3",
            "type": "t_address"
          },
          {
            "astId": 2727,
            "contract": "contracts/TurnBasedGame.sol:TurnBasedGame",
            "label": "players",
            "offset": 0,
            "slot": "4",
            "type": "t_array(t_address)dyn_storage"
          },
          {
            "astId": 2730,
            "contract": "contracts/TurnBasedGame.sol:TurnBasedGame",
            "label": "playerFunds",
            "offset": 0,
            "slot": "5",
            "type": "t_array(t_uint256)dyn_storage"
          },
          {
            "astId": 2733,
            "contract": "contracts/TurnBasedGame.sol:TurnBasedGame",
            "label": "playerInfos",
            "offset": 0,
            "slot": "6",
            "type": "t_array(t_bytes_storage)dyn_storage"
          },
          {
            "astId": 2736,
            "contract": "contracts/TurnBasedGame.sol:TurnBasedGame",
            "label": "turns",
            "offset": 0,
            "slot": "7",
            "type": "t_array(t_struct(Turn)2715_storage)dyn_storage"
          },
          {
            "astId": 2738,
            "contract": "contracts/TurnBasedGame.sol:TurnBasedGame",
            "label": "isDescartesInstantiated",
            "offset": 0,
            "slot": "8",
            "type": "t_bool"
          },
          {
            "astId": 2740,
            "contract": "contracts/TurnBasedGame.sol:TurnBasedGame",
            "label": "descartesIndex",
            "offset": 0,
            "slot": "9",
            "type": "t_uint256"
          },
          {
            "astId": 2742,
            "contract": "contracts/TurnBasedGame.sol:TurnBasedGame",
            "label": "claimer",
            "offset": 0,
            "slot": "10",
            "type": "t_address"
          },
          {
            "astId": 2745,
            "contract": "contracts/TurnBasedGame.sol:TurnBasedGame",
            "label": "claimedFundsShare",
            "offset": 0,
            "slot": "11",
            "type": "t_array(t_uint256)dyn_storage"
          },
          {
            "astId": 2747,
            "contract": "contracts/TurnBasedGame.sol:TurnBasedGame",
            "label": "claimAgreementMask",
            "offset": 0,
            "slot": "12",
            "type": "t_uint256"
          }
        ],
        "numberOfBytes": "416"
      },
      "t_struct(Turn)2715_storage": {
        "encoding": "inplace",
        "label": "struct Turn",
        "members": [
          {
            "astId": 2709,
            "contract": "contracts/TurnBasedGame.sol:TurnBasedGame",
            "label": "player",
            "offset": 0,
            "slot": "0",
            "type": "t_address"
          },
          {
            "astId": 2711,
            "contract": "contracts/TurnBasedGame.sol:TurnBasedGame",
            "label": "timestamp",
            "offset": 0,
            "slot": "1",
            "type": "t_uint256"
          },
          {
            "astId": 2714,
            "contract": "contracts/TurnBasedGame.sol:TurnBasedGame",
            "label": "dataLogIndices",
            "offset": 0,
            "slot": "2",
            "type": "t_array(t_uint256)dyn_storage"
          }
        ],
        "numberOfBytes": "96"
      },
      "t_uint256": {
        "encoding": "inplace",
        "label": "uint256",
        "numberOfBytes": "32"
      }
    }
  }
}